{
  "_format": "hh-sol-artifact-1",
  "contractName": "Reviews",
  "sourceName": "contracts/customc/Reviews.sol",
  "abi": [
    {
      "inputs": [
        {
          "internalType": "address",
          "name": "_bridgeAddr",
          "type": "address"
        },
        {
          "internalType": "address",
          "name": "_permissionHandlerAddr",
          "type": "address"
        },
        {
          "internalType": "address",
          "name": "_permissionTokenAddr",
          "type": "address"
        },
        {
          "internalType": "bytes32",
          "name": "_resourceID",
          "type": "bytes32"
        }
      ],
      "stateMutability": "nonpayable",
      "type": "constructor"
    },
    {
      "anonymous": false,
      "inputs": [
        {
          "indexed": false,
          "internalType": "address",
          "name": "user",
          "type": "address"
        },
        {
          "indexed": false,
          "internalType": "uint256",
          "name": "rewardReleased",
          "type": "uint256"
        }
      ],
      "name": "descountReleased",
      "type": "event"
    },
    {
      "anonymous": false,
      "inputs": [
        {
          "indexed": false,
          "internalType": "address",
          "name": "user",
          "type": "address"
        },
        {
          "indexed": false,
          "internalType": "uint256",
          "name": "vote",
          "type": "uint256"
        }
      ],
      "name": "reviewRilasciata",
      "type": "event"
    },
    {
      "inputs": [],
      "name": "checkPermission",
      "outputs": [
        {
          "internalType": "bool",
          "name": "",
          "type": "bool"
        }
      ],
      "stateMutability": "view",
      "type": "function"
    },
    {
      "inputs": [],
      "name": "getReviewsNumber",
      "outputs": [
        {
          "internalType": "uint256",
          "name": "",
          "type": "uint256"
        }
      ],
      "stateMutability": "view",
      "type": "function"
    },
    {
      "inputs": [],
      "name": "getReviewsSum",
      "outputs": [
        {
          "internalType": "uint256",
          "name": "",
          "type": "uint256"
        }
      ],
      "stateMutability": "view",
      "type": "function"
    },
    {
      "inputs": [],
      "name": "getReward",
      "outputs": [
        {
          "internalType": "uint256",
          "name": "",
          "type": "uint256"
        }
      ],
      "stateMutability": "view",
      "type": "function"
    },
    {
      "inputs": [
        {
          "internalType": "uint8",
          "name": "vote",
          "type": "uint8"
        }
      ],
      "name": "reviewRestaurant",
      "outputs": [],
      "stateMutability": "payable",
      "type": "function"
    },
    {
      "inputs": [
        {
          "internalType": "uint256",
          "name": "rewardAmount",
          "type": "uint256"
        }
      ],
      "name": "setReward",
      "outputs": [],
      "stateMutability": "nonpayable",
      "type": "function"
    },
    {
      "inputs": [
        {
          "internalType": "address",
          "name": "user",
          "type": "address"
        }
      ],
      "name": "setUserPermission",
      "outputs": [],
      "stateMutability": "nonpayable",
      "type": "function"
    },
    {
      "inputs": [
        {
          "internalType": "address",
          "name": "",
          "type": "address"
        }
      ],
      "name": "usersPermissions",
      "outputs": [
        {
          "internalType": "bool",
          "name": "",
          "type": "bool"
        }
      ],
      "stateMutability": "view",
      "type": "function"
    },
    {
      "inputs": [
        {
          "internalType": "address",
          "name": "",
          "type": "address"
        }
      ],
      "name": "usersReviews",
      "outputs": [
        {
          "internalType": "uint8",
          "name": "",
          "type": "uint8"
        }
      ],
      "stateMutability": "view",
      "type": "function"
    }
  ],
  "bytecode": "0x608060405260146007553480156200001657600080fd5b506040516200144a3803806200144a83398181016040528101906200003c9190620001f6565b33600360006101000a81548173ffffffffffffffffffffffffffffffffffffffff021916908373ffffffffffffffffffffffffffffffffffffffff16021790555081600560006101000a81548173ffffffffffffffffffffffffffffffffffffffff021916908373ffffffffffffffffffffffffffffffffffffffff16021790555083600460006101000a81548173ffffffffffffffffffffffffffffffffffffffff021916908373ffffffffffffffffffffffffffffffffffffffff16021790555082600660006101000a81548173ffffffffffffffffffffffffffffffffffffffff021916908373ffffffffffffffffffffffffffffffffffffffff160217905550806002819055505050505062000268565b600080fd5b600073ffffffffffffffffffffffffffffffffffffffff82169050919050565b6000620001838262000156565b9050919050565b620001958162000176565b8114620001a157600080fd5b50565b600081519050620001b5816200018a565b92915050565b6000819050919050565b620001d081620001bb565b8114620001dc57600080fd5b50565b600081519050620001f081620001c5565b92915050565b6000806000806080858703121562000213576200021262000151565b5b60006200022387828801620001a4565b94505060206200023687828801620001a4565b93505060406200024987828801620001a4565b92505060606200025c87828801620001df565b91505092959194509250565b6111d280620002786000396000f3fe6080604052600436106100865760003560e01c80635a1c5830116100595780635a1c5830146101475780636ecb813e14610172578063a1eb221a146101af578063c0d6e851146101d8578063dc5ca0671461020357610086565b8063066e77ef1461008b578063293be456146100b657806335c052f6146100df5780633d18b9121461011c575b600080fd5b34801561009757600080fd5b506100a061021f565b6040516100ad9190610a7e565b60405180910390f35b3480156100c257600080fd5b506100dd60048036038101906100d89190610aca565b610229565b005b3480156100eb57600080fd5b5061010660048036038101906101019190610b55565b61035e565b6040516101139190610b9e565b60405180910390f35b34801561012857600080fd5b5061013161037e565b60405161013e9190610a7e565b60405180910390f35b34801561015357600080fd5b5061015c610388565b6040516101699190610bd4565b60405180910390f35b34801561017e57600080fd5b5061019960048036038101906101949190610b55565b6103dc565b6040516101a69190610bd4565b60405180910390f35b3480156101bb57600080fd5b506101d660048036038101906101d19190610b55565b6103fc565b005b3480156101e457600080fd5b506101ed61053e565b6040516101fa9190610a7e565b60405180910390f35b61021d60048036038101906102189190610c1b565b610548565b005b6000600954905090565b600360009054906101000a900473ffffffffffffffffffffffffffffffffffffffff1673ffffffffffffffffffffffffffffffffffffffff163373ffffffffffffffffffffffffffffffffffffffff1614806102d25750600460009054906101000a900473ffffffffffffffffffffffffffffffffffffffff1673ffffffffffffffffffffffffffffffffffffffff163373ffffffffffffffffffffffffffffffffffffffff16145b610311576040517f08c379a000000000000000000000000000000000000000000000000000000000815260040161030890610ccb565b60405180910390fd5b60008111610354576040517f08c379a000000000000000000000000000000000000000000000000000000000815260040161034b90610d5d565b60405180910390fd5b8060078190555050565b60006020528060005260406000206000915054906101000a900460ff1681565b6000600754905090565b6000600160003373ffffffffffffffffffffffffffffffffffffffff1673ffffffffffffffffffffffffffffffffffffffff16815260200190815260200160002060009054906101000a900460ff16905090565b60016020528060005260406000206000915054906101000a900460ff1681565b600360009054906101000a900473ffffffffffffffffffffffffffffffffffffffff1673ffffffffffffffffffffffffffffffffffffffff163373ffffffffffffffffffffffffffffffffffffffff1614806104a55750600460009054906101000a900473ffffffffffffffffffffffffffffffffffffffff1673ffffffffffffffffffffffffffffffffffffffff163373ffffffffffffffffffffffffffffffffffffffff16145b6104e4576040517f08c379a00000000000000000000000000000000000000000000000000000000081526004016104db90610ccb565b60405180910390fd5b60018060008373ffffffffffffffffffffffffffffffffffffffff1673ffffffffffffffffffffffffffffffffffffffff16815260200190815260200160002060006101000a81548160ff02191690831515021790555050565b6000600854905090565b60011515600160003373ffffffffffffffffffffffffffffffffffffffff1673ffffffffffffffffffffffffffffffffffffffff16815260200190815260200160002060009054906101000a900460ff161515146105a557600080fd5b60008160ff16101580156105bd5750600a8160ff1611155b6105fc576040517f08c379a00000000000000000000000000000000000000000000000000000000081526004016105f390610def565b60405180910390fd5b61062b600560009054906101000a900473ffffffffffffffffffffffffffffffffffffffff16306007546109ed565b600560009054906101000a900473ffffffffffffffffffffffffffffffffffffffff1673ffffffffffffffffffffffffffffffffffffffff1663095ea7b3600660009054906101000a900473ffffffffffffffffffffffffffffffffffffffff166007546040518363ffffffff1660e01b81526004016106ac929190610e1e565b6020604051808303816000875af11580156106cb573d6000803e3d6000fd5b505050506040513d601f19601f820116820180604052508101906106ef9190610e73565b5060008060003373ffffffffffffffffffffffffffffffffffffffff1673ffffffffffffffffffffffffffffffffffffffff16815260200190815260200160002060009054906101000a900460ff1660ff161415610780578060ff166008600082825461075c9190610ecf565b925050819055506009600081548092919061077690610f25565b9190505550610804565b6000803373ffffffffffffffffffffffffffffffffffffffff1673ffffffffffffffffffffffffffffffffffffffff16815260200190815260200160002060009054906101000a900460ff1660ff16600860008282546107e09190610f6e565b925050819055508060ff16600860008282546107fc9190610ecf565b925050819055505b806000803373ffffffffffffffffffffffffffffffffffffffff1673ffffffffffffffffffffffffffffffffffffffff16815260200190815260200160002060006101000a81548160ff021916908360ff160217905550600160003373ffffffffffffffffffffffffffffffffffffffff1673ffffffffffffffffffffffffffffffffffffffff16815260200190815260200160002060006101000a81549060ff02191690557fd006a679ae615ea14b473524df4e17fac12990e8e26a243d300ad882a7bf334933826040516108db929190610fdd565b60405180910390a1600060149050600060075482336040516020016109029392919061106f565b6040516020818303038152906040529050600060019050600460009054906101000a900473ffffffffffffffffffffffffffffffffffffffff1673ffffffffffffffffffffffffffffffffffffffff166305e2ca1782600254856040518463ffffffff1660e01b815260040161097a9392919061115e565b600060405180830381600087803b15801561099457600080fd5b505af11580156109a8573d6000803e3d6000fd5b505050507f72cccbd4d04f9d3d6d91a6da39f00440ad1921f275d280e224eb416a5a5b7c43336007546040516109df929190610e1e565b60405180910390a150505050565b60008390508073ffffffffffffffffffffffffffffffffffffffff166340c10f1984846040518363ffffffff1660e01b8152600401610a2d929190610e1e565b600060405180830381600087803b158015610a4757600080fd5b505af1158015610a5b573d6000803e3d6000fd5b5050505050505050565b6000819050919050565b610a7881610a65565b82525050565b6000602082019050610a936000830184610a6f565b92915050565b600080fd5b610aa781610a65565b8114610ab257600080fd5b50565b600081359050610ac481610a9e565b92915050565b600060208284031215610ae057610adf610a99565b5b6000610aee84828501610ab5565b91505092915050565b600073ffffffffffffffffffffffffffffffffffffffff82169050919050565b6000610b2282610af7565b9050919050565b610b3281610b17565b8114610b3d57600080fd5b50565b600081359050610b4f81610b29565b92915050565b600060208284031215610b6b57610b6a610a99565b5b6000610b7984828501610b40565b91505092915050565b600060ff82169050919050565b610b9881610b82565b82525050565b6000602082019050610bb36000830184610b8f565b92915050565b60008115159050919050565b610bce81610bb9565b82525050565b6000602082019050610be96000830184610bc5565b92915050565b610bf881610b82565b8114610c0357600080fd5b50565b600081359050610c1581610bef565b92915050565b600060208284031215610c3157610c30610a99565b5b6000610c3f84828501610c06565b91505092915050565b600082825260208201905092915050565b7f4f6e6c79207468652072657374617572616e74206f776e65722063616e20736560008201527f742061207065726d697373696f6e2f7265776172640000000000000000000000602082015250565b6000610cb5603583610c48565b9150610cc082610c59565b604082019050919050565b60006020820190508181036000830152610ce481610ca8565b9050919050565b7f54686520726577617264206d75737420626520612076616c756520677265617460008201527f6572207468616e20300000000000000000000000000000000000000000000000602082015250565b6000610d47602983610c48565b9150610d5282610ceb565b604082019050919050565b60006020820190508181036000830152610d7681610d3a565b9050919050565b7f566f7465206d75737420626520612076616c7565206265747765656e2030206160008201527f6e64203130000000000000000000000000000000000000000000000000000000602082015250565b6000610dd9602583610c48565b9150610de482610d7d565b604082019050919050565b60006020820190508181036000830152610e0881610dcc565b9050919050565b610e1881610b17565b82525050565b6000604082019050610e336000830185610e0f565b610e406020830184610a6f565b9392505050565b610e5081610bb9565b8114610e5b57600080fd5b50565b600081519050610e6d81610e47565b92915050565b600060208284031215610e8957610e88610a99565b5b6000610e9784828501610e5e565b91505092915050565b7f4e487b7100000000000000000000000000000000000000000000000000000000600052601160045260246000fd5b6000610eda82610a65565b9150610ee583610a65565b9250827fffffffffffffffffffffffffffffffffffffffffffffffffffffffffffffffff03821115610f1a57610f19610ea0565b5b828201905092915050565b6000610f3082610a65565b91507fffffffffffffffffffffffffffffffffffffffffffffffffffffffffffffffff821415610f6357610f62610ea0565b5b600182019050919050565b6000610f7982610a65565b9150610f8483610a65565b925082821015610f9757610f96610ea0565b5b828203905092915050565b6000819050919050565b6000610fc7610fc2610fbd84610b82565b610fa2565b610a65565b9050919050565b610fd781610fac565b82525050565b6000604082019050610ff26000830185610e0f565b610fff6020830184610fce565b9392505050565b6000819050919050565b61102161101c82610a65565b611006565b82525050565b60008160601b9050919050565b600061103f82611027565b9050919050565b600061105182611034565b9050919050565b61106961106482610b17565b611046565b82525050565b600061107b8286611010565b60208201915061108b8285611010565b60208201915061109b8284611058565b601482019150819050949350505050565b6000819050919050565b6110bf816110ac565b82525050565b600081519050919050565b600082825260208201905092915050565b60005b838110156110ff5780820151818401526020810190506110e4565b8381111561110e576000848401525b50505050565b6000601f19601f8301169050919050565b6000611130826110c5565b61113a81856110d0565b935061114a8185602086016110e1565b61115381611114565b840191505092915050565b60006060820190506111736000830186610b8f565b61118060208301856110b6565b81810360408301526111928184611125565b905094935050505056fea264697066735822122011b22de3c7b4153e4b60e379688f8a1f3f38e050b064025cffed7bf1df498d7364736f6c634300080b0033",
  "linkReferences": {},
  "deployedLinkReferences": {}
}