{
  "_format": "hh-sol-artifact-1",
  "contractName": "Reviews",
  "sourceName": "contracts/customc/Reviews.sol",
  "abi": [
    {
      "inputs": [
        {
          "internalType": "address",
          "name": "_bridgeAddr",
          "type": "address"
        },
        {
          "internalType": "address",
          "name": "_permissionHandlerAddr",
          "type": "address"
        },
        {
          "internalType": "address",
          "name": "_permissionTokenAddr",
          "type": "address"
        },
        {
          "internalType": "bytes32",
          "name": "_resourceID",
          "type": "bytes32"
        }
      ],
      "stateMutability": "nonpayable",
      "type": "constructor"
    },
    {
      "anonymous": false,
      "inputs": [
        {
          "indexed": false,
          "internalType": "address",
          "name": "user",
          "type": "address"
        },
        {
          "indexed": false,
          "internalType": "uint256",
          "name": "rewardReleased",
          "type": "uint256"
        }
      ],
      "name": "descountReleased",
      "type": "event"
    },
    {
      "anonymous": false,
      "inputs": [
        {
          "indexed": false,
          "internalType": "address",
          "name": "user",
          "type": "address"
        },
        {
          "indexed": false,
          "internalType": "uint256",
          "name": "vote",
          "type": "uint256"
        }
      ],
      "name": "reviewRilasciata",
      "type": "event"
    },
    {
      "inputs": [],
      "name": "checkPermission",
      "outputs": [
        {
          "internalType": "bool",
          "name": "",
          "type": "bool"
        }
      ],
      "stateMutability": "view",
      "type": "function"
    },
    {
      "inputs": [],
      "name": "getReviewsNumber",
      "outputs": [
        {
          "internalType": "uint256",
          "name": "",
          "type": "uint256"
        }
      ],
      "stateMutability": "view",
      "type": "function"
    },
    {
      "inputs": [],
      "name": "getReviewsSum",
      "outputs": [
        {
          "internalType": "uint256",
          "name": "",
          "type": "uint256"
        }
      ],
      "stateMutability": "view",
      "type": "function"
    },
    {
      "inputs": [],
      "name": "getReward",
      "outputs": [
        {
          "internalType": "uint256",
          "name": "",
          "type": "uint256"
        }
      ],
      "stateMutability": "view",
      "type": "function"
    },
    {
      "inputs": [
        {
          "internalType": "uint8",
          "name": "vote",
          "type": "uint8"
        }
      ],
      "name": "reviewRestaurant",
      "outputs": [],
      "stateMutability": "payable",
      "type": "function"
    },
    {
      "inputs": [
        {
          "internalType": "uint256",
          "name": "rewardAmount",
          "type": "uint256"
        }
      ],
      "name": "setReward",
      "outputs": [],
      "stateMutability": "nonpayable",
      "type": "function"
    },
    {
      "inputs": [
        {
          "internalType": "address",
          "name": "user",
          "type": "address"
        }
      ],
      "name": "setUserPermission",
      "outputs": [],
      "stateMutability": "nonpayable",
      "type": "function"
    },
    {
      "inputs": [
        {
          "internalType": "address",
          "name": "",
          "type": "address"
        }
      ],
      "name": "usersPermissions",
      "outputs": [
        {
          "internalType": "bool",
          "name": "",
          "type": "bool"
        }
      ],
      "stateMutability": "view",
      "type": "function"
    },
    {
      "inputs": [
        {
          "internalType": "address",
          "name": "",
          "type": "address"
        }
      ],
      "name": "usersReviews",
      "outputs": [
        {
          "internalType": "uint8",
          "name": "",
          "type": "uint8"
        }
      ],
      "stateMutability": "view",
      "type": "function"
    }
  ],
  "bytecode": "0x608060405260146007553480156200001657600080fd5b506040516200162d3803806200162d83398181016040528101906200003c9190620001f6565b33600360006101000a81548173ffffffffffffffffffffffffffffffffffffffff021916908373ffffffffffffffffffffffffffffffffffffffff16021790555081600560006101000a81548173ffffffffffffffffffffffffffffffffffffffff021916908373ffffffffffffffffffffffffffffffffffffffff16021790555083600460006101000a81548173ffffffffffffffffffffffffffffffffffffffff021916908373ffffffffffffffffffffffffffffffffffffffff16021790555082600660006101000a81548173ffffffffffffffffffffffffffffffffffffffff021916908373ffffffffffffffffffffffffffffffffffffffff160217905550806002819055505050505062000268565b600080fd5b600073ffffffffffffffffffffffffffffffffffffffff82169050919050565b6000620001838262000156565b9050919050565b620001958162000176565b8114620001a157600080fd5b50565b600081519050620001b5816200018a565b92915050565b6000819050919050565b620001d081620001bb565b8114620001dc57600080fd5b50565b600081519050620001f081620001c5565b92915050565b6000806000806080858703121562000213576200021262000151565b5b60006200022387828801620001a4565b94505060206200023687828801620001a4565b93505060406200024987828801620001a4565b92505060606200025c87828801620001df565b91505092959194509250565b6113b580620002786000396000f3fe6080604052600436106100865760003560e01c80635a1c5830116100595780635a1c5830146101475780636ecb813e14610172578063a1eb221a146101af578063c0d6e851146101d8578063dc5ca0671461020357610086565b8063066e77ef1461008b578063293be456146100b657806335c052f6146100df5780633d18b9121461011c575b600080fd5b34801561009757600080fd5b506100a061021f565b6040516100ad9190610ba0565b60405180910390f35b3480156100c257600080fd5b506100dd60048036038101906100d89190610bec565b610229565b005b3480156100eb57600080fd5b5061010660048036038101906101019190610c77565b61035e565b6040516101139190610cc0565b60405180910390f35b34801561012857600080fd5b5061013161037e565b60405161013e9190610ba0565b60405180910390f35b34801561015357600080fd5b5061015c610388565b6040516101699190610cf6565b60405180910390f35b34801561017e57600080fd5b5061019960048036038101906101949190610c77565b6103dc565b6040516101a69190610cf6565b60405180910390f35b3480156101bb57600080fd5b506101d660048036038101906101d19190610c77565b6103fc565b005b3480156101e457600080fd5b506101ed61053e565b6040516101fa9190610ba0565b60405180910390f35b61021d60048036038101906102189190610d3d565b610548565b005b6000600954905090565b600360009054906101000a900473ffffffffffffffffffffffffffffffffffffffff1673ffffffffffffffffffffffffffffffffffffffff163373ffffffffffffffffffffffffffffffffffffffff1614806102d25750600460009054906101000a900473ffffffffffffffffffffffffffffffffffffffff1673ffffffffffffffffffffffffffffffffffffffff163373ffffffffffffffffffffffffffffffffffffffff16145b610311576040517f08c379a000000000000000000000000000000000000000000000000000000000815260040161030890610ded565b60405180910390fd5b60008111610354576040517f08c379a000000000000000000000000000000000000000000000000000000000815260040161034b90610e7f565b60405180910390fd5b8060078190555050565b60006020528060005260406000206000915054906101000a900460ff1681565b6000600754905090565b6000600160003373ffffffffffffffffffffffffffffffffffffffff1673ffffffffffffffffffffffffffffffffffffffff16815260200190815260200160002060009054906101000a900460ff16905090565b60016020528060005260406000206000915054906101000a900460ff1681565b600360009054906101000a900473ffffffffffffffffffffffffffffffffffffffff1673ffffffffffffffffffffffffffffffffffffffff163373ffffffffffffffffffffffffffffffffffffffff1614806104a55750600460009054906101000a900473ffffffffffffffffffffffffffffffffffffffff1673ffffffffffffffffffffffffffffffffffffffff163373ffffffffffffffffffffffffffffffffffffffff16145b6104e4576040517f08c379a00000000000000000000000000000000000000000000000000000000081526004016104db90610ded565b60405180910390fd5b60018060008373ffffffffffffffffffffffffffffffffffffffff1673ffffffffffffffffffffffffffffffffffffffff16815260200190815260200160002060006101000a81548160ff02191690831515021790555050565b6000600854905090565b6000600560009054906101000a900473ffffffffffffffffffffffffffffffffffffffff1673ffffffffffffffffffffffffffffffffffffffff166370a08231336040518263ffffffff1660e01b81526004016105a59190610eae565b602060405180830381865afa1580156105c2573d6000803e3d6000fd5b505050506040513d601f19601f820116820180604052508101906105e69190610ede565b116105f057600080fd5b60011515600160003373ffffffffffffffffffffffffffffffffffffffff1673ffffffffffffffffffffffffffffffffffffffff16815260200190815260200160002060009054906101000a900460ff1615151461064d57600080fd5b60008160ff16101580156106655750600a8160ff1611155b6106a4576040517f08c379a000000000000000000000000000000000000000000000000000000000815260040161069b90610f7d565b60405180910390fd5b600560009054906101000a900473ffffffffffffffffffffffffffffffffffffffff1673ffffffffffffffffffffffffffffffffffffffff166379cc67903360016040518363ffffffff1660e01b8152600401610702929190610fe2565b600060405180830381600087803b15801561071c57600080fd5b505af1158015610730573d6000803e3d6000fd5b50505050600560009054906101000a900473ffffffffffffffffffffffffffffffffffffffff1673ffffffffffffffffffffffffffffffffffffffff166340c10f19306007546040518363ffffffff1660e01b815260040161079392919061100b565b600060405180830381600087803b1580156107ad57600080fd5b505af11580156107c1573d6000803e3d6000fd5b50505050600560009054906101000a900473ffffffffffffffffffffffffffffffffffffffff1673ffffffffffffffffffffffffffffffffffffffff1663095ea7b3600660009054906101000a900473ffffffffffffffffffffffffffffffffffffffff166007546040518363ffffffff1660e01b815260040161084692919061100b565b6020604051808303816000875af1158015610865573d6000803e3d6000fd5b505050506040513d601f19601f820116820180604052508101906108899190611060565b5060008060003373ffffffffffffffffffffffffffffffffffffffff1673ffffffffffffffffffffffffffffffffffffffff16815260200190815260200160002060009054906101000a900460ff1660ff16141561091a578060ff16600860008282546108f691906110bc565b925050819055506009600081548092919061091090611112565b919050555061099e565b6000803373ffffffffffffffffffffffffffffffffffffffff1673ffffffffffffffffffffffffffffffffffffffff16815260200190815260200160002060009054906101000a900460ff1660ff166008600082825461097a919061115b565b925050819055508060ff166008600082825461099691906110bc565b925050819055505b806000803373ffffffffffffffffffffffffffffffffffffffff1673ffffffffffffffffffffffffffffffffffffffff16815260200190815260200160002060006101000a81548160ff021916908360ff160217905550600160003373ffffffffffffffffffffffffffffffffffffffff1673ffffffffffffffffffffffffffffffffffffffff16815260200190815260200160002060006101000a81549060ff02191690557fd006a679ae615ea14b473524df4e17fac12990e8e26a243d300ad882a7bf33493382604051610a759291906111c0565b60405180910390a160006014905060006007548233604051602001610a9c93929190611252565b6040516020818303038152906040529050600060019050600460009054906101000a900473ffffffffffffffffffffffffffffffffffffffff1673ffffffffffffffffffffffffffffffffffffffff166305e2ca1782600254856040518463ffffffff1660e01b8152600401610b1493929190611341565b600060405180830381600087803b158015610b2e57600080fd5b505af1158015610b42573d6000803e3d6000fd5b505050507f72cccbd4d04f9d3d6d91a6da39f00440ad1921f275d280e224eb416a5a5b7c4333600754604051610b7992919061100b565b60405180910390a150505050565b6000819050919050565b610b9a81610b87565b82525050565b6000602082019050610bb56000830184610b91565b92915050565b600080fd5b610bc981610b87565b8114610bd457600080fd5b50565b600081359050610be681610bc0565b92915050565b600060208284031215610c0257610c01610bbb565b5b6000610c1084828501610bd7565b91505092915050565b600073ffffffffffffffffffffffffffffffffffffffff82169050919050565b6000610c4482610c19565b9050919050565b610c5481610c39565b8114610c5f57600080fd5b50565b600081359050610c7181610c4b565b92915050565b600060208284031215610c8d57610c8c610bbb565b5b6000610c9b84828501610c62565b91505092915050565b600060ff82169050919050565b610cba81610ca4565b82525050565b6000602082019050610cd56000830184610cb1565b92915050565b60008115159050919050565b610cf081610cdb565b82525050565b6000602082019050610d0b6000830184610ce7565b92915050565b610d1a81610ca4565b8114610d2557600080fd5b50565b600081359050610d3781610d11565b92915050565b600060208284031215610d5357610d52610bbb565b5b6000610d6184828501610d28565b91505092915050565b600082825260208201905092915050565b7f4f6e6c79207468652072657374617572616e74206f776e65722063616e20736560008201527f742061207065726d697373696f6e2f7265776172640000000000000000000000602082015250565b6000610dd7603583610d6a565b9150610de282610d7b565b604082019050919050565b60006020820190508181036000830152610e0681610dca565b9050919050565b7f54686520726577617264206d75737420626520612076616c756520677265617460008201527f6572207468616e20300000000000000000000000000000000000000000000000602082015250565b6000610e69602983610d6a565b9150610e7482610e0d565b604082019050919050565b60006020820190508181036000830152610e9881610e5c565b9050919050565b610ea881610c39565b82525050565b6000602082019050610ec36000830184610e9f565b92915050565b600081519050610ed881610bc0565b92915050565b600060208284031215610ef457610ef3610bbb565b5b6000610f0284828501610ec9565b91505092915050565b7f566f7465206d75737420626520612076616c7565206265747765656e2030206160008201527f6e64203130000000000000000000000000000000000000000000000000000000602082015250565b6000610f67602583610d6a565b9150610f7282610f0b565b604082019050919050565b60006020820190508181036000830152610f9681610f5a565b9050919050565b6000819050919050565b6000819050919050565b6000610fcc610fc7610fc284610f9d565b610fa7565b610b87565b9050919050565b610fdc81610fb1565b82525050565b6000604082019050610ff76000830185610e9f565b6110046020830184610fd3565b9392505050565b60006040820190506110206000830185610e9f565b61102d6020830184610b91565b9392505050565b61103d81610cdb565b811461104857600080fd5b50565b60008151905061105a81611034565b92915050565b60006020828403121561107657611075610bbb565b5b60006110848482850161104b565b91505092915050565b7f4e487b7100000000000000000000000000000000000000000000000000000000600052601160045260246000fd5b60006110c782610b87565b91506110d283610b87565b9250827fffffffffffffffffffffffffffffffffffffffffffffffffffffffffffffffff038211156111075761110661108d565b5b828201905092915050565b600061111d82610b87565b91507fffffffffffffffffffffffffffffffffffffffffffffffffffffffffffffffff8214156111505761114f61108d565b5b600182019050919050565b600061116682610b87565b915061117183610b87565b9250828210156111845761118361108d565b5b828203905092915050565b60006111aa6111a56111a084610ca4565b610fa7565b610b87565b9050919050565b6111ba8161118f565b82525050565b60006040820190506111d56000830185610e9f565b6111e260208301846111b1565b9392505050565b6000819050919050565b6112046111ff82610b87565b6111e9565b82525050565b60008160601b9050919050565b60006112228261120a565b9050919050565b600061123482611217565b9050919050565b61124c61124782610c39565b611229565b82525050565b600061125e82866111f3565b60208201915061126e82856111f3565b60208201915061127e828461123b565b601482019150819050949350505050565b6000819050919050565b6112a28161128f565b82525050565b600081519050919050565b600082825260208201905092915050565b60005b838110156112e25780820151818401526020810190506112c7565b838111156112f1576000848401525b50505050565b6000601f19601f8301169050919050565b6000611313826112a8565b61131d81856112b3565b935061132d8185602086016112c4565b611336816112f7565b840191505092915050565b60006060820190506113566000830186610cb1565b6113636020830185611299565b81810360408301526113758184611308565b905094935050505056fea264697066735822122026752eb049dffc286244925dcca5061b58d2aef76498f4cb4f0ea267e1af584964736f6c634300080b0033",
  "linkReferences": {},
  "deployedLinkReferences": {}
}