{
	"sygma-solidity/contracts/handlers/HandlerHelpers.sol": {
		"HandlerHelpers": {
			"abi": [
				{
					"inputs": [
						{
							"internalType": "address",
							"name": "bridgeAddress",
							"type": "address"
						}
					],
					"stateMutability": "nonpayable",
					"type": "constructor"
				},
				{
					"inputs": [],
					"name": "_bridgeAddress",
					"outputs": [
						{
							"internalType": "address",
							"name": "",
							"type": "address"
						}
					],
					"stateMutability": "view",
					"type": "function"
				},
				{
					"inputs": [
						{
							"internalType": "address",
							"name": "",
							"type": "address"
						}
					],
					"name": "_burnList",
					"outputs": [
						{
							"internalType": "bool",
							"name": "",
							"type": "bool"
						}
					],
					"stateMutability": "view",
					"type": "function"
				},
				{
					"inputs": [
						{
							"internalType": "address",
							"name": "",
							"type": "address"
						}
					],
					"name": "_contractWhitelist",
					"outputs": [
						{
							"internalType": "bool",
							"name": "",
							"type": "bool"
						}
					],
					"stateMutability": "view",
					"type": "function"
				},
				{
					"inputs": [
						{
							"internalType": "bytes32",
							"name": "",
							"type": "bytes32"
						}
					],
					"name": "_resourceIDToTokenContractAddress",
					"outputs": [
						{
							"internalType": "address",
							"name": "",
							"type": "address"
						}
					],
					"stateMutability": "view",
					"type": "function"
				},
				{
					"inputs": [
						{
							"internalType": "address",
							"name": "",
							"type": "address"
						}
					],
					"name": "_tokenContractAddressToResourceID",
					"outputs": [
						{
							"internalType": "bytes32",
							"name": "",
							"type": "bytes32"
						}
					],
					"stateMutability": "view",
					"type": "function"
				},
				{
					"inputs": [
						{
							"internalType": "address",
							"name": "contractAddress",
							"type": "address"
						}
					],
					"name": "setBurnable",
					"outputs": [],
					"stateMutability": "nonpayable",
					"type": "function"
				},
				{
					"inputs": [
						{
							"internalType": "bytes32",
							"name": "resourceID",
							"type": "bytes32"
						},
						{
							"internalType": "address",
							"name": "contractAddress",
							"type": "address"
						}
					],
					"name": "setResource",
					"outputs": [],
					"stateMutability": "nonpayable",
					"type": "function"
				},
				{
					"inputs": [
						{
							"internalType": "bytes",
							"name": "data",
							"type": "bytes"
						}
					],
					"name": "withdraw",
					"outputs": [],
					"stateMutability": "nonpayable",
					"type": "function"
				}
			],
			"devdoc": {
				"author": "ChainSafe Systems.",
				"kind": "dev",
				"methods": {
					"constructor": {
						"params": {
							"bridgeAddress": "Contract address of previously deployed Bridge."
						}
					},
					"setBurnable(address)": {
						"params": {
							"contractAddress": "Address of contract to be used when making or executing deposits."
						}
					},
					"setResource(bytes32,address)": {
						"params": {
							"contractAddress": "Address of contract to be called when a deposit is made and a deposited is executed.",
							"resourceID": "ResourceID to be used when making deposits."
						}
					},
					"withdraw(bytes)": {
						"params": {
							"data": "ABI-encoded withdrawal params relevant to the handler."
						}
					}
				},
				"title": "Function used across handler contracts.",
				"version": 1
			},
			"evm": {
				"assembly": "    /* \"sygma-solidity/contracts/handlers/HandlerHelpers.sol\":273:2857  contract HandlerHelpers is IERCHandler {... */\n  mstore(0x40, 0xa0)\n    /* \"sygma-solidity/contracts/handlers/HandlerHelpers.sol\":970:1082  constructor(... */\n  callvalue\n  dup1\n  iszero\n  tag_1\n  jumpi\n  0x00\n  dup1\n  revert\ntag_1:\n  pop\n  mload(0x40)\n  sub(codesize, bytecodeSize)\n  dup1\n  bytecodeSize\n  dup4\n  codecopy\n  dup2\n  dup2\n  add\n  0x40\n  mstore\n  dup2\n  add\n  swap1\n  tag_2\n  swap2\n  swap1\n  tag_3\n  jump\t// in\ntag_2:\n    /* \"sygma-solidity/contracts/handlers/HandlerHelpers.sol\":1062:1075  bridgeAddress */\n  dup1\n    /* \"sygma-solidity/contracts/handlers/HandlerHelpers.sol\":1045:1075  _bridgeAddress = bridgeAddress */\n  0xffffffffffffffffffffffffffffffffffffffff\n  and\n  0x80\n  dup2\n  0xffffffffffffffffffffffffffffffffffffffff\n  and\n  dup2\n  mstore\n  pop\n  pop\n    /* \"sygma-solidity/contracts/handlers/HandlerHelpers.sol\":970:1082  constructor(... */\n  pop\n    /* \"sygma-solidity/contracts/handlers/HandlerHelpers.sol\":273:2857  contract HandlerHelpers is IERCHandler {... */\n  jump(tag_6)\n    /* \"#utility.yul\":88:205   */\ntag_8:\n    /* \"#utility.yul\":197:198   */\n  0x00\n    /* \"#utility.yul\":194:195   */\n  dup1\n    /* \"#utility.yul\":187:199   */\n  revert\n    /* \"#utility.yul\":334:460   */\ntag_10:\n    /* \"#utility.yul\":371:378   */\n  0x00\n    /* \"#utility.yul\":411:453   */\n  0xffffffffffffffffffffffffffffffffffffffff\n    /* \"#utility.yul\":404:409   */\n  dup3\n    /* \"#utility.yul\":400:454   */\n  and\n    /* \"#utility.yul\":389:454   */\n  swap1\n  pop\n    /* \"#utility.yul\":334:460   */\n  swap2\n  swap1\n  pop\n  jump\t// out\n    /* \"#utility.yul\":466:562   */\ntag_11:\n    /* \"#utility.yul\":503:510   */\n  0x00\n    /* \"#utility.yul\":532:556   */\n  tag_20\n    /* \"#utility.yul\":550:555   */\n  dup3\n    /* \"#utility.yul\":532:556   */\n  tag_10\n  jump\t// in\ntag_20:\n    /* \"#utility.yul\":521:556   */\n  swap1\n  pop\n    /* \"#utility.yul\":466:562   */\n  swap2\n  swap1\n  pop\n  jump\t// out\n    /* \"#utility.yul\":568:690   */\ntag_12:\n    /* \"#utility.yul\":641:665   */\n  tag_22\n    /* \"#utility.yul\":659:664   */\n  dup2\n    /* \"#utility.yul\":641:665   */\n  tag_11\n  jump\t// in\ntag_22:\n    /* \"#utility.yul\":634:639   */\n  dup2\n    /* \"#utility.yul\":631:666   */\n  eq\n    /* \"#utility.yul\":621:684   */\n  tag_23\n  jumpi\n    /* \"#utility.yul\":680:681   */\n  0x00\n    /* \"#utility.yul\":677:678   */\n  dup1\n    /* \"#utility.yul\":670:682   */\n  revert\n    /* \"#utility.yul\":621:684   */\ntag_23:\n    /* \"#utility.yul\":568:690   */\n  pop\n  jump\t// out\n    /* \"#utility.yul\":696:839   */\ntag_13:\n    /* \"#utility.yul\":753:758   */\n  0x00\n    /* \"#utility.yul\":784:790   */\n  dup2\n    /* \"#utility.yul\":778:791   */\n  mload\n    /* \"#utility.yul\":769:791   */\n  swap1\n  pop\n    /* \"#utility.yul\":800:833   */\n  tag_25\n    /* \"#utility.yul\":827:832   */\n  dup2\n    /* \"#utility.yul\":800:833   */\n  tag_12\n  jump\t// in\ntag_25:\n    /* \"#utility.yul\":696:839   */\n  swap3\n  swap2\n  pop\n  pop\n  jump\t// out\n    /* \"#utility.yul\":845:1196   */\ntag_3:\n    /* \"#utility.yul\":915:921   */\n  0x00\n    /* \"#utility.yul\":964:966   */\n  0x20\n    /* \"#utility.yul\":952:961   */\n  dup3\n    /* \"#utility.yul\":943:950   */\n  dup5\n    /* \"#utility.yul\":939:962   */\n  sub\n    /* \"#utility.yul\":935:967   */\n  slt\n    /* \"#utility.yul\":932:1051   */\n  iszero\n  tag_27\n  jumpi\n    /* \"#utility.yul\":970:1049   */\n  tag_28\n  tag_8\n  jump\t// in\ntag_28:\n    /* \"#utility.yul\":932:1051   */\ntag_27:\n    /* \"#utility.yul\":1090:1091   */\n  0x00\n    /* \"#utility.yul\":1115:1179   */\n  tag_29\n    /* \"#utility.yul\":1171:1178   */\n  dup5\n    /* \"#utility.yul\":1162:1168   */\n  dup3\n    /* \"#utility.yul\":1151:1160   */\n  dup6\n    /* \"#utility.yul\":1147:1169   */\n  add\n    /* \"#utility.yul\":1115:1179   */\n  tag_13\n  jump\t// in\ntag_29:\n    /* \"#utility.yul\":1105:1179   */\n  swap2\n  pop\n    /* \"#utility.yul\":1061:1189   */\n  pop\n    /* \"#utility.yul\":845:1196   */\n  swap3\n  swap2\n  pop\n  pop\n  jump\t// out\n    /* \"sygma-solidity/contracts/handlers/HandlerHelpers.sol\":273:2857  contract HandlerHelpers is IERCHandler {... */\ntag_6:\n  mload(0x80)\n  codecopy(0x00, dataOffset(sub_0), dataSize(sub_0))\n  0x00\n  assignImmutable(\"0x52f1a9b320cab38e5da8a8f97989383aab0a49165fc91c737310e4f7e9821021\")\n  return(0x00, dataSize(sub_0))\nstop\n\nsub_0: assembly {\n        /* \"sygma-solidity/contracts/handlers/HandlerHelpers.sol\":273:2857  contract HandlerHelpers is IERCHandler {... */\n      mstore(0x40, 0x80)\n      callvalue\n      dup1\n      iszero\n      tag_1\n      jumpi\n      0x00\n      dup1\n      revert\n    tag_1:\n      pop\n      jumpi(tag_2, lt(calldatasize, 0x04))\n      shr(0xe0, calldataload(0x00))\n      dup1\n      0x6a70d081\n      gt\n      tag_11\n      jumpi\n      dup1\n      0x6a70d081\n      eq\n      tag_7\n      jumpi\n      dup1\n      0x7f79bea8\n      eq\n      tag_8\n      jumpi\n      dup1\n      0xb8fa3736\n      eq\n      tag_9\n      jumpi\n      dup1\n      0xc8ba6c87\n      eq\n      tag_10\n      jumpi\n      jump(tag_2)\n    tag_11:\n      dup1\n      0x07b7ed99\n      eq\n      tag_3\n      jumpi\n      dup1\n      0x0968f264\n      eq\n      tag_4\n      jumpi\n      dup1\n      0x0a6d55d8\n      eq\n      tag_5\n      jumpi\n      dup1\n      0x318c136e\n      eq\n      tag_6\n      jumpi\n    tag_2:\n      0x00\n      dup1\n      revert\n        /* \"sygma-solidity/contracts/handlers/HandlerHelpers.sol\":2170:2290  function setBurnable(address contractAddress) external override onlyBridge{... */\n    tag_3:\n      tag_12\n      0x04\n      dup1\n      calldatasize\n      sub\n      dup2\n      add\n      swap1\n      tag_13\n      swap2\n      swap1\n      tag_14\n      jump\t// in\n    tag_13:\n      tag_15\n      jump\t// in\n    tag_12:\n      stop\n        /* \"sygma-solidity/contracts/handlers/HandlerHelpers.sol\":2296:2361  function withdraw(bytes memory data) external virtual override {} */\n    tag_4:\n      tag_16\n      0x04\n      dup1\n      calldatasize\n      sub\n      dup2\n      add\n      swap1\n      tag_17\n      swap2\n      swap1\n      tag_18\n      jump\t// in\n    tag_17:\n      tag_19\n      jump\t// in\n    tag_16:\n      stop\n        /* \"sygma-solidity/contracts/handlers/HandlerHelpers.sol\":408:477  mapping (bytes32 => address) public _resourceIDToTokenContractAddress */\n    tag_5:\n      tag_20\n      0x04\n      dup1\n      calldatasize\n      sub\n      dup2\n      add\n      swap1\n      tag_21\n      swap2\n      swap1\n      tag_22\n      jump\t// in\n    tag_21:\n      tag_23\n      jump\t// in\n    tag_20:\n      mload(0x40)\n      tag_24\n      swap2\n      swap1\n      tag_25\n      jump\t// in\n    tag_24:\n      mload(0x40)\n      dup1\n      swap2\n      sub\n      swap1\n      return\n        /* \"sygma-solidity/contracts/handlers/HandlerHelpers.sol\":318:357  address public immutable _bridgeAddress */\n    tag_6:\n      tag_26\n      tag_27\n      jump\t// in\n    tag_26:\n      mload(0x40)\n      tag_28\n      swap2\n      swap1\n      tag_25\n      jump\t// in\n    tag_28:\n      mload(0x40)\n      dup1\n      swap2\n      sub\n      swap1\n      return\n        /* \"sygma-solidity/contracts/handlers/HandlerHelpers.sol\":755:797  mapping (address => bool) public _burnList */\n    tag_7:\n      tag_29\n      0x04\n      dup1\n      calldatasize\n      sub\n      dup2\n      add\n      swap1\n      tag_30\n      swap2\n      swap1\n      tag_14\n      jump\t// in\n    tag_30:\n      tag_31\n      jump\t// in\n    tag_29:\n      mload(0x40)\n      tag_32\n      swap2\n      swap1\n      tag_33\n      jump\t// in\n    tag_32:\n      mload(0x40)\n      dup1\n      swap2\n      sub\n      swap1\n      return\n        /* \"sygma-solidity/contracts/handlers/HandlerHelpers.sol\":652:703  mapping (address => bool) public _contractWhitelist */\n    tag_8:\n      tag_34\n      0x04\n      dup1\n      calldatasize\n      sub\n      dup2\n      add\n      swap1\n      tag_35\n      swap2\n      swap1\n      tag_14\n      jump\t// in\n    tag_35:\n      tag_36\n      jump\t// in\n    tag_34:\n      mload(0x40)\n      tag_37\n      swap2\n      swap1\n      tag_33\n      jump\t// in\n    tag_37:\n      mload(0x40)\n      dup1\n      swap2\n      sub\n      swap1\n      return\n        /* \"sygma-solidity/contracts/handlers/HandlerHelpers.sol\":1774:1928  function setResource(bytes32 resourceID, address contractAddress) external override onlyBridge {... */\n    tag_9:\n      tag_38\n      0x04\n      dup1\n      calldatasize\n      sub\n      dup2\n      add\n      swap1\n      tag_39\n      swap2\n      swap1\n      tag_40\n      jump\t// in\n    tag_39:\n      tag_41\n      jump\t// in\n    tag_38:\n      stop\n        /* \"sygma-solidity/contracts/handlers/HandlerHelpers.sol\":528:597  mapping (address => bytes32) public _tokenContractAddressToResourceID */\n    tag_10:\n      tag_42\n      0x04\n      dup1\n      calldatasize\n      sub\n      dup2\n      add\n      swap1\n      tag_43\n      swap2\n      swap1\n      tag_14\n      jump\t// in\n    tag_43:\n      tag_44\n      jump\t// in\n    tag_42:\n      mload(0x40)\n      tag_45\n      swap2\n      swap1\n      tag_46\n      jump\t// in\n    tag_45:\n      mload(0x40)\n      dup1\n      swap2\n      sub\n      swap1\n      return\n        /* \"sygma-solidity/contracts/handlers/HandlerHelpers.sol\":2170:2290  function setBurnable(address contractAddress) external override onlyBridge{... */\n    tag_15:\n        /* \"sygma-solidity/contracts/handlers/HandlerHelpers.sol\":836:849  _onlyBridge() */\n      tag_48\n        /* \"sygma-solidity/contracts/handlers/HandlerHelpers.sol\":836:847  _onlyBridge */\n      tag_49\n        /* \"sygma-solidity/contracts/handlers/HandlerHelpers.sol\":836:849  _onlyBridge() */\n      jump\t// in\n    tag_48:\n        /* \"sygma-solidity/contracts/handlers/HandlerHelpers.sol\":2254:2283  _setBurnable(contractAddress) */\n      tag_51\n        /* \"sygma-solidity/contracts/handlers/HandlerHelpers.sol\":2267:2282  contractAddress */\n      dup2\n        /* \"sygma-solidity/contracts/handlers/HandlerHelpers.sol\":2254:2266  _setBurnable */\n      tag_52\n        /* \"sygma-solidity/contracts/handlers/HandlerHelpers.sol\":2254:2283  _setBurnable(contractAddress) */\n      jump\t// in\n    tag_51:\n        /* \"sygma-solidity/contracts/handlers/HandlerHelpers.sol\":2170:2290  function setBurnable(address contractAddress) external override onlyBridge{... */\n      pop\n      jump\t// out\n        /* \"sygma-solidity/contracts/handlers/HandlerHelpers.sol\":2296:2361  function withdraw(bytes memory data) external virtual override {} */\n    tag_19:\n      pop\n      jump\t// out\n        /* \"sygma-solidity/contracts/handlers/HandlerHelpers.sol\":408:477  mapping (bytes32 => address) public _resourceIDToTokenContractAddress */\n    tag_23:\n      mstore(0x20, 0x00)\n      dup1\n      0x00\n      mstore\n      keccak256(0x00, 0x40)\n      0x00\n      swap2\n      pop\n      sload\n      swap1\n      0x0100\n      exp\n      swap1\n      div\n      0xffffffffffffffffffffffffffffffffffffffff\n      and\n      dup2\n      jump\t// out\n        /* \"sygma-solidity/contracts/handlers/HandlerHelpers.sol\":318:357  address public immutable _bridgeAddress */\n    tag_27:\n      immutable(\"0x52f1a9b320cab38e5da8a8f97989383aab0a49165fc91c737310e4f7e9821021\")\n      dup2\n      jump\t// out\n        /* \"sygma-solidity/contracts/handlers/HandlerHelpers.sol\":755:797  mapping (address => bool) public _burnList */\n    tag_31:\n      mstore(0x20, 0x03)\n      dup1\n      0x00\n      mstore\n      keccak256(0x00, 0x40)\n      0x00\n      swap2\n      pop\n      sload\n      swap1\n      0x0100\n      exp\n      swap1\n      div\n      0xff\n      and\n      dup2\n      jump\t// out\n        /* \"sygma-solidity/contracts/handlers/HandlerHelpers.sol\":652:703  mapping (address => bool) public _contractWhitelist */\n    tag_36:\n      mstore(0x20, 0x02)\n      dup1\n      0x00\n      mstore\n      keccak256(0x00, 0x40)\n      0x00\n      swap2\n      pop\n      sload\n      swap1\n      0x0100\n      exp\n      swap1\n      div\n      0xff\n      and\n      dup2\n      jump\t// out\n        /* \"sygma-solidity/contracts/handlers/HandlerHelpers.sol\":1774:1928  function setResource(bytes32 resourceID, address contractAddress) external override onlyBridge {... */\n    tag_41:\n        /* \"sygma-solidity/contracts/handlers/HandlerHelpers.sol\":836:849  _onlyBridge() */\n      tag_55\n        /* \"sygma-solidity/contracts/handlers/HandlerHelpers.sol\":836:847  _onlyBridge */\n      tag_49\n        /* \"sygma-solidity/contracts/handlers/HandlerHelpers.sol\":836:849  _onlyBridge() */\n      jump\t// in\n    tag_55:\n        /* \"sygma-solidity/contracts/handlers/HandlerHelpers.sol\":1880:1921  _setResource(resourceID, contractAddress) */\n      tag_57\n        /* \"sygma-solidity/contracts/handlers/HandlerHelpers.sol\":1893:1903  resourceID */\n      dup3\n        /* \"sygma-solidity/contracts/handlers/HandlerHelpers.sol\":1905:1920  contractAddress */\n      dup3\n        /* \"sygma-solidity/contracts/handlers/HandlerHelpers.sol\":1880:1892  _setResource */\n      tag_58\n        /* \"sygma-solidity/contracts/handlers/HandlerHelpers.sol\":1880:1921  _setResource(resourceID, contractAddress) */\n      jump\t// in\n    tag_57:\n        /* \"sygma-solidity/contracts/handlers/HandlerHelpers.sol\":1774:1928  function setResource(bytes32 resourceID, address contractAddress) external override onlyBridge {... */\n      pop\n      pop\n      jump\t// out\n        /* \"sygma-solidity/contracts/handlers/HandlerHelpers.sol\":528:597  mapping (address => bytes32) public _tokenContractAddressToResourceID */\n    tag_44:\n      mstore(0x20, 0x01)\n      dup1\n      0x00\n      mstore\n      keccak256(0x00, 0x40)\n      0x00\n      swap2\n      pop\n      swap1\n      pop\n      sload\n      dup2\n      jump\t// out\n        /* \"sygma-solidity/contracts/handlers/HandlerHelpers.sol\":1088:1212  function _onlyBridge() private view {... */\n    tag_49:\n        /* \"sygma-solidity/contracts/handlers/HandlerHelpers.sol\":1156:1170  _bridgeAddress */\n      immutable(\"0x52f1a9b320cab38e5da8a8f97989383aab0a49165fc91c737310e4f7e9821021\")\n        /* \"sygma-solidity/contracts/handlers/HandlerHelpers.sol\":1142:1170  msg.sender == _bridgeAddress */\n      0xffffffffffffffffffffffffffffffffffffffff\n      and\n        /* \"sygma-solidity/contracts/handlers/HandlerHelpers.sol\":1142:1152  msg.sender */\n      caller\n        /* \"sygma-solidity/contracts/handlers/HandlerHelpers.sol\":1142:1170  msg.sender == _bridgeAddress */\n      0xffffffffffffffffffffffffffffffffffffffff\n      and\n      eq\n        /* \"sygma-solidity/contracts/handlers/HandlerHelpers.sol\":1134:1205  require(msg.sender == _bridgeAddress, \"sender must be bridge contract\") */\n      tag_60\n      jumpi\n      mload(0x40)\n      0x08c379a000000000000000000000000000000000000000000000000000000000\n      dup2\n      mstore\n      0x04\n      add\n      tag_61\n      swap1\n      tag_62\n      jump\t// in\n    tag_61:\n      mload(0x40)\n      dup1\n      swap2\n      sub\n      swap1\n      revert\n    tag_60:\n        /* \"sygma-solidity/contracts/handlers/HandlerHelpers.sol\":1088:1212  function _onlyBridge() private view {... */\n      jump\t// out\n        /* \"sygma-solidity/contracts/handlers/HandlerHelpers.sol\":2655:2855  function _setBurnable(address contractAddress) internal {... */\n    tag_52:\n        /* \"sygma-solidity/contracts/handlers/HandlerHelpers.sol\":2729:2747  _contractWhitelist */\n      0x02\n        /* \"sygma-solidity/contracts/handlers/HandlerHelpers.sol\":2729:2764  _contractWhitelist[contractAddress] */\n      0x00\n        /* \"sygma-solidity/contracts/handlers/HandlerHelpers.sol\":2748:2763  contractAddress */\n      dup3\n        /* \"sygma-solidity/contracts/handlers/HandlerHelpers.sol\":2729:2764  _contractWhitelist[contractAddress] */\n      0xffffffffffffffffffffffffffffffffffffffff\n      and\n      0xffffffffffffffffffffffffffffffffffffffff\n      and\n      dup2\n      mstore\n      0x20\n      add\n      swap1\n      dup2\n      mstore\n      0x20\n      add\n      0x00\n      keccak256\n      0x00\n      swap1\n      sload\n      swap1\n      0x0100\n      exp\n      swap1\n      div\n      0xff\n      and\n        /* \"sygma-solidity/contracts/handlers/HandlerHelpers.sol\":2721:2805  require(_contractWhitelist[contractAddress], \"provided contract is not whitelisted\") */\n      tag_64\n      jumpi\n      mload(0x40)\n      0x08c379a000000000000000000000000000000000000000000000000000000000\n      dup2\n      mstore\n      0x04\n      add\n      tag_65\n      swap1\n      tag_66\n      jump\t// in\n    tag_65:\n      mload(0x40)\n      dup1\n      swap2\n      sub\n      swap1\n      revert\n    tag_64:\n        /* \"sygma-solidity/contracts/handlers/HandlerHelpers.sol\":2844:2848  true */\n      0x01\n        /* \"sygma-solidity/contracts/handlers/HandlerHelpers.sol\":2815:2824  _burnList */\n      0x03\n        /* \"sygma-solidity/contracts/handlers/HandlerHelpers.sol\":2815:2841  _burnList[contractAddress] */\n      0x00\n        /* \"sygma-solidity/contracts/handlers/HandlerHelpers.sol\":2825:2840  contractAddress */\n      dup4\n        /* \"sygma-solidity/contracts/handlers/HandlerHelpers.sol\":2815:2841  _burnList[contractAddress] */\n      0xffffffffffffffffffffffffffffffffffffffff\n      and\n      0xffffffffffffffffffffffffffffffffffffffff\n      and\n      dup2\n      mstore\n      0x20\n      add\n      swap1\n      dup2\n      mstore\n      0x20\n      add\n      0x00\n      keccak256\n      0x00\n        /* \"sygma-solidity/contracts/handlers/HandlerHelpers.sol\":2815:2848  _burnList[contractAddress] = true */\n      0x0100\n      exp\n      dup2\n      sload\n      dup2\n      0xff\n      mul\n      not\n      and\n      swap1\n      dup4\n      iszero\n      iszero\n      mul\n      or\n      swap1\n      sstore\n      pop\n        /* \"sygma-solidity/contracts/handlers/HandlerHelpers.sol\":2655:2855  function _setBurnable(address contractAddress) internal {... */\n      pop\n      jump\t// out\n        /* \"sygma-solidity/contracts/handlers/HandlerHelpers.sol\":2367:2649  function _setResource(bytes32 resourceID, address contractAddress) internal {... */\n    tag_58:\n        /* \"sygma-solidity/contracts/handlers/HandlerHelpers.sol\":2501:2516  contractAddress */\n      dup1\n        /* \"sygma-solidity/contracts/handlers/HandlerHelpers.sol\":2453:2486  _resourceIDToTokenContractAddress */\n      0x00\n        /* \"sygma-solidity/contracts/handlers/HandlerHelpers.sol\":2453:2498  _resourceIDToTokenContractAddress[resourceID] */\n      dup1\n        /* \"sygma-solidity/contracts/handlers/HandlerHelpers.sol\":2487:2497  resourceID */\n      dup5\n        /* \"sygma-solidity/contracts/handlers/HandlerHelpers.sol\":2453:2498  _resourceIDToTokenContractAddress[resourceID] */\n      dup2\n      mstore\n      0x20\n      add\n      swap1\n      dup2\n      mstore\n      0x20\n      add\n      0x00\n      keccak256\n      0x00\n        /* \"sygma-solidity/contracts/handlers/HandlerHelpers.sol\":2453:2516  _resourceIDToTokenContractAddress[resourceID] = contractAddress */\n      0x0100\n      exp\n      dup2\n      sload\n      dup2\n      0xffffffffffffffffffffffffffffffffffffffff\n      mul\n      not\n      and\n      swap1\n      dup4\n      0xffffffffffffffffffffffffffffffffffffffff\n      and\n      mul\n      or\n      swap1\n      sstore\n      pop\n        /* \"sygma-solidity/contracts/handlers/HandlerHelpers.sol\":2579:2589  resourceID */\n      dup2\n        /* \"sygma-solidity/contracts/handlers/HandlerHelpers.sol\":2526:2559  _tokenContractAddressToResourceID */\n      0x01\n        /* \"sygma-solidity/contracts/handlers/HandlerHelpers.sol\":2526:2576  _tokenContractAddressToResourceID[contractAddress] */\n      0x00\n        /* \"sygma-solidity/contracts/handlers/HandlerHelpers.sol\":2560:2575  contractAddress */\n      dup4\n        /* \"sygma-solidity/contracts/handlers/HandlerHelpers.sol\":2526:2576  _tokenContractAddressToResourceID[contractAddress] */\n      0xffffffffffffffffffffffffffffffffffffffff\n      and\n      0xffffffffffffffffffffffffffffffffffffffff\n      and\n      dup2\n      mstore\n      0x20\n      add\n      swap1\n      dup2\n      mstore\n      0x20\n      add\n      0x00\n      keccak256\n        /* \"sygma-solidity/contracts/handlers/HandlerHelpers.sol\":2526:2589  _tokenContractAddressToResourceID[contractAddress] = resourceID */\n      dup2\n      swap1\n      sstore\n      pop\n        /* \"sygma-solidity/contracts/handlers/HandlerHelpers.sol\":2638:2642  true */\n      0x01\n        /* \"sygma-solidity/contracts/handlers/HandlerHelpers.sol\":2600:2618  _contractWhitelist */\n      0x02\n        /* \"sygma-solidity/contracts/handlers/HandlerHelpers.sol\":2600:2635  _contractWhitelist[contractAddress] */\n      0x00\n        /* \"sygma-solidity/contracts/handlers/HandlerHelpers.sol\":2619:2634  contractAddress */\n      dup4\n        /* \"sygma-solidity/contracts/handlers/HandlerHelpers.sol\":2600:2635  _contractWhitelist[contractAddress] */\n      0xffffffffffffffffffffffffffffffffffffffff\n      and\n      0xffffffffffffffffffffffffffffffffffffffff\n      and\n      dup2\n      mstore\n      0x20\n      add\n      swap1\n      dup2\n      mstore\n      0x20\n      add\n      0x00\n      keccak256\n      0x00\n        /* \"sygma-solidity/contracts/handlers/HandlerHelpers.sol\":2600:2642  _contractWhitelist[contractAddress] = true */\n      0x0100\n      exp\n      dup2\n      sload\n      dup2\n      0xff\n      mul\n      not\n      and\n      swap1\n      dup4\n      iszero\n      iszero\n      mul\n      or\n      swap1\n      sstore\n      pop\n        /* \"sygma-solidity/contracts/handlers/HandlerHelpers.sol\":2367:2649  function _setResource(bytes32 resourceID, address contractAddress) internal {... */\n      pop\n      pop\n      jump\t// out\n        /* \"#utility.yul\":7:82   */\n    tag_68:\n        /* \"#utility.yul\":40:46   */\n      0x00\n        /* \"#utility.yul\":73:75   */\n      0x40\n        /* \"#utility.yul\":67:76   */\n      mload\n        /* \"#utility.yul\":57:76   */\n      swap1\n      pop\n        /* \"#utility.yul\":7:82   */\n      swap1\n      jump\t// out\n        /* \"#utility.yul\":88:205   */\n    tag_69:\n        /* \"#utility.yul\":197:198   */\n      0x00\n        /* \"#utility.yul\":194:195   */\n      dup1\n        /* \"#utility.yul\":187:199   */\n      revert\n        /* \"#utility.yul\":211:328   */\n    tag_70:\n        /* \"#utility.yul\":320:321   */\n      0x00\n        /* \"#utility.yul\":317:318   */\n      dup1\n        /* \"#utility.yul\":310:322   */\n      revert\n        /* \"#utility.yul\":334:460   */\n    tag_71:\n        /* \"#utility.yul\":371:378   */\n      0x00\n        /* \"#utility.yul\":411:453   */\n      0xffffffffffffffffffffffffffffffffffffffff\n        /* \"#utility.yul\":404:409   */\n      dup3\n        /* \"#utility.yul\":400:454   */\n      and\n        /* \"#utility.yul\":389:454   */\n      swap1\n      pop\n        /* \"#utility.yul\":334:460   */\n      swap2\n      swap1\n      pop\n      jump\t// out\n        /* \"#utility.yul\":466:562   */\n    tag_72:\n        /* \"#utility.yul\":503:510   */\n      0x00\n        /* \"#utility.yul\":532:556   */\n      tag_103\n        /* \"#utility.yul\":550:555   */\n      dup3\n        /* \"#utility.yul\":532:556   */\n      tag_71\n      jump\t// in\n    tag_103:\n        /* \"#utility.yul\":521:556   */\n      swap1\n      pop\n        /* \"#utility.yul\":466:562   */\n      swap2\n      swap1\n      pop\n      jump\t// out\n        /* \"#utility.yul\":568:690   */\n    tag_73:\n        /* \"#utility.yul\":641:665   */\n      tag_105\n        /* \"#utility.yul\":659:664   */\n      dup2\n        /* \"#utility.yul\":641:665   */\n      tag_72\n      jump\t// in\n    tag_105:\n        /* \"#utility.yul\":634:639   */\n      dup2\n        /* \"#utility.yul\":631:666   */\n      eq\n        /* \"#utility.yul\":621:684   */\n      tag_106\n      jumpi\n        /* \"#utility.yul\":680:681   */\n      0x00\n        /* \"#utility.yul\":677:678   */\n      dup1\n        /* \"#utility.yul\":670:682   */\n      revert\n        /* \"#utility.yul\":621:684   */\n    tag_106:\n        /* \"#utility.yul\":568:690   */\n      pop\n      jump\t// out\n        /* \"#utility.yul\":696:835   */\n    tag_74:\n        /* \"#utility.yul\":742:747   */\n      0x00\n        /* \"#utility.yul\":780:786   */\n      dup2\n        /* \"#utility.yul\":767:787   */\n      calldataload\n        /* \"#utility.yul\":758:787   */\n      swap1\n      pop\n        /* \"#utility.yul\":796:829   */\n      tag_108\n        /* \"#utility.yul\":823:828   */\n      dup2\n        /* \"#utility.yul\":796:829   */\n      tag_73\n      jump\t// in\n    tag_108:\n        /* \"#utility.yul\":696:835   */\n      swap3\n      swap2\n      pop\n      pop\n      jump\t// out\n        /* \"#utility.yul\":841:1170   */\n    tag_14:\n        /* \"#utility.yul\":900:906   */\n      0x00\n        /* \"#utility.yul\":949:951   */\n      0x20\n        /* \"#utility.yul\":937:946   */\n      dup3\n        /* \"#utility.yul\":928:935   */\n      dup5\n        /* \"#utility.yul\":924:947   */\n      sub\n        /* \"#utility.yul\":920:952   */\n      slt\n        /* \"#utility.yul\":917:1036   */\n      iszero\n      tag_110\n      jumpi\n        /* \"#utility.yul\":955:1034   */\n      tag_111\n      tag_69\n      jump\t// in\n    tag_111:\n        /* \"#utility.yul\":917:1036   */\n    tag_110:\n        /* \"#utility.yul\":1075:1076   */\n      0x00\n        /* \"#utility.yul\":1100:1153   */\n      tag_112\n        /* \"#utility.yul\":1145:1152   */\n      dup5\n        /* \"#utility.yul\":1136:1142   */\n      dup3\n        /* \"#utility.yul\":1125:1134   */\n      dup6\n        /* \"#utility.yul\":1121:1143   */\n      add\n        /* \"#utility.yul\":1100:1153   */\n      tag_74\n      jump\t// in\n    tag_112:\n        /* \"#utility.yul\":1090:1153   */\n      swap2\n      pop\n        /* \"#utility.yul\":1046:1163   */\n      pop\n        /* \"#utility.yul\":841:1170   */\n      swap3\n      swap2\n      pop\n      pop\n      jump\t// out\n        /* \"#utility.yul\":1176:1293   */\n    tag_75:\n        /* \"#utility.yul\":1285:1286   */\n      0x00\n        /* \"#utility.yul\":1282:1283   */\n      dup1\n        /* \"#utility.yul\":1275:1287   */\n      revert\n        /* \"#utility.yul\":1299:1416   */\n    tag_76:\n        /* \"#utility.yul\":1408:1409   */\n      0x00\n        /* \"#utility.yul\":1405:1406   */\n      dup1\n        /* \"#utility.yul\":1398:1410   */\n      revert\n        /* \"#utility.yul\":1422:1524   */\n    tag_77:\n        /* \"#utility.yul\":1463:1469   */\n      0x00\n        /* \"#utility.yul\":1514:1516   */\n      0x1f\n        /* \"#utility.yul\":1510:1517   */\n      not\n        /* \"#utility.yul\":1505:1507   */\n      0x1f\n        /* \"#utility.yul\":1498:1503   */\n      dup4\n        /* \"#utility.yul\":1494:1508   */\n      add\n        /* \"#utility.yul\":1490:1518   */\n      and\n        /* \"#utility.yul\":1480:1518   */\n      swap1\n      pop\n        /* \"#utility.yul\":1422:1524   */\n      swap2\n      swap1\n      pop\n      jump\t// out\n        /* \"#utility.yul\":1530:1710   */\n    tag_78:\n        /* \"#utility.yul\":1578:1655   */\n      0x4e487b7100000000000000000000000000000000000000000000000000000000\n        /* \"#utility.yul\":1575:1576   */\n      0x00\n        /* \"#utility.yul\":1568:1656   */\n      mstore\n        /* \"#utility.yul\":1675:1679   */\n      0x41\n        /* \"#utility.yul\":1672:1673   */\n      0x04\n        /* \"#utility.yul\":1665:1680   */\n      mstore\n        /* \"#utility.yul\":1699:1703   */\n      0x24\n        /* \"#utility.yul\":1696:1697   */\n      0x00\n        /* \"#utility.yul\":1689:1704   */\n      revert\n        /* \"#utility.yul\":1716:1997   */\n    tag_79:\n        /* \"#utility.yul\":1799:1826   */\n      tag_118\n        /* \"#utility.yul\":1821:1825   */\n      dup3\n        /* \"#utility.yul\":1799:1826   */\n      tag_77\n      jump\t// in\n    tag_118:\n        /* \"#utility.yul\":1791:1797   */\n      dup2\n        /* \"#utility.yul\":1787:1827   */\n      add\n        /* \"#utility.yul\":1929:1935   */\n      dup2\n        /* \"#utility.yul\":1917:1927   */\n      dup2\n        /* \"#utility.yul\":1914:1936   */\n      lt\n        /* \"#utility.yul\":1893:1911   */\n      0xffffffffffffffff\n        /* \"#utility.yul\":1881:1891   */\n      dup3\n        /* \"#utility.yul\":1878:1912   */\n      gt\n        /* \"#utility.yul\":1875:1937   */\n      or\n        /* \"#utility.yul\":1872:1960   */\n      iszero\n      tag_119\n      jumpi\n        /* \"#utility.yul\":1940:1958   */\n      tag_120\n      tag_78\n      jump\t// in\n    tag_120:\n        /* \"#utility.yul\":1872:1960   */\n    tag_119:\n        /* \"#utility.yul\":1980:1990   */\n      dup1\n        /* \"#utility.yul\":1976:1978   */\n      0x40\n        /* \"#utility.yul\":1969:1991   */\n      mstore\n        /* \"#utility.yul\":1759:1997   */\n      pop\n        /* \"#utility.yul\":1716:1997   */\n      pop\n      pop\n      jump\t// out\n        /* \"#utility.yul\":2003:2132   */\n    tag_80:\n        /* \"#utility.yul\":2037:2043   */\n      0x00\n        /* \"#utility.yul\":2064:2084   */\n      tag_122\n      tag_68\n      jump\t// in\n    tag_122:\n        /* \"#utility.yul\":2054:2084   */\n      swap1\n      pop\n        /* \"#utility.yul\":2093:2126   */\n      tag_123\n        /* \"#utility.yul\":2121:2125   */\n      dup3\n        /* \"#utility.yul\":2113:2119   */\n      dup3\n        /* \"#utility.yul\":2093:2126   */\n      tag_79\n      jump\t// in\n    tag_123:\n        /* \"#utility.yul\":2003:2132   */\n      swap2\n      swap1\n      pop\n      jump\t// out\n        /* \"#utility.yul\":2138:2445   */\n    tag_81:\n        /* \"#utility.yul\":2199:2203   */\n      0x00\n        /* \"#utility.yul\":2289:2307   */\n      0xffffffffffffffff\n        /* \"#utility.yul\":2281:2287   */\n      dup3\n        /* \"#utility.yul\":2278:2308   */\n      gt\n        /* \"#utility.yul\":2275:2331   */\n      iszero\n      tag_125\n      jumpi\n        /* \"#utility.yul\":2311:2329   */\n      tag_126\n      tag_78\n      jump\t// in\n    tag_126:\n        /* \"#utility.yul\":2275:2331   */\n    tag_125:\n        /* \"#utility.yul\":2349:2378   */\n      tag_127\n        /* \"#utility.yul\":2371:2377   */\n      dup3\n        /* \"#utility.yul\":2349:2378   */\n      tag_77\n      jump\t// in\n    tag_127:\n        /* \"#utility.yul\":2341:2378   */\n      swap1\n      pop\n        /* \"#utility.yul\":2433:2437   */\n      0x20\n        /* \"#utility.yul\":2427:2431   */\n      dup2\n        /* \"#utility.yul\":2423:2438   */\n      add\n        /* \"#utility.yul\":2415:2438   */\n      swap1\n      pop\n        /* \"#utility.yul\":2138:2445   */\n      swap2\n      swap1\n      pop\n      jump\t// out\n        /* \"#utility.yul\":2451:2605   */\n    tag_82:\n        /* \"#utility.yul\":2535:2541   */\n      dup3\n        /* \"#utility.yul\":2530:2533   */\n      dup2\n        /* \"#utility.yul\":2525:2528   */\n      dup4\n        /* \"#utility.yul\":2512:2542   */\n      calldatacopy\n        /* \"#utility.yul\":2597:2598   */\n      0x00\n        /* \"#utility.yul\":2588:2594   */\n      dup4\n        /* \"#utility.yul\":2583:2586   */\n      dup4\n        /* \"#utility.yul\":2579:2595   */\n      add\n        /* \"#utility.yul\":2572:2599   */\n      mstore\n        /* \"#utility.yul\":2451:2605   */\n      pop\n      pop\n      pop\n      jump\t// out\n        /* \"#utility.yul\":2611:3021   */\n    tag_83:\n        /* \"#utility.yul\":2688:2693   */\n      0x00\n        /* \"#utility.yul\":2713:2778   */\n      tag_130\n        /* \"#utility.yul\":2729:2777   */\n      tag_131\n        /* \"#utility.yul\":2770:2776   */\n      dup5\n        /* \"#utility.yul\":2729:2777   */\n      tag_81\n      jump\t// in\n    tag_131:\n        /* \"#utility.yul\":2713:2778   */\n      tag_80\n      jump\t// in\n    tag_130:\n        /* \"#utility.yul\":2704:2778   */\n      swap1\n      pop\n        /* \"#utility.yul\":2801:2807   */\n      dup3\n        /* \"#utility.yul\":2794:2799   */\n      dup2\n        /* \"#utility.yul\":2787:2808   */\n      mstore\n        /* \"#utility.yul\":2839:2843   */\n      0x20\n        /* \"#utility.yul\":2832:2837   */\n      dup2\n        /* \"#utility.yul\":2828:2844   */\n      add\n        /* \"#utility.yul\":2877:2880   */\n      dup5\n        /* \"#utility.yul\":2868:2874   */\n      dup5\n        /* \"#utility.yul\":2863:2866   */\n      dup5\n        /* \"#utility.yul\":2859:2875   */\n      add\n        /* \"#utility.yul\":2856:2881   */\n      gt\n        /* \"#utility.yul\":2853:2965   */\n      iszero\n      tag_132\n      jumpi\n        /* \"#utility.yul\":2884:2963   */\n      tag_133\n      tag_76\n      jump\t// in\n    tag_133:\n        /* \"#utility.yul\":2853:2965   */\n    tag_132:\n        /* \"#utility.yul\":2974:3015   */\n      tag_134\n        /* \"#utility.yul\":3008:3014   */\n      dup5\n        /* \"#utility.yul\":3003:3006   */\n      dup3\n        /* \"#utility.yul\":2998:3001   */\n      dup6\n        /* \"#utility.yul\":2974:3015   */\n      tag_82\n      jump\t// in\n    tag_134:\n        /* \"#utility.yul\":2694:3021   */\n      pop\n        /* \"#utility.yul\":2611:3021   */\n      swap4\n      swap3\n      pop\n      pop\n      pop\n      jump\t// out\n        /* \"#utility.yul\":3040:3378   */\n    tag_84:\n        /* \"#utility.yul\":3095:3100   */\n      0x00\n        /* \"#utility.yul\":3144:3147   */\n      dup3\n        /* \"#utility.yul\":3137:3141   */\n      0x1f\n        /* \"#utility.yul\":3129:3135   */\n      dup4\n        /* \"#utility.yul\":3125:3142   */\n      add\n        /* \"#utility.yul\":3121:3148   */\n      slt\n        /* \"#utility.yul\":3111:3233   */\n      tag_136\n      jumpi\n        /* \"#utility.yul\":3152:3231   */\n      tag_137\n      tag_75\n      jump\t// in\n    tag_137:\n        /* \"#utility.yul\":3111:3233   */\n    tag_136:\n        /* \"#utility.yul\":3269:3275   */\n      dup2\n        /* \"#utility.yul\":3256:3276   */\n      calldataload\n        /* \"#utility.yul\":3294:3372   */\n      tag_138\n        /* \"#utility.yul\":3368:3371   */\n      dup5\n        /* \"#utility.yul\":3360:3366   */\n      dup3\n        /* \"#utility.yul\":3353:3357   */\n      0x20\n        /* \"#utility.yul\":3345:3351   */\n      dup7\n        /* \"#utility.yul\":3341:3358   */\n      add\n        /* \"#utility.yul\":3294:3372   */\n      tag_83\n      jump\t// in\n    tag_138:\n        /* \"#utility.yul\":3285:3372   */\n      swap2\n      pop\n        /* \"#utility.yul\":3101:3378   */\n      pop\n        /* \"#utility.yul\":3040:3378   */\n      swap3\n      swap2\n      pop\n      pop\n      jump\t// out\n        /* \"#utility.yul\":3384:3891   */\n    tag_18:\n        /* \"#utility.yul\":3452:3458   */\n      0x00\n        /* \"#utility.yul\":3501:3503   */\n      0x20\n        /* \"#utility.yul\":3489:3498   */\n      dup3\n        /* \"#utility.yul\":3480:3487   */\n      dup5\n        /* \"#utility.yul\":3476:3499   */\n      sub\n        /* \"#utility.yul\":3472:3504   */\n      slt\n        /* \"#utility.yul\":3469:3588   */\n      iszero\n      tag_140\n      jumpi\n        /* \"#utility.yul\":3507:3586   */\n      tag_141\n      tag_69\n      jump\t// in\n    tag_141:\n        /* \"#utility.yul\":3469:3588   */\n    tag_140:\n        /* \"#utility.yul\":3655:3656   */\n      0x00\n        /* \"#utility.yul\":3644:3653   */\n      dup3\n        /* \"#utility.yul\":3640:3657   */\n      add\n        /* \"#utility.yul\":3627:3658   */\n      calldataload\n        /* \"#utility.yul\":3685:3703   */\n      0xffffffffffffffff\n        /* \"#utility.yul\":3677:3683   */\n      dup2\n        /* \"#utility.yul\":3674:3704   */\n      gt\n        /* \"#utility.yul\":3671:3788   */\n      iszero\n      tag_142\n      jumpi\n        /* \"#utility.yul\":3707:3786   */\n      tag_143\n      tag_70\n      jump\t// in\n    tag_143:\n        /* \"#utility.yul\":3671:3788   */\n    tag_142:\n        /* \"#utility.yul\":3812:3874   */\n      tag_144\n        /* \"#utility.yul\":3866:3873   */\n      dup5\n        /* \"#utility.yul\":3857:3863   */\n      dup3\n        /* \"#utility.yul\":3846:3855   */\n      dup6\n        /* \"#utility.yul\":3842:3864   */\n      add\n        /* \"#utility.yul\":3812:3874   */\n      tag_84\n      jump\t// in\n    tag_144:\n        /* \"#utility.yul\":3802:3874   */\n      swap2\n      pop\n        /* \"#utility.yul\":3598:3884   */\n      pop\n        /* \"#utility.yul\":3384:3891   */\n      swap3\n      swap2\n      pop\n      pop\n      jump\t// out\n        /* \"#utility.yul\":3897:3974   */\n    tag_85:\n        /* \"#utility.yul\":3934:3941   */\n      0x00\n        /* \"#utility.yul\":3963:3968   */\n      dup2\n        /* \"#utility.yul\":3952:3968   */\n      swap1\n      pop\n        /* \"#utility.yul\":3897:3974   */\n      swap2\n      swap1\n      pop\n      jump\t// out\n        /* \"#utility.yul\":3980:4102   */\n    tag_86:\n        /* \"#utility.yul\":4053:4077   */\n      tag_147\n        /* \"#utility.yul\":4071:4076   */\n      dup2\n        /* \"#utility.yul\":4053:4077   */\n      tag_85\n      jump\t// in\n    tag_147:\n        /* \"#utility.yul\":4046:4051   */\n      dup2\n        /* \"#utility.yul\":4043:4078   */\n      eq\n        /* \"#utility.yul\":4033:4096   */\n      tag_148\n      jumpi\n        /* \"#utility.yul\":4092:4093   */\n      0x00\n        /* \"#utility.yul\":4089:4090   */\n      dup1\n        /* \"#utility.yul\":4082:4094   */\n      revert\n        /* \"#utility.yul\":4033:4096   */\n    tag_148:\n        /* \"#utility.yul\":3980:4102   */\n      pop\n      jump\t// out\n        /* \"#utility.yul\":4108:4247   */\n    tag_87:\n        /* \"#utility.yul\":4154:4159   */\n      0x00\n        /* \"#utility.yul\":4192:4198   */\n      dup2\n        /* \"#utility.yul\":4179:4199   */\n      calldataload\n        /* \"#utility.yul\":4170:4199   */\n      swap1\n      pop\n        /* \"#utility.yul\":4208:4241   */\n      tag_150\n        /* \"#utility.yul\":4235:4240   */\n      dup2\n        /* \"#utility.yul\":4208:4241   */\n      tag_86\n      jump\t// in\n    tag_150:\n        /* \"#utility.yul\":4108:4247   */\n      swap3\n      swap2\n      pop\n      pop\n      jump\t// out\n        /* \"#utility.yul\":4253:4582   */\n    tag_22:\n        /* \"#utility.yul\":4312:4318   */\n      0x00\n        /* \"#utility.yul\":4361:4363   */\n      0x20\n        /* \"#utility.yul\":4349:4358   */\n      dup3\n        /* \"#utility.yul\":4340:4347   */\n      dup5\n        /* \"#utility.yul\":4336:4359   */\n      sub\n        /* \"#utility.yul\":4332:4364   */\n      slt\n        /* \"#utility.yul\":4329:4448   */\n      iszero\n      tag_152\n      jumpi\n        /* \"#utility.yul\":4367:4446   */\n      tag_153\n      tag_69\n      jump\t// in\n    tag_153:\n        /* \"#utility.yul\":4329:4448   */\n    tag_152:\n        /* \"#utility.yul\":4487:4488   */\n      0x00\n        /* \"#utility.yul\":4512:4565   */\n      tag_154\n        /* \"#utility.yul\":4557:4564   */\n      dup5\n        /* \"#utility.yul\":4548:4554   */\n      dup3\n        /* \"#utility.yul\":4537:4546   */\n      dup6\n        /* \"#utility.yul\":4533:4555   */\n      add\n        /* \"#utility.yul\":4512:4565   */\n      tag_87\n      jump\t// in\n    tag_154:\n        /* \"#utility.yul\":4502:4565   */\n      swap2\n      pop\n        /* \"#utility.yul\":4458:4575   */\n      pop\n        /* \"#utility.yul\":4253:4582   */\n      swap3\n      swap2\n      pop\n      pop\n      jump\t// out\n        /* \"#utility.yul\":4588:4706   */\n    tag_88:\n        /* \"#utility.yul\":4675:4699   */\n      tag_156\n        /* \"#utility.yul\":4693:4698   */\n      dup2\n        /* \"#utility.yul\":4675:4699   */\n      tag_72\n      jump\t// in\n    tag_156:\n        /* \"#utility.yul\":4670:4673   */\n      dup3\n        /* \"#utility.yul\":4663:4700   */\n      mstore\n        /* \"#utility.yul\":4588:4706   */\n      pop\n      pop\n      jump\t// out\n        /* \"#utility.yul\":4712:4934   */\n    tag_25:\n        /* \"#utility.yul\":4805:4809   */\n      0x00\n        /* \"#utility.yul\":4843:4845   */\n      0x20\n        /* \"#utility.yul\":4832:4841   */\n      dup3\n        /* \"#utility.yul\":4828:4846   */\n      add\n        /* \"#utility.yul\":4820:4846   */\n      swap1\n      pop\n        /* \"#utility.yul\":4856:4927   */\n      tag_158\n        /* \"#utility.yul\":4924:4925   */\n      0x00\n        /* \"#utility.yul\":4913:4922   */\n      dup4\n        /* \"#utility.yul\":4909:4926   */\n      add\n        /* \"#utility.yul\":4900:4906   */\n      dup5\n        /* \"#utility.yul\":4856:4927   */\n      tag_88\n      jump\t// in\n    tag_158:\n        /* \"#utility.yul\":4712:4934   */\n      swap3\n      swap2\n      pop\n      pop\n      jump\t// out\n        /* \"#utility.yul\":4940:5030   */\n    tag_89:\n        /* \"#utility.yul\":4974:4981   */\n      0x00\n        /* \"#utility.yul\":5017:5022   */\n      dup2\n        /* \"#utility.yul\":5010:5023   */\n      iszero\n        /* \"#utility.yul\":5003:5024   */\n      iszero\n        /* \"#utility.yul\":4992:5024   */\n      swap1\n      pop\n        /* \"#utility.yul\":4940:5030   */\n      swap2\n      swap1\n      pop\n      jump\t// out\n        /* \"#utility.yul\":5036:5145   */\n    tag_90:\n        /* \"#utility.yul\":5117:5138   */\n      tag_161\n        /* \"#utility.yul\":5132:5137   */\n      dup2\n        /* \"#utility.yul\":5117:5138   */\n      tag_89\n      jump\t// in\n    tag_161:\n        /* \"#utility.yul\":5112:5115   */\n      dup3\n        /* \"#utility.yul\":5105:5139   */\n      mstore\n        /* \"#utility.yul\":5036:5145   */\n      pop\n      pop\n      jump\t// out\n        /* \"#utility.yul\":5151:5361   */\n    tag_33:\n        /* \"#utility.yul\":5238:5242   */\n      0x00\n        /* \"#utility.yul\":5276:5278   */\n      0x20\n        /* \"#utility.yul\":5265:5274   */\n      dup3\n        /* \"#utility.yul\":5261:5279   */\n      add\n        /* \"#utility.yul\":5253:5279   */\n      swap1\n      pop\n        /* \"#utility.yul\":5289:5354   */\n      tag_163\n        /* \"#utility.yul\":5351:5352   */\n      0x00\n        /* \"#utility.yul\":5340:5349   */\n      dup4\n        /* \"#utility.yul\":5336:5353   */\n      add\n        /* \"#utility.yul\":5327:5333   */\n      dup5\n        /* \"#utility.yul\":5289:5354   */\n      tag_90\n      jump\t// in\n    tag_163:\n        /* \"#utility.yul\":5151:5361   */\n      swap3\n      swap2\n      pop\n      pop\n      jump\t// out\n        /* \"#utility.yul\":5367:5841   */\n    tag_40:\n        /* \"#utility.yul\":5435:5441   */\n      0x00\n        /* \"#utility.yul\":5443:5449   */\n      dup1\n        /* \"#utility.yul\":5492:5494   */\n      0x40\n        /* \"#utility.yul\":5480:5489   */\n      dup4\n        /* \"#utility.yul\":5471:5478   */\n      dup6\n        /* \"#utility.yul\":5467:5490   */\n      sub\n        /* \"#utility.yul\":5463:5495   */\n      slt\n        /* \"#utility.yul\":5460:5579   */\n      iszero\n      tag_165\n      jumpi\n        /* \"#utility.yul\":5498:5577   */\n      tag_166\n      tag_69\n      jump\t// in\n    tag_166:\n        /* \"#utility.yul\":5460:5579   */\n    tag_165:\n        /* \"#utility.yul\":5618:5619   */\n      0x00\n        /* \"#utility.yul\":5643:5696   */\n      tag_167\n        /* \"#utility.yul\":5688:5695   */\n      dup6\n        /* \"#utility.yul\":5679:5685   */\n      dup3\n        /* \"#utility.yul\":5668:5677   */\n      dup7\n        /* \"#utility.yul\":5664:5686   */\n      add\n        /* \"#utility.yul\":5643:5696   */\n      tag_87\n      jump\t// in\n    tag_167:\n        /* \"#utility.yul\":5633:5696   */\n      swap3\n      pop\n        /* \"#utility.yul\":5589:5706   */\n      pop\n        /* \"#utility.yul\":5745:5747   */\n      0x20\n        /* \"#utility.yul\":5771:5824   */\n      tag_168\n        /* \"#utility.yul\":5816:5823   */\n      dup6\n        /* \"#utility.yul\":5807:5813   */\n      dup3\n        /* \"#utility.yul\":5796:5805   */\n      dup7\n        /* \"#utility.yul\":5792:5814   */\n      add\n        /* \"#utility.yul\":5771:5824   */\n      tag_74\n      jump\t// in\n    tag_168:\n        /* \"#utility.yul\":5761:5824   */\n      swap2\n      pop\n        /* \"#utility.yul\":5716:5834   */\n      pop\n        /* \"#utility.yul\":5367:5841   */\n      swap3\n      pop\n      swap3\n      swap1\n      pop\n      jump\t// out\n        /* \"#utility.yul\":5847:5965   */\n    tag_91:\n        /* \"#utility.yul\":5934:5958   */\n      tag_170\n        /* \"#utility.yul\":5952:5957   */\n      dup2\n        /* \"#utility.yul\":5934:5958   */\n      tag_85\n      jump\t// in\n    tag_170:\n        /* \"#utility.yul\":5929:5932   */\n      dup3\n        /* \"#utility.yul\":5922:5959   */\n      mstore\n        /* \"#utility.yul\":5847:5965   */\n      pop\n      pop\n      jump\t// out\n        /* \"#utility.yul\":5971:6193   */\n    tag_46:\n        /* \"#utility.yul\":6064:6068   */\n      0x00\n        /* \"#utility.yul\":6102:6104   */\n      0x20\n        /* \"#utility.yul\":6091:6100   */\n      dup3\n        /* \"#utility.yul\":6087:6105   */\n      add\n        /* \"#utility.yul\":6079:6105   */\n      swap1\n      pop\n        /* \"#utility.yul\":6115:6186   */\n      tag_172\n        /* \"#utility.yul\":6183:6184   */\n      0x00\n        /* \"#utility.yul\":6172:6181   */\n      dup4\n        /* \"#utility.yul\":6168:6185   */\n      add\n        /* \"#utility.yul\":6159:6165   */\n      dup5\n        /* \"#utility.yul\":6115:6186   */\n      tag_91\n      jump\t// in\n    tag_172:\n        /* \"#utility.yul\":5971:6193   */\n      swap3\n      swap2\n      pop\n      pop\n      jump\t// out\n        /* \"#utility.yul\":6199:6368   */\n    tag_92:\n        /* \"#utility.yul\":6283:6294   */\n      0x00\n        /* \"#utility.yul\":6317:6323   */\n      dup3\n        /* \"#utility.yul\":6312:6315   */\n      dup3\n        /* \"#utility.yul\":6305:6324   */\n      mstore\n        /* \"#utility.yul\":6357:6361   */\n      0x20\n        /* \"#utility.yul\":6352:6355   */\n      dup3\n        /* \"#utility.yul\":6348:6362   */\n      add\n        /* \"#utility.yul\":6333:6362   */\n      swap1\n      pop\n        /* \"#utility.yul\":6199:6368   */\n      swap3\n      swap2\n      pop\n      pop\n      jump\t// out\n        /* \"#utility.yul\":6374:6554   */\n    tag_93:\n        /* \"#utility.yul\":6514:6546   */\n      0x73656e646572206d7573742062652062726964676520636f6e74726163740000\n        /* \"#utility.yul\":6510:6511   */\n      0x00\n        /* \"#utility.yul\":6502:6508   */\n      dup3\n        /* \"#utility.yul\":6498:6512   */\n      add\n        /* \"#utility.yul\":6491:6547   */\n      mstore\n        /* \"#utility.yul\":6374:6554   */\n      pop\n      jump\t// out\n        /* \"#utility.yul\":6560:6926   */\n    tag_94:\n        /* \"#utility.yul\":6702:6705   */\n      0x00\n        /* \"#utility.yul\":6723:6790   */\n      tag_176\n        /* \"#utility.yul\":6787:6789   */\n      0x1e\n        /* \"#utility.yul\":6782:6785   */\n      dup4\n        /* \"#utility.yul\":6723:6790   */\n      tag_92\n      jump\t// in\n    tag_176:\n        /* \"#utility.yul\":6716:6790   */\n      swap2\n      pop\n        /* \"#utility.yul\":6799:6892   */\n      tag_177\n        /* \"#utility.yul\":6888:6891   */\n      dup3\n        /* \"#utility.yul\":6799:6892   */\n      tag_93\n      jump\t// in\n    tag_177:\n        /* \"#utility.yul\":6917:6919   */\n      0x20\n        /* \"#utility.yul\":6912:6915   */\n      dup3\n        /* \"#utility.yul\":6908:6920   */\n      add\n        /* \"#utility.yul\":6901:6920   */\n      swap1\n      pop\n        /* \"#utility.yul\":6560:6926   */\n      swap2\n      swap1\n      pop\n      jump\t// out\n        /* \"#utility.yul\":6932:7351   */\n    tag_62:\n        /* \"#utility.yul\":7098:7102   */\n      0x00\n        /* \"#utility.yul\":7136:7138   */\n      0x20\n        /* \"#utility.yul\":7125:7134   */\n      dup3\n        /* \"#utility.yul\":7121:7139   */\n      add\n        /* \"#utility.yul\":7113:7139   */\n      swap1\n      pop\n        /* \"#utility.yul\":7185:7194   */\n      dup2\n        /* \"#utility.yul\":7179:7183   */\n      dup2\n        /* \"#utility.yul\":7175:7195   */\n      sub\n        /* \"#utility.yul\":7171:7172   */\n      0x00\n        /* \"#utility.yul\":7160:7169   */\n      dup4\n        /* \"#utility.yul\":7156:7173   */\n      add\n        /* \"#utility.yul\":7149:7196   */\n      mstore\n        /* \"#utility.yul\":7213:7344   */\n      tag_179\n        /* \"#utility.yul\":7339:7343   */\n      dup2\n        /* \"#utility.yul\":7213:7344   */\n      tag_94\n      jump\t// in\n    tag_179:\n        /* \"#utility.yul\":7205:7344   */\n      swap1\n      pop\n        /* \"#utility.yul\":6932:7351   */\n      swap2\n      swap1\n      pop\n      jump\t// out\n        /* \"#utility.yul\":7357:7580   */\n    tag_95:\n        /* \"#utility.yul\":7497:7531   */\n      0x70726f766964656420636f6e7472616374206973206e6f742077686974656c69\n        /* \"#utility.yul\":7493:7494   */\n      0x00\n        /* \"#utility.yul\":7485:7491   */\n      dup3\n        /* \"#utility.yul\":7481:7495   */\n      add\n        /* \"#utility.yul\":7474:7532   */\n      mstore\n        /* \"#utility.yul\":7566:7572   */\n      0x7374656400000000000000000000000000000000000000000000000000000000\n        /* \"#utility.yul\":7561:7563   */\n      0x20\n        /* \"#utility.yul\":7553:7559   */\n      dup3\n        /* \"#utility.yul\":7549:7564   */\n      add\n        /* \"#utility.yul\":7542:7573   */\n      mstore\n        /* \"#utility.yul\":7357:7580   */\n      pop\n      jump\t// out\n        /* \"#utility.yul\":7586:7952   */\n    tag_96:\n        /* \"#utility.yul\":7728:7731   */\n      0x00\n        /* \"#utility.yul\":7749:7816   */\n      tag_182\n        /* \"#utility.yul\":7813:7815   */\n      0x24\n        /* \"#utility.yul\":7808:7811   */\n      dup4\n        /* \"#utility.yul\":7749:7816   */\n      tag_92\n      jump\t// in\n    tag_182:\n        /* \"#utility.yul\":7742:7816   */\n      swap2\n      pop\n        /* \"#utility.yul\":7825:7918   */\n      tag_183\n        /* \"#utility.yul\":7914:7917   */\n      dup3\n        /* \"#utility.yul\":7825:7918   */\n      tag_95\n      jump\t// in\n    tag_183:\n        /* \"#utility.yul\":7943:7945   */\n      0x40\n        /* \"#utility.yul\":7938:7941   */\n      dup3\n        /* \"#utility.yul\":7934:7946   */\n      add\n        /* \"#utility.yul\":7927:7946   */\n      swap1\n      pop\n        /* \"#utility.yul\":7586:7952   */\n      swap2\n      swap1\n      pop\n      jump\t// out\n        /* \"#utility.yul\":7958:8377   */\n    tag_66:\n        /* \"#utility.yul\":8124:8128   */\n      0x00\n        /* \"#utility.yul\":8162:8164   */\n      0x20\n        /* \"#utility.yul\":8151:8160   */\n      dup3\n        /* \"#utility.yul\":8147:8165   */\n      add\n        /* \"#utility.yul\":8139:8165   */\n      swap1\n      pop\n        /* \"#utility.yul\":8211:8220   */\n      dup2\n        /* \"#utility.yul\":8205:8209   */\n      dup2\n        /* \"#utility.yul\":8201:8221   */\n      sub\n        /* \"#utility.yul\":8197:8198   */\n      0x00\n        /* \"#utility.yul\":8186:8195   */\n      dup4\n        /* \"#utility.yul\":8182:8199   */\n      add\n        /* \"#utility.yul\":8175:8222   */\n      mstore\n        /* \"#utility.yul\":8239:8370   */\n      tag_185\n        /* \"#utility.yul\":8365:8369   */\n      dup2\n        /* \"#utility.yul\":8239:8370   */\n      tag_96\n      jump\t// in\n    tag_185:\n        /* \"#utility.yul\":8231:8370   */\n      swap1\n      pop\n        /* \"#utility.yul\":7958:8377   */\n      swap2\n      swap1\n      pop\n      jump\t// out\n\n    auxdata: 0xa2646970667358221220fa01a946fe143ec1555523a40d939bea4bd7ceb82779c19ac99dfbfbd981369464736f6c634300080b0033\n}\n",
				"bytecode": {
					"linkReferences": {},
					"object": "60a060405234801561001057600080fd5b50604051610ac1380380610ac1833981810160405281019061003291906100cf565b8073ffffffffffffffffffffffffffffffffffffffff1660808173ffffffffffffffffffffffffffffffffffffffff1681525050506100fc565b600080fd5b600073ffffffffffffffffffffffffffffffffffffffff82169050919050565b600061009c82610071565b9050919050565b6100ac81610091565b81146100b757600080fd5b50565b6000815190506100c9816100a3565b92915050565b6000602082840312156100e5576100e461006c565b5b60006100f3848285016100ba565b91505092915050565b6080516109a361011e6000396000818161020b015261029d01526109a36000f3fe608060405234801561001057600080fd5b50600436106100885760003560e01c80636a70d0811161005b5780636a70d081146101135780637f79bea814610143578063b8fa373614610173578063c8ba6c871461018f57610088565b806307b7ed991461008d5780630968f264146100a95780630a6d55d8146100c5578063318c136e146100f5575b600080fd5b6100a760048036038101906100a29190610575565b6101bf565b005b6100c360048036038101906100be91906106e8565b6101d3565b005b6100df60048036038101906100da9190610767565b6101d6565b6040516100ec91906107a3565b60405180910390f35b6100fd610209565b60405161010a91906107a3565b60405180910390f35b61012d60048036038101906101289190610575565b61022d565b60405161013a91906107d9565b60405180910390f35b61015d60048036038101906101589190610575565b61024d565b60405161016a91906107d9565b60405180910390f35b61018d600480360381019061018891906107f4565b61026d565b005b6101a960048036038101906101a49190610575565b610283565b6040516101b69190610843565b60405180910390f35b6101c761029b565b6101d08161032b565b50565b50565b60006020528060005260406000206000915054906101000a900473ffffffffffffffffffffffffffffffffffffffff1681565b7f000000000000000000000000000000000000000000000000000000000000000081565b60036020528060005260406000206000915054906101000a900460ff1681565b60026020528060005260406000206000915054906101000a900460ff1681565b61027561029b565b61027f8282610412565b5050565b60016020528060005260406000206000915090505481565b7f000000000000000000000000000000000000000000000000000000000000000073ffffffffffffffffffffffffffffffffffffffff163373ffffffffffffffffffffffffffffffffffffffff1614610329576040517f08c379a0000000000000000000000000000000000000000000000000000000008152600401610320906108bb565b60405180910390fd5b565b600260008273ffffffffffffffffffffffffffffffffffffffff1673ffffffffffffffffffffffffffffffffffffffff16815260200190815260200160002060009054906101000a900460ff166103b7576040517f08c379a00000000000000000000000000000000000000000000000000000000081526004016103ae9061094d565b60405180910390fd5b6001600360008373ffffffffffffffffffffffffffffffffffffffff1673ffffffffffffffffffffffffffffffffffffffff16815260200190815260200160002060006101000a81548160ff02191690831515021790555050565b8060008084815260200190815260200160002060006101000a81548173ffffffffffffffffffffffffffffffffffffffff021916908373ffffffffffffffffffffffffffffffffffffffff16021790555081600160008373ffffffffffffffffffffffffffffffffffffffff1673ffffffffffffffffffffffffffffffffffffffff168152602001908152602001600020819055506001600260008373ffffffffffffffffffffffffffffffffffffffff1673ffffffffffffffffffffffffffffffffffffffff16815260200190815260200160002060006101000a81548160ff0219169083151502179055505050565b6000604051905090565b600080fd5b600080fd5b600073ffffffffffffffffffffffffffffffffffffffff82169050919050565b600061054282610517565b9050919050565b61055281610537565b811461055d57600080fd5b50565b60008135905061056f81610549565b92915050565b60006020828403121561058b5761058a61050d565b5b600061059984828501610560565b91505092915050565b600080fd5b600080fd5b6000601f19601f8301169050919050565b7f4e487b7100000000000000000000000000000000000000000000000000000000600052604160045260246000fd5b6105f5826105ac565b810181811067ffffffffffffffff82111715610614576106136105bd565b5b80604052505050565b6000610627610503565b905061063382826105ec565b919050565b600067ffffffffffffffff821115610653576106526105bd565b5b61065c826105ac565b9050602081019050919050565b82818337600083830152505050565b600061068b61068684610638565b61061d565b9050828152602081018484840111156106a7576106a66105a7565b5b6106b2848285610669565b509392505050565b600082601f8301126106cf576106ce6105a2565b5b81356106df848260208601610678565b91505092915050565b6000602082840312156106fe576106fd61050d565b5b600082013567ffffffffffffffff81111561071c5761071b610512565b5b610728848285016106ba565b91505092915050565b6000819050919050565b61074481610731565b811461074f57600080fd5b50565b6000813590506107618161073b565b92915050565b60006020828403121561077d5761077c61050d565b5b600061078b84828501610752565b91505092915050565b61079d81610537565b82525050565b60006020820190506107b86000830184610794565b92915050565b60008115159050919050565b6107d3816107be565b82525050565b60006020820190506107ee60008301846107ca565b92915050565b6000806040838503121561080b5761080a61050d565b5b600061081985828601610752565b925050602061082a85828601610560565b9150509250929050565b61083d81610731565b82525050565b60006020820190506108586000830184610834565b92915050565b600082825260208201905092915050565b7f73656e646572206d7573742062652062726964676520636f6e74726163740000600082015250565b60006108a5601e8361085e565b91506108b08261086f565b602082019050919050565b600060208201905081810360008301526108d481610898565b9050919050565b7f70726f766964656420636f6e7472616374206973206e6f742077686974656c6960008201527f7374656400000000000000000000000000000000000000000000000000000000602082015250565b600061093760248361085e565b9150610942826108db565b604082019050919050565b600060208201905081810360008301526109668161092a565b905091905056fea2646970667358221220fa01a946fe143ec1555523a40d939bea4bd7ceb82779c19ac99dfbfbd981369464736f6c634300080b0033",
					"opcodes": "PUSH1 0xA0 PUSH1 0x40 MSTORE CALLVALUE DUP1 ISZERO PUSH2 0x10 JUMPI PUSH1 0x0 DUP1 REVERT JUMPDEST POP PUSH1 0x40 MLOAD PUSH2 0xAC1 CODESIZE SUB DUP1 PUSH2 0xAC1 DUP4 CODECOPY DUP2 DUP2 ADD PUSH1 0x40 MSTORE DUP2 ADD SWAP1 PUSH2 0x32 SWAP2 SWAP1 PUSH2 0xCF JUMP JUMPDEST DUP1 PUSH20 0xFFFFFFFFFFFFFFFFFFFFFFFFFFFFFFFFFFFFFFFF AND PUSH1 0x80 DUP2 PUSH20 0xFFFFFFFFFFFFFFFFFFFFFFFFFFFFFFFFFFFFFFFF AND DUP2 MSTORE POP POP POP PUSH2 0xFC JUMP JUMPDEST PUSH1 0x0 DUP1 REVERT JUMPDEST PUSH1 0x0 PUSH20 0xFFFFFFFFFFFFFFFFFFFFFFFFFFFFFFFFFFFFFFFF DUP3 AND SWAP1 POP SWAP2 SWAP1 POP JUMP JUMPDEST PUSH1 0x0 PUSH2 0x9C DUP3 PUSH2 0x71 JUMP JUMPDEST SWAP1 POP SWAP2 SWAP1 POP JUMP JUMPDEST PUSH2 0xAC DUP2 PUSH2 0x91 JUMP JUMPDEST DUP2 EQ PUSH2 0xB7 JUMPI PUSH1 0x0 DUP1 REVERT JUMPDEST POP JUMP JUMPDEST PUSH1 0x0 DUP2 MLOAD SWAP1 POP PUSH2 0xC9 DUP2 PUSH2 0xA3 JUMP JUMPDEST SWAP3 SWAP2 POP POP JUMP JUMPDEST PUSH1 0x0 PUSH1 0x20 DUP3 DUP5 SUB SLT ISZERO PUSH2 0xE5 JUMPI PUSH2 0xE4 PUSH2 0x6C JUMP JUMPDEST JUMPDEST PUSH1 0x0 PUSH2 0xF3 DUP5 DUP3 DUP6 ADD PUSH2 0xBA JUMP JUMPDEST SWAP2 POP POP SWAP3 SWAP2 POP POP JUMP JUMPDEST PUSH1 0x80 MLOAD PUSH2 0x9A3 PUSH2 0x11E PUSH1 0x0 CODECOPY PUSH1 0x0 DUP2 DUP2 PUSH2 0x20B ADD MSTORE PUSH2 0x29D ADD MSTORE PUSH2 0x9A3 PUSH1 0x0 RETURN INVALID PUSH1 0x80 PUSH1 0x40 MSTORE CALLVALUE DUP1 ISZERO PUSH2 0x10 JUMPI PUSH1 0x0 DUP1 REVERT JUMPDEST POP PUSH1 0x4 CALLDATASIZE LT PUSH2 0x88 JUMPI PUSH1 0x0 CALLDATALOAD PUSH1 0xE0 SHR DUP1 PUSH4 0x6A70D081 GT PUSH2 0x5B JUMPI DUP1 PUSH4 0x6A70D081 EQ PUSH2 0x113 JUMPI DUP1 PUSH4 0x7F79BEA8 EQ PUSH2 0x143 JUMPI DUP1 PUSH4 0xB8FA3736 EQ PUSH2 0x173 JUMPI DUP1 PUSH4 0xC8BA6C87 EQ PUSH2 0x18F JUMPI PUSH2 0x88 JUMP JUMPDEST DUP1 PUSH4 0x7B7ED99 EQ PUSH2 0x8D JUMPI DUP1 PUSH4 0x968F264 EQ PUSH2 0xA9 JUMPI DUP1 PUSH4 0xA6D55D8 EQ PUSH2 0xC5 JUMPI DUP1 PUSH4 0x318C136E EQ PUSH2 0xF5 JUMPI JUMPDEST PUSH1 0x0 DUP1 REVERT JUMPDEST PUSH2 0xA7 PUSH1 0x4 DUP1 CALLDATASIZE SUB DUP2 ADD SWAP1 PUSH2 0xA2 SWAP2 SWAP1 PUSH2 0x575 JUMP JUMPDEST PUSH2 0x1BF JUMP JUMPDEST STOP JUMPDEST PUSH2 0xC3 PUSH1 0x4 DUP1 CALLDATASIZE SUB DUP2 ADD SWAP1 PUSH2 0xBE SWAP2 SWAP1 PUSH2 0x6E8 JUMP JUMPDEST PUSH2 0x1D3 JUMP JUMPDEST STOP JUMPDEST PUSH2 0xDF PUSH1 0x4 DUP1 CALLDATASIZE SUB DUP2 ADD SWAP1 PUSH2 0xDA SWAP2 SWAP1 PUSH2 0x767 JUMP JUMPDEST PUSH2 0x1D6 JUMP JUMPDEST PUSH1 0x40 MLOAD PUSH2 0xEC SWAP2 SWAP1 PUSH2 0x7A3 JUMP JUMPDEST PUSH1 0x40 MLOAD DUP1 SWAP2 SUB SWAP1 RETURN JUMPDEST PUSH2 0xFD PUSH2 0x209 JUMP JUMPDEST PUSH1 0x40 MLOAD PUSH2 0x10A SWAP2 SWAP1 PUSH2 0x7A3 JUMP JUMPDEST PUSH1 0x40 MLOAD DUP1 SWAP2 SUB SWAP1 RETURN JUMPDEST PUSH2 0x12D PUSH1 0x4 DUP1 CALLDATASIZE SUB DUP2 ADD SWAP1 PUSH2 0x128 SWAP2 SWAP1 PUSH2 0x575 JUMP JUMPDEST PUSH2 0x22D JUMP JUMPDEST PUSH1 0x40 MLOAD PUSH2 0x13A SWAP2 SWAP1 PUSH2 0x7D9 JUMP JUMPDEST PUSH1 0x40 MLOAD DUP1 SWAP2 SUB SWAP1 RETURN JUMPDEST PUSH2 0x15D PUSH1 0x4 DUP1 CALLDATASIZE SUB DUP2 ADD SWAP1 PUSH2 0x158 SWAP2 SWAP1 PUSH2 0x575 JUMP JUMPDEST PUSH2 0x24D JUMP JUMPDEST PUSH1 0x40 MLOAD PUSH2 0x16A SWAP2 SWAP1 PUSH2 0x7D9 JUMP JUMPDEST PUSH1 0x40 MLOAD DUP1 SWAP2 SUB SWAP1 RETURN JUMPDEST PUSH2 0x18D PUSH1 0x4 DUP1 CALLDATASIZE SUB DUP2 ADD SWAP1 PUSH2 0x188 SWAP2 SWAP1 PUSH2 0x7F4 JUMP JUMPDEST PUSH2 0x26D JUMP JUMPDEST STOP JUMPDEST PUSH2 0x1A9 PUSH1 0x4 DUP1 CALLDATASIZE SUB DUP2 ADD SWAP1 PUSH2 0x1A4 SWAP2 SWAP1 PUSH2 0x575 JUMP JUMPDEST PUSH2 0x283 JUMP JUMPDEST PUSH1 0x40 MLOAD PUSH2 0x1B6 SWAP2 SWAP1 PUSH2 0x843 JUMP JUMPDEST PUSH1 0x40 MLOAD DUP1 SWAP2 SUB SWAP1 RETURN JUMPDEST PUSH2 0x1C7 PUSH2 0x29B JUMP JUMPDEST PUSH2 0x1D0 DUP2 PUSH2 0x32B JUMP JUMPDEST POP JUMP JUMPDEST POP JUMP JUMPDEST PUSH1 0x0 PUSH1 0x20 MSTORE DUP1 PUSH1 0x0 MSTORE PUSH1 0x40 PUSH1 0x0 KECCAK256 PUSH1 0x0 SWAP2 POP SLOAD SWAP1 PUSH2 0x100 EXP SWAP1 DIV PUSH20 0xFFFFFFFFFFFFFFFFFFFFFFFFFFFFFFFFFFFFFFFF AND DUP2 JUMP JUMPDEST PUSH32 0x0 DUP2 JUMP JUMPDEST PUSH1 0x3 PUSH1 0x20 MSTORE DUP1 PUSH1 0x0 MSTORE PUSH1 0x40 PUSH1 0x0 KECCAK256 PUSH1 0x0 SWAP2 POP SLOAD SWAP1 PUSH2 0x100 EXP SWAP1 DIV PUSH1 0xFF AND DUP2 JUMP JUMPDEST PUSH1 0x2 PUSH1 0x20 MSTORE DUP1 PUSH1 0x0 MSTORE PUSH1 0x40 PUSH1 0x0 KECCAK256 PUSH1 0x0 SWAP2 POP SLOAD SWAP1 PUSH2 0x100 EXP SWAP1 DIV PUSH1 0xFF AND DUP2 JUMP JUMPDEST PUSH2 0x275 PUSH2 0x29B JUMP JUMPDEST PUSH2 0x27F DUP3 DUP3 PUSH2 0x412 JUMP JUMPDEST POP POP JUMP JUMPDEST PUSH1 0x1 PUSH1 0x20 MSTORE DUP1 PUSH1 0x0 MSTORE PUSH1 0x40 PUSH1 0x0 KECCAK256 PUSH1 0x0 SWAP2 POP SWAP1 POP SLOAD DUP2 JUMP JUMPDEST PUSH32 0x0 PUSH20 0xFFFFFFFFFFFFFFFFFFFFFFFFFFFFFFFFFFFFFFFF AND CALLER PUSH20 0xFFFFFFFFFFFFFFFFFFFFFFFFFFFFFFFFFFFFFFFF AND EQ PUSH2 0x329 JUMPI PUSH1 0x40 MLOAD PUSH32 0x8C379A000000000000000000000000000000000000000000000000000000000 DUP2 MSTORE PUSH1 0x4 ADD PUSH2 0x320 SWAP1 PUSH2 0x8BB JUMP JUMPDEST PUSH1 0x40 MLOAD DUP1 SWAP2 SUB SWAP1 REVERT JUMPDEST JUMP JUMPDEST PUSH1 0x2 PUSH1 0x0 DUP3 PUSH20 0xFFFFFFFFFFFFFFFFFFFFFFFFFFFFFFFFFFFFFFFF AND PUSH20 0xFFFFFFFFFFFFFFFFFFFFFFFFFFFFFFFFFFFFFFFF AND DUP2 MSTORE PUSH1 0x20 ADD SWAP1 DUP2 MSTORE PUSH1 0x20 ADD PUSH1 0x0 KECCAK256 PUSH1 0x0 SWAP1 SLOAD SWAP1 PUSH2 0x100 EXP SWAP1 DIV PUSH1 0xFF AND PUSH2 0x3B7 JUMPI PUSH1 0x40 MLOAD PUSH32 0x8C379A000000000000000000000000000000000000000000000000000000000 DUP2 MSTORE PUSH1 0x4 ADD PUSH2 0x3AE SWAP1 PUSH2 0x94D JUMP JUMPDEST PUSH1 0x40 MLOAD DUP1 SWAP2 SUB SWAP1 REVERT JUMPDEST PUSH1 0x1 PUSH1 0x3 PUSH1 0x0 DUP4 PUSH20 0xFFFFFFFFFFFFFFFFFFFFFFFFFFFFFFFFFFFFFFFF AND PUSH20 0xFFFFFFFFFFFFFFFFFFFFFFFFFFFFFFFFFFFFFFFF AND DUP2 MSTORE PUSH1 0x20 ADD SWAP1 DUP2 MSTORE PUSH1 0x20 ADD PUSH1 0x0 KECCAK256 PUSH1 0x0 PUSH2 0x100 EXP DUP2 SLOAD DUP2 PUSH1 0xFF MUL NOT AND SWAP1 DUP4 ISZERO ISZERO MUL OR SWAP1 SSTORE POP POP JUMP JUMPDEST DUP1 PUSH1 0x0 DUP1 DUP5 DUP2 MSTORE PUSH1 0x20 ADD SWAP1 DUP2 MSTORE PUSH1 0x20 ADD PUSH1 0x0 KECCAK256 PUSH1 0x0 PUSH2 0x100 EXP DUP2 SLOAD DUP2 PUSH20 0xFFFFFFFFFFFFFFFFFFFFFFFFFFFFFFFFFFFFFFFF MUL NOT AND SWAP1 DUP4 PUSH20 0xFFFFFFFFFFFFFFFFFFFFFFFFFFFFFFFFFFFFFFFF AND MUL OR SWAP1 SSTORE POP DUP2 PUSH1 0x1 PUSH1 0x0 DUP4 PUSH20 0xFFFFFFFFFFFFFFFFFFFFFFFFFFFFFFFFFFFFFFFF AND PUSH20 0xFFFFFFFFFFFFFFFFFFFFFFFFFFFFFFFFFFFFFFFF AND DUP2 MSTORE PUSH1 0x20 ADD SWAP1 DUP2 MSTORE PUSH1 0x20 ADD PUSH1 0x0 KECCAK256 DUP2 SWAP1 SSTORE POP PUSH1 0x1 PUSH1 0x2 PUSH1 0x0 DUP4 PUSH20 0xFFFFFFFFFFFFFFFFFFFFFFFFFFFFFFFFFFFFFFFF AND PUSH20 0xFFFFFFFFFFFFFFFFFFFFFFFFFFFFFFFFFFFFFFFF AND DUP2 MSTORE PUSH1 0x20 ADD SWAP1 DUP2 MSTORE PUSH1 0x20 ADD PUSH1 0x0 KECCAK256 PUSH1 0x0 PUSH2 0x100 EXP DUP2 SLOAD DUP2 PUSH1 0xFF MUL NOT AND SWAP1 DUP4 ISZERO ISZERO MUL OR SWAP1 SSTORE POP POP POP JUMP JUMPDEST PUSH1 0x0 PUSH1 0x40 MLOAD SWAP1 POP SWAP1 JUMP JUMPDEST PUSH1 0x0 DUP1 REVERT JUMPDEST PUSH1 0x0 DUP1 REVERT JUMPDEST PUSH1 0x0 PUSH20 0xFFFFFFFFFFFFFFFFFFFFFFFFFFFFFFFFFFFFFFFF DUP3 AND SWAP1 POP SWAP2 SWAP1 POP JUMP JUMPDEST PUSH1 0x0 PUSH2 0x542 DUP3 PUSH2 0x517 JUMP JUMPDEST SWAP1 POP SWAP2 SWAP1 POP JUMP JUMPDEST PUSH2 0x552 DUP2 PUSH2 0x537 JUMP JUMPDEST DUP2 EQ PUSH2 0x55D JUMPI PUSH1 0x0 DUP1 REVERT JUMPDEST POP JUMP JUMPDEST PUSH1 0x0 DUP2 CALLDATALOAD SWAP1 POP PUSH2 0x56F DUP2 PUSH2 0x549 JUMP JUMPDEST SWAP3 SWAP2 POP POP JUMP JUMPDEST PUSH1 0x0 PUSH1 0x20 DUP3 DUP5 SUB SLT ISZERO PUSH2 0x58B JUMPI PUSH2 0x58A PUSH2 0x50D JUMP JUMPDEST JUMPDEST PUSH1 0x0 PUSH2 0x599 DUP5 DUP3 DUP6 ADD PUSH2 0x560 JUMP JUMPDEST SWAP2 POP POP SWAP3 SWAP2 POP POP JUMP JUMPDEST PUSH1 0x0 DUP1 REVERT JUMPDEST PUSH1 0x0 DUP1 REVERT JUMPDEST PUSH1 0x0 PUSH1 0x1F NOT PUSH1 0x1F DUP4 ADD AND SWAP1 POP SWAP2 SWAP1 POP JUMP JUMPDEST PUSH32 0x4E487B7100000000000000000000000000000000000000000000000000000000 PUSH1 0x0 MSTORE PUSH1 0x41 PUSH1 0x4 MSTORE PUSH1 0x24 PUSH1 0x0 REVERT JUMPDEST PUSH2 0x5F5 DUP3 PUSH2 0x5AC JUMP JUMPDEST DUP2 ADD DUP2 DUP2 LT PUSH8 0xFFFFFFFFFFFFFFFF DUP3 GT OR ISZERO PUSH2 0x614 JUMPI PUSH2 0x613 PUSH2 0x5BD JUMP JUMPDEST JUMPDEST DUP1 PUSH1 0x40 MSTORE POP POP POP JUMP JUMPDEST PUSH1 0x0 PUSH2 0x627 PUSH2 0x503 JUMP JUMPDEST SWAP1 POP PUSH2 0x633 DUP3 DUP3 PUSH2 0x5EC JUMP JUMPDEST SWAP2 SWAP1 POP JUMP JUMPDEST PUSH1 0x0 PUSH8 0xFFFFFFFFFFFFFFFF DUP3 GT ISZERO PUSH2 0x653 JUMPI PUSH2 0x652 PUSH2 0x5BD JUMP JUMPDEST JUMPDEST PUSH2 0x65C DUP3 PUSH2 0x5AC JUMP JUMPDEST SWAP1 POP PUSH1 0x20 DUP2 ADD SWAP1 POP SWAP2 SWAP1 POP JUMP JUMPDEST DUP3 DUP2 DUP4 CALLDATACOPY PUSH1 0x0 DUP4 DUP4 ADD MSTORE POP POP POP JUMP JUMPDEST PUSH1 0x0 PUSH2 0x68B PUSH2 0x686 DUP5 PUSH2 0x638 JUMP JUMPDEST PUSH2 0x61D JUMP JUMPDEST SWAP1 POP DUP3 DUP2 MSTORE PUSH1 0x20 DUP2 ADD DUP5 DUP5 DUP5 ADD GT ISZERO PUSH2 0x6A7 JUMPI PUSH2 0x6A6 PUSH2 0x5A7 JUMP JUMPDEST JUMPDEST PUSH2 0x6B2 DUP5 DUP3 DUP6 PUSH2 0x669 JUMP JUMPDEST POP SWAP4 SWAP3 POP POP POP JUMP JUMPDEST PUSH1 0x0 DUP3 PUSH1 0x1F DUP4 ADD SLT PUSH2 0x6CF JUMPI PUSH2 0x6CE PUSH2 0x5A2 JUMP JUMPDEST JUMPDEST DUP2 CALLDATALOAD PUSH2 0x6DF DUP5 DUP3 PUSH1 0x20 DUP7 ADD PUSH2 0x678 JUMP JUMPDEST SWAP2 POP POP SWAP3 SWAP2 POP POP JUMP JUMPDEST PUSH1 0x0 PUSH1 0x20 DUP3 DUP5 SUB SLT ISZERO PUSH2 0x6FE JUMPI PUSH2 0x6FD PUSH2 0x50D JUMP JUMPDEST JUMPDEST PUSH1 0x0 DUP3 ADD CALLDATALOAD PUSH8 0xFFFFFFFFFFFFFFFF DUP2 GT ISZERO PUSH2 0x71C JUMPI PUSH2 0x71B PUSH2 0x512 JUMP JUMPDEST JUMPDEST PUSH2 0x728 DUP5 DUP3 DUP6 ADD PUSH2 0x6BA JUMP JUMPDEST SWAP2 POP POP SWAP3 SWAP2 POP POP JUMP JUMPDEST PUSH1 0x0 DUP2 SWAP1 POP SWAP2 SWAP1 POP JUMP JUMPDEST PUSH2 0x744 DUP2 PUSH2 0x731 JUMP JUMPDEST DUP2 EQ PUSH2 0x74F JUMPI PUSH1 0x0 DUP1 REVERT JUMPDEST POP JUMP JUMPDEST PUSH1 0x0 DUP2 CALLDATALOAD SWAP1 POP PUSH2 0x761 DUP2 PUSH2 0x73B JUMP JUMPDEST SWAP3 SWAP2 POP POP JUMP JUMPDEST PUSH1 0x0 PUSH1 0x20 DUP3 DUP5 SUB SLT ISZERO PUSH2 0x77D JUMPI PUSH2 0x77C PUSH2 0x50D JUMP JUMPDEST JUMPDEST PUSH1 0x0 PUSH2 0x78B DUP5 DUP3 DUP6 ADD PUSH2 0x752 JUMP JUMPDEST SWAP2 POP POP SWAP3 SWAP2 POP POP JUMP JUMPDEST PUSH2 0x79D DUP2 PUSH2 0x537 JUMP JUMPDEST DUP3 MSTORE POP POP JUMP JUMPDEST PUSH1 0x0 PUSH1 0x20 DUP3 ADD SWAP1 POP PUSH2 0x7B8 PUSH1 0x0 DUP4 ADD DUP5 PUSH2 0x794 JUMP JUMPDEST SWAP3 SWAP2 POP POP JUMP JUMPDEST PUSH1 0x0 DUP2 ISZERO ISZERO SWAP1 POP SWAP2 SWAP1 POP JUMP JUMPDEST PUSH2 0x7D3 DUP2 PUSH2 0x7BE JUMP JUMPDEST DUP3 MSTORE POP POP JUMP JUMPDEST PUSH1 0x0 PUSH1 0x20 DUP3 ADD SWAP1 POP PUSH2 0x7EE PUSH1 0x0 DUP4 ADD DUP5 PUSH2 0x7CA JUMP JUMPDEST SWAP3 SWAP2 POP POP JUMP JUMPDEST PUSH1 0x0 DUP1 PUSH1 0x40 DUP4 DUP6 SUB SLT ISZERO PUSH2 0x80B JUMPI PUSH2 0x80A PUSH2 0x50D JUMP JUMPDEST JUMPDEST PUSH1 0x0 PUSH2 0x819 DUP6 DUP3 DUP7 ADD PUSH2 0x752 JUMP JUMPDEST SWAP3 POP POP PUSH1 0x20 PUSH2 0x82A DUP6 DUP3 DUP7 ADD PUSH2 0x560 JUMP JUMPDEST SWAP2 POP POP SWAP3 POP SWAP3 SWAP1 POP JUMP JUMPDEST PUSH2 0x83D DUP2 PUSH2 0x731 JUMP JUMPDEST DUP3 MSTORE POP POP JUMP JUMPDEST PUSH1 0x0 PUSH1 0x20 DUP3 ADD SWAP1 POP PUSH2 0x858 PUSH1 0x0 DUP4 ADD DUP5 PUSH2 0x834 JUMP JUMPDEST SWAP3 SWAP2 POP POP JUMP JUMPDEST PUSH1 0x0 DUP3 DUP3 MSTORE PUSH1 0x20 DUP3 ADD SWAP1 POP SWAP3 SWAP2 POP POP JUMP JUMPDEST PUSH32 0x73656E646572206D7573742062652062726964676520636F6E74726163740000 PUSH1 0x0 DUP3 ADD MSTORE POP JUMP JUMPDEST PUSH1 0x0 PUSH2 0x8A5 PUSH1 0x1E DUP4 PUSH2 0x85E JUMP JUMPDEST SWAP2 POP PUSH2 0x8B0 DUP3 PUSH2 0x86F JUMP JUMPDEST PUSH1 0x20 DUP3 ADD SWAP1 POP SWAP2 SWAP1 POP JUMP JUMPDEST PUSH1 0x0 PUSH1 0x20 DUP3 ADD SWAP1 POP DUP2 DUP2 SUB PUSH1 0x0 DUP4 ADD MSTORE PUSH2 0x8D4 DUP2 PUSH2 0x898 JUMP JUMPDEST SWAP1 POP SWAP2 SWAP1 POP JUMP JUMPDEST PUSH32 0x70726F766964656420636F6E7472616374206973206E6F742077686974656C69 PUSH1 0x0 DUP3 ADD MSTORE PUSH32 0x7374656400000000000000000000000000000000000000000000000000000000 PUSH1 0x20 DUP3 ADD MSTORE POP JUMP JUMPDEST PUSH1 0x0 PUSH2 0x937 PUSH1 0x24 DUP4 PUSH2 0x85E JUMP JUMPDEST SWAP2 POP PUSH2 0x942 DUP3 PUSH2 0x8DB JUMP JUMPDEST PUSH1 0x40 DUP3 ADD SWAP1 POP SWAP2 SWAP1 POP JUMP JUMPDEST PUSH1 0x0 PUSH1 0x20 DUP3 ADD SWAP1 POP DUP2 DUP2 SUB PUSH1 0x0 DUP4 ADD MSTORE PUSH2 0x966 DUP2 PUSH2 0x92A JUMP JUMPDEST SWAP1 POP SWAP2 SWAP1 POP JUMP INVALID LOG2 PUSH5 0x6970667358 0x22 SLT KECCAK256 STATICCALL ADD 0xA9 CHAINID INVALID EQ RETURNDATACOPY 0xC1 SSTORE SSTORE 0x23 LOG4 0xD SWAP4 SWAP12 0xEA 0x4B 0xD7 0xCE 0xB8 0x27 PUSH26 0xC19AC99DFBFBD981369464736F6C634300080B00330000000000 "
				},
				"gasEstimates": {
					"creation": {
						"codeDepositCost": "493400",
						"executionCost": "infinite",
						"totalCost": "infinite"
					},
					"external": {
						"_bridgeAddress()": "infinite",
						"_burnList(address)": "2845",
						"_contractWhitelist(address)": "2867",
						"_resourceIDToTokenContractAddress(bytes32)": "2884",
						"_tokenContractAddressToResourceID(address)": "2880",
						"setBurnable(address)": "infinite",
						"setResource(bytes32,address)": "infinite",
						"withdraw(bytes)": "infinite"
					},
					"internal": {
						"_onlyBridge()": "infinite",
						"_setBurnable(address)": "infinite",
						"_setResource(bytes32,address)": "70925"
					}
				},
				"methodIdentifiers": {
					"_bridgeAddress()": "318c136e",
					"_burnList(address)": "6a70d081",
					"_contractWhitelist(address)": "7f79bea8",
					"_resourceIDToTokenContractAddress(bytes32)": "0a6d55d8",
					"_tokenContractAddressToResourceID(address)": "c8ba6c87",
					"setBurnable(address)": "07b7ed99",
					"setResource(bytes32,address)": "b8fa3736",
					"withdraw(bytes)": "0968f264"
				}
			},
			"storageLayout": {
				"storage": [
					{
						"astId": 11,
						"contract": "sygma-solidity/contracts/handlers/HandlerHelpers.sol:HandlerHelpers",
						"label": "_resourceIDToTokenContractAddress",
						"offset": 0,
						"slot": "0",
						"type": "t_mapping(t_bytes32,t_address)"
					},
					{
						"astId": 15,
						"contract": "sygma-solidity/contracts/handlers/HandlerHelpers.sol:HandlerHelpers",
						"label": "_tokenContractAddressToResourceID",
						"offset": 0,
						"slot": "1",
						"type": "t_mapping(t_address,t_bytes32)"
					},
					{
						"astId": 19,
						"contract": "sygma-solidity/contracts/handlers/HandlerHelpers.sol:HandlerHelpers",
						"label": "_contractWhitelist",
						"offset": 0,
						"slot": "2",
						"type": "t_mapping(t_address,t_bool)"
					},
					{
						"astId": 23,
						"contract": "sygma-solidity/contracts/handlers/HandlerHelpers.sol:HandlerHelpers",
						"label": "_burnList",
						"offset": 0,
						"slot": "3",
						"type": "t_mapping(t_address,t_bool)"
					}
				],
				"types": {
					"t_address": {
						"encoding": "inplace",
						"label": "address",
						"numberOfBytes": "20"
					},
					"t_bool": {
						"encoding": "inplace",
						"label": "bool",
						"numberOfBytes": "1"
					},
					"t_bytes32": {
						"encoding": "inplace",
						"label": "bytes32",
						"numberOfBytes": "32"
					},
					"t_mapping(t_address,t_bool)": {
						"encoding": "mapping",
						"key": "t_address",
						"label": "mapping(address => bool)",
						"numberOfBytes": "32",
						"value": "t_bool"
					},
					"t_mapping(t_address,t_bytes32)": {
						"encoding": "mapping",
						"key": "t_address",
						"label": "mapping(address => bytes32)",
						"numberOfBytes": "32",
						"value": "t_bytes32"
					},
					"t_mapping(t_bytes32,t_address)": {
						"encoding": "mapping",
						"key": "t_bytes32",
						"label": "mapping(bytes32 => address)",
						"numberOfBytes": "32",
						"value": "t_address"
					}
				}
			},
			"userdoc": {
				"kind": "user",
				"methods": {
					"setBurnable(address)": {
						"notice": "First verifies {contractAddress} is whitelisted, then sets {_burnList}[{contractAddress}] to true."
					},
					"setResource(bytes32,address)": {
						"notice": "First verifies {_resourceIDToContractAddress}[{resourceID}] and {_contractAddressToResourceID}[{contractAddress}] are not already set, then sets {_resourceIDToContractAddress} with {contractAddress}, {_contractAddressToResourceID} with {resourceID}, and {_contractWhitelist} to true for {contractAddress}."
					},
					"withdraw(bytes)": {
						"notice": "Withdraw funds from ERC safes."
					}
				},
				"notice": "This contract is intended to be used with the Bridge contract.",
				"version": 1
			}
		}
	}
}