{
	"data": {
		"bytecode": {
			"linkReferences": {},
			"object": "60a06040523480156200001157600080fd5b5060405162001909380380620019098339818101604052810190620000379190620000de565b808073ffffffffffffffffffffffffffffffffffffffff1660808173ffffffffffffffffffffffffffffffffffffffff1681525050505062000110565b600080fd5b600073ffffffffffffffffffffffffffffffffffffffff82169050919050565b6000620000a68262000079565b9050919050565b620000b88162000099565b8114620000c457600080fd5b50565b600081519050620000d881620000ad565b92915050565b600060208284031215620000f757620000f662000074565b5b60006200010784828501620000c7565b91505092915050565b6080516117d662000133600039600081816102a8015261066401526117d66000f3fe608060405234801561001057600080fd5b506004361061009e5760003560e01c80637f79bea8116100665780637f79bea814610159578063b07e54bb14610189578063b8fa3736146101b9578063c8ba6c87146101d5578063e248cff2146102055761009e565b806307b7ed99146100a35780630968f264146100bf5780630a6d55d8146100db578063318c136e1461010b5780636a70d08114610129575b600080fd5b6100bd60048036038101906100b89190610cc6565b610221565b005b6100d960048036038101906100d49190610e39565b610235565b005b6100f560048036038101906100f09190610eb8565b610273565b6040516101029190610ef4565b60405180910390f35b6101136102a6565b6040516101209190610ef4565b60405180910390f35b610143600480360381019061013e9190610cc6565b6102ca565b6040516101509190610f2a565b60405180910390f35b610173600480360381019061016e9190610cc6565b6102ea565b6040516101809190610f2a565b60405180910390f35b6101a3600480360381019061019e9190610fa5565b61030a565b6040516101b091906110a1565b60405180910390f35b6101d360048036038101906101ce91906110c3565b610463565b005b6101ef60048036038101906101ea9190610cc6565b610479565b6040516101fc9190611112565b60405180910390f35b61021f600480360381019061021a919061112d565b610491565b005b610229610662565b610232816106f2565b50565b61023d610662565b6000806000838060200190518101906102569190611201565b80935081945082955050505061026d8383836107d9565b50505050565b60006020528060005260406000206000915054906101000a900473ffffffffffffffffffffffffffffffffffffffff1681565b7f000000000000000000000000000000000000000000000000000000000000000081565b60036020528060005260406000206000915054906101000a900460ff1681565b60026020528060005260406000206000915054906101000a900460ff1681565b6060610314610662565b600083838101906103259190611269565b9050600080600088815260200190815260200160002060009054906101000a900473ffffffffffffffffffffffffffffffffffffffff169050600260008273ffffffffffffffffffffffffffffffffffffffff1673ffffffffffffffffffffffffffffffffffffffff16815260200190815260200160002060009054906101000a900460ff166103ea576040517f08c379a00000000000000000000000000000000000000000000000000000000081526004016103e190611319565b60405180910390fd5b600360008273ffffffffffffffffffffffffffffffffffffffff1673ffffffffffffffffffffffffffffffffffffffff16815260200190815260200160002060009054906101000a900460ff161561044c576104478187846107ef565b610459565b61045881873085610867565b5b5050949350505050565b61046b610662565b610475828261087f565b5050565b60016020528060005260406000206000915090505481565b610499610662565b600080606084848101906104ad9190611339565b809350819450505084846040908460406104c791906113a8565b926104d493929190611408565b8080601f016020809104026020016040519081016040528093929190818152602001838380828437600081840152601f19601f82011690508083019250505050505050905060008060008089815260200190815260200160002060009054906101000a900473ffffffffffffffffffffffffffffffffffffffff16905060208301519150600260008273ffffffffffffffffffffffffffffffffffffffff1673ffffffffffffffffffffffffffffffffffffffff16815260200190815260200160002060009054906101000a900460ff166105e4576040517f08c379a00000000000000000000000000000000000000000000000000000000081526004016105db90611319565b60405180910390fd5b600360008273ffffffffffffffffffffffffffffffffffffffff1673ffffffffffffffffffffffffffffffffffffffff16815260200190815260200160002060009054906101000a900460ff161561064957610644818360601c87610970565b610658565b610657818360601c876107d9565b5b5050505050505050565b7f000000000000000000000000000000000000000000000000000000000000000073ffffffffffffffffffffffffffffffffffffffff163373ffffffffffffffffffffffffffffffffffffffff16146106f0576040517f08c379a00000000000000000000000000000000000000000000000000000000081526004016106e79061148f565b60405180910390fd5b565b600260008273ffffffffffffffffffffffffffffffffffffffff1673ffffffffffffffffffffffffffffffffffffffff16815260200190815260200160002060009054906101000a900460ff1661077e576040517f08c379a000000000000000000000000000000000000000000000000000000000815260040161077590611521565b60405180910390fd5b6001600360008373ffffffffffffffffffffffffffffffffffffffff1673ffffffffffffffffffffffffffffffffffffffff16815260200190815260200160002060006101000a81548160ff02191690831515021790555050565b60008390506107e98184846109e8565b50505050565b60008390508073ffffffffffffffffffffffffffffffffffffffff166379cc679084846040518363ffffffff1660e01b815260040161082f929190611550565b600060405180830381600087803b15801561084957600080fd5b505af115801561085d573d6000803e3d6000fd5b5050505050505050565b600084905061087881858585610a6e565b5050505050565b8060008084815260200190815260200160002060006101000a81548173ffffffffffffffffffffffffffffffffffffffff021916908373ffffffffffffffffffffffffffffffffffffffff16021790555081600160008373ffffffffffffffffffffffffffffffffffffffff1673ffffffffffffffffffffffffffffffffffffffff168152602001908152602001600020819055506001600260008373ffffffffffffffffffffffffffffffffffffffff1673ffffffffffffffffffffffffffffffffffffffff16815260200190815260200160002060006101000a81548160ff0219169083151502179055505050565b60008390508073ffffffffffffffffffffffffffffffffffffffff166340c10f1984846040518363ffffffff1660e01b81526004016109b0929190611550565b600060405180830381600087803b1580156109ca57600080fd5b505af11580156109de573d6000803e3d6000fd5b5050505050505050565b610a698363a9059cbb60e01b8484604051602401610a07929190611550565b604051602081830303815290604052907bffffffffffffffffffffffffffffffffffffffffffffffffffffffff19166020820180517bffffffffffffffffffffffffffffffffffffffffffffffffffffffff8381831617835250505050610af7565b505050565b610af1846323b872dd60e01b858585604051602401610a8f93929190611579565b604051602081830303815290604052907bffffffffffffffffffffffffffffffffffffffffffffffffffffffff19166020820180517bffffffffffffffffffffffffffffffffffffffffffffffffffffffff8381831617835250505050610af7565b50505050565b6000823b905060008111610b40576040517f08c379a0000000000000000000000000000000000000000000000000000000008152600401610b37906115fc565b60405180910390fd5b6000808473ffffffffffffffffffffffffffffffffffffffff1684604051610b689190611658565b6000604051808303816000865af19150503d8060008114610ba5576040519150601f19603f3d011682016040523d82523d6000602084013e610baa565b606091505b509150915081610bef576040517f08c379a0000000000000000000000000000000000000000000000000000000008152600401610be6906116bb565b60405180910390fd5b600081511115610c4d5780806020019051810190610c0d9190611707565b610c4c576040517f08c379a0000000000000000000000000000000000000000000000000000000008152600401610c4390611780565b60405180910390fd5b5b5050505050565b6000604051905090565b600080fd5b600080fd5b600073ffffffffffffffffffffffffffffffffffffffff82169050919050565b6000610c9382610c68565b9050919050565b610ca381610c88565b8114610cae57600080fd5b50565b600081359050610cc081610c9a565b92915050565b600060208284031215610cdc57610cdb610c5e565b5b6000610cea84828501610cb1565b91505092915050565b600080fd5b600080fd5b6000601f19601f8301169050919050565b7f4e487b7100000000000000000000000000000000000000000000000000000000600052604160045260246000fd5b610d4682610cfd565b810181811067ffffffffffffffff82111715610d6557610d64610d0e565b5b80604052505050565b6000610d78610c54565b9050610d848282610d3d565b919050565b600067ffffffffffffffff821115610da457610da3610d0e565b5b610dad82610cfd565b9050602081019050919050565b82818337600083830152505050565b6000610ddc610dd784610d89565b610d6e565b905082815260208101848484011115610df857610df7610cf8565b5b610e03848285610dba565b509392505050565b600082601f830112610e2057610e1f610cf3565b5b8135610e30848260208601610dc9565b91505092915050565b600060208284031215610e4f57610e4e610c5e565b5b600082013567ffffffffffffffff811115610e6d57610e6c610c63565b5b610e7984828501610e0b565b91505092915050565b6000819050919050565b610e9581610e82565b8114610ea057600080fd5b50565b600081359050610eb281610e8c565b92915050565b600060208284031215610ece57610ecd610c5e565b5b6000610edc84828501610ea3565b91505092915050565b610eee81610c88565b82525050565b6000602082019050610f096000830184610ee5565b92915050565b60008115159050919050565b610f2481610f0f565b82525050565b6000602082019050610f3f6000830184610f1b565b92915050565b600080fd5b600080fd5b60008083601f840112610f6557610f64610cf3565b5b8235905067ffffffffffffffff811115610f8257610f81610f45565b5b602083019150836001820283011115610f9e57610f9d610f4a565b5b9250929050565b60008060008060608587031215610fbf57610fbe610c5e565b5b6000610fcd87828801610ea3565b9450506020610fde87828801610cb1565b935050604085013567ffffffffffffffff811115610fff57610ffe610c63565b5b61100b87828801610f4f565b925092505092959194509250565b600081519050919050565b600082825260208201905092915050565b60005b83811015611053578082015181840152602081019050611038565b83811115611062576000848401525b50505050565b600061107382611019565b61107d8185611024565b935061108d818560208601611035565b61109681610cfd565b840191505092915050565b600060208201905081810360008301526110bb8184611068565b905092915050565b600080604083850312156110da576110d9610c5e565b5b60006110e885828601610ea3565b92505060206110f985828601610cb1565b9150509250929050565b61110c81610e82565b82525050565b60006020820190506111276000830184611103565b92915050565b60008060006040848603121561114657611145610c5e565b5b600061115486828701610ea3565b935050602084013567ffffffffffffffff81111561117557611174610c63565b5b61118186828701610f4f565b92509250509250925092565b600061119882610c68565b9050919050565b6111a88161118d565b81146111b357600080fd5b50565b6000815190506111c58161119f565b92915050565b6000819050919050565b6111de816111cb565b81146111e957600080fd5b50565b6000815190506111fb816111d5565b92915050565b60008060006060848603121561121a57611219610c5e565b5b6000611228868287016111b6565b9350506020611239868287016111b6565b925050604061124a868287016111ec565b9150509250925092565b600081359050611263816111d5565b92915050565b60006020828403121561127f5761127e610c5e565b5b600061128d84828501611254565b91505092915050565b600082825260208201905092915050565b7f70726f766964656420746f6b656e41646472657373206973206e6f742077686960008201527f74656c6973746564000000000000000000000000000000000000000000000000602082015250565b6000611303602883611296565b915061130e826112a7565b604082019050919050565b60006020820190508181036000830152611332816112f6565b9050919050565b600080604083850312156113505761134f610c5e565b5b600061135e85828601611254565b925050602061136f85828601611254565b9150509250929050565b7f4e487b7100000000000000000000000000000000000000000000000000000000600052601160045260246000fd5b60006113b3826111cb565b91506113be836111cb565b9250827fffffffffffffffffffffffffffffffffffffffffffffffffffffffffffffffff038211156113f3576113f2611379565b5b828201905092915050565b600080fd5b600080fd5b6000808585111561141c5761141b6113fe565b5b8386111561142d5761142c611403565b5b6001850283019150848603905094509492505050565b7f73656e646572206d7573742062652062726964676520636f6e74726163740000600082015250565b6000611479601e83611296565b915061148482611443565b602082019050919050565b600060208201905081810360008301526114a88161146c565b9050919050565b7f70726f766964656420636f6e7472616374206973206e6f742077686974656c6960008201527f7374656400000000000000000000000000000000000000000000000000000000602082015250565b600061150b602483611296565b9150611516826114af565b604082019050919050565b6000602082019050818103600083015261153a816114fe565b9050919050565b61154a816111cb565b82525050565b60006040820190506115656000830185610ee5565b6115726020830184611541565b9392505050565b600060608201905061158e6000830186610ee5565b61159b6020830185610ee5565b6115a86040830184611541565b949350505050565b7f45524332303a206e6f74206120636f6e74726163740000000000000000000000600082015250565b60006115e6601583611296565b91506115f1826115b0565b602082019050919050565b60006020820190508181036000830152611615816115d9565b9050919050565b600081905092915050565b600061163282611019565b61163c818561161c565b935061164c818560208601611035565b80840191505092915050565b60006116648284611627565b915081905092915050565b7f45524332303a2063616c6c206661696c65640000000000000000000000000000600082015250565b60006116a5601283611296565b91506116b08261166f565b602082019050919050565b600060208201905081810360008301526116d481611698565b9050919050565b6116e481610f0f565b81146116ef57600080fd5b50565b600081519050611701816116db565b92915050565b60006020828403121561171d5761171c610c5e565b5b600061172b848285016116f2565b91505092915050565b7f45524332303a206f7065726174696f6e20646964206e6f742073756363656564600082015250565b600061176a602083611296565b915061177582611734565b602082019050919050565b600060208201905081810360008301526117998161175d565b905091905056fea264697066735822122020a8bec434c62fa3d1bd946c32fbc0bbc19a7087748940a180ca43cb7cac69e464736f6c634300080b0033",
			"opcodes": "PUSH1 0xA0 PUSH1 0x40 MSTORE CALLVALUE DUP1 ISZERO PUSH3 0x11 JUMPI PUSH1 0x0 DUP1 REVERT JUMPDEST POP PUSH1 0x40 MLOAD PUSH3 0x1909 CODESIZE SUB DUP1 PUSH3 0x1909 DUP4 CODECOPY DUP2 DUP2 ADD PUSH1 0x40 MSTORE DUP2 ADD SWAP1 PUSH3 0x37 SWAP2 SWAP1 PUSH3 0xDE JUMP JUMPDEST DUP1 DUP1 PUSH20 0xFFFFFFFFFFFFFFFFFFFFFFFFFFFFFFFFFFFFFFFF AND PUSH1 0x80 DUP2 PUSH20 0xFFFFFFFFFFFFFFFFFFFFFFFFFFFFFFFFFFFFFFFF AND DUP2 MSTORE POP POP POP POP PUSH3 0x110 JUMP JUMPDEST PUSH1 0x0 DUP1 REVERT JUMPDEST PUSH1 0x0 PUSH20 0xFFFFFFFFFFFFFFFFFFFFFFFFFFFFFFFFFFFFFFFF DUP3 AND SWAP1 POP SWAP2 SWAP1 POP JUMP JUMPDEST PUSH1 0x0 PUSH3 0xA6 DUP3 PUSH3 0x79 JUMP JUMPDEST SWAP1 POP SWAP2 SWAP1 POP JUMP JUMPDEST PUSH3 0xB8 DUP2 PUSH3 0x99 JUMP JUMPDEST DUP2 EQ PUSH3 0xC4 JUMPI PUSH1 0x0 DUP1 REVERT JUMPDEST POP JUMP JUMPDEST PUSH1 0x0 DUP2 MLOAD SWAP1 POP PUSH3 0xD8 DUP2 PUSH3 0xAD JUMP JUMPDEST SWAP3 SWAP2 POP POP JUMP JUMPDEST PUSH1 0x0 PUSH1 0x20 DUP3 DUP5 SUB SLT ISZERO PUSH3 0xF7 JUMPI PUSH3 0xF6 PUSH3 0x74 JUMP JUMPDEST JUMPDEST PUSH1 0x0 PUSH3 0x107 DUP5 DUP3 DUP6 ADD PUSH3 0xC7 JUMP JUMPDEST SWAP2 POP POP SWAP3 SWAP2 POP POP JUMP JUMPDEST PUSH1 0x80 MLOAD PUSH2 0x17D6 PUSH3 0x133 PUSH1 0x0 CODECOPY PUSH1 0x0 DUP2 DUP2 PUSH2 0x2A8 ADD MSTORE PUSH2 0x664 ADD MSTORE PUSH2 0x17D6 PUSH1 0x0 RETURN INVALID PUSH1 0x80 PUSH1 0x40 MSTORE CALLVALUE DUP1 ISZERO PUSH2 0x10 JUMPI PUSH1 0x0 DUP1 REVERT JUMPDEST POP PUSH1 0x4 CALLDATASIZE LT PUSH2 0x9E JUMPI PUSH1 0x0 CALLDATALOAD PUSH1 0xE0 SHR DUP1 PUSH4 0x7F79BEA8 GT PUSH2 0x66 JUMPI DUP1 PUSH4 0x7F79BEA8 EQ PUSH2 0x159 JUMPI DUP1 PUSH4 0xB07E54BB EQ PUSH2 0x189 JUMPI DUP1 PUSH4 0xB8FA3736 EQ PUSH2 0x1B9 JUMPI DUP1 PUSH4 0xC8BA6C87 EQ PUSH2 0x1D5 JUMPI DUP1 PUSH4 0xE248CFF2 EQ PUSH2 0x205 JUMPI PUSH2 0x9E JUMP JUMPDEST DUP1 PUSH4 0x7B7ED99 EQ PUSH2 0xA3 JUMPI DUP1 PUSH4 0x968F264 EQ PUSH2 0xBF JUMPI DUP1 PUSH4 0xA6D55D8 EQ PUSH2 0xDB JUMPI DUP1 PUSH4 0x318C136E EQ PUSH2 0x10B JUMPI DUP1 PUSH4 0x6A70D081 EQ PUSH2 0x129 JUMPI JUMPDEST PUSH1 0x0 DUP1 REVERT JUMPDEST PUSH2 0xBD PUSH1 0x4 DUP1 CALLDATASIZE SUB DUP2 ADD SWAP1 PUSH2 0xB8 SWAP2 SWAP1 PUSH2 0xCC6 JUMP JUMPDEST PUSH2 0x221 JUMP JUMPDEST STOP JUMPDEST PUSH2 0xD9 PUSH1 0x4 DUP1 CALLDATASIZE SUB DUP2 ADD SWAP1 PUSH2 0xD4 SWAP2 SWAP1 PUSH2 0xE39 JUMP JUMPDEST PUSH2 0x235 JUMP JUMPDEST STOP JUMPDEST PUSH2 0xF5 PUSH1 0x4 DUP1 CALLDATASIZE SUB DUP2 ADD SWAP1 PUSH2 0xF0 SWAP2 SWAP1 PUSH2 0xEB8 JUMP JUMPDEST PUSH2 0x273 JUMP JUMPDEST PUSH1 0x40 MLOAD PUSH2 0x102 SWAP2 SWAP1 PUSH2 0xEF4 JUMP JUMPDEST PUSH1 0x40 MLOAD DUP1 SWAP2 SUB SWAP1 RETURN JUMPDEST PUSH2 0x113 PUSH2 0x2A6 JUMP JUMPDEST PUSH1 0x40 MLOAD PUSH2 0x120 SWAP2 SWAP1 PUSH2 0xEF4 JUMP JUMPDEST PUSH1 0x40 MLOAD DUP1 SWAP2 SUB SWAP1 RETURN JUMPDEST PUSH2 0x143 PUSH1 0x4 DUP1 CALLDATASIZE SUB DUP2 ADD SWAP1 PUSH2 0x13E SWAP2 SWAP1 PUSH2 0xCC6 JUMP JUMPDEST PUSH2 0x2CA JUMP JUMPDEST PUSH1 0x40 MLOAD PUSH2 0x150 SWAP2 SWAP1 PUSH2 0xF2A JUMP JUMPDEST PUSH1 0x40 MLOAD DUP1 SWAP2 SUB SWAP1 RETURN JUMPDEST PUSH2 0x173 PUSH1 0x4 DUP1 CALLDATASIZE SUB DUP2 ADD SWAP1 PUSH2 0x16E SWAP2 SWAP1 PUSH2 0xCC6 JUMP JUMPDEST PUSH2 0x2EA JUMP JUMPDEST PUSH1 0x40 MLOAD PUSH2 0x180 SWAP2 SWAP1 PUSH2 0xF2A JUMP JUMPDEST PUSH1 0x40 MLOAD DUP1 SWAP2 SUB SWAP1 RETURN JUMPDEST PUSH2 0x1A3 PUSH1 0x4 DUP1 CALLDATASIZE SUB DUP2 ADD SWAP1 PUSH2 0x19E SWAP2 SWAP1 PUSH2 0xFA5 JUMP JUMPDEST PUSH2 0x30A JUMP JUMPDEST PUSH1 0x40 MLOAD PUSH2 0x1B0 SWAP2 SWAP1 PUSH2 0x10A1 JUMP JUMPDEST PUSH1 0x40 MLOAD DUP1 SWAP2 SUB SWAP1 RETURN JUMPDEST PUSH2 0x1D3 PUSH1 0x4 DUP1 CALLDATASIZE SUB DUP2 ADD SWAP1 PUSH2 0x1CE SWAP2 SWAP1 PUSH2 0x10C3 JUMP JUMPDEST PUSH2 0x463 JUMP JUMPDEST STOP JUMPDEST PUSH2 0x1EF PUSH1 0x4 DUP1 CALLDATASIZE SUB DUP2 ADD SWAP1 PUSH2 0x1EA SWAP2 SWAP1 PUSH2 0xCC6 JUMP JUMPDEST PUSH2 0x479 JUMP JUMPDEST PUSH1 0x40 MLOAD PUSH2 0x1FC SWAP2 SWAP1 PUSH2 0x1112 JUMP JUMPDEST PUSH1 0x40 MLOAD DUP1 SWAP2 SUB SWAP1 RETURN JUMPDEST PUSH2 0x21F PUSH1 0x4 DUP1 CALLDATASIZE SUB DUP2 ADD SWAP1 PUSH2 0x21A SWAP2 SWAP1 PUSH2 0x112D JUMP JUMPDEST PUSH2 0x491 JUMP JUMPDEST STOP JUMPDEST PUSH2 0x229 PUSH2 0x662 JUMP JUMPDEST PUSH2 0x232 DUP2 PUSH2 0x6F2 JUMP JUMPDEST POP JUMP JUMPDEST PUSH2 0x23D PUSH2 0x662 JUMP JUMPDEST PUSH1 0x0 DUP1 PUSH1 0x0 DUP4 DUP1 PUSH1 0x20 ADD SWAP1 MLOAD DUP2 ADD SWAP1 PUSH2 0x256 SWAP2 SWAP1 PUSH2 0x1201 JUMP JUMPDEST DUP1 SWAP4 POP DUP2 SWAP5 POP DUP3 SWAP6 POP POP POP POP PUSH2 0x26D DUP4 DUP4 DUP4 PUSH2 0x7D9 JUMP JUMPDEST POP POP POP POP JUMP JUMPDEST PUSH1 0x0 PUSH1 0x20 MSTORE DUP1 PUSH1 0x0 MSTORE PUSH1 0x40 PUSH1 0x0 KECCAK256 PUSH1 0x0 SWAP2 POP SLOAD SWAP1 PUSH2 0x100 EXP SWAP1 DIV PUSH20 0xFFFFFFFFFFFFFFFFFFFFFFFFFFFFFFFFFFFFFFFF AND DUP2 JUMP JUMPDEST PUSH32 0x0 DUP2 JUMP JUMPDEST PUSH1 0x3 PUSH1 0x20 MSTORE DUP1 PUSH1 0x0 MSTORE PUSH1 0x40 PUSH1 0x0 KECCAK256 PUSH1 0x0 SWAP2 POP SLOAD SWAP1 PUSH2 0x100 EXP SWAP1 DIV PUSH1 0xFF AND DUP2 JUMP JUMPDEST PUSH1 0x2 PUSH1 0x20 MSTORE DUP1 PUSH1 0x0 MSTORE PUSH1 0x40 PUSH1 0x0 KECCAK256 PUSH1 0x0 SWAP2 POP SLOAD SWAP1 PUSH2 0x100 EXP SWAP1 DIV PUSH1 0xFF AND DUP2 JUMP JUMPDEST PUSH1 0x60 PUSH2 0x314 PUSH2 0x662 JUMP JUMPDEST PUSH1 0x0 DUP4 DUP4 DUP2 ADD SWAP1 PUSH2 0x325 SWAP2 SWAP1 PUSH2 0x1269 JUMP JUMPDEST SWAP1 POP PUSH1 0x0 DUP1 PUSH1 0x0 DUP9 DUP2 MSTORE PUSH1 0x20 ADD SWAP1 DUP2 MSTORE PUSH1 0x20 ADD PUSH1 0x0 KECCAK256 PUSH1 0x0 SWAP1 SLOAD SWAP1 PUSH2 0x100 EXP SWAP1 DIV PUSH20 0xFFFFFFFFFFFFFFFFFFFFFFFFFFFFFFFFFFFFFFFF AND SWAP1 POP PUSH1 0x2 PUSH1 0x0 DUP3 PUSH20 0xFFFFFFFFFFFFFFFFFFFFFFFFFFFFFFFFFFFFFFFF AND PUSH20 0xFFFFFFFFFFFFFFFFFFFFFFFFFFFFFFFFFFFFFFFF AND DUP2 MSTORE PUSH1 0x20 ADD SWAP1 DUP2 MSTORE PUSH1 0x20 ADD PUSH1 0x0 KECCAK256 PUSH1 0x0 SWAP1 SLOAD SWAP1 PUSH2 0x100 EXP SWAP1 DIV PUSH1 0xFF AND PUSH2 0x3EA JUMPI PUSH1 0x40 MLOAD PUSH32 0x8C379A000000000000000000000000000000000000000000000000000000000 DUP2 MSTORE PUSH1 0x4 ADD PUSH2 0x3E1 SWAP1 PUSH2 0x1319 JUMP JUMPDEST PUSH1 0x40 MLOAD DUP1 SWAP2 SUB SWAP1 REVERT JUMPDEST PUSH1 0x3 PUSH1 0x0 DUP3 PUSH20 0xFFFFFFFFFFFFFFFFFFFFFFFFFFFFFFFFFFFFFFFF AND PUSH20 0xFFFFFFFFFFFFFFFFFFFFFFFFFFFFFFFFFFFFFFFF AND DUP2 MSTORE PUSH1 0x20 ADD SWAP1 DUP2 MSTORE PUSH1 0x20 ADD PUSH1 0x0 KECCAK256 PUSH1 0x0 SWAP1 SLOAD SWAP1 PUSH2 0x100 EXP SWAP1 DIV PUSH1 0xFF AND ISZERO PUSH2 0x44C JUMPI PUSH2 0x447 DUP2 DUP8 DUP5 PUSH2 0x7EF JUMP JUMPDEST PUSH2 0x459 JUMP JUMPDEST PUSH2 0x458 DUP2 DUP8 ADDRESS DUP6 PUSH2 0x867 JUMP JUMPDEST JUMPDEST POP POP SWAP5 SWAP4 POP POP POP POP JUMP JUMPDEST PUSH2 0x46B PUSH2 0x662 JUMP JUMPDEST PUSH2 0x475 DUP3 DUP3 PUSH2 0x87F JUMP JUMPDEST POP POP JUMP JUMPDEST PUSH1 0x1 PUSH1 0x20 MSTORE DUP1 PUSH1 0x0 MSTORE PUSH1 0x40 PUSH1 0x0 KECCAK256 PUSH1 0x0 SWAP2 POP SWAP1 POP SLOAD DUP2 JUMP JUMPDEST PUSH2 0x499 PUSH2 0x662 JUMP JUMPDEST PUSH1 0x0 DUP1 PUSH1 0x60 DUP5 DUP5 DUP2 ADD SWAP1 PUSH2 0x4AD SWAP2 SWAP1 PUSH2 0x1339 JUMP JUMPDEST DUP1 SWAP4 POP DUP2 SWAP5 POP POP POP DUP5 DUP5 PUSH1 0x40 SWAP1 DUP5 PUSH1 0x40 PUSH2 0x4C7 SWAP2 SWAP1 PUSH2 0x13A8 JUMP JUMPDEST SWAP3 PUSH2 0x4D4 SWAP4 SWAP3 SWAP2 SWAP1 PUSH2 0x1408 JUMP JUMPDEST DUP1 DUP1 PUSH1 0x1F ADD PUSH1 0x20 DUP1 SWAP2 DIV MUL PUSH1 0x20 ADD PUSH1 0x40 MLOAD SWAP1 DUP2 ADD PUSH1 0x40 MSTORE DUP1 SWAP4 SWAP3 SWAP2 SWAP1 DUP2 DUP2 MSTORE PUSH1 0x20 ADD DUP4 DUP4 DUP1 DUP3 DUP5 CALLDATACOPY PUSH1 0x0 DUP2 DUP5 ADD MSTORE PUSH1 0x1F NOT PUSH1 0x1F DUP3 ADD AND SWAP1 POP DUP1 DUP4 ADD SWAP3 POP POP POP POP POP POP POP SWAP1 POP PUSH1 0x0 DUP1 PUSH1 0x0 DUP1 DUP10 DUP2 MSTORE PUSH1 0x20 ADD SWAP1 DUP2 MSTORE PUSH1 0x20 ADD PUSH1 0x0 KECCAK256 PUSH1 0x0 SWAP1 SLOAD SWAP1 PUSH2 0x100 EXP SWAP1 DIV PUSH20 0xFFFFFFFFFFFFFFFFFFFFFFFFFFFFFFFFFFFFFFFF AND SWAP1 POP PUSH1 0x20 DUP4 ADD MLOAD SWAP2 POP PUSH1 0x2 PUSH1 0x0 DUP3 PUSH20 0xFFFFFFFFFFFFFFFFFFFFFFFFFFFFFFFFFFFFFFFF AND PUSH20 0xFFFFFFFFFFFFFFFFFFFFFFFFFFFFFFFFFFFFFFFF AND DUP2 MSTORE PUSH1 0x20 ADD SWAP1 DUP2 MSTORE PUSH1 0x20 ADD PUSH1 0x0 KECCAK256 PUSH1 0x0 SWAP1 SLOAD SWAP1 PUSH2 0x100 EXP SWAP1 DIV PUSH1 0xFF AND PUSH2 0x5E4 JUMPI PUSH1 0x40 MLOAD PUSH32 0x8C379A000000000000000000000000000000000000000000000000000000000 DUP2 MSTORE PUSH1 0x4 ADD PUSH2 0x5DB SWAP1 PUSH2 0x1319 JUMP JUMPDEST PUSH1 0x40 MLOAD DUP1 SWAP2 SUB SWAP1 REVERT JUMPDEST PUSH1 0x3 PUSH1 0x0 DUP3 PUSH20 0xFFFFFFFFFFFFFFFFFFFFFFFFFFFFFFFFFFFFFFFF AND PUSH20 0xFFFFFFFFFFFFFFFFFFFFFFFFFFFFFFFFFFFFFFFF AND DUP2 MSTORE PUSH1 0x20 ADD SWAP1 DUP2 MSTORE PUSH1 0x20 ADD PUSH1 0x0 KECCAK256 PUSH1 0x0 SWAP1 SLOAD SWAP1 PUSH2 0x100 EXP SWAP1 DIV PUSH1 0xFF AND ISZERO PUSH2 0x649 JUMPI PUSH2 0x644 DUP2 DUP4 PUSH1 0x60 SHR DUP8 PUSH2 0x970 JUMP JUMPDEST PUSH2 0x658 JUMP JUMPDEST PUSH2 0x657 DUP2 DUP4 PUSH1 0x60 SHR DUP8 PUSH2 0x7D9 JUMP JUMPDEST JUMPDEST POP POP POP POP POP POP POP POP JUMP JUMPDEST PUSH32 0x0 PUSH20 0xFFFFFFFFFFFFFFFFFFFFFFFFFFFFFFFFFFFFFFFF AND CALLER PUSH20 0xFFFFFFFFFFFFFFFFFFFFFFFFFFFFFFFFFFFFFFFF AND EQ PUSH2 0x6F0 JUMPI PUSH1 0x40 MLOAD PUSH32 0x8C379A000000000000000000000000000000000000000000000000000000000 DUP2 MSTORE PUSH1 0x4 ADD PUSH2 0x6E7 SWAP1 PUSH2 0x148F JUMP JUMPDEST PUSH1 0x40 MLOAD DUP1 SWAP2 SUB SWAP1 REVERT JUMPDEST JUMP JUMPDEST PUSH1 0x2 PUSH1 0x0 DUP3 PUSH20 0xFFFFFFFFFFFFFFFFFFFFFFFFFFFFFFFFFFFFFFFF AND PUSH20 0xFFFFFFFFFFFFFFFFFFFFFFFFFFFFFFFFFFFFFFFF AND DUP2 MSTORE PUSH1 0x20 ADD SWAP1 DUP2 MSTORE PUSH1 0x20 ADD PUSH1 0x0 KECCAK256 PUSH1 0x0 SWAP1 SLOAD SWAP1 PUSH2 0x100 EXP SWAP1 DIV PUSH1 0xFF AND PUSH2 0x77E JUMPI PUSH1 0x40 MLOAD PUSH32 0x8C379A000000000000000000000000000000000000000000000000000000000 DUP2 MSTORE PUSH1 0x4 ADD PUSH2 0x775 SWAP1 PUSH2 0x1521 JUMP JUMPDEST PUSH1 0x40 MLOAD DUP1 SWAP2 SUB SWAP1 REVERT JUMPDEST PUSH1 0x1 PUSH1 0x3 PUSH1 0x0 DUP4 PUSH20 0xFFFFFFFFFFFFFFFFFFFFFFFFFFFFFFFFFFFFFFFF AND PUSH20 0xFFFFFFFFFFFFFFFFFFFFFFFFFFFFFFFFFFFFFFFF AND DUP2 MSTORE PUSH1 0x20 ADD SWAP1 DUP2 MSTORE PUSH1 0x20 ADD PUSH1 0x0 KECCAK256 PUSH1 0x0 PUSH2 0x100 EXP DUP2 SLOAD DUP2 PUSH1 0xFF MUL NOT AND SWAP1 DUP4 ISZERO ISZERO MUL OR SWAP1 SSTORE POP POP JUMP JUMPDEST PUSH1 0x0 DUP4 SWAP1 POP PUSH2 0x7E9 DUP2 DUP5 DUP5 PUSH2 0x9E8 JUMP JUMPDEST POP POP POP POP JUMP JUMPDEST PUSH1 0x0 DUP4 SWAP1 POP DUP1 PUSH20 0xFFFFFFFFFFFFFFFFFFFFFFFFFFFFFFFFFFFFFFFF AND PUSH4 0x79CC6790 DUP5 DUP5 PUSH1 0x40 MLOAD DUP4 PUSH4 0xFFFFFFFF AND PUSH1 0xE0 SHL DUP2 MSTORE PUSH1 0x4 ADD PUSH2 0x82F SWAP3 SWAP2 SWAP1 PUSH2 0x1550 JUMP JUMPDEST PUSH1 0x0 PUSH1 0x40 MLOAD DUP1 DUP4 SUB DUP2 PUSH1 0x0 DUP8 DUP1 EXTCODESIZE ISZERO DUP1 ISZERO PUSH2 0x849 JUMPI PUSH1 0x0 DUP1 REVERT JUMPDEST POP GAS CALL ISZERO DUP1 ISZERO PUSH2 0x85D JUMPI RETURNDATASIZE PUSH1 0x0 DUP1 RETURNDATACOPY RETURNDATASIZE PUSH1 0x0 REVERT JUMPDEST POP POP POP POP POP POP POP POP JUMP JUMPDEST PUSH1 0x0 DUP5 SWAP1 POP PUSH2 0x878 DUP2 DUP6 DUP6 DUP6 PUSH2 0xA6E JUMP JUMPDEST POP POP POP POP POP JUMP JUMPDEST DUP1 PUSH1 0x0 DUP1 DUP5 DUP2 MSTORE PUSH1 0x20 ADD SWAP1 DUP2 MSTORE PUSH1 0x20 ADD PUSH1 0x0 KECCAK256 PUSH1 0x0 PUSH2 0x100 EXP DUP2 SLOAD DUP2 PUSH20 0xFFFFFFFFFFFFFFFFFFFFFFFFFFFFFFFFFFFFFFFF MUL NOT AND SWAP1 DUP4 PUSH20 0xFFFFFFFFFFFFFFFFFFFFFFFFFFFFFFFFFFFFFFFF AND MUL OR SWAP1 SSTORE POP DUP2 PUSH1 0x1 PUSH1 0x0 DUP4 PUSH20 0xFFFFFFFFFFFFFFFFFFFFFFFFFFFFFFFFFFFFFFFF AND PUSH20 0xFFFFFFFFFFFFFFFFFFFFFFFFFFFFFFFFFFFFFFFF AND DUP2 MSTORE PUSH1 0x20 ADD SWAP1 DUP2 MSTORE PUSH1 0x20 ADD PUSH1 0x0 KECCAK256 DUP2 SWAP1 SSTORE POP PUSH1 0x1 PUSH1 0x2 PUSH1 0x0 DUP4 PUSH20 0xFFFFFFFFFFFFFFFFFFFFFFFFFFFFFFFFFFFFFFFF AND PUSH20 0xFFFFFFFFFFFFFFFFFFFFFFFFFFFFFFFFFFFFFFFF AND DUP2 MSTORE PUSH1 0x20 ADD SWAP1 DUP2 MSTORE PUSH1 0x20 ADD PUSH1 0x0 KECCAK256 PUSH1 0x0 PUSH2 0x100 EXP DUP2 SLOAD DUP2 PUSH1 0xFF MUL NOT AND SWAP1 DUP4 ISZERO ISZERO MUL OR SWAP1 SSTORE POP POP POP JUMP JUMPDEST PUSH1 0x0 DUP4 SWAP1 POP DUP1 PUSH20 0xFFFFFFFFFFFFFFFFFFFFFFFFFFFFFFFFFFFFFFFF AND PUSH4 0x40C10F19 DUP5 DUP5 PUSH1 0x40 MLOAD DUP4 PUSH4 0xFFFFFFFF AND PUSH1 0xE0 SHL DUP2 MSTORE PUSH1 0x4 ADD PUSH2 0x9B0 SWAP3 SWAP2 SWAP1 PUSH2 0x1550 JUMP JUMPDEST PUSH1 0x0 PUSH1 0x40 MLOAD DUP1 DUP4 SUB DUP2 PUSH1 0x0 DUP8 DUP1 EXTCODESIZE ISZERO DUP1 ISZERO PUSH2 0x9CA JUMPI PUSH1 0x0 DUP1 REVERT JUMPDEST POP GAS CALL ISZERO DUP1 ISZERO PUSH2 0x9DE JUMPI RETURNDATASIZE PUSH1 0x0 DUP1 RETURNDATACOPY RETURNDATASIZE PUSH1 0x0 REVERT JUMPDEST POP POP POP POP POP POP POP POP JUMP JUMPDEST PUSH2 0xA69 DUP4 PUSH4 0xA9059CBB PUSH1 0xE0 SHL DUP5 DUP5 PUSH1 0x40 MLOAD PUSH1 0x24 ADD PUSH2 0xA07 SWAP3 SWAP2 SWAP1 PUSH2 0x1550 JUMP JUMPDEST PUSH1 0x40 MLOAD PUSH1 0x20 DUP2 DUP4 SUB SUB DUP2 MSTORE SWAP1 PUSH1 0x40 MSTORE SWAP1 PUSH28 0xFFFFFFFFFFFFFFFFFFFFFFFFFFFFFFFFFFFFFFFFFFFFFFFFFFFFFFFF NOT AND PUSH1 0x20 DUP3 ADD DUP1 MLOAD PUSH28 0xFFFFFFFFFFFFFFFFFFFFFFFFFFFFFFFFFFFFFFFFFFFFFFFFFFFFFFFF DUP4 DUP2 DUP4 AND OR DUP4 MSTORE POP POP POP POP PUSH2 0xAF7 JUMP JUMPDEST POP POP POP JUMP JUMPDEST PUSH2 0xAF1 DUP5 PUSH4 0x23B872DD PUSH1 0xE0 SHL DUP6 DUP6 DUP6 PUSH1 0x40 MLOAD PUSH1 0x24 ADD PUSH2 0xA8F SWAP4 SWAP3 SWAP2 SWAP1 PUSH2 0x1579 JUMP JUMPDEST PUSH1 0x40 MLOAD PUSH1 0x20 DUP2 DUP4 SUB SUB DUP2 MSTORE SWAP1 PUSH1 0x40 MSTORE SWAP1 PUSH28 0xFFFFFFFFFFFFFFFFFFFFFFFFFFFFFFFFFFFFFFFFFFFFFFFFFFFFFFFF NOT AND PUSH1 0x20 DUP3 ADD DUP1 MLOAD PUSH28 0xFFFFFFFFFFFFFFFFFFFFFFFFFFFFFFFFFFFFFFFFFFFFFFFFFFFFFFFF DUP4 DUP2 DUP4 AND OR DUP4 MSTORE POP POP POP POP PUSH2 0xAF7 JUMP JUMPDEST POP POP POP POP JUMP JUMPDEST PUSH1 0x0 DUP3 EXTCODESIZE SWAP1 POP PUSH1 0x0 DUP2 GT PUSH2 0xB40 JUMPI PUSH1 0x40 MLOAD PUSH32 0x8C379A000000000000000000000000000000000000000000000000000000000 DUP2 MSTORE PUSH1 0x4 ADD PUSH2 0xB37 SWAP1 PUSH2 0x15FC JUMP JUMPDEST PUSH1 0x40 MLOAD DUP1 SWAP2 SUB SWAP1 REVERT JUMPDEST PUSH1 0x0 DUP1 DUP5 PUSH20 0xFFFFFFFFFFFFFFFFFFFFFFFFFFFFFFFFFFFFFFFF AND DUP5 PUSH1 0x40 MLOAD PUSH2 0xB68 SWAP2 SWAP1 PUSH2 0x1658 JUMP JUMPDEST PUSH1 0x0 PUSH1 0x40 MLOAD DUP1 DUP4 SUB DUP2 PUSH1 0x0 DUP7 GAS CALL SWAP2 POP POP RETURNDATASIZE DUP1 PUSH1 0x0 DUP2 EQ PUSH2 0xBA5 JUMPI PUSH1 0x40 MLOAD SWAP2 POP PUSH1 0x1F NOT PUSH1 0x3F RETURNDATASIZE ADD AND DUP3 ADD PUSH1 0x40 MSTORE RETURNDATASIZE DUP3 MSTORE RETURNDATASIZE PUSH1 0x0 PUSH1 0x20 DUP5 ADD RETURNDATACOPY PUSH2 0xBAA JUMP JUMPDEST PUSH1 0x60 SWAP2 POP JUMPDEST POP SWAP2 POP SWAP2 POP DUP2 PUSH2 0xBEF JUMPI PUSH1 0x40 MLOAD PUSH32 0x8C379A000000000000000000000000000000000000000000000000000000000 DUP2 MSTORE PUSH1 0x4 ADD PUSH2 0xBE6 SWAP1 PUSH2 0x16BB JUMP JUMPDEST PUSH1 0x40 MLOAD DUP1 SWAP2 SUB SWAP1 REVERT JUMPDEST PUSH1 0x0 DUP2 MLOAD GT ISZERO PUSH2 0xC4D JUMPI DUP1 DUP1 PUSH1 0x20 ADD SWAP1 MLOAD DUP2 ADD SWAP1 PUSH2 0xC0D SWAP2 SWAP1 PUSH2 0x1707 JUMP JUMPDEST PUSH2 0xC4C JUMPI PUSH1 0x40 MLOAD PUSH32 0x8C379A000000000000000000000000000000000000000000000000000000000 DUP2 MSTORE PUSH1 0x4 ADD PUSH2 0xC43 SWAP1 PUSH2 0x1780 JUMP JUMPDEST PUSH1 0x40 MLOAD DUP1 SWAP2 SUB SWAP1 REVERT JUMPDEST JUMPDEST POP POP POP POP POP JUMP JUMPDEST PUSH1 0x0 PUSH1 0x40 MLOAD SWAP1 POP SWAP1 JUMP JUMPDEST PUSH1 0x0 DUP1 REVERT JUMPDEST PUSH1 0x0 DUP1 REVERT JUMPDEST PUSH1 0x0 PUSH20 0xFFFFFFFFFFFFFFFFFFFFFFFFFFFFFFFFFFFFFFFF DUP3 AND SWAP1 POP SWAP2 SWAP1 POP JUMP JUMPDEST PUSH1 0x0 PUSH2 0xC93 DUP3 PUSH2 0xC68 JUMP JUMPDEST SWAP1 POP SWAP2 SWAP1 POP JUMP JUMPDEST PUSH2 0xCA3 DUP2 PUSH2 0xC88 JUMP JUMPDEST DUP2 EQ PUSH2 0xCAE JUMPI PUSH1 0x0 DUP1 REVERT JUMPDEST POP JUMP JUMPDEST PUSH1 0x0 DUP2 CALLDATALOAD SWAP1 POP PUSH2 0xCC0 DUP2 PUSH2 0xC9A JUMP JUMPDEST SWAP3 SWAP2 POP POP JUMP JUMPDEST PUSH1 0x0 PUSH1 0x20 DUP3 DUP5 SUB SLT ISZERO PUSH2 0xCDC JUMPI PUSH2 0xCDB PUSH2 0xC5E JUMP JUMPDEST JUMPDEST PUSH1 0x0 PUSH2 0xCEA DUP5 DUP3 DUP6 ADD PUSH2 0xCB1 JUMP JUMPDEST SWAP2 POP POP SWAP3 SWAP2 POP POP JUMP JUMPDEST PUSH1 0x0 DUP1 REVERT JUMPDEST PUSH1 0x0 DUP1 REVERT JUMPDEST PUSH1 0x0 PUSH1 0x1F NOT PUSH1 0x1F DUP4 ADD AND SWAP1 POP SWAP2 SWAP1 POP JUMP JUMPDEST PUSH32 0x4E487B7100000000000000000000000000000000000000000000000000000000 PUSH1 0x0 MSTORE PUSH1 0x41 PUSH1 0x4 MSTORE PUSH1 0x24 PUSH1 0x0 REVERT JUMPDEST PUSH2 0xD46 DUP3 PUSH2 0xCFD JUMP JUMPDEST DUP2 ADD DUP2 DUP2 LT PUSH8 0xFFFFFFFFFFFFFFFF DUP3 GT OR ISZERO PUSH2 0xD65 JUMPI PUSH2 0xD64 PUSH2 0xD0E JUMP JUMPDEST JUMPDEST DUP1 PUSH1 0x40 MSTORE POP POP POP JUMP JUMPDEST PUSH1 0x0 PUSH2 0xD78 PUSH2 0xC54 JUMP JUMPDEST SWAP1 POP PUSH2 0xD84 DUP3 DUP3 PUSH2 0xD3D JUMP JUMPDEST SWAP2 SWAP1 POP JUMP JUMPDEST PUSH1 0x0 PUSH8 0xFFFFFFFFFFFFFFFF DUP3 GT ISZERO PUSH2 0xDA4 JUMPI PUSH2 0xDA3 PUSH2 0xD0E JUMP JUMPDEST JUMPDEST PUSH2 0xDAD DUP3 PUSH2 0xCFD JUMP JUMPDEST SWAP1 POP PUSH1 0x20 DUP2 ADD SWAP1 POP SWAP2 SWAP1 POP JUMP JUMPDEST DUP3 DUP2 DUP4 CALLDATACOPY PUSH1 0x0 DUP4 DUP4 ADD MSTORE POP POP POP JUMP JUMPDEST PUSH1 0x0 PUSH2 0xDDC PUSH2 0xDD7 DUP5 PUSH2 0xD89 JUMP JUMPDEST PUSH2 0xD6E JUMP JUMPDEST SWAP1 POP DUP3 DUP2 MSTORE PUSH1 0x20 DUP2 ADD DUP5 DUP5 DUP5 ADD GT ISZERO PUSH2 0xDF8 JUMPI PUSH2 0xDF7 PUSH2 0xCF8 JUMP JUMPDEST JUMPDEST PUSH2 0xE03 DUP5 DUP3 DUP6 PUSH2 0xDBA JUMP JUMPDEST POP SWAP4 SWAP3 POP POP POP JUMP JUMPDEST PUSH1 0x0 DUP3 PUSH1 0x1F DUP4 ADD SLT PUSH2 0xE20 JUMPI PUSH2 0xE1F PUSH2 0xCF3 JUMP JUMPDEST JUMPDEST DUP2 CALLDATALOAD PUSH2 0xE30 DUP5 DUP3 PUSH1 0x20 DUP7 ADD PUSH2 0xDC9 JUMP JUMPDEST SWAP2 POP POP SWAP3 SWAP2 POP POP JUMP JUMPDEST PUSH1 0x0 PUSH1 0x20 DUP3 DUP5 SUB SLT ISZERO PUSH2 0xE4F JUMPI PUSH2 0xE4E PUSH2 0xC5E JUMP JUMPDEST JUMPDEST PUSH1 0x0 DUP3 ADD CALLDATALOAD PUSH8 0xFFFFFFFFFFFFFFFF DUP2 GT ISZERO PUSH2 0xE6D JUMPI PUSH2 0xE6C PUSH2 0xC63 JUMP JUMPDEST JUMPDEST PUSH2 0xE79 DUP5 DUP3 DUP6 ADD PUSH2 0xE0B JUMP JUMPDEST SWAP2 POP POP SWAP3 SWAP2 POP POP JUMP JUMPDEST PUSH1 0x0 DUP2 SWAP1 POP SWAP2 SWAP1 POP JUMP JUMPDEST PUSH2 0xE95 DUP2 PUSH2 0xE82 JUMP JUMPDEST DUP2 EQ PUSH2 0xEA0 JUMPI PUSH1 0x0 DUP1 REVERT JUMPDEST POP JUMP JUMPDEST PUSH1 0x0 DUP2 CALLDATALOAD SWAP1 POP PUSH2 0xEB2 DUP2 PUSH2 0xE8C JUMP JUMPDEST SWAP3 SWAP2 POP POP JUMP JUMPDEST PUSH1 0x0 PUSH1 0x20 DUP3 DUP5 SUB SLT ISZERO PUSH2 0xECE JUMPI PUSH2 0xECD PUSH2 0xC5E JUMP JUMPDEST JUMPDEST PUSH1 0x0 PUSH2 0xEDC DUP5 DUP3 DUP6 ADD PUSH2 0xEA3 JUMP JUMPDEST SWAP2 POP POP SWAP3 SWAP2 POP POP JUMP JUMPDEST PUSH2 0xEEE DUP2 PUSH2 0xC88 JUMP JUMPDEST DUP3 MSTORE POP POP JUMP JUMPDEST PUSH1 0x0 PUSH1 0x20 DUP3 ADD SWAP1 POP PUSH2 0xF09 PUSH1 0x0 DUP4 ADD DUP5 PUSH2 0xEE5 JUMP JUMPDEST SWAP3 SWAP2 POP POP JUMP JUMPDEST PUSH1 0x0 DUP2 ISZERO ISZERO SWAP1 POP SWAP2 SWAP1 POP JUMP JUMPDEST PUSH2 0xF24 DUP2 PUSH2 0xF0F JUMP JUMPDEST DUP3 MSTORE POP POP JUMP JUMPDEST PUSH1 0x0 PUSH1 0x20 DUP3 ADD SWAP1 POP PUSH2 0xF3F PUSH1 0x0 DUP4 ADD DUP5 PUSH2 0xF1B JUMP JUMPDEST SWAP3 SWAP2 POP POP JUMP JUMPDEST PUSH1 0x0 DUP1 REVERT JUMPDEST PUSH1 0x0 DUP1 REVERT JUMPDEST PUSH1 0x0 DUP1 DUP4 PUSH1 0x1F DUP5 ADD SLT PUSH2 0xF65 JUMPI PUSH2 0xF64 PUSH2 0xCF3 JUMP JUMPDEST JUMPDEST DUP3 CALLDATALOAD SWAP1 POP PUSH8 0xFFFFFFFFFFFFFFFF DUP2 GT ISZERO PUSH2 0xF82 JUMPI PUSH2 0xF81 PUSH2 0xF45 JUMP JUMPDEST JUMPDEST PUSH1 0x20 DUP4 ADD SWAP2 POP DUP4 PUSH1 0x1 DUP3 MUL DUP4 ADD GT ISZERO PUSH2 0xF9E JUMPI PUSH2 0xF9D PUSH2 0xF4A JUMP JUMPDEST JUMPDEST SWAP3 POP SWAP3 SWAP1 POP JUMP JUMPDEST PUSH1 0x0 DUP1 PUSH1 0x0 DUP1 PUSH1 0x60 DUP6 DUP8 SUB SLT ISZERO PUSH2 0xFBF JUMPI PUSH2 0xFBE PUSH2 0xC5E JUMP JUMPDEST JUMPDEST PUSH1 0x0 PUSH2 0xFCD DUP8 DUP3 DUP9 ADD PUSH2 0xEA3 JUMP JUMPDEST SWAP5 POP POP PUSH1 0x20 PUSH2 0xFDE DUP8 DUP3 DUP9 ADD PUSH2 0xCB1 JUMP JUMPDEST SWAP4 POP POP PUSH1 0x40 DUP6 ADD CALLDATALOAD PUSH8 0xFFFFFFFFFFFFFFFF DUP2 GT ISZERO PUSH2 0xFFF JUMPI PUSH2 0xFFE PUSH2 0xC63 JUMP JUMPDEST JUMPDEST PUSH2 0x100B DUP8 DUP3 DUP9 ADD PUSH2 0xF4F JUMP JUMPDEST SWAP3 POP SWAP3 POP POP SWAP3 SWAP6 SWAP2 SWAP5 POP SWAP3 POP JUMP JUMPDEST PUSH1 0x0 DUP2 MLOAD SWAP1 POP SWAP2 SWAP1 POP JUMP JUMPDEST PUSH1 0x0 DUP3 DUP3 MSTORE PUSH1 0x20 DUP3 ADD SWAP1 POP SWAP3 SWAP2 POP POP JUMP JUMPDEST PUSH1 0x0 JUMPDEST DUP4 DUP2 LT ISZERO PUSH2 0x1053 JUMPI DUP1 DUP3 ADD MLOAD DUP2 DUP5 ADD MSTORE PUSH1 0x20 DUP2 ADD SWAP1 POP PUSH2 0x1038 JUMP JUMPDEST DUP4 DUP2 GT ISZERO PUSH2 0x1062 JUMPI PUSH1 0x0 DUP5 DUP5 ADD MSTORE JUMPDEST POP POP POP POP JUMP JUMPDEST PUSH1 0x0 PUSH2 0x1073 DUP3 PUSH2 0x1019 JUMP JUMPDEST PUSH2 0x107D DUP2 DUP6 PUSH2 0x1024 JUMP JUMPDEST SWAP4 POP PUSH2 0x108D DUP2 DUP6 PUSH1 0x20 DUP7 ADD PUSH2 0x1035 JUMP JUMPDEST PUSH2 0x1096 DUP2 PUSH2 0xCFD JUMP JUMPDEST DUP5 ADD SWAP2 POP POP SWAP3 SWAP2 POP POP JUMP JUMPDEST PUSH1 0x0 PUSH1 0x20 DUP3 ADD SWAP1 POP DUP2 DUP2 SUB PUSH1 0x0 DUP4 ADD MSTORE PUSH2 0x10BB DUP2 DUP5 PUSH2 0x1068 JUMP JUMPDEST SWAP1 POP SWAP3 SWAP2 POP POP JUMP JUMPDEST PUSH1 0x0 DUP1 PUSH1 0x40 DUP4 DUP6 SUB SLT ISZERO PUSH2 0x10DA JUMPI PUSH2 0x10D9 PUSH2 0xC5E JUMP JUMPDEST JUMPDEST PUSH1 0x0 PUSH2 0x10E8 DUP6 DUP3 DUP7 ADD PUSH2 0xEA3 JUMP JUMPDEST SWAP3 POP POP PUSH1 0x20 PUSH2 0x10F9 DUP6 DUP3 DUP7 ADD PUSH2 0xCB1 JUMP JUMPDEST SWAP2 POP POP SWAP3 POP SWAP3 SWAP1 POP JUMP JUMPDEST PUSH2 0x110C DUP2 PUSH2 0xE82 JUMP JUMPDEST DUP3 MSTORE POP POP JUMP JUMPDEST PUSH1 0x0 PUSH1 0x20 DUP3 ADD SWAP1 POP PUSH2 0x1127 PUSH1 0x0 DUP4 ADD DUP5 PUSH2 0x1103 JUMP JUMPDEST SWAP3 SWAP2 POP POP JUMP JUMPDEST PUSH1 0x0 DUP1 PUSH1 0x0 PUSH1 0x40 DUP5 DUP7 SUB SLT ISZERO PUSH2 0x1146 JUMPI PUSH2 0x1145 PUSH2 0xC5E JUMP JUMPDEST JUMPDEST PUSH1 0x0 PUSH2 0x1154 DUP7 DUP3 DUP8 ADD PUSH2 0xEA3 JUMP JUMPDEST SWAP4 POP POP PUSH1 0x20 DUP5 ADD CALLDATALOAD PUSH8 0xFFFFFFFFFFFFFFFF DUP2 GT ISZERO PUSH2 0x1175 JUMPI PUSH2 0x1174 PUSH2 0xC63 JUMP JUMPDEST JUMPDEST PUSH2 0x1181 DUP7 DUP3 DUP8 ADD PUSH2 0xF4F JUMP JUMPDEST SWAP3 POP SWAP3 POP POP SWAP3 POP SWAP3 POP SWAP3 JUMP JUMPDEST PUSH1 0x0 PUSH2 0x1198 DUP3 PUSH2 0xC68 JUMP JUMPDEST SWAP1 POP SWAP2 SWAP1 POP JUMP JUMPDEST PUSH2 0x11A8 DUP2 PUSH2 0x118D JUMP JUMPDEST DUP2 EQ PUSH2 0x11B3 JUMPI PUSH1 0x0 DUP1 REVERT JUMPDEST POP JUMP JUMPDEST PUSH1 0x0 DUP2 MLOAD SWAP1 POP PUSH2 0x11C5 DUP2 PUSH2 0x119F JUMP JUMPDEST SWAP3 SWAP2 POP POP JUMP JUMPDEST PUSH1 0x0 DUP2 SWAP1 POP SWAP2 SWAP1 POP JUMP JUMPDEST PUSH2 0x11DE DUP2 PUSH2 0x11CB JUMP JUMPDEST DUP2 EQ PUSH2 0x11E9 JUMPI PUSH1 0x0 DUP1 REVERT JUMPDEST POP JUMP JUMPDEST PUSH1 0x0 DUP2 MLOAD SWAP1 POP PUSH2 0x11FB DUP2 PUSH2 0x11D5 JUMP JUMPDEST SWAP3 SWAP2 POP POP JUMP JUMPDEST PUSH1 0x0 DUP1 PUSH1 0x0 PUSH1 0x60 DUP5 DUP7 SUB SLT ISZERO PUSH2 0x121A JUMPI PUSH2 0x1219 PUSH2 0xC5E JUMP JUMPDEST JUMPDEST PUSH1 0x0 PUSH2 0x1228 DUP7 DUP3 DUP8 ADD PUSH2 0x11B6 JUMP JUMPDEST SWAP4 POP POP PUSH1 0x20 PUSH2 0x1239 DUP7 DUP3 DUP8 ADD PUSH2 0x11B6 JUMP JUMPDEST SWAP3 POP POP PUSH1 0x40 PUSH2 0x124A DUP7 DUP3 DUP8 ADD PUSH2 0x11EC JUMP JUMPDEST SWAP2 POP POP SWAP3 POP SWAP3 POP SWAP3 JUMP JUMPDEST PUSH1 0x0 DUP2 CALLDATALOAD SWAP1 POP PUSH2 0x1263 DUP2 PUSH2 0x11D5 JUMP JUMPDEST SWAP3 SWAP2 POP POP JUMP JUMPDEST PUSH1 0x0 PUSH1 0x20 DUP3 DUP5 SUB SLT ISZERO PUSH2 0x127F JUMPI PUSH2 0x127E PUSH2 0xC5E JUMP JUMPDEST JUMPDEST PUSH1 0x0 PUSH2 0x128D DUP5 DUP3 DUP6 ADD PUSH2 0x1254 JUMP JUMPDEST SWAP2 POP POP SWAP3 SWAP2 POP POP JUMP JUMPDEST PUSH1 0x0 DUP3 DUP3 MSTORE PUSH1 0x20 DUP3 ADD SWAP1 POP SWAP3 SWAP2 POP POP JUMP JUMPDEST PUSH32 0x70726F766964656420746F6B656E41646472657373206973206E6F7420776869 PUSH1 0x0 DUP3 ADD MSTORE PUSH32 0x74656C6973746564000000000000000000000000000000000000000000000000 PUSH1 0x20 DUP3 ADD MSTORE POP JUMP JUMPDEST PUSH1 0x0 PUSH2 0x1303 PUSH1 0x28 DUP4 PUSH2 0x1296 JUMP JUMPDEST SWAP2 POP PUSH2 0x130E DUP3 PUSH2 0x12A7 JUMP JUMPDEST PUSH1 0x40 DUP3 ADD SWAP1 POP SWAP2 SWAP1 POP JUMP JUMPDEST PUSH1 0x0 PUSH1 0x20 DUP3 ADD SWAP1 POP DUP2 DUP2 SUB PUSH1 0x0 DUP4 ADD MSTORE PUSH2 0x1332 DUP2 PUSH2 0x12F6 JUMP JUMPDEST SWAP1 POP SWAP2 SWAP1 POP JUMP JUMPDEST PUSH1 0x0 DUP1 PUSH1 0x40 DUP4 DUP6 SUB SLT ISZERO PUSH2 0x1350 JUMPI PUSH2 0x134F PUSH2 0xC5E JUMP JUMPDEST JUMPDEST PUSH1 0x0 PUSH2 0x135E DUP6 DUP3 DUP7 ADD PUSH2 0x1254 JUMP JUMPDEST SWAP3 POP POP PUSH1 0x20 PUSH2 0x136F DUP6 DUP3 DUP7 ADD PUSH2 0x1254 JUMP JUMPDEST SWAP2 POP POP SWAP3 POP SWAP3 SWAP1 POP JUMP JUMPDEST PUSH32 0x4E487B7100000000000000000000000000000000000000000000000000000000 PUSH1 0x0 MSTORE PUSH1 0x11 PUSH1 0x4 MSTORE PUSH1 0x24 PUSH1 0x0 REVERT JUMPDEST PUSH1 0x0 PUSH2 0x13B3 DUP3 PUSH2 0x11CB JUMP JUMPDEST SWAP2 POP PUSH2 0x13BE DUP4 PUSH2 0x11CB JUMP JUMPDEST SWAP3 POP DUP3 PUSH32 0xFFFFFFFFFFFFFFFFFFFFFFFFFFFFFFFFFFFFFFFFFFFFFFFFFFFFFFFFFFFFFFFF SUB DUP3 GT ISZERO PUSH2 0x13F3 JUMPI PUSH2 0x13F2 PUSH2 0x1379 JUMP JUMPDEST JUMPDEST DUP3 DUP3 ADD SWAP1 POP SWAP3 SWAP2 POP POP JUMP JUMPDEST PUSH1 0x0 DUP1 REVERT JUMPDEST PUSH1 0x0 DUP1 REVERT JUMPDEST PUSH1 0x0 DUP1 DUP6 DUP6 GT ISZERO PUSH2 0x141C JUMPI PUSH2 0x141B PUSH2 0x13FE JUMP JUMPDEST JUMPDEST DUP4 DUP7 GT ISZERO PUSH2 0x142D JUMPI PUSH2 0x142C PUSH2 0x1403 JUMP JUMPDEST JUMPDEST PUSH1 0x1 DUP6 MUL DUP4 ADD SWAP2 POP DUP5 DUP7 SUB SWAP1 POP SWAP5 POP SWAP5 SWAP3 POP POP POP JUMP JUMPDEST PUSH32 0x73656E646572206D7573742062652062726964676520636F6E74726163740000 PUSH1 0x0 DUP3 ADD MSTORE POP JUMP JUMPDEST PUSH1 0x0 PUSH2 0x1479 PUSH1 0x1E DUP4 PUSH2 0x1296 JUMP JUMPDEST SWAP2 POP PUSH2 0x1484 DUP3 PUSH2 0x1443 JUMP JUMPDEST PUSH1 0x20 DUP3 ADD SWAP1 POP SWAP2 SWAP1 POP JUMP JUMPDEST PUSH1 0x0 PUSH1 0x20 DUP3 ADD SWAP1 POP DUP2 DUP2 SUB PUSH1 0x0 DUP4 ADD MSTORE PUSH2 0x14A8 DUP2 PUSH2 0x146C JUMP JUMPDEST SWAP1 POP SWAP2 SWAP1 POP JUMP JUMPDEST PUSH32 0x70726F766964656420636F6E7472616374206973206E6F742077686974656C69 PUSH1 0x0 DUP3 ADD MSTORE PUSH32 0x7374656400000000000000000000000000000000000000000000000000000000 PUSH1 0x20 DUP3 ADD MSTORE POP JUMP JUMPDEST PUSH1 0x0 PUSH2 0x150B PUSH1 0x24 DUP4 PUSH2 0x1296 JUMP JUMPDEST SWAP2 POP PUSH2 0x1516 DUP3 PUSH2 0x14AF JUMP JUMPDEST PUSH1 0x40 DUP3 ADD SWAP1 POP SWAP2 SWAP1 POP JUMP JUMPDEST PUSH1 0x0 PUSH1 0x20 DUP3 ADD SWAP1 POP DUP2 DUP2 SUB PUSH1 0x0 DUP4 ADD MSTORE PUSH2 0x153A DUP2 PUSH2 0x14FE JUMP JUMPDEST SWAP1 POP SWAP2 SWAP1 POP JUMP JUMPDEST PUSH2 0x154A DUP2 PUSH2 0x11CB JUMP JUMPDEST DUP3 MSTORE POP POP JUMP JUMPDEST PUSH1 0x0 PUSH1 0x40 DUP3 ADD SWAP1 POP PUSH2 0x1565 PUSH1 0x0 DUP4 ADD DUP6 PUSH2 0xEE5 JUMP JUMPDEST PUSH2 0x1572 PUSH1 0x20 DUP4 ADD DUP5 PUSH2 0x1541 JUMP JUMPDEST SWAP4 SWAP3 POP POP POP JUMP JUMPDEST PUSH1 0x0 PUSH1 0x60 DUP3 ADD SWAP1 POP PUSH2 0x158E PUSH1 0x0 DUP4 ADD DUP7 PUSH2 0xEE5 JUMP JUMPDEST PUSH2 0x159B PUSH1 0x20 DUP4 ADD DUP6 PUSH2 0xEE5 JUMP JUMPDEST PUSH2 0x15A8 PUSH1 0x40 DUP4 ADD DUP5 PUSH2 0x1541 JUMP JUMPDEST SWAP5 SWAP4 POP POP POP POP JUMP JUMPDEST PUSH32 0x45524332303A206E6F74206120636F6E74726163740000000000000000000000 PUSH1 0x0 DUP3 ADD MSTORE POP JUMP JUMPDEST PUSH1 0x0 PUSH2 0x15E6 PUSH1 0x15 DUP4 PUSH2 0x1296 JUMP JUMPDEST SWAP2 POP PUSH2 0x15F1 DUP3 PUSH2 0x15B0 JUMP JUMPDEST PUSH1 0x20 DUP3 ADD SWAP1 POP SWAP2 SWAP1 POP JUMP JUMPDEST PUSH1 0x0 PUSH1 0x20 DUP3 ADD SWAP1 POP DUP2 DUP2 SUB PUSH1 0x0 DUP4 ADD MSTORE PUSH2 0x1615 DUP2 PUSH2 0x15D9 JUMP JUMPDEST SWAP1 POP SWAP2 SWAP1 POP JUMP JUMPDEST PUSH1 0x0 DUP2 SWAP1 POP SWAP3 SWAP2 POP POP JUMP JUMPDEST PUSH1 0x0 PUSH2 0x1632 DUP3 PUSH2 0x1019 JUMP JUMPDEST PUSH2 0x163C DUP2 DUP6 PUSH2 0x161C JUMP JUMPDEST SWAP4 POP PUSH2 0x164C DUP2 DUP6 PUSH1 0x20 DUP7 ADD PUSH2 0x1035 JUMP JUMPDEST DUP1 DUP5 ADD SWAP2 POP POP SWAP3 SWAP2 POP POP JUMP JUMPDEST PUSH1 0x0 PUSH2 0x1664 DUP3 DUP5 PUSH2 0x1627 JUMP JUMPDEST SWAP2 POP DUP2 SWAP1 POP SWAP3 SWAP2 POP POP JUMP JUMPDEST PUSH32 0x45524332303A2063616C6C206661696C65640000000000000000000000000000 PUSH1 0x0 DUP3 ADD MSTORE POP JUMP JUMPDEST PUSH1 0x0 PUSH2 0x16A5 PUSH1 0x12 DUP4 PUSH2 0x1296 JUMP JUMPDEST SWAP2 POP PUSH2 0x16B0 DUP3 PUSH2 0x166F JUMP JUMPDEST PUSH1 0x20 DUP3 ADD SWAP1 POP SWAP2 SWAP1 POP JUMP JUMPDEST PUSH1 0x0 PUSH1 0x20 DUP3 ADD SWAP1 POP DUP2 DUP2 SUB PUSH1 0x0 DUP4 ADD MSTORE PUSH2 0x16D4 DUP2 PUSH2 0x1698 JUMP JUMPDEST SWAP1 POP SWAP2 SWAP1 POP JUMP JUMPDEST PUSH2 0x16E4 DUP2 PUSH2 0xF0F JUMP JUMPDEST DUP2 EQ PUSH2 0x16EF JUMPI PUSH1 0x0 DUP1 REVERT JUMPDEST POP JUMP JUMPDEST PUSH1 0x0 DUP2 MLOAD SWAP1 POP PUSH2 0x1701 DUP2 PUSH2 0x16DB JUMP JUMPDEST SWAP3 SWAP2 POP POP JUMP JUMPDEST PUSH1 0x0 PUSH1 0x20 DUP3 DUP5 SUB SLT ISZERO PUSH2 0x171D JUMPI PUSH2 0x171C PUSH2 0xC5E JUMP JUMPDEST JUMPDEST PUSH1 0x0 PUSH2 0x172B DUP5 DUP3 DUP6 ADD PUSH2 0x16F2 JUMP JUMPDEST SWAP2 POP POP SWAP3 SWAP2 POP POP JUMP JUMPDEST PUSH32 0x45524332303A206F7065726174696F6E20646964206E6F742073756363656564 PUSH1 0x0 DUP3 ADD MSTORE POP JUMP JUMPDEST PUSH1 0x0 PUSH2 0x176A PUSH1 0x20 DUP4 PUSH2 0x1296 JUMP JUMPDEST SWAP2 POP PUSH2 0x1775 DUP3 PUSH2 0x1734 JUMP JUMPDEST PUSH1 0x20 DUP3 ADD SWAP1 POP SWAP2 SWAP1 POP JUMP JUMPDEST PUSH1 0x0 PUSH1 0x20 DUP3 ADD SWAP1 POP DUP2 DUP2 SUB PUSH1 0x0 DUP4 ADD MSTORE PUSH2 0x1799 DUP2 PUSH2 0x175D JUMP JUMPDEST SWAP1 POP SWAP2 SWAP1 POP JUMP INVALID LOG2 PUSH5 0x6970667358 0x22 SLT KECCAK256 KECCAK256 0xA8 0xBE 0xC4 CALLVALUE 0xC6 0x2F LOG3 0xD1 0xBD SWAP5 PUSH13 0x32FBC0BBC19A7087748940A180 0xCA NUMBER 0xCB PUSH29 0xAC69E464736F6C634300080B0033000000000000000000000000000000 "
		},
		"gasEstimates": {
			"creation": {
				"codeDepositCost": "1220400",
				"executionCost": "infinite",
				"totalCost": "infinite"
			},
			"external": {
				"_bridgeAddress()": "infinite",
				"_burnList(address)": "2934",
				"_contractWhitelist(address)": "2845",
				"_resourceIDToTokenContractAddress(bytes32)": "2884",
				"_tokenContractAddressToResourceID(address)": "2880",
				"deposit(bytes32,address,bytes)": "infinite",
				"executeProposal(bytes32,bytes)": "infinite",
				"setBurnable(address)": "infinite",
				"setResource(bytes32,address)": "infinite",
				"withdraw(bytes)": "infinite"
			}
		},
		"methodIdentifiers": {
			"_bridgeAddress()": "318c136e",
			"_burnList(address)": "6a70d081",
			"_contractWhitelist(address)": "7f79bea8",
			"_resourceIDToTokenContractAddress(bytes32)": "0a6d55d8",
			"_tokenContractAddressToResourceID(address)": "c8ba6c87",
			"deposit(bytes32,address,bytes)": "b07e54bb",
			"executeProposal(bytes32,bytes)": "e248cff2",
			"setBurnable(address)": "07b7ed99",
			"setResource(bytes32,address)": "b8fa3736",
			"withdraw(bytes)": "0968f264"
		}
	},
	"abi": [
		{
			"inputs": [
				{
					"internalType": "address",
					"name": "bridgeAddress",
					"type": "address"
				}
			],
			"stateMutability": "nonpayable",
			"type": "constructor"
		},
		{
			"inputs": [],
			"name": "_bridgeAddress",
			"outputs": [
				{
					"internalType": "address",
					"name": "",
					"type": "address"
				}
			],
			"stateMutability": "view",
			"type": "function"
		},
		{
			"inputs": [
				{
					"internalType": "address",
					"name": "",
					"type": "address"
				}
			],
			"name": "_burnList",
			"outputs": [
				{
					"internalType": "bool",
					"name": "",
					"type": "bool"
				}
			],
			"stateMutability": "view",
			"type": "function"
		},
		{
			"inputs": [
				{
					"internalType": "address",
					"name": "",
					"type": "address"
				}
			],
			"name": "_contractWhitelist",
			"outputs": [
				{
					"internalType": "bool",
					"name": "",
					"type": "bool"
				}
			],
			"stateMutability": "view",
			"type": "function"
		},
		{
			"inputs": [
				{
					"internalType": "bytes32",
					"name": "",
					"type": "bytes32"
				}
			],
			"name": "_resourceIDToTokenContractAddress",
			"outputs": [
				{
					"internalType": "address",
					"name": "",
					"type": "address"
				}
			],
			"stateMutability": "view",
			"type": "function"
		},
		{
			"inputs": [
				{
					"internalType": "address",
					"name": "",
					"type": "address"
				}
			],
			"name": "_tokenContractAddressToResourceID",
			"outputs": [
				{
					"internalType": "bytes32",
					"name": "",
					"type": "bytes32"
				}
			],
			"stateMutability": "view",
			"type": "function"
		},
		{
			"inputs": [
				{
					"internalType": "bytes32",
					"name": "resourceID",
					"type": "bytes32"
				},
				{
					"internalType": "address",
					"name": "depositer",
					"type": "address"
				},
				{
					"internalType": "bytes",
					"name": "data",
					"type": "bytes"
				}
			],
			"name": "deposit",
			"outputs": [
				{
					"internalType": "bytes",
					"name": "",
					"type": "bytes"
				}
			],
			"stateMutability": "nonpayable",
			"type": "function"
		},
		{
			"inputs": [
				{
					"internalType": "bytes32",
					"name": "resourceID",
					"type": "bytes32"
				},
				{
					"internalType": "bytes",
					"name": "data",
					"type": "bytes"
				}
			],
			"name": "executeProposal",
			"outputs": [],
			"stateMutability": "nonpayable",
			"type": "function"
		},
		{
			"inputs": [
				{
					"internalType": "address",
					"name": "contractAddress",
					"type": "address"
				}
			],
			"name": "setBurnable",
			"outputs": [],
			"stateMutability": "nonpayable",
			"type": "function"
		},
		{
			"inputs": [
				{
					"internalType": "bytes32",
					"name": "resourceID",
					"type": "bytes32"
				},
				{
					"internalType": "address",
					"name": "contractAddress",
					"type": "address"
				}
			],
			"name": "setResource",
			"outputs": [],
			"stateMutability": "nonpayable",
			"type": "function"
		},
		{
			"inputs": [
				{
					"internalType": "bytes",
					"name": "data",
					"type": "bytes"
				}
			],
			"name": "withdraw",
			"outputs": [],
			"stateMutability": "nonpayable",
			"type": "function"
		}
	]
}