{
  "_format": "hh-sol-artifact-1",
  "contractName": "Sales",
  "sourceName": "contracts/customc/Sales.sol",
  "abi": [
    {
      "inputs": [
        {
          "internalType": "address",
          "name": "_bridgeAddr",
          "type": "address"
        },
        {
          "internalType": "address",
          "name": "_paymentHandlerAddr",
          "type": "address"
        },
        {
          "internalType": "address",
          "name": "_paymentTokenAddr",
          "type": "address"
        },
        {
          "internalType": "bytes32",
          "name": "_resourceID",
          "type": "bytes32"
        }
      ],
      "stateMutability": "nonpayable",
      "type": "constructor"
    },
    {
      "anonymous": false,
      "inputs": [
        {
          "indexed": false,
          "internalType": "address",
          "name": "customer",
          "type": "address"
        },
        {
          "indexed": false,
          "internalType": "uint256",
          "name": "bill",
          "type": "uint256"
        }
      ],
      "name": "NewBill",
      "type": "event"
    },
    {
      "anonymous": false,
      "inputs": [
        {
          "indexed": false,
          "internalType": "address",
          "name": "customer",
          "type": "address"
        },
        {
          "indexed": false,
          "internalType": "address",
          "name": "restaurant",
          "type": "address"
        },
        {
          "indexed": false,
          "internalType": "bytes",
          "name": "data",
          "type": "bytes"
        }
      ],
      "name": "permissionReleased",
      "type": "event"
    },
    {
      "inputs": [],
      "name": "getBill",
      "outputs": [
        {
          "internalType": "uint256",
          "name": "",
          "type": "uint256"
        }
      ],
      "stateMutability": "view",
      "type": "function"
    },
    {
      "inputs": [],
      "name": "getDepositedFunds",
      "outputs": [
        {
          "internalType": "uint256",
          "name": "",
          "type": "uint256"
        }
      ],
      "stateMutability": "view",
      "type": "function"
    },
    {
      "inputs": [],
      "name": "getDiscount",
      "outputs": [
        {
          "internalType": "uint256",
          "name": "",
          "type": "uint256"
        }
      ],
      "stateMutability": "view",
      "type": "function"
    },
    {
      "inputs": [],
      "name": "payBill",
      "outputs": [],
      "stateMutability": "payable",
      "type": "function"
    },
    {
      "inputs": [
        {
          "internalType": "address",
          "name": "user",
          "type": "address"
        },
        {
          "internalType": "uint256",
          "name": "bill",
          "type": "uint256"
        }
      ],
      "name": "setUserBill",
      "outputs": [],
      "stateMutability": "nonpayable",
      "type": "function"
    },
    {
      "inputs": [
        {
          "internalType": "address",
          "name": "user",
          "type": "address"
        },
        {
          "internalType": "uint256",
          "name": "discount",
          "type": "uint256"
        }
      ],
      "name": "setUserDiscount",
      "outputs": [],
      "stateMutability": "nonpayable",
      "type": "function"
    },
    {
      "inputs": [
        {
          "internalType": "address",
          "name": "",
          "type": "address"
        }
      ],
      "name": "usersBills",
      "outputs": [
        {
          "internalType": "uint256",
          "name": "",
          "type": "uint256"
        }
      ],
      "stateMutability": "view",
      "type": "function"
    },
    {
      "inputs": [
        {
          "internalType": "address",
          "name": "",
          "type": "address"
        }
      ],
      "name": "usersDiscounts",
      "outputs": [
        {
          "internalType": "uint256",
          "name": "",
          "type": "uint256"
        }
      ],
      "stateMutability": "view",
      "type": "function"
    },
    {
      "inputs": [],
      "name": "withdrawFunds",
      "outputs": [],
      "stateMutability": "nonpayable",
      "type": "function"
    }
  ],
  "bytecode": "0x60806040523480156200001157600080fd5b50604051620017b1380380620017b18339818101604052810190620000379190620001f1565b33600360006101000a81548173ffffffffffffffffffffffffffffffffffffffff021916908373ffffffffffffffffffffffffffffffffffffffff16021790555083600460006101000a81548173ffffffffffffffffffffffffffffffffffffffff021916908373ffffffffffffffffffffffffffffffffffffffff16021790555082600660006101000a81548173ffffffffffffffffffffffffffffffffffffffff021916908373ffffffffffffffffffffffffffffffffffffffff16021790555081600560006101000a81548173ffffffffffffffffffffffffffffffffffffffff021916908373ffffffffffffffffffffffffffffffffffffffff160217905550806002819055505050505062000263565b600080fd5b600073ffffffffffffffffffffffffffffffffffffffff82169050919050565b60006200017e8262000151565b9050919050565b620001908162000171565b81146200019c57600080fd5b50565b600081519050620001b08162000185565b92915050565b6000819050919050565b620001cb81620001b6565b8114620001d757600080fd5b50565b600081519050620001eb81620001c0565b92915050565b600080600080608085870312156200020e576200020d6200014c565b5b60006200021e878288016200019f565b945050602062000231878288016200019f565b935050604062000244878288016200019f565b92505060606200025787828801620001da565b91505092959194509250565b61153e80620002736000396000f3fe6080604052600436106100865760003560e01c80637e207f21116100595780637e207f2114610114578063849021981461013d578063bebd9a491461017a578063d137874b146101a5578063de6206c0146101d057610086565b8063190f9c401461008b57806324600fc3146100c85780632f213127146100df5780637a7816581461010a575b600080fd5b34801561009757600080fd5b506100b260048036038101906100ad9190610e55565b6101f9565b6040516100bf9190610e9b565b60405180910390f35b3480156100d457600080fd5b506100dd610211565b005b3480156100eb57600080fd5b506100f461036a565b6040516101019190610e9b565b60405180910390f35b61011261045a565b005b34801561012057600080fd5b5061013b60048036038101906101369190610ee2565b610902565b005b34801561014957600080fd5b50610164600480360381019061015f9190610e55565b610a75565b6040516101719190610e9b565b60405180910390f35b34801561018657600080fd5b5061018f610a8d565b60405161019c9190610e9b565b60405180910390f35b3480156101b157600080fd5b506101ba610c39565b6040516101c79190610e9b565b60405180910390f35b3480156101dc57600080fd5b506101f760048036038101906101f29190610ee2565b610c80565b005b60006020528060005260406000206000915090505481565b600360009054906101000a900473ffffffffffffffffffffffffffffffffffffffff1673ffffffffffffffffffffffffffffffffffffffff163373ffffffffffffffffffffffffffffffffffffffff1614806102ba5750600460009054906101000a900473ffffffffffffffffffffffffffffffffffffffff1673ffffffffffffffffffffffffffffffffffffffff163373ffffffffffffffffffffffffffffffffffffffff16145b6102f9576040517f08c379a00000000000000000000000000000000000000000000000000000000081526004016102f090610fa5565b60405180910390fd5b6000479050600360009054906101000a900473ffffffffffffffffffffffffffffffffffffffff1673ffffffffffffffffffffffffffffffffffffffff166108fc829081150290604051600060405180830381858888f19350505050158015610366573d6000803e3d6000fd5b5050565b6000600360009054906101000a900473ffffffffffffffffffffffffffffffffffffffff1673ffffffffffffffffffffffffffffffffffffffff163373ffffffffffffffffffffffffffffffffffffffff1614806104155750600460009054906101000a900473ffffffffffffffffffffffffffffffffffffffff1673ffffffffffffffffffffffffffffffffffffffff163373ffffffffffffffffffffffffffffffffffffffff16145b610454576040517f08c379a000000000000000000000000000000000000000000000000000000000815260040161044b90610fa5565b60405180910390fd5b47905090565b600160003373ffffffffffffffffffffffffffffffffffffffff1673ffffffffffffffffffffffffffffffffffffffff168152602001908152602001600020546000803373ffffffffffffffffffffffffffffffffffffffff1673ffffffffffffffffffffffffffffffffffffffff168152602001908152602001600020546104e39190610ff4565b3414806104f05750600034145b61052f576040517f08c379a00000000000000000000000000000000000000000000000000000000081526004016105269061109a565b60405180910390fd5b600560009054906101000a900473ffffffffffffffffffffffffffffffffffffffff1673ffffffffffffffffffffffffffffffffffffffff166379cc679033600160003373ffffffffffffffffffffffffffffffffffffffff1673ffffffffffffffffffffffffffffffffffffffff168152602001908152602001600020546040518363ffffffff1660e01b81526004016105cb9291906110c9565b600060405180830381600087803b1580156105e557600080fd5b505af11580156105f9573d6000803e3d6000fd5b505050506000600160003373ffffffffffffffffffffffffffffffffffffffff1673ffffffffffffffffffffffffffffffffffffffff16815260200190815260200160002081905550600560009054906101000a900473ffffffffffffffffffffffffffffffffffffffff1673ffffffffffffffffffffffffffffffffffffffff166340c10f193060016040518363ffffffff1660e01b81526004016106a0929190611137565b600060405180830381600087803b1580156106ba57600080fd5b505af11580156106ce573d6000803e3d6000fd5b50505050600560009054906101000a900473ffffffffffffffffffffffffffffffffffffffff1673ffffffffffffffffffffffffffffffffffffffff1663095ea7b3600660009054906101000a900473ffffffffffffffffffffffffffffffffffffffff1660016040518363ffffffff1660e01b8152600401610752929190611137565b6020604051808303816000875af1158015610771573d6000803e3d6000fd5b505050506040513d601f19601f820116820180604052508101906107959190611198565b506000601490506000600182336040516020016107b49392919061122e565b6040516020818303038152906040529050600060029050600460009054906101000a900473ffffffffffffffffffffffffffffffffffffffff1673ffffffffffffffffffffffffffffffffffffffff166305e2ca1782600254856040518463ffffffff1660e01b815260040161082c93929190611339565b600060405180830381600087803b15801561084657600080fd5b505af115801561085a573d6000803e3d6000fd5b505050507f30b7a4df59b7fab86b86b7d15ba2187ecd310514d6b5423d78393fea84997f7633600360009054906101000a900473ffffffffffffffffffffffffffffffffffffffff16846040516108b3939291906113cc565b60405180910390a16000803373ffffffffffffffffffffffffffffffffffffffff1673ffffffffffffffffffffffffffffffffffffffff16815260200190815260200160002060009055505050565b600360009054906101000a900473ffffffffffffffffffffffffffffffffffffffff1673ffffffffffffffffffffffffffffffffffffffff163373ffffffffffffffffffffffffffffffffffffffff1614806109ab5750600460009054906101000a900473ffffffffffffffffffffffffffffffffffffffff1673ffffffffffffffffffffffffffffffffffffffff163373ffffffffffffffffffffffffffffffffffffffff16145b6109ea576040517f08c379a00000000000000000000000000000000000000000000000000000000081526004016109e190610fa5565b60405180910390fd5b60008111610a2d576040517f08c379a0000000000000000000000000000000000000000000000000000000008152600401610a249061147c565b60405180910390fd5b80600160008473ffffffffffffffffffffffffffffffffffffffff1673ffffffffffffffffffffffffffffffffffffffff168152602001908152602001600020819055505050565b60016020528060005260406000206000915090505481565b600080600160003373ffffffffffffffffffffffffffffffffffffffff1673ffffffffffffffffffffffffffffffffffffffff168152602001908152602001600020541115610bf457600160003373ffffffffffffffffffffffffffffffffffffffff1673ffffffffffffffffffffffffffffffffffffffff168152602001908152602001600020546000803373ffffffffffffffffffffffffffffffffffffffff1673ffffffffffffffffffffffffffffffffffffffff168152602001908152602001600020541015610b645760009050610c36565b600160003373ffffffffffffffffffffffffffffffffffffffff1673ffffffffffffffffffffffffffffffffffffffff168152602001908152602001600020546000803373ffffffffffffffffffffffffffffffffffffffff1673ffffffffffffffffffffffffffffffffffffffff16815260200190815260200160002054610bed9190610ff4565b9050610c36565b6000803373ffffffffffffffffffffffffffffffffffffffff1673ffffffffffffffffffffffffffffffffffffffff1681526020019081526020016000205490505b90565b6000600160003373ffffffffffffffffffffffffffffffffffffffff1673ffffffffffffffffffffffffffffffffffffffff16815260200190815260200160002054905090565b600360009054906101000a900473ffffffffffffffffffffffffffffffffffffffff1673ffffffffffffffffffffffffffffffffffffffff163373ffffffffffffffffffffffffffffffffffffffff161480610d295750600460009054906101000a900473ffffffffffffffffffffffffffffffffffffffff1673ffffffffffffffffffffffffffffffffffffffff163373ffffffffffffffffffffffffffffffffffffffff16145b610d68576040517f08c379a0000000000000000000000000000000000000000000000000000000008152600401610d5f90610fa5565b60405180910390fd5b60008111610dab576040517f08c379a0000000000000000000000000000000000000000000000000000000008152600401610da2906114e8565b60405180910390fd5b806000808473ffffffffffffffffffffffffffffffffffffffff1673ffffffffffffffffffffffffffffffffffffffff168152602001908152602001600020819055505050565b600080fd5b600073ffffffffffffffffffffffffffffffffffffffff82169050919050565b6000610e2282610df7565b9050919050565b610e3281610e17565b8114610e3d57600080fd5b50565b600081359050610e4f81610e29565b92915050565b600060208284031215610e6b57610e6a610df2565b5b6000610e7984828501610e40565b91505092915050565b6000819050919050565b610e9581610e82565b82525050565b6000602082019050610eb06000830184610e8c565b92915050565b610ebf81610e82565b8114610eca57600080fd5b50565b600081359050610edc81610eb6565b92915050565b60008060408385031215610ef957610ef8610df2565b5b6000610f0785828601610e40565b9250506020610f1885828601610ecd565b9150509250929050565b600082825260208201905092915050565b7f4f6e6c79207468652072657374617572616e74206f776e65722063616e20736560008201527f7420612062696c6c2f646973636f756e74000000000000000000000000000000602082015250565b6000610f8f603183610f22565b9150610f9a82610f33565b604082019050919050565b60006020820190508181036000830152610fbe81610f82565b9050919050565b7f4e487b7100000000000000000000000000000000000000000000000000000000600052601160045260246000fd5b6000610fff82610e82565b915061100a83610e82565b92508282101561101d5761101c610fc5565b5b828203905092915050565b7f506173732061732076616c7565207468652063757272656e7420637573746f6d60008201527f65722062696c6c00000000000000000000000000000000000000000000000000602082015250565b6000611084602783610f22565b915061108f82611028565b604082019050919050565b600060208201905081810360008301526110b381611077565b9050919050565b6110c381610e17565b82525050565b60006040820190506110de60008301856110ba565b6110eb6020830184610e8c565b9392505050565b6000819050919050565b6000819050919050565b600061112161111c611117846110f2565b6110fc565b610e82565b9050919050565b61113181611106565b82525050565b600060408201905061114c60008301856110ba565b6111596020830184611128565b9392505050565b60008115159050919050565b61117581611160565b811461118057600080fd5b50565b6000815190506111928161116c565b92915050565b6000602082840312156111ae576111ad610df2565b5b60006111bc84828501611183565b91505092915050565b6000819050919050565b6111e06111db82610e82565b6111c5565b82525050565b60008160601b9050919050565b60006111fe826111e6565b9050919050565b6000611210826111f3565b9050919050565b61122861122382610e17565b611205565b82525050565b600061123a82866111cf565b60208201915061124a82856111cf565b60208201915061125a8284611217565b601482019150819050949350505050565b600060ff82169050919050565b6112818161126b565b82525050565b6000819050919050565b61129a81611287565b82525050565b600081519050919050565b600082825260208201905092915050565b60005b838110156112da5780820151818401526020810190506112bf565b838111156112e9576000848401525b50505050565b6000601f19601f8301169050919050565b600061130b826112a0565b61131581856112ab565b93506113258185602086016112bc565b61132e816112ef565b840191505092915050565b600060608201905061134e6000830186611278565b61135b6020830185611291565b818103604083015261136d8184611300565b9050949350505050565b600061139261138d61138884610df7565b6110fc565b610df7565b9050919050565b60006113a482611377565b9050919050565b60006113b682611399565b9050919050565b6113c6816113ab565b82525050565b60006060820190506113e160008301866110ba565b6113ee60208301856113bd565b81810360408301526114008184611300565b9050949350505050565b7f446973636f756e74206d757374206265206120706f736974697665206e756d6260008201527f6572000000000000000000000000000000000000000000000000000000000000602082015250565b6000611466602283610f22565b91506114718261140a565b604082019050919050565b6000602082019050818103600083015261149581611459565b9050919050565b7f42696c6c206d757374206265206120706f736974697665206e756d6265720000600082015250565b60006114d2601e83610f22565b91506114dd8261149c565b602082019050919050565b60006020820190508181036000830152611501816114c5565b905091905056fea2646970667358221220ac1dcfce86bbf7fd4426bf0e094a43fa217f45d4ffcdef4c226ebe4c48c4267d64736f6c634300080b0033",
  "linkReferences": {},
  "deployedLinkReferences": {}
}