{
  "_format": "hh-sol-artifact-1",
  "contractName": "Sales",
  "sourceName": "contracts/customc/Sales.sol",
  "abi": [
    {
      "inputs": [
        {
          "internalType": "address",
          "name": "_bridgeAddr",
          "type": "address"
        },
        {
          "internalType": "address",
          "name": "_paymentHandlerAddr",
          "type": "address"
        },
        {
          "internalType": "address",
          "name": "_paymentTokenAddr",
          "type": "address"
        },
        {
          "internalType": "bytes32",
          "name": "_resourceID",
          "type": "bytes32"
        }
      ],
      "stateMutability": "nonpayable",
      "type": "constructor"
    },
    {
      "anonymous": false,
      "inputs": [
        {
          "indexed": false,
          "internalType": "address",
          "name": "user",
          "type": "address"
        },
        {
          "indexed": false,
          "internalType": "address",
          "name": "restaurant",
          "type": "address"
        },
        {
          "indexed": false,
          "internalType": "bytes",
          "name": "data",
          "type": "bytes"
        }
      ],
      "name": "permissionReleased",
      "type": "event"
    },
    {
      "inputs": [],
      "name": "applyDiscount",
      "outputs": [],
      "stateMutability": "nonpayable",
      "type": "function"
    },
    {
      "inputs": [],
      "name": "deposit",
      "outputs": [],
      "stateMutability": "payable",
      "type": "function"
    },
    {
      "inputs": [],
      "name": "getBill",
      "outputs": [
        {
          "internalType": "uint256",
          "name": "",
          "type": "uint256"
        }
      ],
      "stateMutability": "view",
      "type": "function"
    },
    {
      "inputs": [],
      "name": "getDepositedFunds",
      "outputs": [
        {
          "internalType": "uint256",
          "name": "",
          "type": "uint256"
        }
      ],
      "stateMutability": "view",
      "type": "function"
    },
    {
      "inputs": [],
      "name": "getDiscount",
      "outputs": [
        {
          "internalType": "uint256",
          "name": "",
          "type": "uint256"
        }
      ],
      "stateMutability": "view",
      "type": "function"
    },
    {
      "inputs": [
        {
          "internalType": "address",
          "name": "user",
          "type": "address"
        },
        {
          "internalType": "uint256",
          "name": "bill",
          "type": "uint256"
        }
      ],
      "name": "setUserBill",
      "outputs": [],
      "stateMutability": "nonpayable",
      "type": "function"
    },
    {
      "inputs": [
        {
          "internalType": "address",
          "name": "user",
          "type": "address"
        },
        {
          "internalType": "uint256",
          "name": "discount",
          "type": "uint256"
        }
      ],
      "name": "setUserDiscount",
      "outputs": [],
      "stateMutability": "nonpayable",
      "type": "function"
    },
    {
      "inputs": [
        {
          "internalType": "address",
          "name": "",
          "type": "address"
        }
      ],
      "name": "usersBills",
      "outputs": [
        {
          "internalType": "uint256",
          "name": "",
          "type": "uint256"
        }
      ],
      "stateMutability": "view",
      "type": "function"
    },
    {
      "inputs": [
        {
          "internalType": "address",
          "name": "",
          "type": "address"
        }
      ],
      "name": "usersDiscounts",
      "outputs": [
        {
          "internalType": "uint256",
          "name": "",
          "type": "uint256"
        }
      ],
      "stateMutability": "view",
      "type": "function"
    },
    {
      "inputs": [],
      "name": "withdrawFunds",
      "outputs": [],
      "stateMutability": "nonpayable",
      "type": "function"
    }
  ],
  "bytecode": "0x60806040523480156200001157600080fd5b506040516200174c3803806200174c8339818101604052810190620000379190620001f1565b33600360006101000a81548173ffffffffffffffffffffffffffffffffffffffff021916908373ffffffffffffffffffffffffffffffffffffffff16021790555083600460006101000a81548173ffffffffffffffffffffffffffffffffffffffff021916908373ffffffffffffffffffffffffffffffffffffffff16021790555082600660006101000a81548173ffffffffffffffffffffffffffffffffffffffff021916908373ffffffffffffffffffffffffffffffffffffffff16021790555081600560006101000a81548173ffffffffffffffffffffffffffffffffffffffff021916908373ffffffffffffffffffffffffffffffffffffffff160217905550806002819055505050505062000263565b600080fd5b600073ffffffffffffffffffffffffffffffffffffffff82169050919050565b60006200017e8262000151565b9050919050565b620001908162000171565b81146200019c57600080fd5b50565b600081519050620001b08162000185565b92915050565b6000819050919050565b620001cb81620001b6565b8114620001d757600080fd5b50565b600081519050620001eb81620001c0565b92915050565b600080600080608085870312156200020e576200020d6200014c565b5b60006200021e878288016200019f565b945050602062000231878288016200019f565b935050604062000244878288016200019f565b92505060606200025787828801620001da565b91505092959194509250565b6114d980620002736000396000f3fe6080604052600436106100915760003560e01c806384902198116100595780638490219814610155578063bebd9a4914610192578063d0e30db0146101bd578063d137874b146101c7578063de6206c0146101f257610091565b80630920637814610096578063190f9c40146100ad57806324600fc3146100ea5780632f213127146101015780637e207f211461012c575b600080fd5b3480156100a257600080fd5b506100ab61021b565b005b3480156100b957600080fd5b506100d460048036038101906100cf9190610e82565b6104c8565b6040516100e19190610ec8565b60405180910390f35b3480156100f657600080fd5b506100ff6104e0565b005b34801561010d57600080fd5b50610116610639565b6040516101239190610ec8565b60405180910390f35b34801561013857600080fd5b50610153600480360381019061014e9190610f0f565b610729565b005b34801561016157600080fd5b5061017c60048036038101906101779190610e82565b61089c565b6040516101899190610ec8565b60405180910390f35b34801561019e57600080fd5b506101a76108b4565b6040516101b49190610ec8565b60405180910390f35b6101c56108fa565b005b3480156101d357600080fd5b506101dc610bee565b6040516101e99190610ec8565b60405180910390f35b3480156101fe57600080fd5b5061021960048036038101906102149190610f0f565b610c35565b005b600160003373ffffffffffffffffffffffffffffffffffffffff1673ffffffffffffffffffffffffffffffffffffffff168152602001908152602001600020546000803373ffffffffffffffffffffffffffffffffffffffff1673ffffffffffffffffffffffffffffffffffffffff1681526020019081526020016000205410156103b55760008060003373ffffffffffffffffffffffffffffffffffffffff1673ffffffffffffffffffffffffffffffffffffffff168152602001908152602001600020819055506000803373ffffffffffffffffffffffffffffffffffffffff1673ffffffffffffffffffffffffffffffffffffffff16815260200190815260200160002054600160003373ffffffffffffffffffffffffffffffffffffffff1673ffffffffffffffffffffffffffffffffffffffff1681526020019081526020016000205461036d9190610f7e565b600160003373ffffffffffffffffffffffffffffffffffffffff1673ffffffffffffffffffffffffffffffffffffffff168152602001908152602001600020819055506104c6565b600160003373ffffffffffffffffffffffffffffffffffffffff1673ffffffffffffffffffffffffffffffffffffffff168152602001908152602001600020546000803373ffffffffffffffffffffffffffffffffffffffff1673ffffffffffffffffffffffffffffffffffffffff1681526020019081526020016000205461043e9190610f7e565b6000803373ffffffffffffffffffffffffffffffffffffffff1673ffffffffffffffffffffffffffffffffffffffff168152602001908152602001600020819055506000600160003373ffffffffffffffffffffffffffffffffffffffff1673ffffffffffffffffffffffffffffffffffffffff168152602001908152602001600020819055505b565b60006020528060005260406000206000915090505481565b600360009054906101000a900473ffffffffffffffffffffffffffffffffffffffff1673ffffffffffffffffffffffffffffffffffffffff163373ffffffffffffffffffffffffffffffffffffffff1614806105895750600460009054906101000a900473ffffffffffffffffffffffffffffffffffffffff1673ffffffffffffffffffffffffffffffffffffffff163373ffffffffffffffffffffffffffffffffffffffff16145b6105c8576040517f08c379a00000000000000000000000000000000000000000000000000000000081526004016105bf90611035565b60405180910390fd5b6000479050600360009054906101000a900473ffffffffffffffffffffffffffffffffffffffff1673ffffffffffffffffffffffffffffffffffffffff166108fc829081150290604051600060405180830381858888f19350505050158015610635573d6000803e3d6000fd5b5050565b6000600360009054906101000a900473ffffffffffffffffffffffffffffffffffffffff1673ffffffffffffffffffffffffffffffffffffffff163373ffffffffffffffffffffffffffffffffffffffff1614806106e45750600460009054906101000a900473ffffffffffffffffffffffffffffffffffffffff1673ffffffffffffffffffffffffffffffffffffffff163373ffffffffffffffffffffffffffffffffffffffff16145b610723576040517f08c379a000000000000000000000000000000000000000000000000000000000815260040161071a90611035565b60405180910390fd5b47905090565b600360009054906101000a900473ffffffffffffffffffffffffffffffffffffffff1673ffffffffffffffffffffffffffffffffffffffff163373ffffffffffffffffffffffffffffffffffffffff1614806107d25750600460009054906101000a900473ffffffffffffffffffffffffffffffffffffffff1673ffffffffffffffffffffffffffffffffffffffff163373ffffffffffffffffffffffffffffffffffffffff16145b610811576040517f08c379a000000000000000000000000000000000000000000000000000000000815260040161080890611035565b60405180910390fd5b60008111610854576040517f08c379a000000000000000000000000000000000000000000000000000000000815260040161084b906110c7565b60405180910390fd5b80600160008473ffffffffffffffffffffffffffffffffffffffff1673ffffffffffffffffffffffffffffffffffffffff168152602001908152602001600020819055505050565b60016020528060005260406000206000915090505481565b60008060003373ffffffffffffffffffffffffffffffffffffffff1673ffffffffffffffffffffffffffffffffffffffff16815260200190815260200160002054905090565b60008060003373ffffffffffffffffffffffffffffffffffffffff1673ffffffffffffffffffffffffffffffffffffffff16815260200190815260200160002054141561094657600080fd5b346000803373ffffffffffffffffffffffffffffffffffffffff1673ffffffffffffffffffffffffffffffffffffffff168152602001908152602001600020541461099057600080fd5b6109be600560009054906101000a900473ffffffffffffffffffffffffffffffffffffffff16306001610da7565b600560009054906101000a900473ffffffffffffffffffffffffffffffffffffffff1673ffffffffffffffffffffffffffffffffffffffff1663095ea7b3600660009054906101000a900473ffffffffffffffffffffffffffffffffffffffff1660016040518363ffffffff1660e01b8152600401610a3e92919061113b565b6020604051808303816000875af1158015610a5d573d6000803e3d6000fd5b505050506040513d601f19601f82011682018060405250810190610a81919061119c565b50600060149050600060018233604051602001610aa093929190611232565b6040516020818303038152906040529050600060029050600460009054906101000a900473ffffffffffffffffffffffffffffffffffffffff1673ffffffffffffffffffffffffffffffffffffffff166305e2ca1782600254856040518463ffffffff1660e01b8152600401610b189392919061133d565b600060405180830381600087803b158015610b3257600080fd5b505af1158015610b46573d6000803e3d6000fd5b505050507f30b7a4df59b7fab86b86b7d15ba2187ecd310514d6b5423d78393fea84997f7633600360009054906101000a900473ffffffffffffffffffffffffffffffffffffffff1684604051610b9f939291906113d0565b60405180910390a16000803373ffffffffffffffffffffffffffffffffffffffff1673ffffffffffffffffffffffffffffffffffffffff16815260200190815260200160002060009055505050565b6000600160003373ffffffffffffffffffffffffffffffffffffffff1673ffffffffffffffffffffffffffffffffffffffff16815260200190815260200160002054905090565b600360009054906101000a900473ffffffffffffffffffffffffffffffffffffffff1673ffffffffffffffffffffffffffffffffffffffff163373ffffffffffffffffffffffffffffffffffffffff161480610cde5750600460009054906101000a900473ffffffffffffffffffffffffffffffffffffffff1673ffffffffffffffffffffffffffffffffffffffff163373ffffffffffffffffffffffffffffffffffffffff16145b610d1d576040517f08c379a0000000000000000000000000000000000000000000000000000000008152600401610d1490611035565b60405180910390fd5b60008111610d60576040517f08c379a0000000000000000000000000000000000000000000000000000000008152600401610d579061145a565b60405180910390fd5b806000808473ffffffffffffffffffffffffffffffffffffffff1673ffffffffffffffffffffffffffffffffffffffff168152602001908152602001600020819055505050565b60008390508073ffffffffffffffffffffffffffffffffffffffff166340c10f1984846040518363ffffffff1660e01b8152600401610de792919061147a565b600060405180830381600087803b158015610e0157600080fd5b505af1158015610e15573d6000803e3d6000fd5b5050505050505050565b600080fd5b600073ffffffffffffffffffffffffffffffffffffffff82169050919050565b6000610e4f82610e24565b9050919050565b610e5f81610e44565b8114610e6a57600080fd5b50565b600081359050610e7c81610e56565b92915050565b600060208284031215610e9857610e97610e1f565b5b6000610ea684828501610e6d565b91505092915050565b6000819050919050565b610ec281610eaf565b82525050565b6000602082019050610edd6000830184610eb9565b92915050565b610eec81610eaf565b8114610ef757600080fd5b50565b600081359050610f0981610ee3565b92915050565b60008060408385031215610f2657610f25610e1f565b5b6000610f3485828601610e6d565b9250506020610f4585828601610efa565b9150509250929050565b7f4e487b7100000000000000000000000000000000000000000000000000000000600052601160045260246000fd5b6000610f8982610eaf565b9150610f9483610eaf565b925082821015610fa757610fa6610f4f565b5b828203905092915050565b600082825260208201905092915050565b7f4f6e6c79207468652072657374617572616e74206f776e65722063616e20736560008201527f7420612062696c6c2f646973636f756e74000000000000000000000000000000602082015250565b600061101f603183610fb2565b915061102a82610fc3565b604082019050919050565b6000602082019050818103600083015261104e81611012565b9050919050565b7f446973636f756e74206d757374206265206120706f736974697665206e756d6260008201527f6572000000000000000000000000000000000000000000000000000000000000602082015250565b60006110b1602283610fb2565b91506110bc82611055565b604082019050919050565b600060208201905081810360008301526110e0816110a4565b9050919050565b6110f081610e44565b82525050565b6000819050919050565b6000819050919050565b600061112561112061111b846110f6565b611100565b610eaf565b9050919050565b6111358161110a565b82525050565b600060408201905061115060008301856110e7565b61115d602083018461112c565b9392505050565b60008115159050919050565b61117981611164565b811461118457600080fd5b50565b60008151905061119681611170565b92915050565b6000602082840312156111b2576111b1610e1f565b5b60006111c084828501611187565b91505092915050565b6000819050919050565b6111e46111df82610eaf565b6111c9565b82525050565b60008160601b9050919050565b6000611202826111ea565b9050919050565b6000611214826111f7565b9050919050565b61122c61122782610e44565b611209565b82525050565b600061123e82866111d3565b60208201915061124e82856111d3565b60208201915061125e828461121b565b601482019150819050949350505050565b600060ff82169050919050565b6112858161126f565b82525050565b6000819050919050565b61129e8161128b565b82525050565b600081519050919050565b600082825260208201905092915050565b60005b838110156112de5780820151818401526020810190506112c3565b838111156112ed576000848401525b50505050565b6000601f19601f8301169050919050565b600061130f826112a4565b61131981856112af565b93506113298185602086016112c0565b611332816112f3565b840191505092915050565b6000606082019050611352600083018661127c565b61135f6020830185611295565b81810360408301526113718184611304565b9050949350505050565b600061139661139161138c84610e24565b611100565b610e24565b9050919050565b60006113a88261137b565b9050919050565b60006113ba8261139d565b9050919050565b6113ca816113af565b82525050565b60006060820190506113e560008301866110e7565b6113f260208301856113c1565b81810360408301526114048184611304565b9050949350505050565b7f42696c6c206d757374206265206120706f736974697665206e756d6265720000600082015250565b6000611444601e83610fb2565b915061144f8261140e565b602082019050919050565b6000602082019050818103600083015261147381611437565b9050919050565b600060408201905061148f60008301856110e7565b61149c6020830184610eb9565b939250505056fea2646970667358221220953df6059f46b677254263d646ae488da8cca23824f76471e253696c8652216664736f6c634300080b0033",
  "linkReferences": {},
  "deployedLinkReferences": {}
}