{
  "_format": "hh-sol-artifact-1",
  "contractName": "Bridge",
  "sourceName": "contracts/Bridge.sol",
  "abi": [
    {
      "inputs": [
        {
          "internalType": "uint8",
          "name": "domainID",
          "type": "uint8"
        },
        {
          "internalType": "address[]",
          "name": "initialRelayers",
          "type": "address[]"
        },
        {
          "internalType": "uint256",
          "name": "initialRelayerThreshold",
          "type": "uint256"
        },
        {
          "internalType": "uint256",
          "name": "fee",
          "type": "uint256"
        },
        {
          "internalType": "uint256",
          "name": "expiry",
          "type": "uint256"
        }
      ],
      "stateMutability": "nonpayable",
      "type": "constructor"
    },
    {
      "anonymous": false,
      "inputs": [
        {
          "indexed": false,
          "internalType": "uint8",
          "name": "destinationDomainID",
          "type": "uint8"
        },
        {
          "indexed": false,
          "internalType": "bytes32",
          "name": "resourceID",
          "type": "bytes32"
        },
        {
          "indexed": false,
          "internalType": "uint64",
          "name": "depositNonce",
          "type": "uint64"
        },
        {
          "indexed": true,
          "internalType": "address",
          "name": "user",
          "type": "address"
        },
        {
          "indexed": false,
          "internalType": "bytes",
          "name": "data",
          "type": "bytes"
        },
        {
          "indexed": false,
          "internalType": "bytes",
          "name": "handlerResponse",
          "type": "bytes"
        }
      ],
      "name": "Deposit",
      "type": "event"
    },
    {
      "anonymous": false,
      "inputs": [
        {
          "indexed": false,
          "internalType": "address",
          "name": "salesAddress",
          "type": "address"
        },
        {
          "indexed": false,
          "internalType": "address",
          "name": "recipient",
          "type": "address"
        }
      ],
      "name": "DiscountEmitted",
      "type": "event"
    },
    {
      "anonymous": false,
      "inputs": [
        {
          "indexed": false,
          "internalType": "bytes",
          "name": "lowLevelData",
          "type": "bytes"
        }
      ],
      "name": "FailedHandlerExecution",
      "type": "event"
    },
    {
      "anonymous": false,
      "inputs": [
        {
          "indexed": false,
          "internalType": "address",
          "name": "account",
          "type": "address"
        }
      ],
      "name": "Paused",
      "type": "event"
    },
    {
      "anonymous": false,
      "inputs": [
        {
          "indexed": false,
          "internalType": "address",
          "name": "reviewAddress",
          "type": "address"
        },
        {
          "indexed": false,
          "internalType": "address",
          "name": "recipient",
          "type": "address"
        }
      ],
      "name": "PermissionEmitted",
      "type": "event"
    },
    {
      "anonymous": false,
      "inputs": [
        {
          "indexed": false,
          "internalType": "uint8",
          "name": "originDomainID",
          "type": "uint8"
        },
        {
          "indexed": false,
          "internalType": "uint64",
          "name": "depositNonce",
          "type": "uint64"
        },
        {
          "indexed": false,
          "internalType": "enum Bridge.ProposalStatus",
          "name": "status",
          "type": "uint8"
        },
        {
          "indexed": false,
          "internalType": "bytes32",
          "name": "dataHash",
          "type": "bytes32"
        }
      ],
      "name": "ProposalEvent",
      "type": "event"
    },
    {
      "anonymous": false,
      "inputs": [
        {
          "indexed": false,
          "internalType": "uint8",
          "name": "originDomainID",
          "type": "uint8"
        },
        {
          "indexed": false,
          "internalType": "uint64",
          "name": "depositNonce",
          "type": "uint64"
        },
        {
          "indexed": false,
          "internalType": "enum Bridge.ProposalStatus",
          "name": "status",
          "type": "uint8"
        },
        {
          "indexed": false,
          "internalType": "bytes32",
          "name": "dataHash",
          "type": "bytes32"
        }
      ],
      "name": "ProposalVote",
      "type": "event"
    },
    {
      "anonymous": false,
      "inputs": [
        {
          "indexed": false,
          "internalType": "address",
          "name": "relayer",
          "type": "address"
        }
      ],
      "name": "RelayerAdded",
      "type": "event"
    },
    {
      "anonymous": false,
      "inputs": [
        {
          "indexed": false,
          "internalType": "address",
          "name": "relayer",
          "type": "address"
        }
      ],
      "name": "RelayerRemoved",
      "type": "event"
    },
    {
      "anonymous": false,
      "inputs": [
        {
          "indexed": false,
          "internalType": "uint256",
          "name": "newThreshold",
          "type": "uint256"
        }
      ],
      "name": "RelayerThresholdChanged",
      "type": "event"
    },
    {
      "anonymous": false,
      "inputs": [
        {
          "indexed": true,
          "internalType": "bytes32",
          "name": "role",
          "type": "bytes32"
        },
        {
          "indexed": true,
          "internalType": "address",
          "name": "account",
          "type": "address"
        },
        {
          "indexed": true,
          "internalType": "address",
          "name": "sender",
          "type": "address"
        }
      ],
      "name": "RoleGranted",
      "type": "event"
    },
    {
      "anonymous": false,
      "inputs": [
        {
          "indexed": true,
          "internalType": "bytes32",
          "name": "role",
          "type": "bytes32"
        },
        {
          "indexed": true,
          "internalType": "address",
          "name": "account",
          "type": "address"
        },
        {
          "indexed": true,
          "internalType": "address",
          "name": "sender",
          "type": "address"
        }
      ],
      "name": "RoleRevoked",
      "type": "event"
    },
    {
      "anonymous": false,
      "inputs": [
        {
          "indexed": false,
          "internalType": "address",
          "name": "account",
          "type": "address"
        }
      ],
      "name": "Unpaused",
      "type": "event"
    },
    {
      "inputs": [],
      "name": "DEFAULT_ADMIN_ROLE",
      "outputs": [
        {
          "internalType": "bytes32",
          "name": "",
          "type": "bytes32"
        }
      ],
      "stateMutability": "view",
      "type": "function"
    },
    {
      "inputs": [],
      "name": "MAX_RELAYERS",
      "outputs": [
        {
          "internalType": "uint256",
          "name": "",
          "type": "uint256"
        }
      ],
      "stateMutability": "view",
      "type": "function"
    },
    {
      "inputs": [],
      "name": "RELAYER_ROLE",
      "outputs": [
        {
          "internalType": "bytes32",
          "name": "",
          "type": "bytes32"
        }
      ],
      "stateMutability": "view",
      "type": "function"
    },
    {
      "inputs": [
        {
          "internalType": "uint8",
          "name": "",
          "type": "uint8"
        }
      ],
      "name": "_depositCounts",
      "outputs": [
        {
          "internalType": "uint64",
          "name": "",
          "type": "uint64"
        }
      ],
      "stateMutability": "view",
      "type": "function"
    },
    {
      "inputs": [],
      "name": "_domainID",
      "outputs": [
        {
          "internalType": "uint8",
          "name": "",
          "type": "uint8"
        }
      ],
      "stateMutability": "view",
      "type": "function"
    },
    {
      "inputs": [],
      "name": "_expiry",
      "outputs": [
        {
          "internalType": "uint40",
          "name": "",
          "type": "uint40"
        }
      ],
      "stateMutability": "view",
      "type": "function"
    },
    {
      "inputs": [],
      "name": "_fee",
      "outputs": [
        {
          "internalType": "uint128",
          "name": "",
          "type": "uint128"
        }
      ],
      "stateMutability": "view",
      "type": "function"
    },
    {
      "inputs": [
        {
          "internalType": "uint72",
          "name": "destNonce",
          "type": "uint72"
        },
        {
          "internalType": "bytes32",
          "name": "dataHash",
          "type": "bytes32"
        },
        {
          "internalType": "address",
          "name": "relayer",
          "type": "address"
        }
      ],
      "name": "_hasVotedOnProposal",
      "outputs": [
        {
          "internalType": "bool",
          "name": "",
          "type": "bool"
        }
      ],
      "stateMutability": "view",
      "type": "function"
    },
    {
      "inputs": [],
      "name": "_relayerThreshold",
      "outputs": [
        {
          "internalType": "uint8",
          "name": "",
          "type": "uint8"
        }
      ],
      "stateMutability": "view",
      "type": "function"
    },
    {
      "inputs": [
        {
          "internalType": "bytes32",
          "name": "",
          "type": "bytes32"
        }
      ],
      "name": "_resourceIDToHandlerAddress",
      "outputs": [
        {
          "internalType": "address",
          "name": "",
          "type": "address"
        }
      ],
      "stateMutability": "view",
      "type": "function"
    },
    {
      "inputs": [
        {
          "internalType": "bytes32",
          "name": "",
          "type": "bytes32"
        }
      ],
      "name": "_resourceIDToReviewsAddress",
      "outputs": [
        {
          "internalType": "address",
          "name": "",
          "type": "address"
        }
      ],
      "stateMutability": "view",
      "type": "function"
    },
    {
      "inputs": [
        {
          "internalType": "bytes32",
          "name": "",
          "type": "bytes32"
        }
      ],
      "name": "_resourceIDToSalesAddress",
      "outputs": [
        {
          "internalType": "address",
          "name": "",
          "type": "address"
        }
      ],
      "stateMutability": "view",
      "type": "function"
    },
    {
      "inputs": [],
      "name": "_totalRelayers",
      "outputs": [
        {
          "internalType": "uint256",
          "name": "",
          "type": "uint256"
        }
      ],
      "stateMutability": "view",
      "type": "function"
    },
    {
      "inputs": [
        {
          "internalType": "address",
          "name": "relayerAddress",
          "type": "address"
        }
      ],
      "name": "adminAddRelayer",
      "outputs": [],
      "stateMutability": "nonpayable",
      "type": "function"
    },
    {
      "inputs": [
        {
          "internalType": "uint256",
          "name": "newFee",
          "type": "uint256"
        }
      ],
      "name": "adminChangeFee",
      "outputs": [],
      "stateMutability": "nonpayable",
      "type": "function"
    },
    {
      "inputs": [
        {
          "internalType": "uint256",
          "name": "newThreshold",
          "type": "uint256"
        }
      ],
      "name": "adminChangeRelayerThreshold",
      "outputs": [],
      "stateMutability": "nonpayable",
      "type": "function"
    },
    {
      "inputs": [],
      "name": "adminPauseTransfers",
      "outputs": [],
      "stateMutability": "nonpayable",
      "type": "function"
    },
    {
      "inputs": [
        {
          "internalType": "address",
          "name": "relayerAddress",
          "type": "address"
        }
      ],
      "name": "adminRemoveRelayer",
      "outputs": [],
      "stateMutability": "nonpayable",
      "type": "function"
    },
    {
      "inputs": [
        {
          "internalType": "address",
          "name": "handlerAddress",
          "type": "address"
        },
        {
          "internalType": "address",
          "name": "tokenAddress",
          "type": "address"
        }
      ],
      "name": "adminSetBurnable",
      "outputs": [],
      "stateMutability": "nonpayable",
      "type": "function"
    },
    {
      "inputs": [
        {
          "internalType": "uint8",
          "name": "domainID",
          "type": "uint8"
        },
        {
          "internalType": "uint64",
          "name": "nonce",
          "type": "uint64"
        }
      ],
      "name": "adminSetDepositNonce",
      "outputs": [],
      "stateMutability": "nonpayable",
      "type": "function"
    },
    {
      "inputs": [
        {
          "internalType": "address",
          "name": "forwarder",
          "type": "address"
        },
        {
          "internalType": "bool",
          "name": "valid",
          "type": "bool"
        }
      ],
      "name": "adminSetForwarder",
      "outputs": [],
      "stateMutability": "nonpayable",
      "type": "function"
    },
    {
      "inputs": [
        {
          "internalType": "address",
          "name": "handlerAddress",
          "type": "address"
        },
        {
          "internalType": "bytes32",
          "name": "resourceID",
          "type": "bytes32"
        },
        {
          "internalType": "address",
          "name": "tokenAddress",
          "type": "address"
        }
      ],
      "name": "adminSetResource",
      "outputs": [],
      "stateMutability": "nonpayable",
      "type": "function"
    },
    {
      "inputs": [],
      "name": "adminUnpauseTransfers",
      "outputs": [],
      "stateMutability": "nonpayable",
      "type": "function"
    },
    {
      "inputs": [
        {
          "internalType": "address",
          "name": "handlerAddress",
          "type": "address"
        },
        {
          "internalType": "bytes",
          "name": "data",
          "type": "bytes"
        }
      ],
      "name": "adminWithdraw",
      "outputs": [],
      "stateMutability": "nonpayable",
      "type": "function"
    },
    {
      "inputs": [
        {
          "internalType": "uint8",
          "name": "domainID",
          "type": "uint8"
        },
        {
          "internalType": "uint64",
          "name": "depositNonce",
          "type": "uint64"
        },
        {
          "internalType": "bytes32",
          "name": "dataHash",
          "type": "bytes32"
        }
      ],
      "name": "cancelProposal",
      "outputs": [],
      "stateMutability": "nonpayable",
      "type": "function"
    },
    {
      "inputs": [
        {
          "internalType": "uint8",
          "name": "destinationDomainID",
          "type": "uint8"
        },
        {
          "internalType": "bytes32",
          "name": "resourceID",
          "type": "bytes32"
        },
        {
          "internalType": "bytes",
          "name": "data",
          "type": "bytes"
        }
      ],
      "name": "deposit",
      "outputs": [],
      "stateMutability": "payable",
      "type": "function"
    },
    {
      "inputs": [
        {
          "internalType": "uint8",
          "name": "domainID",
          "type": "uint8"
        },
        {
          "internalType": "uint64",
          "name": "depositNonce",
          "type": "uint64"
        },
        {
          "internalType": "bytes",
          "name": "data",
          "type": "bytes"
        },
        {
          "internalType": "bytes32",
          "name": "resourceID",
          "type": "bytes32"
        },
        {
          "internalType": "bool",
          "name": "revertOnFail",
          "type": "bool"
        }
      ],
      "name": "executeProposal",
      "outputs": [],
      "stateMutability": "nonpayable",
      "type": "function"
    },
    {
      "inputs": [
        {
          "internalType": "bytes32",
          "name": "resourceID",
          "type": "bytes32"
        }
      ],
      "name": "getHandlerByResourceID",
      "outputs": [
        {
          "internalType": "address",
          "name": "",
          "type": "address"
        }
      ],
      "stateMutability": "view",
      "type": "function"
    },
    {
      "inputs": [
        {
          "internalType": "uint8",
          "name": "originDomainID",
          "type": "uint8"
        },
        {
          "internalType": "uint64",
          "name": "depositNonce",
          "type": "uint64"
        },
        {
          "internalType": "bytes32",
          "name": "dataHash",
          "type": "bytes32"
        }
      ],
      "name": "getProposal",
      "outputs": [
        {
          "components": [
            {
              "internalType": "enum Bridge.ProposalStatus",
              "name": "_status",
              "type": "uint8"
            },
            {
              "internalType": "uint200",
              "name": "_yesVotes",
              "type": "uint200"
            },
            {
              "internalType": "uint8",
              "name": "_yesVotesTotal",
              "type": "uint8"
            },
            {
              "internalType": "uint40",
              "name": "_proposedBlock",
              "type": "uint40"
            }
          ],
          "internalType": "struct Bridge.Proposal",
          "name": "",
          "type": "tuple"
        }
      ],
      "stateMutability": "view",
      "type": "function"
    },
    {
      "inputs": [
        {
          "internalType": "bytes32",
          "name": "resourceID",
          "type": "bytes32"
        }
      ],
      "name": "getReviewsAddress",
      "outputs": [
        {
          "internalType": "address",
          "name": "",
          "type": "address"
        }
      ],
      "stateMutability": "view",
      "type": "function"
    },
    {
      "inputs": [
        {
          "internalType": "bytes32",
          "name": "role",
          "type": "bytes32"
        }
      ],
      "name": "getRoleAdmin",
      "outputs": [
        {
          "internalType": "bytes32",
          "name": "",
          "type": "bytes32"
        }
      ],
      "stateMutability": "view",
      "type": "function"
    },
    {
      "inputs": [
        {
          "internalType": "bytes32",
          "name": "role",
          "type": "bytes32"
        },
        {
          "internalType": "uint256",
          "name": "index",
          "type": "uint256"
        }
      ],
      "name": "getRoleMember",
      "outputs": [
        {
          "internalType": "address",
          "name": "",
          "type": "address"
        }
      ],
      "stateMutability": "view",
      "type": "function"
    },
    {
      "inputs": [
        {
          "internalType": "bytes32",
          "name": "role",
          "type": "bytes32"
        }
      ],
      "name": "getRoleMemberCount",
      "outputs": [
        {
          "internalType": "uint256",
          "name": "",
          "type": "uint256"
        }
      ],
      "stateMutability": "view",
      "type": "function"
    },
    {
      "inputs": [
        {
          "internalType": "bytes32",
          "name": "role",
          "type": "bytes32"
        },
        {
          "internalType": "address",
          "name": "account",
          "type": "address"
        }
      ],
      "name": "getRoleMemberIndex",
      "outputs": [
        {
          "internalType": "uint256",
          "name": "",
          "type": "uint256"
        }
      ],
      "stateMutability": "view",
      "type": "function"
    },
    {
      "inputs": [
        {
          "internalType": "bytes32",
          "name": "resourceID",
          "type": "bytes32"
        }
      ],
      "name": "getSalesAddress",
      "outputs": [
        {
          "internalType": "address",
          "name": "",
          "type": "address"
        }
      ],
      "stateMutability": "view",
      "type": "function"
    },
    {
      "inputs": [
        {
          "internalType": "bytes32",
          "name": "role",
          "type": "bytes32"
        },
        {
          "internalType": "address",
          "name": "account",
          "type": "address"
        }
      ],
      "name": "grantRole",
      "outputs": [],
      "stateMutability": "nonpayable",
      "type": "function"
    },
    {
      "inputs": [
        {
          "internalType": "bytes32",
          "name": "role",
          "type": "bytes32"
        },
        {
          "internalType": "address",
          "name": "account",
          "type": "address"
        }
      ],
      "name": "hasRole",
      "outputs": [
        {
          "internalType": "bool",
          "name": "",
          "type": "bool"
        }
      ],
      "stateMutability": "view",
      "type": "function"
    },
    {
      "inputs": [
        {
          "internalType": "address",
          "name": "relayer",
          "type": "address"
        }
      ],
      "name": "isRelayer",
      "outputs": [
        {
          "internalType": "bool",
          "name": "",
          "type": "bool"
        }
      ],
      "stateMutability": "view",
      "type": "function"
    },
    {
      "inputs": [
        {
          "internalType": "address",
          "name": "",
          "type": "address"
        }
      ],
      "name": "isValidForwarder",
      "outputs": [
        {
          "internalType": "bool",
          "name": "",
          "type": "bool"
        }
      ],
      "stateMutability": "view",
      "type": "function"
    },
    {
      "inputs": [],
      "name": "paused",
      "outputs": [
        {
          "internalType": "bool",
          "name": "",
          "type": "bool"
        }
      ],
      "stateMutability": "view",
      "type": "function"
    },
    {
      "inputs": [
        {
          "internalType": "address",
          "name": "newAdmin",
          "type": "address"
        }
      ],
      "name": "renounceAdmin",
      "outputs": [],
      "stateMutability": "nonpayable",
      "type": "function"
    },
    {
      "inputs": [
        {
          "internalType": "bytes32",
          "name": "role",
          "type": "bytes32"
        },
        {
          "internalType": "address",
          "name": "account",
          "type": "address"
        }
      ],
      "name": "renounceRole",
      "outputs": [],
      "stateMutability": "nonpayable",
      "type": "function"
    },
    {
      "inputs": [
        {
          "internalType": "bytes32",
          "name": "role",
          "type": "bytes32"
        },
        {
          "internalType": "address",
          "name": "account",
          "type": "address"
        }
      ],
      "name": "revokeRole",
      "outputs": [],
      "stateMutability": "nonpayable",
      "type": "function"
    },
    {
      "inputs": [
        {
          "internalType": "address",
          "name": "_reviewAddress",
          "type": "address"
        },
        {
          "internalType": "bytes32",
          "name": "resourceID",
          "type": "bytes32"
        }
      ],
      "name": "setReviewsAddress",
      "outputs": [],
      "stateMutability": "nonpayable",
      "type": "function"
    },
    {
      "inputs": [
        {
          "internalType": "address",
          "name": "_salesAddress",
          "type": "address"
        },
        {
          "internalType": "bytes32",
          "name": "resourceID",
          "type": "bytes32"
        }
      ],
      "name": "setSalesAddress",
      "outputs": [],
      "stateMutability": "nonpayable",
      "type": "function"
    },
    {
      "inputs": [
        {
          "internalType": "address payable[]",
          "name": "addrs",
          "type": "address[]"
        },
        {
          "internalType": "uint256[]",
          "name": "amounts",
          "type": "uint256[]"
        }
      ],
      "name": "transferFunds",
      "outputs": [],
      "stateMutability": "nonpayable",
      "type": "function"
    },
    {
      "inputs": [
        {
          "internalType": "address",
          "name": "recipientAddress",
          "type": "address"
        },
        {
          "internalType": "uint256",
          "name": "amount",
          "type": "uint256"
        },
        {
          "internalType": "bytes32",
          "name": "resourceID",
          "type": "bytes32"
        }
      ],
      "name": "updateDiscountPermission",
      "outputs": [],
      "stateMutability": "nonpayable",
      "type": "function"
    },
    {
      "inputs": [
        {
          "internalType": "uint8",
          "name": "domainID",
          "type": "uint8"
        },
        {
          "internalType": "uint64",
          "name": "depositNonce",
          "type": "uint64"
        },
        {
          "internalType": "bytes32",
          "name": "resourceID",
          "type": "bytes32"
        },
        {
          "internalType": "bytes",
          "name": "data",
          "type": "bytes"
        }
      ],
      "name": "voteProposal",
      "outputs": [],
      "stateMutability": "nonpayable",
      "type": "function"
    }
  ],
  "bytecode": "0x60806040523480156200001157600080fd5b50604051620064933803806200649383398181016040528101906200003791906200083c565b60008060006101000a81548160ff02191690831515021790555084600260006101000a81548160ff021916908360ff1602179055506200008283620001c360201b62002f701760201c565b600260016101000a81548160ff021916908360ff160217905550620000b2826200021460201b62002fbe1760201c565b6002806101000a8154816fffffffffffffffffffffffffffffffff02191690836fffffffffffffffffffffffffffffffff160217905550620000ff816200027460201b6200301b1760201c565b600260126101000a81548164ffffffffff021916908364ffffffffff160217905550620001456000801b62000139620002c960201b60201c565b6200034660201b60201c565b60005b8451811015620001b757620001a17fe2b7fb3b832174769106daebcfd6d1970523240dda11281102db9363b83b0dc48683815181106200018d576200018c620008e3565b5b60200260200101516200035c60201b60201c565b8080620001ae9062000941565b91505062000148565b50505050505062000b8e565b600061010082106200020c576040517f08c379a00000000000000000000000000000000000000000000000000000000081526004016200020390620009f0565b60405180910390fd5b819050919050565b600070010000000000000000000000000000000082106200026c576040517f08c379a0000000000000000000000000000000000000000000000000000000008152600401620002639062000a62565b60405180910390fd5b819050919050565b6000650100000000008210620002c1576040517f08c379a0000000000000000000000000000000000000000000000000000000008152600401620002b89062000ad4565b60405180910390fd5b819050919050565b60008033905060146000369050101580156200032e5750600760008273ffffffffffffffffffffffffffffffffffffffff1673ffffffffffffffffffffffffffffffffffffffff16815260200190815260200160002060009054906101000a900460ff165b156200033f57601436033560601c90505b8091505090565b620003588282620003eb60201b60201c565b5050565b62000393600160008481526020019081526020016000206002015462000387620002c960201b60201c565b6200048f60201b60201c565b620003d5576040517f08c379a0000000000000000000000000000000000000000000000000000000008152600401620003cc9062000b6c565b60405180910390fd5b620003e78282620003eb60201b60201c565b5050565b6200041a8160016000858152602001908152602001600020600001620004c860201b6200306d1790919060201c565b156200048b5762000430620002c960201b60201c565b73ffffffffffffffffffffffffffffffffffffffff168173ffffffffffffffffffffffffffffffffffffffff16837f2f8788117e7eff1d82e926ec794901d17c78024a50270940304540a733656f0d60405160405180910390a45b5050565b6000620004c082600160008681526020019081526020016000206000016200050060201b6200309d1790919060201c565b905092915050565b6000620004f8836000018373ffffffffffffffffffffffffffffffffffffffff1660001b6200053860201b60201c565b905092915050565b600062000530836000018373ffffffffffffffffffffffffffffffffffffffff1660001b620005b260201b60201c565b905092915050565b60006200054c8383620005b260201b60201c565b620005a7578260000182908060018154018082558091505060019003906000526020600020016000909190919091505582600001805490508360010160008481526020019081526020016000208190555060019050620005ac565b600090505b92915050565b600080836001016000848152602001908152602001600020541415905092915050565b6000604051905090565b600080fd5b600080fd5b600060ff82169050919050565b6200060181620005e9565b81146200060d57600080fd5b50565b6000815190506200062181620005f6565b92915050565b600080fd5b6000601f19601f8301169050919050565b7f4e487b7100000000000000000000000000000000000000000000000000000000600052604160045260246000fd5b62000677826200062c565b810181811067ffffffffffffffff821117156200069957620006986200063d565b5b80604052505050565b6000620006ae620005d5565b9050620006bc82826200066c565b919050565b600067ffffffffffffffff821115620006df57620006de6200063d565b5b602082029050602081019050919050565b600080fd5b600073ffffffffffffffffffffffffffffffffffffffff82169050919050565b60006200072282620006f5565b9050919050565b620007348162000715565b81146200074057600080fd5b50565b600081519050620007548162000729565b92915050565b6000620007716200076b84620006c1565b620006a2565b90508083825260208201905060208402830185811115620007975762000796620006f0565b5b835b81811015620007c45780620007af888262000743565b84526020840193505060208101905062000799565b5050509392505050565b600082601f830112620007e657620007e562000627565b5b8151620007f88482602086016200075a565b91505092915050565b6000819050919050565b620008168162000801565b81146200082257600080fd5b50565b60008151905062000836816200080b565b92915050565b600080600080600060a086880312156200085b576200085a620005df565b5b60006200086b8882890162000610565b955050602086015167ffffffffffffffff8111156200088f576200088e620005e4565b5b6200089d88828901620007ce565b9450506040620008b08882890162000825565b9350506060620008c38882890162000825565b9250506080620008d68882890162000825565b9150509295509295909350565b7f4e487b7100000000000000000000000000000000000000000000000000000000600052603260045260246000fd5b7f4e487b7100000000000000000000000000000000000000000000000000000000600052601160045260246000fd5b60006200094e8262000801565b91507fffffffffffffffffffffffffffffffffffffffffffffffffffffffffffffffff82141562000984576200098362000912565b5b600182019050919050565b600082825260208201905092915050565b7f76616c756520646f6573206e6f742066697420696e2038206269747300000000600082015250565b6000620009d8601c836200098f565b9150620009e582620009a0565b602082019050919050565b6000602082019050818103600083015262000a0b81620009c9565b9050919050565b7f76616c756520646f6573206e6f742066697420696e2031323820626974730000600082015250565b600062000a4a601e836200098f565b915062000a578262000a12565b602082019050919050565b6000602082019050818103600083015262000a7d8162000a3b565b9050919050565b7f76616c756520646f6573206e6f742066697420696e2034302062697473000000600082015250565b600062000abc601d836200098f565b915062000ac98262000a84565b602082019050919050565b6000602082019050818103600083015262000aef8162000aad565b9050919050565b7f416363657373436f6e74726f6c3a2073656e646572206d75737420626520616e60008201527f2061646d696e20746f206772616e740000000000000000000000000000000000602082015250565b600062000b54602f836200098f565b915062000b618262000af6565b604082019050919050565b6000602082019050818103600083015262000b878162000b45565b9050919050565b6158f58062000b9e6000396000f3fe6080604052600436106102935760003560e01c806391d148541161015a578063c8f8e901116100c1578063d7a9cd791161007a578063d7a9cd7914610a47578063dcdefd7314610a72578063edc20c3c14610aaf578063f2b1b54914610ad8578063f8c39e4414610b15578063ffaac0eb14610b5257610293565b8063c8f8e90114610929578063ca15c87314610966578063cb10f215146109a3578063cdb0f73a146109cc578063d15ef64e146109f5578063d547741f14610a1e57610293565b8063a217fddf11610113578063a217fddf14610819578063a9cf69fa14610844578063bd2a182014610881578063c0331b3e146108aa578063c5b37c22146108d3578063c5ec8970146108fe57610293565b806391d14854146106f5578063926d7d7f14610732578063993bb8b71461075d5780639d82dd631461079a5780639dd694f4146107c35780639debb3bd146107ee57610293565b80634e0df3f6116101fe578063802aabe8116101b7578063802aabe8146105e757806380ae1c281461061257806384db809f146106295780638c0c2631146106665780639010d07c1461068f57806391c404ac146106cc57610293565b80634e0df3f61461049f578063541d5548146104dc5780635c975abb146105195780635e1fab0f1461054457806377a03d951461056d5780637febe63f146105aa57610293565b8063248a9ca311610250578063248a9ca3146103815780632f2ff15d146103be57806336568abe146103e75780634603ae38146104105780634b0b919d146104395780634e0560051461047657610293565b806305e2ca17146102985780631575422d146102b4578063157a876f146102dd57806317f03ce5146103065780631a5fd13f1461032f578063206a98fd14610358575b600080fd5b6102b260048036038101906102ad9190613a2e565b610b69565b005b3480156102c057600080fd5b506102db60048036038101906102d69190613b00565b610dea565b005b3480156102e957600080fd5b5061030460048036038101906102ff9190613b00565b610e40565b005b34801561031257600080fd5b5061032d60048036038101906103289190613b80565b610e96565b005b34801561033b57600080fd5b5061035660048036038101906103519190613c09565b611286565b005b34801561036457600080fd5b5061037f600480360381019061037a9190613c94565b611481565b005b34801561038d57600080fd5b506103a860048036038101906103a39190613d2e565b611872565b6040516103b59190613d6a565b60405180910390f35b3480156103ca57600080fd5b506103e560048036038101906103e09190613d85565b611892565b005b3480156103f357600080fd5b5061040e60048036038101906104099190613d85565b611906565b005b34801561041c57600080fd5b5061043760048036038101906104329190613e71565b611989565b005b34801561044557600080fd5b50610460600480360381019061045b9190613ef2565b611a40565b60405161046d9190613f2e565b60405180910390f35b34801561048257600080fd5b5061049d60048036038101906104989190613f49565b611a67565b005b3480156104ab57600080fd5b506104c660048036038101906104c19190613d85565b611acc565b6040516104d39190613f85565b60405180910390f35b3480156104e857600080fd5b5061050360048036038101906104fe9190613fa0565b611b1d565b6040516105109190613fdc565b60405180910390f35b34801561052557600080fd5b5061052e611b50565b60405161053b9190613fdc565b60405180910390f35b34801561055057600080fd5b5061056b60048036038101906105669190613fa0565b611b66565b005b34801561057957600080fd5b50610594600480360381019061058f9190613d2e565b611c07565b6040516105a19190614006565b60405180910390f35b3480156105b657600080fd5b506105d160048036038101906105cc9190614062565b611c3a565b6040516105de9190613fdc565b60405180910390f35b3480156105f357600080fd5b506105fc611d79565b6040516106099190613f85565b60405180910390f35b34801561061e57600080fd5b50610627611da9565b005b34801561063557600080fd5b50610650600480360381019061064b9190613d2e565b611dc3565b60405161065d9190614006565b60405180910390f35b34801561067257600080fd5b5061068d600480360381019061068891906140b5565b611df6565b005b34801561069b57600080fd5b506106b660048036038101906106b191906140f5565b611e73565b6040516106c39190614006565b60405180910390f35b3480156106d857600080fd5b506106f360048036038101906106ee9190613f49565b611ea5565b005b34801561070157600080fd5b5061071c60048036038101906107179190613d85565b611f61565b6040516107299190613fdc565b60405180910390f35b34801561073e57600080fd5b50610747611f93565b6040516107549190613d6a565b60405180910390f35b34801561076957600080fd5b50610784600480360381019061077f9190613d2e565b611fb7565b6040516107919190614006565b60405180910390f35b3480156107a657600080fd5b506107c160048036038101906107bc9190613fa0565b611ff4565b005b3480156107cf57600080fd5b506107d86120c1565b6040516107e59190614144565b60405180910390f35b3480156107fa57600080fd5b506108036120d4565b6040516108109190613f85565b60405180910390f35b34801561082557600080fd5b5061082e6120d9565b60405161083b9190613d6a565b60405180910390f35b34801561085057600080fd5b5061086b60048036038101906108669190613b80565b6120e0565b604051610878919061428e565b60405180910390f35b34801561088d57600080fd5b506108a860048036038101906108a391906143ea565b612240565b005b3480156108b657600080fd5b506108d160048036038101906108cc9190614446565b6122bd565b005b3480156108df57600080fd5b506108e8612a88565b6040516108f591906144f9565b60405180910390f35b34801561090a57600080fd5b50610913612aa8565b6040516109209190614523565b60405180910390f35b34801561093557600080fd5b50610950600480360381019061094b9190613d2e565b612abf565b60405161095d9190614006565b60405180910390f35b34801561097257600080fd5b5061098d60048036038101906109889190613d2e565b612af2565b60405161099a9190613f85565b60405180910390f35b3480156109af57600080fd5b506109ca60048036038101906109c5919061453e565b612b19565b005b3480156109d857600080fd5b506109f360048036038101906109ee9190613fa0565b612beb565b005b348015610a0157600080fd5b50610a1c6004803603810190610a179190614591565b612d03565b005b348015610a2a57600080fd5b50610a456004803603810190610a409190613d85565b612d66565b005b348015610a5357600080fd5b50610a5c612dda565b604051610a699190614144565b60405180910390f35b348015610a7e57600080fd5b50610a996004803603810190610a949190613d2e565b612ded565b604051610aa69190614006565b60405180910390f35b348015610abb57600080fd5b50610ad66004803603810190610ad191906145d1565b612e2a565b005b348015610ae457600080fd5b50610aff6004803603810190610afa9190613d2e565b612ef9565b604051610b0c9190614006565b60405180910390f35b348015610b2157600080fd5b50610b3c6004803603810190610b379190613fa0565b612f36565b604051610b499190613fdc565b60405180910390f35b348015610b5e57600080fd5b50610b67612f56565b005b610b716130cd565b60028054906101000a90046fffffffffffffffffffffffffffffffff166fffffffffffffffffffffffffffffffff163414610be1576040517f08c379a0000000000000000000000000000000000000000000000000000000008152600401610bd89061466e565b60405180910390fd5b60006004600085815260200190815260200160002060009054906101000a900473ffffffffffffffffffffffffffffffffffffffff169050600073ffffffffffffffffffffffffffffffffffffffff168173ffffffffffffffffffffffffffffffffffffffff161415610c89576040517f08c379a0000000000000000000000000000000000000000000000000000000008152600401610c80906146da565b60405180910390fd5b6000600360008760ff1660ff168152602001908152602001600020600081819054906101000a900467ffffffffffffffff16610cc490614729565b91906101000a81548167ffffffffffffffff021916908367ffffffffffffffff160217905590506000610cf561311d565b9050600083905060008173ffffffffffffffffffffffffffffffffffffffff1663b07e54bb89858a8a6040518563ffffffff1660e01b8152600401610d3d9493929190614798565b6000604051808303816000875af1158015610d5c573d6000803e3d6000fd5b505050506040513d6000823e3d601f19601f82011682018060405250810190610d85919061487b565b90508273ffffffffffffffffffffffffffffffffffffffff167f17bc3181e17a9620a479c24e6c606e474ba84fc036877b768926872e8cd0e11f8a8a878b8b87604051610dd796959493929190614908565b60405180910390a2505050505050505050565b816006600083815260200190815260200160002060006101000a81548173ffffffffffffffffffffffffffffffffffffffff021916908373ffffffffffffffffffffffffffffffffffffffff1602179055505050565b816005600083815260200190815260200160002060006101000a81548173ffffffffffffffffffffffffffffffffffffffff021916908373ffffffffffffffffffffffffffffffffffffffff1602179055505050565b610e9e613198565b60008360ff1660088467ffffffffffffffff1668ffffffffffffffffff16901b1790506000600860008368ffffffffffffffffff1668ffffffffffffffffff16815260200190815260200160002060008481526020019081526020016000206040518060800160405290816000820160009054906101000a900460ff166004811115610f2d57610f2c61415f565b5b6004811115610f3f57610f3e61415f565b5b81526020016000820160019054906101000a900478ffffffffffffffffffffffffffffffffffffffffffffffffff1678ffffffffffffffffffffffffffffffffffffffffffffffffff1678ffffffffffffffffffffffffffffffffffffffffffffffffff16815260200160008201601a9054906101000a900460ff1660ff1660ff16815260200160008201601b9054906101000a900464ffffffffff1664ffffffffff1664ffffffffff168152505090506000816000015190506001600481111561100d5761100c61415f565b5b8160048111156110205761101f61415f565b5b148061105057506002600481111561103b5761103a61415f565b5b81600481111561104e5761104d61415f565b5b145b61108f576040517f08c379a0000000000000000000000000000000000000000000000000000000008152600401611086906149b7565b60405180910390fd5b600260129054906101000a900464ffffffffff1664ffffffffff166110bf43846060015164ffffffffff16613224565b64ffffffffff1611611106576040517f08c379a00000000000000000000000000000000000000000000000000000000081526004016110fd90614a23565b60405180910390fd5b60048260000190600481111561111f5761111e61415f565b5b908160048111156111335761113261415f565b5b8152505081600860008568ffffffffffffffffff1668ffffffffffffffffff168152602001908152602001600020600086815260200190815260200160002060008201518160000160006101000a81548160ff0219169083600481111561119d5761119c61415f565b5b021790555060208201518160000160016101000a81548178ffffffffffffffffffffffffffffffffffffffffffffffffff021916908378ffffffffffffffffffffffffffffffffffffffffffffffffff160217905550604082015181600001601a6101000a81548160ff021916908360ff160217905550606082015181600001601b6101000a81548164ffffffffff021916908364ffffffffff1602179055509050507f968626a768e76ba1363efe44e322a6c4900c5f084e0b45f35e294dfddaa9e0d586866004876040516112769493929190614a52565b60405180910390a1505050505050565b60006006600083815260200190815260200160002060009054906101000a900473ffffffffffffffffffffffffffffffffffffffff16905060006005600084815260200190815260200160002060009054906101000a900473ffffffffffffffffffffffffffffffffffffffff169050600073ffffffffffffffffffffffffffffffffffffffff168273ffffffffffffffffffffffffffffffffffffffff16146113d3578173ffffffffffffffffffffffffffffffffffffffff1663a1eb221a866040518263ffffffff1660e01b81526004016113639190614006565b600060405180830381600087803b15801561137d57600080fd5b505af1158015611391573d6000803e3d6000fd5b505050507fb4a1dda2b824d34b537aa735f1656f84f5dc9cea8c6bcaf893c67dd04107a51582866040516113c6929190614a97565b60405180910390a161147a565b8073ffffffffffffffffffffffffffffffffffffffff16637e207f2186866040518363ffffffff1660e01b815260040161140e929190614ac0565b600060405180830381600087803b15801561142857600080fd5b505af115801561143c573d6000803e3d6000fd5b505050507f598a7d14269ace307701be5b05bd8c354e4e905214b56b8a64b34d9b6e8e06bf8186604051611471929190614a97565b60405180910390a15b5050505050565b61148961326e565b6114916130cd565b60006004600084815260200190815260200160002060009054906101000a900473ffffffffffffffffffffffffffffffffffffffff16905060008760ff1660088867ffffffffffffffff1668ffffffffffffffffff16901b179050600082878760405160200161150393929190614b61565b6040516020818303038152906040528051906020012090506000600860008468ffffffffffffffffff1668ffffffffffffffffff168152602001908152602001600020600083815260200190815260200160002090506002600481111561156d5761156c61415f565b5b8160000160009054906101000a900460ff1660048111156115915761159061415f565b5b146115d1576040517f08c379a00000000000000000000000000000000000000000000000000000000081526004016115c890614bd7565b60405180910390fd5b60038160000160006101000a81548160ff021916908360048111156115f9576115f861415f565b5b02179055506000849050851561167d578073ffffffffffffffffffffffffffffffffffffffff1663e248cff2888b8b6040518463ffffffff1660e01b815260040161164693929190614bf7565b600060405180830381600087803b15801561166057600080fd5b505af1158015611674573d6000803e3d6000fd5b5050505061178b565b8073ffffffffffffffffffffffffffffffffffffffff1663e248cff2888b8b6040518463ffffffff1660e01b81526004016116ba93929190614bf7565b600060405180830381600087803b1580156116d457600080fd5b505af19250505080156116e5575060015b61178a573d8060008114611715576040519150601f19603f3d011682016040523d82523d6000602084013e61171a565b606091505b5060028360000160006101000a81548160ff021916908360048111156117435761174261415f565b5b02179055507fbd37c1f0d53bb2f33fe4c2104de272fcdeb4d2fef3acdbf1e4ddc3d6833ca376816040516117779190614c29565b60405180910390a150505050505061186a565b5b60008060608b8b81019061179f9190614c4b565b80935081945050508b8b6040908460406117b99190614c8b565b926117c693929190614ceb565b8080601f016020809104026020016040519081016040528093929190818152602001838380828437600081840152601f19601f8201169050808301925050505050505090506000602082015190506118228160601c858d611286565b7f968626a768e76ba1363efe44e322a6c4900c5f084e0b45f35e294dfddaa9e0d58f8f60038a6040516118589493929190614a52565b60405180910390a15050505050505050505b505050505050565b600060016000838152602001908152602001600020600201549050919050565b6118b960016000848152602001908152602001600020600201546118b461311d565b611f61565b6118f8576040517f08c379a00000000000000000000000000000000000000000000000000000000081526004016118ef90614d98565b60405180910390fd5b61190282826132e0565b5050565b61190e61311d565b73ffffffffffffffffffffffffffffffffffffffff168173ffffffffffffffffffffffffffffffffffffffff161461197b576040517f08c379a000000000000000000000000000000000000000000000000000000000815260040161197290614e2a565b60405180910390fd5b6119858282613374565b5050565b611991613408565b60005b84849050811015611a39578484828181106119b2576119b1614e4a565b5b90506020020160208101906119c79190614eb7565b73ffffffffffffffffffffffffffffffffffffffff166108fc8484848181106119f3576119f2614e4a565b5b905060200201359081150290604051600060405180830381858888f19350505050158015611a25573d6000803e3d6000fd5b508080611a3190614ee4565b915050611994565b5050505050565b60036020528060005260406000206000915054906101000a900467ffffffffffffffff1681565b611a6f613408565b611a7881612f70565b600260016101000a81548160ff021916908360ff1602179055507fa20d6b84cd798a24038be305eff8a45ca82ef54a2aa2082005d8e14c0a4746c881604051611ac19190613f85565b60405180910390a150565b60006001600084815260200190815260200160002060000160000160010160008373ffffffffffffffffffffffffffffffffffffffff1660001b815260200190815260200160002054905092915050565b6000611b497fe2b7fb3b832174769106daebcfd6d1970523240dda11281102db9363b83b0dc483611f61565b9050919050565b60008060009054906101000a900460ff16905090565b611b6e613408565b6000611b7861311d565b90508173ffffffffffffffffffffffffffffffffffffffff168173ffffffffffffffffffffffffffffffffffffffff161415611be9576040517f08c379a0000000000000000000000000000000000000000000000000000000008152600401611be090614f79565b60405180910390fd5b611bf66000801b83611892565b611c036000801b82611906565b5050565b60066020528060005260406000206000915054906101000a900473ffffffffffffffffffffffffffffffffffffffff1681565b6000611d70600860008668ffffffffffffffffff1668ffffffffffffffffff16815260200190815260200160002060008581526020019081526020016000206040518060800160405290816000820160009054906101000a900460ff166004811115611ca957611ca861415f565b5b6004811115611cbb57611cba61415f565b5b81526020016000820160019054906101000a900478ffffffffffffffffffffffffffffffffffffffffffffffffff1678ffffffffffffffffffffffffffffffffffffffffffffffffff1678ffffffffffffffffffffffffffffffffffffffffffffffffff16815260200160008201601a9054906101000a900460ff1660ff1660ff16815260200160008201601b9054906101000a900464ffffffffff1664ffffffffff1664ffffffffff16815250508361345d565b90509392505050565b6000611da47fe2b7fb3b832174769106daebcfd6d1970523240dda11281102db9363b83b0dc4612af2565b905090565b611db1613408565b611dc1611dbc61311d565b613493565b565b60046020528060005260406000206000915054906101000a900473ffffffffffffffffffffffffffffffffffffffff1681565b611dfe613408565b60008290508073ffffffffffffffffffffffffffffffffffffffff166307b7ed99836040518263ffffffff1660e01b8152600401611e3c9190614006565b600060405180830381600087803b158015611e5657600080fd5b505af1158015611e6a573d6000803e3d6000fd5b50505050505050565b6000611e9d82600160008681526020019081526020016000206000016134ef90919063ffffffff16565b905092915050565b611ead613408565b8060028054906101000a90046fffffffffffffffffffffffffffffffff166fffffffffffffffffffffffffffffffff161415611f1e576040517f08c379a0000000000000000000000000000000000000000000000000000000008152600401611f1590614fe5565b60405180910390fd5b611f2781612fbe565b6002806101000a8154816fffffffffffffffffffffffffffffffff02191690836fffffffffffffffffffffffffffffffff16021790555050565b6000611f8b826001600086815260200190815260200160002060000161309d90919063ffffffff16565b905092915050565b7fe2b7fb3b832174769106daebcfd6d1970523240dda11281102db9363b83b0dc481565b60006006600083815260200190815260200160002060009054906101000a900473ffffffffffffffffffffffffffffffffffffffff169050919050565b61201e7fe2b7fb3b832174769106daebcfd6d1970523240dda11281102db9363b83b0dc482611f61565b61205d576040517f08c379a000000000000000000000000000000000000000000000000000000000815260040161205490615051565b60405180910390fd5b6120877fe2b7fb3b832174769106daebcfd6d1970523240dda11281102db9363b83b0dc482612d66565b7f10e1f7ce9fd7d1b90a66d13a2ab3cb8dd7f29f3f8d520b143b063ccfbab6906b816040516120b69190614006565b60405180910390a150565b600260009054906101000a900460ff1681565b60c881565b6000801b81565b6120e86138e7565b60008460ff1660088567ffffffffffffffff1668ffffffffffffffffff16901b179050600860008268ffffffffffffffffff1668ffffffffffffffffff16815260200190815260200160002060008481526020019081526020016000206040518060800160405290816000820160009054906101000a900460ff1660048111156121755761217461415f565b5b60048111156121875761218661415f565b5b81526020016000820160019054906101000a900478ffffffffffffffffffffffffffffffffffffffffffffffffff1678ffffffffffffffffffffffffffffffffffffffffffffffffff1678ffffffffffffffffffffffffffffffffffffffffffffffffff16815260200160008201601a9054906101000a900460ff1660ff1660ff16815260200160008201601b9054906101000a900464ffffffffff1664ffffffffff1664ffffffffff16815250509150509392505050565b612248613408565b60008290508073ffffffffffffffffffffffffffffffffffffffff16630968f264836040518263ffffffff1660e01b81526004016122869190614c29565b600060405180830381600087803b1580156122a057600080fd5b505af11580156122b4573d6000803e3d6000fd5b50505050505050565b6122c561326e565b6122cd6130cd565b60006004600085815260200190815260200160002060009054906101000a900473ffffffffffffffffffffffffffffffffffffffff16905060008660ff1660088767ffffffffffffffff1668ffffffffffffffffff16901b179050600082858560405160200161233f93929190614b61565b6040516020818303038152906040528051906020012090506000600860008468ffffffffffffffffff1668ffffffffffffffffff16815260200190815260200160002060008381526020019081526020016000206040518060800160405290816000820160009054906101000a900460ff1660048111156123c3576123c261415f565b5b60048111156123d5576123d461415f565b5b81526020016000820160019054906101000a900478ffffffffffffffffffffffffffffffffffffffffffffffffff1678ffffffffffffffffffffffffffffffffffffffffffffffffff1678ffffffffffffffffffffffffffffffffffffffffffffffffff16815260200160008201601a9054906101000a900460ff1660ff1660ff16815260200160008201601b9054906101000a900464ffffffffff1664ffffffffff1664ffffffffff16815250509050600073ffffffffffffffffffffffffffffffffffffffff166004600089815260200190815260200160002060009054906101000a900473ffffffffffffffffffffffffffffffffffffffff1673ffffffffffffffffffffffffffffffffffffffff161415612529576040517f08c379a0000000000000000000000000000000000000000000000000000000008152600401612520906150bd565b60405180910390fd5b6002600481111561253d5761253c61415f565b5b816000015160048111156125545761255361415f565b5b141561257257612569898988888b6001611481565b50505050612a81565b600061257c61311d565b90506001826000015160048111156125975761259661415f565b5b11156125d8576040517f08c379a00000000000000000000000000000000000000000000000000000000081526004016125cf9061514f565b60405180910390fd5b6125e2828261345d565b15612622576040517f08c379a0000000000000000000000000000000000000000000000000000000008152600401612619906151bb565b60405180910390fd5b600060048111156126365761263561415f565b5b8260000151600481111561264d5761264c61415f565b5b14156126f3576040518060800160405280600160048111156126725761267161415f565b5b8152602001600078ffffffffffffffffffffffffffffffffffffffffffffffffff168152602001600060ff1681526020014364ffffffffff1681525091507f968626a768e76ba1363efe44e322a6c4900c5f084e0b45f35e294dfddaa9e0d58a8a6001866040516126e69493929190614a52565b60405180910390a16127a1565b600260129054906101000a900464ffffffffff1664ffffffffff1661272343846060015164ffffffffff16613224565b64ffffffffff1611156127a0576004826000019060048111156127495761274861415f565b5b9081600481111561275d5761275c61415f565b5b815250507f968626a768e76ba1363efe44e322a6c4900c5f084e0b45f35e294dfddaa9e0d58a8a6004866040516127979493929190614a52565b60405180910390a15b5b6004808111156127b4576127b361415f565b5b826000015160048111156127cb576127ca61415f565b5b14612931576128026127dc82613509565b836020015178ffffffffffffffffffffffffffffffffffffffffffffffffff161761354a565b826020019078ffffffffffffffffffffffffffffffffffffffffffffffffff16908178ffffffffffffffffffffffffffffffffffffffffffffffffff1681525050816040018051809190612855906151db565b60ff1660ff16815250507f25f8daaa4635a7729927ba3f5b3d59cc3320aca7c32c9db4e7ca7b95743436408a8a8460000151866040516128989493929190614a52565b60405180910390a1600260019054906101000a900460ff1660ff16826040015160ff1610612930576002826000019060048111156128d9576128d861415f565b5b908160048111156128ed576128ec61415f565b5b815250507f968626a768e76ba1363efe44e322a6c4900c5f084e0b45f35e294dfddaa9e0d58a8a6002866040516129279493929190614a52565b60405180910390a15b5b81600860008668ffffffffffffffffff1668ffffffffffffffffff168152602001908152602001600020600085815260200190815260200160002060008201518160000160006101000a81548160ff021916908360048111156129975761299661415f565b5b021790555060208201518160000160016101000a81548178ffffffffffffffffffffffffffffffffffffffffffffffffff021916908378ffffffffffffffffffffffffffffffffffffffffffffffffff160217905550604082015181600001601a6101000a81548160ff021916908360ff160217905550606082015181600001601b6101000a81548164ffffffffff021916908364ffffffffff16021790555090505060026004811115612a4e57612a4d61415f565b5b82600001516004811115612a6557612a6461415f565b5b1415612a7b57612a7a8a8a89898c6000611481565b5b50505050505b5050505050565b60028054906101000a90046fffffffffffffffffffffffffffffffff1681565b600260129054906101000a900464ffffffffff1681565b60056020528060005260406000206000915054906101000a900473ffffffffffffffffffffffffffffffffffffffff1681565b6000612b12600160008481526020019081526020016000206000016135b0565b9050919050565b612b21613408565b826004600084815260200190815260200160002060006101000a81548173ffffffffffffffffffffffffffffffffffffffff021916908373ffffffffffffffffffffffffffffffffffffffff16021790555060008390508073ffffffffffffffffffffffffffffffffffffffff1663b8fa373684846040518363ffffffff1660e01b8152600401612bb3929190615205565b600060405180830381600087803b158015612bcd57600080fd5b505af1158015612be1573d6000803e3d6000fd5b5050505050505050565b612c157fe2b7fb3b832174769106daebcfd6d1970523240dda11281102db9363b83b0dc482611f61565b15612c55576040517f08c379a0000000000000000000000000000000000000000000000000000000008152600401612c4c9061527a565b60405180910390fd5b60c8612c5f611d79565b10612c9f576040517f08c379a0000000000000000000000000000000000000000000000000000000008152600401612c96906152e6565b60405180910390fd5b612cc97fe2b7fb3b832174769106daebcfd6d1970523240dda11281102db9363b83b0dc482611892565b7f03580ee9f53a62b7cb409a2cb56f9be87747dd15017afc5cef6eef321e4fb2c581604051612cf89190614006565b60405180910390a150565b612d0b613408565b80600760008473ffffffffffffffffffffffffffffffffffffffff1673ffffffffffffffffffffffffffffffffffffffff16815260200190815260200160002060006101000a81548160ff0219169083151502179055505050565b612d8d6001600084815260200190815260200160002060020154612d8861311d565b611f61565b612dcc576040517f08c379a0000000000000000000000000000000000000000000000000000000008152600401612dc390615378565b60405180910390fd5b612dd68282613374565b5050565b600260019054906101000a900460ff1681565b60006005600083815260200190815260200160002060009054906101000a900473ffffffffffffffffffffffffffffffffffffffff169050919050565b612e32613408565b600360008360ff1660ff16815260200190815260200160002060009054906101000a900467ffffffffffffffff1667ffffffffffffffff168167ffffffffffffffff1611612eb5576040517f08c379a0000000000000000000000000000000000000000000000000000000008152600401612eac9061540a565b60405180910390fd5b80600360008460ff1660ff16815260200190815260200160002060006101000a81548167ffffffffffffffff021916908367ffffffffffffffff1602179055505050565b60006004600083815260200190815260200160002060009054906101000a900473ffffffffffffffffffffffffffffffffffffffff169050919050565b60076020528060005260406000206000915054906101000a900460ff1681565b612f5e613408565b612f6e612f6961311d565b6135c5565b565b60006101008210612fb6576040517f08c379a0000000000000000000000000000000000000000000000000000000008152600401612fad90615476565b60405180910390fd5b819050919050565b60007001000000000000000000000000000000008210613013576040517f08c379a000000000000000000000000000000000000000000000000000000000815260040161300a906154e2565b60405180910390fd5b819050919050565b6000650100000000008210613065576040517f08c379a000000000000000000000000000000000000000000000000000000000815260040161305c9061554e565b60405180910390fd5b819050919050565b6000613095836000018373ffffffffffffffffffffffffffffffffffffffff1660001b613621565b905092915050565b60006130c5836000018373ffffffffffffffffffffffffffffffffffffffff1660001b613691565b905092915050565b60008054906101000a900460ff161561311b576040517f08c379a0000000000000000000000000000000000000000000000000000000008152600401613112906155ba565b60405180910390fd5b565b60008033905060146000369050101580156131815750600760008273ffffffffffffffffffffffffffffffffffffffff1673ffffffffffffffffffffffffffffffffffffffff16815260200190815260200160002060009054906101000a900460ff165b1561319157601436033560601c90505b8091505090565b60006131a261311d565b90506131b16000801b82611f61565b806131e257506131e17fe2b7fb3b832174769106daebcfd6d1970523240dda11281102db9363b83b0dc482611f61565b5b613221576040517f08c379a000000000000000000000000000000000000000000000000000000000815260040161321890615626565b60405180910390fd5b50565b600061326683836040518060400160405280601e81526020017f536166654d6174683a207375627472616374696f6e206f766572666c6f7700008152506136b4565b905092915050565b61329f7fe2b7fb3b832174769106daebcfd6d1970523240dda11281102db9363b83b0dc461329a61311d565b611f61565b6132de576040517f08c379a00000000000000000000000000000000000000000000000000000000081526004016132d590615692565b60405180910390fd5b565b613308816001600085815260200190815260200160002060000161306d90919063ffffffff16565b156133705761331561311d565b73ffffffffffffffffffffffffffffffffffffffff168173ffffffffffffffffffffffffffffffffffffffff16837f2f8788117e7eff1d82e926ec794901d17c78024a50270940304540a733656f0d60405160405180910390a45b5050565b61339c816001600085815260200190815260200160002060000161371890919063ffffffff16565b15613404576133a961311d565b73ffffffffffffffffffffffffffffffffffffffff168173ffffffffffffffffffffffffffffffffffffffff16837ff6391f5c32d9c69d2a47ea670b442974b53935d1edc7fd64eb21e047a839171b60405160405180910390a45b5050565b61341c6000801b61341761311d565b611f61565b61345b576040517f08c379a0000000000000000000000000000000000000000000000000000000008152600401613452906156fe565b60405180910390fd5b565b600080836020015178ffffffffffffffffffffffffffffffffffffffffffffffffff1661348984613509565b1611905092915050565b61349b6130cd565b60016000806101000a81548160ff0219169083151502179055507f62e78cea01bee320cd4e420270b5ea74000d11b0c9f74754ebdbfc544b05a258816040516134e49190614006565b60405180910390a150565b60006134fe8360000183613748565b60001c905092915050565b600061353f6135387fe2b7fb3b832174769106daebcfd6d1970523240dda11281102db9363b83b0dc484611acc565b6001613224565b6001901b9050919050565b600079010000000000000000000000000000000000000000000000000082106135a8576040517f08c379a000000000000000000000000000000000000000000000000000000000815260040161359f9061576a565b60405180910390fd5b819050919050565b60006135be82600001613773565b9050919050565b6135cd613784565b60008060006101000a81548160ff0219169083151502179055507f5db9ee0a495bf2e6ff9c91a7834c1ba4fdd244a5e8aa4e537bd38aeae4b073aa816040516136169190614006565b60405180910390a150565b600061362d8383613691565b61368657826000018290806001815401808255809150506001900390600052602060002001600090919091909150558260000180549050836001016000848152602001908152602001600020819055506001905061368b565b600090505b92915050565b600080836001016000848152602001908152602001600020541415905092915050565b60008383111582906136fc576040517f08c379a00000000000000000000000000000000000000000000000000000000081526004016136f391906157ce565b60405180910390fd5b506000838561370b91906157f0565b9050809150509392505050565b6000613740836000018373ffffffffffffffffffffffffffffffffffffffff1660001b6137d3565b905092915050565b60008260000182815481106137605761375f614e4a565b5b9060005260206000200154905092915050565b600081600001805490509050919050565b60008054906101000a900460ff166137d1576040517f08c379a00000000000000000000000000000000000000000000000000000000081526004016137c890615870565b60405180910390fd5b565b600080836001016000848152602001908152602001600020549050600081146138db57600060018261380591906157f0565b905060006001866000018054905061381d91906157f0565b905081811461388c57600086600001828154811061383e5761383d614e4a565b5b906000526020600020015490508087600001848154811061386257613861614e4a565b5b90600052602060002001819055508387600101600083815260200190815260200160002081905550505b856000018054806138a05761389f615890565b5b6001900381819060005260206000200160009055905585600101600086815260200190815260200160002060009055600193505050506138e1565b60009150505b92915050565b6040518060800160405280600060048111156139065761390561415f565b5b8152602001600078ffffffffffffffffffffffffffffffffffffffffffffffffff168152602001600060ff168152602001600064ffffffffff1681525090565b6000604051905090565b600080fd5b600080fd5b600060ff82169050919050565b6139708161395a565b811461397b57600080fd5b50565b60008135905061398d81613967565b92915050565b6000819050919050565b6139a681613993565b81146139b157600080fd5b50565b6000813590506139c38161399d565b92915050565b600080fd5b600080fd5b600080fd5b60008083601f8401126139ee576139ed6139c9565b5b8235905067ffffffffffffffff811115613a0b57613a0a6139ce565b5b602083019150836001820283011115613a2757613a266139d3565b5b9250929050565b60008060008060608587031215613a4857613a47613950565b5b6000613a568782880161397e565b9450506020613a67878288016139b4565b935050604085013567ffffffffffffffff811115613a8857613a87613955565b5b613a94878288016139d8565b925092505092959194509250565b600073ffffffffffffffffffffffffffffffffffffffff82169050919050565b6000613acd82613aa2565b9050919050565b613add81613ac2565b8114613ae857600080fd5b50565b600081359050613afa81613ad4565b92915050565b60008060408385031215613b1757613b16613950565b5b6000613b2585828601613aeb565b9250506020613b36858286016139b4565b9150509250929050565b600067ffffffffffffffff82169050919050565b613b5d81613b40565b8114613b6857600080fd5b50565b600081359050613b7a81613b54565b92915050565b600080600060608486031215613b9957613b98613950565b5b6000613ba78682870161397e565b9350506020613bb886828701613b6b565b9250506040613bc9868287016139b4565b9150509250925092565b6000819050919050565b613be681613bd3565b8114613bf157600080fd5b50565b600081359050613c0381613bdd565b92915050565b600080600060608486031215613c2257613c21613950565b5b6000613c3086828701613aeb565b9350506020613c4186828701613bf4565b9250506040613c52868287016139b4565b9150509250925092565b60008115159050919050565b613c7181613c5c565b8114613c7c57600080fd5b50565b600081359050613c8e81613c68565b92915050565b60008060008060008060a08789031215613cb157613cb0613950565b5b6000613cbf89828a0161397e565b9650506020613cd089828a01613b6b565b955050604087013567ffffffffffffffff811115613cf157613cf0613955565b5b613cfd89828a016139d8565b94509450506060613d1089828a016139b4565b9250506080613d2189828a01613c7f565b9150509295509295509295565b600060208284031215613d4457613d43613950565b5b6000613d52848285016139b4565b91505092915050565b613d6481613993565b82525050565b6000602082019050613d7f6000830184613d5b565b92915050565b60008060408385031215613d9c57613d9b613950565b5b6000613daa858286016139b4565b9250506020613dbb85828601613aeb565b9150509250929050565b60008083601f840112613ddb57613dda6139c9565b5b8235905067ffffffffffffffff811115613df857613df76139ce565b5b602083019150836020820283011115613e1457613e136139d3565b5b9250929050565b60008083601f840112613e3157613e306139c9565b5b8235905067ffffffffffffffff811115613e4e57613e4d6139ce565b5b602083019150836020820283011115613e6a57613e696139d3565b5b9250929050565b60008060008060408587031215613e8b57613e8a613950565b5b600085013567ffffffffffffffff811115613ea957613ea8613955565b5b613eb587828801613dc5565b9450945050602085013567ffffffffffffffff811115613ed857613ed7613955565b5b613ee487828801613e1b565b925092505092959194509250565b600060208284031215613f0857613f07613950565b5b6000613f168482850161397e565b91505092915050565b613f2881613b40565b82525050565b6000602082019050613f436000830184613f1f565b92915050565b600060208284031215613f5f57613f5e613950565b5b6000613f6d84828501613bf4565b91505092915050565b613f7f81613bd3565b82525050565b6000602082019050613f9a6000830184613f76565b92915050565b600060208284031215613fb657613fb5613950565b5b6000613fc484828501613aeb565b91505092915050565b613fd681613c5c565b82525050565b6000602082019050613ff16000830184613fcd565b92915050565b61400081613ac2565b82525050565b600060208201905061401b6000830184613ff7565b92915050565b600068ffffffffffffffffff82169050919050565b61403f81614021565b811461404a57600080fd5b50565b60008135905061405c81614036565b92915050565b60008060006060848603121561407b5761407a613950565b5b60006140898682870161404d565b935050602061409a868287016139b4565b92505060406140ab86828701613aeb565b9150509250925092565b600080604083850312156140cc576140cb613950565b5b60006140da85828601613aeb565b92505060206140eb85828601613aeb565b9150509250929050565b6000806040838503121561410c5761410b613950565b5b600061411a858286016139b4565b925050602061412b85828601613bf4565b9150509250929050565b61413e8161395a565b82525050565b60006020820190506141596000830184614135565b92915050565b7f4e487b7100000000000000000000000000000000000000000000000000000000600052602160045260246000fd5b6005811061419f5761419e61415f565b5b50565b60008190506141b08261418e565b919050565b60006141c0826141a2565b9050919050565b6141d0816141b5565b82525050565b600078ffffffffffffffffffffffffffffffffffffffffffffffffff82169050919050565b614204816141d6565b82525050565b6142138161395a565b82525050565b600064ffffffffff82169050919050565b61423381614219565b82525050565b60808201600082015161424f60008501826141c7565b50602082015161426260208501826141fb565b506040820151614275604085018261420a565b506060820151614288606085018261422a565b50505050565b60006080820190506142a36000830184614239565b92915050565b600080fd5b6000601f19601f8301169050919050565b7f4e487b7100000000000000000000000000000000000000000000000000000000600052604160045260246000fd5b6142f7826142ae565b810181811067ffffffffffffffff82111715614316576143156142bf565b5b80604052505050565b6000614329613946565b905061433582826142ee565b919050565b600067ffffffffffffffff821115614355576143546142bf565b5b61435e826142ae565b9050602081019050919050565b82818337600083830152505050565b600061438d6143888461433a565b61431f565b9050828152602081018484840111156143a9576143a86142a9565b5b6143b484828561436b565b509392505050565b600082601f8301126143d1576143d06139c9565b5b81356143e184826020860161437a565b91505092915050565b6000806040838503121561440157614400613950565b5b600061440f85828601613aeb565b925050602083013567ffffffffffffffff8111156144305761442f613955565b5b61443c858286016143bc565b9150509250929050565b60008060008060006080868803121561446257614461613950565b5b60006144708882890161397e565b955050602061448188828901613b6b565b9450506040614492888289016139b4565b935050606086013567ffffffffffffffff8111156144b3576144b2613955565b5b6144bf888289016139d8565b92509250509295509295909350565b60006fffffffffffffffffffffffffffffffff82169050919050565b6144f3816144ce565b82525050565b600060208201905061450e60008301846144ea565b92915050565b61451d81614219565b82525050565b60006020820190506145386000830184614514565b92915050565b60008060006060848603121561455757614556613950565b5b600061456586828701613aeb565b9350506020614576868287016139b4565b925050604061458786828701613aeb565b9150509250925092565b600080604083850312156145a8576145a7613950565b5b60006145b685828601613aeb565b92505060206145c785828601613c7f565b9150509250929050565b600080604083850312156145e8576145e7613950565b5b60006145f68582860161397e565b925050602061460785828601613b6b565b9150509250929050565b600082825260208201905092915050565b7f496e636f72726563742066656520737570706c69656400000000000000000000600082015250565b6000614658601683614611565b915061466382614622565b602082019050919050565b600060208201905081810360008301526146878161464b565b9050919050565b7f7265736f757263654944206e6f74206d617070656420746f2068616e646c6572600082015250565b60006146c4602083614611565b91506146cf8261468e565b602082019050919050565b600060208201905081810360008301526146f3816146b7565b9050919050565b7f4e487b7100000000000000000000000000000000000000000000000000000000600052601160045260246000fd5b600061473482613b40565b915067ffffffffffffffff82141561474f5761474e6146fa565b5b600182019050919050565b600082825260208201905092915050565b6000614777838561475a565b935061478483858461436b565b61478d836142ae565b840190509392505050565b60006060820190506147ad6000830187613d5b565b6147ba6020830186613ff7565b81810360408301526147cd81848661476b565b905095945050505050565b60005b838110156147f65780820151818401526020810190506147db565b83811115614805576000848401525b50505050565b600061481e6148198461433a565b61431f565b90508281526020810184848401111561483a576148396142a9565b5b6148458482856147d8565b509392505050565b600082601f830112614862576148616139c9565b5b815161487284826020860161480b565b91505092915050565b60006020828403121561489157614890613950565b5b600082015167ffffffffffffffff8111156148af576148ae613955565b5b6148bb8482850161484d565b91505092915050565b600081519050919050565b60006148da826148c4565b6148e4818561475a565b93506148f48185602086016147d8565b6148fd816142ae565b840191505092915050565b600060a08201905061491d6000830189614135565b61492a6020830188613d5b565b6149376040830187613f1f565b818103606083015261494a81858761476b565b9050818103608083015261495e81846148cf565b9050979650505050505050565b7f50726f706f73616c2063616e6e6f742062652063616e63656c6c656400000000600082015250565b60006149a1601c83614611565b91506149ac8261496b565b602082019050919050565b600060208201905081810360008301526149d081614994565b9050919050565b7f50726f706f73616c206e6f7420617420657870697279207468726573686f6c64600082015250565b6000614a0d602083614611565b9150614a18826149d7565b602082019050919050565b60006020820190508181036000830152614a3c81614a00565b9050919050565b614a4c816141b5565b82525050565b6000608082019050614a676000830187614135565b614a746020830186613f1f565b614a816040830185614a43565b614a8e6060830184613d5b565b95945050505050565b6000604082019050614aac6000830185613ff7565b614ab96020830184613ff7565b9392505050565b6000604082019050614ad56000830185613ff7565b614ae26020830184613f76565b9392505050565b60008160601b9050919050565b6000614b0182614ae9565b9050919050565b6000614b1382614af6565b9050919050565b614b2b614b2682613ac2565b614b08565b82525050565b600081905092915050565b6000614b488385614b31565b9350614b5583858461436b565b82840190509392505050565b6000614b6d8286614b1a565b601482019150614b7e828486614b3c565b9150819050949350505050565b7f50726f706f73616c206d75737420686176652050617373656420737461747573600082015250565b6000614bc1602083614611565b9150614bcc82614b8b565b602082019050919050565b60006020820190508181036000830152614bf081614bb4565b9050919050565b6000604082019050614c0c6000830186613d5b565b8181036020830152614c1f81848661476b565b9050949350505050565b60006020820190508181036000830152614c4381846148cf565b905092915050565b60008060408385031215614c6257614c61613950565b5b6000614c7085828601613bf4565b9250506020614c8185828601613bf4565b9150509250929050565b6000614c9682613bd3565b9150614ca183613bd3565b9250827fffffffffffffffffffffffffffffffffffffffffffffffffffffffffffffffff03821115614cd657614cd56146fa565b5b828201905092915050565b600080fd5b600080fd5b60008085851115614cff57614cfe614ce1565b5b83861115614d1057614d0f614ce6565b5b6001850283019150848603905094509492505050565b7f416363657373436f6e74726f6c3a2073656e646572206d75737420626520616e60008201527f2061646d696e20746f206772616e740000000000000000000000000000000000602082015250565b6000614d82602f83614611565b9150614d8d82614d26565b604082019050919050565b60006020820190508181036000830152614db181614d75565b9050919050565b7f416363657373436f6e74726f6c3a2063616e206f6e6c792072656e6f756e636560008201527f20726f6c657320666f722073656c660000000000000000000000000000000000602082015250565b6000614e14602f83614611565b9150614e1f82614db8565b604082019050919050565b60006020820190508181036000830152614e4381614e07565b9050919050565b7f4e487b7100000000000000000000000000000000000000000000000000000000600052603260045260246000fd5b6000614e8482613aa2565b9050919050565b614e9481614e79565b8114614e9f57600080fd5b50565b600081359050614eb181614e8b565b92915050565b600060208284031215614ecd57614ecc613950565b5b6000614edb84828501614ea2565b91505092915050565b6000614eef82613bd3565b91507fffffffffffffffffffffffffffffffffffffffffffffffffffffffffffffffff821415614f2257614f216146fa565b5b600182019050919050565b7f43616e6e6f742072656e6f756e6365206f6e6573656c66000000000000000000600082015250565b6000614f63601783614611565b9150614f6e82614f2d565b602082019050919050565b60006020820190508181036000830152614f9281614f56565b9050919050565b7f43757272656e742066656520697320657175616c20746f206e65772066656500600082015250565b6000614fcf601f83614611565b9150614fda82614f99565b602082019050919050565b60006020820190508181036000830152614ffe81614fc2565b9050919050565b7f6164647220646f65736e277420686176652072656c6179657220726f6c652100600082015250565b600061503b601f83614611565b915061504682615005565b602082019050919050565b6000602082019050818103600083015261506a8161502e565b9050919050565b7f6e6f2068616e646c657220666f72207265736f75726365494400000000000000600082015250565b60006150a7601983614611565b91506150b282615071565b602082019050919050565b600060208201905081810360008301526150d68161509a565b9050919050565b7f70726f706f73616c20616c72656164792065786563757465642f63616e63656c60008201527f6c65640000000000000000000000000000000000000000000000000000000000602082015250565b6000615139602383614611565b9150615144826150dd565b604082019050919050565b600060208201905081810360008301526151688161512c565b9050919050565b7f72656c6179657220616c726561647920766f7465640000000000000000000000600082015250565b60006151a5601583614611565b91506151b08261516f565b602082019050919050565b600060208201905081810360008301526151d481615198565b9050919050565b60006151e68261395a565b915060ff8214156151fa576151f96146fa565b5b600182019050919050565b600060408201905061521a6000830185613d5b565b6152276020830184613ff7565b9392505050565b7f6164647220616c7265616479206861732072656c6179657220726f6c65210000600082015250565b6000615264601e83614611565b915061526f8261522e565b602082019050919050565b6000602082019050818103600083015261529381615257565b9050919050565b7f72656c6179657273206c696d6974207265616368656400000000000000000000600082015250565b60006152d0601683614611565b91506152db8261529a565b602082019050919050565b600060208201905081810360008301526152ff816152c3565b9050919050565b7f416363657373436f6e74726f6c3a2073656e646572206d75737420626520616e60008201527f2061646d696e20746f207265766f6b6500000000000000000000000000000000602082015250565b6000615362603083614611565b915061536d82615306565b604082019050919050565b6000602082019050818103600083015261539181615355565b9050919050565b7f446f6573206e6f7420616c6c6f772064656372656d656e7473206f662074686560008201527f206e6f6e63650000000000000000000000000000000000000000000000000000602082015250565b60006153f4602683614611565b91506153ff82615398565b604082019050919050565b60006020820190508181036000830152615423816153e7565b9050919050565b7f76616c756520646f6573206e6f742066697420696e2038206269747300000000600082015250565b6000615460601c83614611565b915061546b8261542a565b602082019050919050565b6000602082019050818103600083015261548f81615453565b9050919050565b7f76616c756520646f6573206e6f742066697420696e2031323820626974730000600082015250565b60006154cc601e83614611565b91506154d782615496565b602082019050919050565b600060208201905081810360008301526154fb816154bf565b9050919050565b7f76616c756520646f6573206e6f742066697420696e2034302062697473000000600082015250565b6000615538601d83614611565b915061554382615502565b602082019050919050565b600060208201905081810360008301526155678161552b565b9050919050565b7f5061757361626c653a2070617573656400000000000000000000000000000000600082015250565b60006155a4601083614611565b91506155af8261556e565b602082019050919050565b600060208201905081810360008301526155d381615597565b9050919050565b7f73656e646572206973206e6f742072656c61796572206f722061646d696e0000600082015250565b6000615610601e83614611565b915061561b826155da565b602082019050919050565b6000602082019050818103600083015261563f81615603565b9050919050565b7f73656e64657220646f65736e277420686176652072656c6179657220726f6c65600082015250565b600061567c602083614611565b915061568782615646565b602082019050919050565b600060208201905081810360008301526156ab8161566f565b9050919050565b7f73656e64657220646f65736e277420686176652061646d696e20726f6c650000600082015250565b60006156e8601e83614611565b91506156f3826156b2565b602082019050919050565b60006020820190508181036000830152615717816156db565b9050919050565b7f76616c756520646f6573206e6f742066697420696e2032303020626974730000600082015250565b6000615754601e83614611565b915061575f8261571e565b602082019050919050565b6000602082019050818103600083015261578381615747565b9050919050565b600081519050919050565b60006157a08261578a565b6157aa8185614611565b93506157ba8185602086016147d8565b6157c3816142ae565b840191505092915050565b600060208201905081810360008301526157e88184615795565b905092915050565b60006157fb82613bd3565b915061580683613bd3565b925082821015615819576158186146fa565b5b828203905092915050565b7f5061757361626c653a206e6f7420706175736564000000000000000000000000600082015250565b600061585a601483614611565b915061586582615824565b602082019050919050565b600060208201905081810360008301526158898161584d565b9050919050565b7f4e487b7100000000000000000000000000000000000000000000000000000000600052603160045260246000fdfea26469706673582212208d20053822f542a6e7982ec70983dc3bd07578ee999505d4495b02001c7bc6bd64736f6c634300080b0033",
  "linkReferences": {},
  "deployedLinkReferences": {}
}