{
  "_format": "hh-sol-artifact-1",
  "contractName": "ERC721Handler",
  "sourceName": "contracts/handlers/ERC721Handler.sol",
  "abi": [
    {
      "inputs": [
        {
          "internalType": "address",
          "name": "bridgeAddress",
          "type": "address"
        }
      ],
      "stateMutability": "nonpayable",
      "type": "constructor"
    },
    {
      "inputs": [],
      "name": "_bridgeAddress",
      "outputs": [
        {
          "internalType": "address",
          "name": "",
          "type": "address"
        }
      ],
      "stateMutability": "view",
      "type": "function"
    },
    {
      "inputs": [
        {
          "internalType": "address",
          "name": "",
          "type": "address"
        }
      ],
      "name": "_burnList",
      "outputs": [
        {
          "internalType": "bool",
          "name": "",
          "type": "bool"
        }
      ],
      "stateMutability": "view",
      "type": "function"
    },
    {
      "inputs": [
        {
          "internalType": "address",
          "name": "",
          "type": "address"
        }
      ],
      "name": "_contractWhitelist",
      "outputs": [
        {
          "internalType": "bool",
          "name": "",
          "type": "bool"
        }
      ],
      "stateMutability": "view",
      "type": "function"
    },
    {
      "inputs": [
        {
          "internalType": "bytes32",
          "name": "",
          "type": "bytes32"
        }
      ],
      "name": "_resourceIDToTokenContractAddress",
      "outputs": [
        {
          "internalType": "address",
          "name": "",
          "type": "address"
        }
      ],
      "stateMutability": "view",
      "type": "function"
    },
    {
      "inputs": [
        {
          "internalType": "address",
          "name": "",
          "type": "address"
        }
      ],
      "name": "_tokenContractAddressToResourceID",
      "outputs": [
        {
          "internalType": "bytes32",
          "name": "",
          "type": "bytes32"
        }
      ],
      "stateMutability": "view",
      "type": "function"
    },
    {
      "inputs": [
        {
          "internalType": "bytes32",
          "name": "resourceID",
          "type": "bytes32"
        },
        {
          "internalType": "address",
          "name": "depositer",
          "type": "address"
        },
        {
          "internalType": "bytes",
          "name": "data",
          "type": "bytes"
        }
      ],
      "name": "deposit",
      "outputs": [
        {
          "internalType": "bytes",
          "name": "metaData",
          "type": "bytes"
        }
      ],
      "stateMutability": "nonpayable",
      "type": "function"
    },
    {
      "inputs": [
        {
          "internalType": "bytes32",
          "name": "resourceID",
          "type": "bytes32"
        },
        {
          "internalType": "bytes",
          "name": "data",
          "type": "bytes"
        }
      ],
      "name": "executeProposal",
      "outputs": [],
      "stateMutability": "nonpayable",
      "type": "function"
    },
    {
      "inputs": [
        {
          "internalType": "address",
          "name": "contractAddress",
          "type": "address"
        }
      ],
      "name": "setBurnable",
      "outputs": [],
      "stateMutability": "nonpayable",
      "type": "function"
    },
    {
      "inputs": [
        {
          "internalType": "bytes32",
          "name": "resourceID",
          "type": "bytes32"
        },
        {
          "internalType": "address",
          "name": "contractAddress",
          "type": "address"
        }
      ],
      "name": "setResource",
      "outputs": [],
      "stateMutability": "nonpayable",
      "type": "function"
    },
    {
      "inputs": [
        {
          "internalType": "bytes",
          "name": "data",
          "type": "bytes"
        }
      ],
      "name": "withdraw",
      "outputs": [],
      "stateMutability": "nonpayable",
      "type": "function"
    }
  ],
  "bytecode": "0x60a06040523480156200001157600080fd5b50604051620019c0380380620019c08339818101604052810190620000379190620000de565b808073ffffffffffffffffffffffffffffffffffffffff1660808173ffffffffffffffffffffffffffffffffffffffff1681525050505062000110565b600080fd5b600073ffffffffffffffffffffffffffffffffffffffff82169050919050565b6000620000a68262000079565b9050919050565b620000b88162000099565b8114620000c457600080fd5b50565b600081519050620000d881620000ad565b92915050565b600060208284031215620000f757620000f662000074565b5b60006200010784828501620000c7565b91505092915050565b60805161188d62000133600039600081816102a901526107ca015261188d6000f3fe608060405234801561001057600080fd5b506004361061009e5760003560e01c80637f79bea8116100665780637f79bea814610159578063b07e54bb14610189578063b8fa3736146101b9578063c8ba6c87146101d5578063e248cff2146102055761009e565b806307b7ed99146100a35780630968f264146100bf5780630a6d55d8146100db578063318c136e1461010b5780636a70d08114610129575b600080fd5b6100bd60048036038101906100b89190610db9565b610221565b005b6100d960048036038101906100d49190610f2c565b610235565b005b6100f560048036038101906100f09190610fab565b610274565b6040516101029190610fe7565b60405180910390f35b6101136102a7565b6040516101209190610fe7565b60405180910390f35b610143600480360381019061013e9190610db9565b6102cb565b604051610150919061101d565b60405180910390f35b610173600480360381019061016e9190610db9565b6102eb565b604051610180919061101d565b60405180910390f35b6101a3600480360381019061019e9190611098565b61030b565b6040516101b09190611194565b60405180910390f35b6101d360048036038101906101ce91906111b6565b610520565b005b6101ef60048036038101906101ea9190610db9565b610536565b6040516101fc9190611205565b60405180910390f35b61021f600480360381019061021a9190611220565b61054e565b005b6102296107c8565b61023281610858565b50565b61023d6107c8565b60008060008380602001905181019061025691906112f4565b80935081945082955050505061026e8330848461093f565b50505050565b60006020528060005260406000206000915054906101000a900473ffffffffffffffffffffffffffffffffffffffff1681565b7f000000000000000000000000000000000000000000000000000000000000000081565b60036020528060005260406000206000915054906101000a900460ff1681565b60026020528060005260406000206000915054906101000a900460ff1681565b60606103156107c8565b60008383810190610326919061135c565b9050600080600088815260200190815260200160002060009054906101000a900473ffffffffffffffffffffffffffffffffffffffff169050600260008273ffffffffffffffffffffffffffffffffffffffff1673ffffffffffffffffffffffffffffffffffffffff16815260200190815260200160002060009054906101000a900460ff166103eb576040517f08c379a00000000000000000000000000000000000000000000000000000000081526004016103e29061140c565b60405180910390fd5b61041b635b5e139f60e01b8273ffffffffffffffffffffffffffffffffffffffff166109ba90919063ffffffff16565b156104a85760008190508073ffffffffffffffffffffffffffffffffffffffff1663c87b56dd846040518263ffffffff1660e01b815260040161045e919061143b565b600060405180830381865afa15801561047b573d6000803e3d6000fd5b505050506040513d6000823e3d601f19601f820116820180604052508101906104a491906114f7565b9350505b600360008273ffffffffffffffffffffffffffffffffffffffff1673ffffffffffffffffffffffffffffffffffffffff16815260200190815260200160002060009054906101000a900460ff16156105095761050481836109df565b610516565b61051581873085610a54565b5b5050949350505050565b6105286107c8565b6105328282610acf565b5050565b60016020528060005260406000206000915090505481565b6105566107c8565b60008060606000806060878781019061056f9190611540565b809650819750505084604061058491906115af565b9250878760409085926105999392919061160f565b8080601f016020809104026020016040519081016040528093929190818152602001838380828437600081840152601f19601f8201169050808301925050505050505093508787849080926105f09392919061160f565b8101906105fd919061135c565b9150878760208561060e91906115af565b908460208761061d91906115af565b61062791906115af565b926106349392919061160f565b8080601f016020809104026020016040519081016040528093929190818152602001838380828437600081840152601f19601f82011690508083019250505050505050905060006020850151905060008060008c815260200190815260200160002060009054906101000a900473ffffffffffffffffffffffffffffffffffffffff169050600260008273ffffffffffffffffffffffffffffffffffffffff1673ffffffffffffffffffffffffffffffffffffffff16815260200190815260200160002060009054906101000a900460ff16610745576040517f08c379a000000000000000000000000000000000000000000000000000000000815260040161073c9061140c565b60405180910390fd5b600360008273ffffffffffffffffffffffffffffffffffffffff1673ffffffffffffffffffffffffffffffffffffffff16815260200190815260200160002060009054906101000a900460ff16156107ab576107a6818360601c8a86610bc0565b6107bb565b6107ba81308460601c8b61093f565b5b5050505050505050505050565b7f000000000000000000000000000000000000000000000000000000000000000073ffffffffffffffffffffffffffffffffffffffff163373ffffffffffffffffffffffffffffffffffffffff1614610856576040517f08c379a000000000000000000000000000000000000000000000000000000000815260040161084d90611696565b60405180910390fd5b565b600260008273ffffffffffffffffffffffffffffffffffffffff1673ffffffffffffffffffffffffffffffffffffffff16815260200190815260200160002060009054906101000a900460ff166108e4576040517f08c379a00000000000000000000000000000000000000000000000000000000081526004016108db90611728565b60405180910390fd5b6001600360008373ffffffffffffffffffffffffffffffffffffffff1673ffffffffffffffffffffffffffffffffffffffff16815260200190815260200160002060006101000a81548160ff02191690831515021790555050565b60008490508073ffffffffffffffffffffffffffffffffffffffff166323b872dd8585856040518463ffffffff1660e01b815260040161098193929190611748565b600060405180830381600087803b15801561099b57600080fd5b505af11580156109af573d6000803e3d6000fd5b505050505050505050565b60006109c583610c3b565b80156109d757506109d68383610c88565b5b905092915050565b60008290508073ffffffffffffffffffffffffffffffffffffffff166342966c68836040518263ffffffff1660e01b8152600401610a1d919061143b565b600060405180830381600087803b158015610a3757600080fd5b505af1158015610a4b573d6000803e3d6000fd5b50505050505050565b60008490508073ffffffffffffffffffffffffffffffffffffffff166323b872dd8585856040518463ffffffff1660e01b8152600401610a9693929190611748565b600060405180830381600087803b158015610ab057600080fd5b505af1158015610ac4573d6000803e3d6000fd5b505050505050505050565b8060008084815260200190815260200160002060006101000a81548173ffffffffffffffffffffffffffffffffffffffff021916908373ffffffffffffffffffffffffffffffffffffffff16021790555081600160008373ffffffffffffffffffffffffffffffffffffffff1673ffffffffffffffffffffffffffffffffffffffff168152602001908152602001600020819055506001600260008373ffffffffffffffffffffffffffffffffffffffff1673ffffffffffffffffffffffffffffffffffffffff16815260200190815260200160002060006101000a81548160ff0219169083151502179055505050565b60008490508073ffffffffffffffffffffffffffffffffffffffff1663d3fc98648585856040518463ffffffff1660e01b8152600401610c02939291906117c3565b600060405180830381600087803b158015610c1c57600080fd5b505af1158015610c30573d6000803e3d6000fd5b505050505050505050565b6000610c67827f01ffc9a700000000000000000000000000000000000000000000000000000000610c88565b8015610c815750610c7f8263ffffffff60e01b610c88565b155b9050919050565b6000806301ffc9a760e01b83604051602401610ca4919061183c565b604051602081830303815290604052907bffffffffffffffffffffffffffffffffffffffffffffffffffffffff19166020820180517bffffffffffffffffffffffffffffffffffffffffffffffffffffffff838183161783525050505090506000806000602060008551602087018a617530fa92503d91506000519050828015610d2f575060208210155b8015610d3b5750600081115b94505050505092915050565b6000604051905090565b600080fd5b600080fd5b600073ffffffffffffffffffffffffffffffffffffffff82169050919050565b6000610d8682610d5b565b9050919050565b610d9681610d7b565b8114610da157600080fd5b50565b600081359050610db381610d8d565b92915050565b600060208284031215610dcf57610dce610d51565b5b6000610ddd84828501610da4565b91505092915050565b600080fd5b600080fd5b6000601f19601f8301169050919050565b7f4e487b7100000000000000000000000000000000000000000000000000000000600052604160045260246000fd5b610e3982610df0565b810181811067ffffffffffffffff82111715610e5857610e57610e01565b5b80604052505050565b6000610e6b610d47565b9050610e778282610e30565b919050565b600067ffffffffffffffff821115610e9757610e96610e01565b5b610ea082610df0565b9050602081019050919050565b82818337600083830152505050565b6000610ecf610eca84610e7c565b610e61565b905082815260208101848484011115610eeb57610eea610deb565b5b610ef6848285610ead565b509392505050565b600082601f830112610f1357610f12610de6565b5b8135610f23848260208601610ebc565b91505092915050565b600060208284031215610f4257610f41610d51565b5b600082013567ffffffffffffffff811115610f6057610f5f610d56565b5b610f6c84828501610efe565b91505092915050565b6000819050919050565b610f8881610f75565b8114610f9357600080fd5b50565b600081359050610fa581610f7f565b92915050565b600060208284031215610fc157610fc0610d51565b5b6000610fcf84828501610f96565b91505092915050565b610fe181610d7b565b82525050565b6000602082019050610ffc6000830184610fd8565b92915050565b60008115159050919050565b61101781611002565b82525050565b6000602082019050611032600083018461100e565b92915050565b600080fd5b600080fd5b60008083601f84011261105857611057610de6565b5b8235905067ffffffffffffffff81111561107557611074611038565b5b6020830191508360018202830111156110915761109061103d565b5b9250929050565b600080600080606085870312156110b2576110b1610d51565b5b60006110c087828801610f96565b94505060206110d187828801610da4565b935050604085013567ffffffffffffffff8111156110f2576110f1610d56565b5b6110fe87828801611042565b925092505092959194509250565b600081519050919050565b600082825260208201905092915050565b60005b8381101561114657808201518184015260208101905061112b565b83811115611155576000848401525b50505050565b60006111668261110c565b6111708185611117565b9350611180818560208601611128565b61118981610df0565b840191505092915050565b600060208201905081810360008301526111ae818461115b565b905092915050565b600080604083850312156111cd576111cc610d51565b5b60006111db85828601610f96565b92505060206111ec85828601610da4565b9150509250929050565b6111ff81610f75565b82525050565b600060208201905061121a60008301846111f6565b92915050565b60008060006040848603121561123957611238610d51565b5b600061124786828701610f96565b935050602084013567ffffffffffffffff81111561126857611267610d56565b5b61127486828701611042565b92509250509250925092565b600061128b82610d5b565b9050919050565b61129b81611280565b81146112a657600080fd5b50565b6000815190506112b881611292565b92915050565b6000819050919050565b6112d1816112be565b81146112dc57600080fd5b50565b6000815190506112ee816112c8565b92915050565b60008060006060848603121561130d5761130c610d51565b5b600061131b868287016112a9565b935050602061132c868287016112a9565b925050604061133d868287016112df565b9150509250925092565b600081359050611356816112c8565b92915050565b60006020828403121561137257611371610d51565b5b600061138084828501611347565b91505092915050565b600082825260208201905092915050565b7f70726f766964656420746f6b656e41646472657373206973206e6f742077686960008201527f74656c6973746564000000000000000000000000000000000000000000000000602082015250565b60006113f6602883611389565b91506114018261139a565b604082019050919050565b60006020820190508181036000830152611425816113e9565b9050919050565b611435816112be565b82525050565b6000602082019050611450600083018461142c565b92915050565b600067ffffffffffffffff82111561147157611470610e01565b5b61147a82610df0565b9050602081019050919050565b600061149a61149584611456565b610e61565b9050828152602081018484840111156114b6576114b5610deb565b5b6114c1848285611128565b509392505050565b600082601f8301126114de576114dd610de6565b5b81516114ee848260208601611487565b91505092915050565b60006020828403121561150d5761150c610d51565b5b600082015167ffffffffffffffff81111561152b5761152a610d56565b5b611537848285016114c9565b91505092915050565b6000806040838503121561155757611556610d51565b5b600061156585828601611347565b925050602061157685828601611347565b9150509250929050565b7f4e487b7100000000000000000000000000000000000000000000000000000000600052601160045260246000fd5b60006115ba826112be565b91506115c5836112be565b9250827fffffffffffffffffffffffffffffffffffffffffffffffffffffffffffffffff038211156115fa576115f9611580565b5b828201905092915050565b600080fd5b600080fd5b6000808585111561162357611622611605565b5b838611156116345761163361160a565b5b6001850283019150848603905094509492505050565b7f73656e646572206d7573742062652062726964676520636f6e74726163740000600082015250565b6000611680601e83611389565b915061168b8261164a565b602082019050919050565b600060208201905081810360008301526116af81611673565b9050919050565b7f70726f766964656420636f6e7472616374206973206e6f742077686974656c6960008201527f7374656400000000000000000000000000000000000000000000000000000000602082015250565b6000611712602483611389565b915061171d826116b6565b604082019050919050565b6000602082019050818103600083015261174181611705565b9050919050565b600060608201905061175d6000830186610fd8565b61176a6020830185610fd8565b611777604083018461142c565b949350505050565b600081519050919050565b60006117958261177f565b61179f8185611389565b93506117af818560208601611128565b6117b881610df0565b840191505092915050565b60006060820190506117d86000830186610fd8565b6117e5602083018561142c565b81810360408301526117f7818461178a565b9050949350505050565b60007fffffffff0000000000000000000000000000000000000000000000000000000082169050919050565b61183681611801565b82525050565b6000602082019050611851600083018461182d565b9291505056fea26469706673582212201f26a7f87754fe34997d22e92de80c7d1efce4824a5322d8028d507ca7098cb364736f6c634300080b0033",
  "linkReferences": {},
  "deployedLinkReferences": {}
}