{
  "_format": "hh-sol-artifact-1",
  "contractName": "OneArgument",
  "sourceName": "contracts/TestContracts.sol",
  "abi": [
    {
      "anonymous": false,
      "inputs": [
        {
          "indexed": true,
          "internalType": "uint256",
          "name": "argumentOne",
          "type": "uint256"
        }
      ],
      "name": "OneArgumentCalled",
      "type": "event"
    },
    {
      "inputs": [
        {
          "internalType": "uint256",
          "name": "argumentOne",
          "type": "uint256"
        }
      ],
      "name": "oneArgument",
      "outputs": [],
      "stateMutability": "nonpayable",
      "type": "function"
    }
  ],
  "bytecode": "0x608060405234801561001057600080fd5b50610109806100206000396000f3fe6080604052348015600f57600080fd5b506004361060285760003560e01c8063c95cf0d814602d575b600080fd5b60436004803603810190603f919060ab565b6045565b005b807f29ab08c845830c69b55a1fba5c95718f65dc24361a471e3da14cd5ff2b37315960405160405180910390a250565b600080fd5b6000819050919050565b608b81607a565b8114609557600080fd5b50565b60008135905060a5816084565b92915050565b60006020828403121560be5760bd6075565b5b600060ca848285016098565b9150509291505056fea26469706673582212202ecb810246f67bf472452cfc3d5c4a158663ed859c199db22fe773631ada5dec64736f6c634300080b0033",
  "linkReferences": {},
  "deployedLinkReferences": {}
}