{
  "_format": "hh-sol-artifact-1",
  "contractName": "ReturnData",
  "sourceName": "contracts/TestContracts.sol",
  "abi": [
    {
      "inputs": [
        {
          "internalType": "string",
          "name": "argument",
          "type": "string"
        }
      ],
      "name": "returnData",
      "outputs": [
        {
          "internalType": "bytes32",
          "name": "response",
          "type": "bytes32"
        }
      ],
      "stateMutability": "pure",
      "type": "function"
    }
  ],
  "bytecode": "0x608060405234801561001057600080fd5b5061027b806100206000396000f3fe608060405234801561001057600080fd5b506004361061002b5760003560e01c8063e5f92e8614610030575b600080fd5b61004a600480360381019061004591906101c8565b610060565b604051610057919061022a565b60405180910390f35b600060208201519050919050565b6000604051905090565b600080fd5b600080fd5b600080fd5b600080fd5b6000601f19601f8301169050919050565b7f4e487b7100000000000000000000000000000000000000000000000000000000600052604160045260246000fd5b6100d58261008c565b810181811067ffffffffffffffff821117156100f4576100f361009d565b5b80604052505050565b600061010761006e565b905061011382826100cc565b919050565b600067ffffffffffffffff8211156101335761013261009d565b5b61013c8261008c565b9050602081019050919050565b82818337600083830152505050565b600061016b61016684610118565b6100fd565b90508281526020810184848401111561018757610186610087565b5b610192848285610149565b509392505050565b600082601f8301126101af576101ae610082565b5b81356101bf848260208601610158565b91505092915050565b6000602082840312156101de576101dd610078565b5b600082013567ffffffffffffffff8111156101fc576101fb61007d565b5b6102088482850161019a565b91505092915050565b6000819050919050565b61022481610211565b82525050565b600060208201905061023f600083018461021b565b9291505056fea2646970667358221220f12c636e783a1a3e02a3d45c43f85a60ed18bd40ffbcf471a2f68cb9357b29b164736f6c634300080b0033",
  "linkReferences": {},
  "deployedLinkReferences": {}
}