{
  "_format": "hh-sol-artifact-1",
  "contractName": "SafeCaster",
  "sourceName": "contracts/TestContracts.sol",
  "abi": [
    {
      "inputs": [
        {
          "internalType": "uint256",
          "name": "input",
          "type": "uint256"
        }
      ],
      "name": "toUint200",
      "outputs": [
        {
          "internalType": "uint200",
          "name": "",
          "type": "uint200"
        }
      ],
      "stateMutability": "pure",
      "type": "function"
    }
  ],
  "bytecode": "0x608060405234801561001057600080fd5b50610242806100206000396000f3fe608060405234801561001057600080fd5b506004361061002b5760003560e01c8063720ad67414610030575b600080fd5b61004a60048036038101906100459190610113565b610060565b6040516100579190610174565b60405180910390f35b600061006b82610072565b9050919050565b600079010000000000000000000000000000000000000000000000000082106100d0576040517f08c379a00000000000000000000000000000000000000000000000000000000081526004016100c7906101ec565b60405180910390fd5b819050919050565b600080fd5b6000819050919050565b6100f0816100dd565b81146100fb57600080fd5b50565b60008135905061010d816100e7565b92915050565b600060208284031215610129576101286100d8565b5b6000610137848285016100fe565b91505092915050565b600078ffffffffffffffffffffffffffffffffffffffffffffffffff82169050919050565b61016e81610140565b82525050565b60006020820190506101896000830184610165565b92915050565b600082825260208201905092915050565b7f76616c756520646f6573206e6f742066697420696e2032303020626974730000600082015250565b60006101d6601e8361018f565b91506101e1826101a0565b602082019050919050565b60006020820190508181036000830152610205816101c9565b905091905056fea2646970667358221220114aa98578d34d7d15cc98ec4711f3474ea4d309a4fe3cb15ada96dd91a44f4964736f6c634300080b0033",
  "linkReferences": {},
  "deployedLinkReferences": {}
}