{
  "_format": "hh-sol-artifact-1",
  "contractName": "TestTarget",
  "sourceName": "contracts/TestContracts.sol",
  "abi": [
    {
      "stateMutability": "payable",
      "type": "fallback"
    },
    {
      "inputs": [],
      "name": "burnAllGas",
      "outputs": [
        {
          "internalType": "bool",
          "name": "",
          "type": "bool"
        }
      ],
      "stateMutability": "view",
      "type": "function"
    },
    {
      "inputs": [],
      "name": "calls",
      "outputs": [
        {
          "internalType": "uint256",
          "name": "",
          "type": "uint256"
        }
      ],
      "stateMutability": "view",
      "type": "function"
    },
    {
      "inputs": [],
      "name": "data",
      "outputs": [
        {
          "internalType": "bytes",
          "name": "",
          "type": "bytes"
        }
      ],
      "stateMutability": "view",
      "type": "function"
    },
    {
      "inputs": [],
      "name": "gasLeft",
      "outputs": [
        {
          "internalType": "uint256",
          "name": "",
          "type": "uint256"
        }
      ],
      "stateMutability": "view",
      "type": "function"
    },
    {
      "inputs": [],
      "name": "setBurnAllGas",
      "outputs": [],
      "stateMutability": "nonpayable",
      "type": "function"
    }
  ],
  "bytecode": "0x60806040526000805534801561001457600080fd5b5061053a806100246000396000f3fe60806040526004361061004e5760003560e01c80632ddb301b146100a7578063305f72b7146100d257806373d4a13a146100fd578063a0de880e14610128578063d2400a59146101535761004f565b5b5a60018190555060008081548092919061006890610310565b91905055506000366002919061007f929190610234565b50600360009054906101000a900460ff16156100a55760006100a4576100a3610359565b5b5b005b3480156100b357600080fd5b506100bc61016a565b6040516100c99190610397565b60405180910390f35b3480156100de57600080fd5b506100e7610170565b6040516100f49190610397565b60405180910390f35b34801561010957600080fd5b50610112610176565b60405161011f919061044b565b60405180910390f35b34801561013457600080fd5b5061013d610204565b60405161014a9190610488565b60405180910390f35b34801561015f57600080fd5b50610168610217565b005b60015481565b60005481565b60028054610183906104d2565b80601f01602080910402602001604051908101604052809291908181526020018280546101af906104d2565b80156101fc5780601f106101d1576101008083540402835291602001916101fc565b820191906000526020600020905b8154815290600101906020018083116101df57829003601f168201915b505050505081565b600360009054906101000a900460ff1681565b6001600360006101000a81548160ff021916908315150217905550565b828054610240906104d2565b90600052602060002090601f01602090048101928261026257600085556102a9565b82601f1061027b57803560ff19168380011785556102a9565b828001600101855582156102a9579182015b828111156102a857823582559160200191906001019061028d565b5b5090506102b691906102ba565b5090565b5b808211156102d35760008160009055506001016102bb565b5090565b7f4e487b7100000000000000000000000000000000000000000000000000000000600052601160045260246000fd5b6000819050919050565b600061031b82610306565b91507fffffffffffffffffffffffffffffffffffffffffffffffffffffffffffffffff82141561034e5761034d6102d7565b5b600182019050919050565b7f4e487b7100000000000000000000000000000000000000000000000000000000600052600160045260246000fd5b61039181610306565b82525050565b60006020820190506103ac6000830184610388565b92915050565b600081519050919050565b600082825260208201905092915050565b60005b838110156103ec5780820151818401526020810190506103d1565b838111156103fb576000848401525b50505050565b6000601f19601f8301169050919050565b600061041d826103b2565b61042781856103bd565b93506104378185602086016103ce565b61044081610401565b840191505092915050565b600060208201905081810360008301526104658184610412565b905092915050565b60008115159050919050565b6104828161046d565b82525050565b600060208201905061049d6000830184610479565b92915050565b7f4e487b7100000000000000000000000000000000000000000000000000000000600052602260045260246000fd5b600060028204905060018216806104ea57607f821691505b602082108114156104fe576104fd6104a3565b5b5091905056fea26469706673582212206292ae2ee1ed285b4ec74d91e3d10b19c03197563fee29d25ccd15de1b9f5c2d64736f6c634300080b0033",
  "linkReferences": {},
  "deployedLinkReferences": {}
}