{
  "_format": "hh-sol-artifact-1",
  "contractName": "ThreeArguments",
  "sourceName": "contracts/TestContracts.sol",
  "abi": [
    {
      "anonymous": false,
      "inputs": [
        {
          "indexed": false,
          "internalType": "string",
          "name": "argumentOne",
          "type": "string"
        },
        {
          "indexed": false,
          "internalType": "int8",
          "name": "argumentTwo",
          "type": "int8"
        },
        {
          "indexed": false,
          "internalType": "bool",
          "name": "argumentThree",
          "type": "bool"
        }
      ],
      "name": "ThreeArgumentsCalled",
      "type": "event"
    },
    {
      "inputs": [
        {
          "internalType": "string",
          "name": "argumentOne",
          "type": "string"
        },
        {
          "internalType": "int8",
          "name": "argumentTwo",
          "type": "int8"
        },
        {
          "internalType": "bool",
          "name": "argumentThree",
          "type": "bool"
        }
      ],
      "name": "threeArguments",
      "outputs": [],
      "stateMutability": "nonpayable",
      "type": "function"
    }
  ],
  "bytecode": "0x608060405234801561001057600080fd5b506102d5806100206000396000f3fe608060405234801561001057600080fd5b506004361061002b5760003560e01c80639280b90514610030575b600080fd5b61004a6004803603810190610045919061016f565b61004c565b005b7fd589183661fa75f94e2db32f4eb7ebb50f4154c160e15eb43f772a46f360a3a884848484604051610081949392919061025f565b60405180910390a150505050565b600080fd5b600080fd5b600080fd5b600080fd5b600080fd5b60008083601f8401126100be576100bd610099565b5b8235905067ffffffffffffffff8111156100db576100da61009e565b5b6020830191508360018202830111156100f7576100f66100a3565b5b9250929050565b60008160000b9050919050565b610114816100fe565b811461011f57600080fd5b50565b6000813590506101318161010b565b92915050565b60008115159050919050565b61014c81610137565b811461015757600080fd5b50565b60008135905061016981610143565b92915050565b600080600080606085870312156101895761018861008f565b5b600085013567ffffffffffffffff8111156101a7576101a6610094565b5b6101b3878288016100a8565b945094505060206101c687828801610122565b92505060406101d78782880161015a565b91505092959194509250565b600082825260208201905092915050565b82818337600083830152505050565b6000601f19601f8301169050919050565b600061022083856101e3565b935061022d8385846101f4565b61023683610203565b840190509392505050565b61024a816100fe565b82525050565b61025981610137565b82525050565b6000606082019050818103600083015261027a818688610214565b90506102896020830185610241565b6102966040830184610250565b9594505050505056fea264697066735822122002ce372a8dc55ef1c6c635a1242bc18889498427f69000d887844a71e67817c264736f6c634300080b0033",
  "linkReferences": {},
  "deployedLinkReferences": {}
}