{
  "_format": "hh-sol-artifact-1",
  "contractName": "TwoArguments",
  "sourceName": "contracts/TestContracts.sol",
  "abi": [
    {
      "anonymous": false,
      "inputs": [
        {
          "indexed": false,
          "internalType": "address[]",
          "name": "argumentOne",
          "type": "address[]"
        },
        {
          "indexed": false,
          "internalType": "bytes4",
          "name": "argumentTwo",
          "type": "bytes4"
        }
      ],
      "name": "TwoArgumentsCalled",
      "type": "event"
    },
    {
      "inputs": [
        {
          "internalType": "address[]",
          "name": "argumentOne",
          "type": "address[]"
        },
        {
          "internalType": "bytes4",
          "name": "argumentTwo",
          "type": "bytes4"
        }
      ],
      "name": "twoArguments",
      "outputs": [],
      "stateMutability": "nonpayable",
      "type": "function"
    }
  ],
  "bytecode": "0x608060405234801561001057600080fd5b5061034b806100206000396000f3fe608060405234801561001057600080fd5b506004361061002b5760003560e01c806372e0745c14610030575b600080fd5b61004a60048036038101906100459190610153565b61004c565b005b7fc983106aca50fad459fb18ede1630e8ff8147ff28ad451a856427931fd7f15e383838360405161007f939291906102e3565b60405180910390a1505050565b600080fd5b600080fd5b600080fd5b600080fd5b600080fd5b60008083601f8401126100bb576100ba610096565b5b8235905067ffffffffffffffff8111156100d8576100d761009b565b5b6020830191508360208202830111156100f4576100f36100a0565b5b9250929050565b60007fffffffff0000000000000000000000000000000000000000000000000000000082169050919050565b610130816100fb565b811461013b57600080fd5b50565b60008135905061014d81610127565b92915050565b60008060006040848603121561016c5761016b61008c565b5b600084013567ffffffffffffffff81111561018a57610189610091565b5b610196868287016100a5565b935093505060206101a98682870161013e565b9150509250925092565b600082825260208201905092915050565b6000819050919050565b600073ffffffffffffffffffffffffffffffffffffffff82169050919050565b60006101f9826101ce565b9050919050565b610209816101ee565b82525050565b600061021b8383610200565b60208301905092915050565b610230816101ee565b811461023b57600080fd5b50565b60008135905061024d81610227565b92915050565b6000610262602084018461023e565b905092915050565b6000602082019050919050565b600061028383856101b3565b935061028e826101c4565b8060005b858110156102c7576102a48284610253565b6102ae888261020f565b97506102b98361026a565b925050600181019050610292565b5085925050509392505050565b6102dd816100fb565b82525050565b600060408201905081810360008301526102fe818587610277565b905061030d60208301846102d4565b94935050505056fea2646970667358221220a592f0215cddf3da32b69b8e2255ca13b7a8146026d3c62f7b8cc279d3fa603264736f6c634300080b0033",
  "linkReferences": {},
  "deployedLinkReferences": {}
}