{
  "_format": "hh-sol-artifact-1",
  "contractName": "WithDepositer",
  "sourceName": "contracts/TestContracts.sol",
  "abi": [
    {
      "anonymous": false,
      "inputs": [
        {
          "indexed": false,
          "internalType": "address",
          "name": "argumentOne",
          "type": "address"
        },
        {
          "indexed": false,
          "internalType": "uint256",
          "name": "argumentTwo",
          "type": "uint256"
        }
      ],
      "name": "WithDepositerCalled",
      "type": "event"
    },
    {
      "inputs": [
        {
          "internalType": "address",
          "name": "argumentOne",
          "type": "address"
        },
        {
          "internalType": "uint256",
          "name": "argumentTwo",
          "type": "uint256"
        }
      ],
      "name": "withDepositer",
      "outputs": [],
      "stateMutability": "nonpayable",
      "type": "function"
    }
  ],
  "bytecode": "0x608060405234801561001057600080fd5b506101df806100206000396000f3fe608060405234801561001057600080fd5b506004361061002b5760003560e01c80630a357c4f14610030575b600080fd5b61004a60048036038101906100459190610122565b61004c565b005b7f0c190bb7953fe744192f379d4b36b025584bb5f386755d164648a99b8ff9e5bb828260405161007d929190610180565b60405180910390a15050565b600080fd5b600073ffffffffffffffffffffffffffffffffffffffff82169050919050565b60006100b98261008e565b9050919050565b6100c9816100ae565b81146100d457600080fd5b50565b6000813590506100e6816100c0565b92915050565b6000819050919050565b6100ff816100ec565b811461010a57600080fd5b50565b60008135905061011c816100f6565b92915050565b6000806040838503121561013957610138610089565b5b6000610147858286016100d7565b92505060206101588582860161010d565b9150509250929050565b61016b816100ae565b82525050565b61017a816100ec565b82525050565b60006040820190506101956000830185610162565b6101a26020830184610171565b939250505056fea2646970667358221220b19e01bcdb54d089e5d05f8602f9bc5a4cf1c054d18ff4671080ced2c4cf4b3d64736f6c634300080b0033",
  "linkReferences": {},
  "deployedLinkReferences": {}
}