{
	"data": {
		"bytecode": {
			"linkReferences": {},
			"object": "60806040523480156200001157600080fd5b50604051620066f9380380620066f983398181016040528101906200003791906200083c565b60008060006101000a81548160ff02191690831515021790555084600260006101000a81548160ff021916908360ff1602179055506200008283620001c360201b6200308f1760201c565b600260016101000a81548160ff021916908360ff160217905550620000b2826200021460201b620030dd1760201c565b6002806101000a8154816fffffffffffffffffffffffffffffffff02191690836fffffffffffffffffffffffffffffffff160217905550620000ff816200027460201b6200313a1760201c565b600260126101000a81548164ffffffffff021916908364ffffffffff160217905550620001456000801b62000139620002c960201b60201c565b6200034660201b60201c565b60005b8451811015620001b757620001a17fe2b7fb3b832174769106daebcfd6d1970523240dda11281102db9363b83b0dc48683815181106200018d576200018c620008e3565b5b60200260200101516200035c60201b60201c565b8080620001ae9062000941565b91505062000148565b50505050505062000b8e565b600061010082106200020c576040517f08c379a00000000000000000000000000000000000000000000000000000000081526004016200020390620009f0565b60405180910390fd5b819050919050565b600070010000000000000000000000000000000082106200026c576040517f08c379a0000000000000000000000000000000000000000000000000000000008152600401620002639062000a62565b60405180910390fd5b819050919050565b6000650100000000008210620002c1576040517f08c379a0000000000000000000000000000000000000000000000000000000008152600401620002b89062000ad4565b60405180910390fd5b819050919050565b60008033905060146000369050101580156200032e5750600760008273ffffffffffffffffffffffffffffffffffffffff1673ffffffffffffffffffffffffffffffffffffffff16815260200190815260200160002060009054906101000a900460ff165b156200033f57601436033560601c90505b8091505090565b620003588282620003eb60201b60201c565b5050565b62000393600160008481526020019081526020016000206002015462000387620002c960201b60201c565b6200048f60201b60201c565b620003d5576040517f08c379a0000000000000000000000000000000000000000000000000000000008152600401620003cc9062000b6c565b60405180910390fd5b620003e78282620003eb60201b60201c565b5050565b6200041a8160016000858152602001908152602001600020600001620004c860201b6200318c1790919060201c565b156200048b5762000430620002c960201b60201c565b73ffffffffffffffffffffffffffffffffffffffff168173ffffffffffffffffffffffffffffffffffffffff16837f2f8788117e7eff1d82e926ec794901d17c78024a50270940304540a733656f0d60405160405180910390a45b5050565b6000620004c082600160008681526020019081526020016000206000016200050060201b620031bc1790919060201c565b905092915050565b6000620004f8836000018373ffffffffffffffffffffffffffffffffffffffff1660001b6200053860201b60201c565b905092915050565b600062000530836000018373ffffffffffffffffffffffffffffffffffffffff1660001b620005b260201b60201c565b905092915050565b60006200054c8383620005b260201b60201c565b620005a7578260000182908060018154018082558091505060019003906000526020600020016000909190919091505582600001805490508360010160008481526020019081526020016000208190555060019050620005ac565b600090505b92915050565b600080836001016000848152602001908152602001600020541415905092915050565b6000604051905090565b600080fd5b600080fd5b600060ff82169050919050565b6200060181620005e9565b81146200060d57600080fd5b50565b6000815190506200062181620005f6565b92915050565b600080fd5b6000601f19601f8301169050919050565b7f4e487b7100000000000000000000000000000000000000000000000000000000600052604160045260246000fd5b62000677826200062c565b810181811067ffffffffffffffff821117156200069957620006986200063d565b5b80604052505050565b6000620006ae620005d5565b9050620006bc82826200066c565b919050565b600067ffffffffffffffff821115620006df57620006de6200063d565b5b602082029050602081019050919050565b600080fd5b600073ffffffffffffffffffffffffffffffffffffffff82169050919050565b60006200072282620006f5565b9050919050565b620007348162000715565b81146200074057600080fd5b50565b600081519050620007548162000729565b92915050565b6000620007716200076b84620006c1565b620006a2565b90508083825260208201905060208402830185811115620007975762000796620006f0565b5b835b81811015620007c45780620007af888262000743565b84526020840193505060208101905062000799565b5050509392505050565b600082601f830112620007e657620007e562000627565b5b8151620007f88482602086016200075a565b91505092915050565b6000819050919050565b620008168162000801565b81146200082257600080fd5b50565b60008151905062000836816200080b565b92915050565b600080600080600060a086880312156200085b576200085a620005df565b5b60006200086b8882890162000610565b955050602086015167ffffffffffffffff8111156200088f576200088e620005e4565b5b6200089d88828901620007ce565b9450506040620008b08882890162000825565b9350506060620008c38882890162000825565b9250506080620008d68882890162000825565b9150509295509295909350565b7f4e487b7100000000000000000000000000000000000000000000000000000000600052603260045260246000fd5b7f4e487b7100000000000000000000000000000000000000000000000000000000600052601160045260246000fd5b60006200094e8262000801565b91507fffffffffffffffffffffffffffffffffffffffffffffffffffffffffffffffff82141562000984576200098362000912565b5b600182019050919050565b600082825260208201905092915050565b7f76616c756520646f6573206e6f742066697420696e2038206269747300000000600082015250565b6000620009d8601c836200098f565b9150620009e582620009a0565b602082019050919050565b6000602082019050818103600083015262000a0b81620009c9565b9050919050565b7f76616c756520646f6573206e6f742066697420696e2031323820626974730000600082015250565b600062000a4a601e836200098f565b915062000a578262000a12565b602082019050919050565b6000602082019050818103600083015262000a7d8162000a3b565b9050919050565b7f76616c756520646f6573206e6f742066697420696e2034302062697473000000600082015250565b600062000abc601d836200098f565b915062000ac98262000a84565b602082019050919050565b6000602082019050818103600083015262000aef8162000aad565b9050919050565b7f416363657373436f6e74726f6c3a2073656e646572206d75737420626520616e60008201527f2061646d696e20746f206772616e740000000000000000000000000000000000602082015250565b600062000b54602f836200098f565b915062000b618262000af6565b604082019050919050565b6000602082019050818103600083015262000b878162000b45565b9050919050565b615b5b8062000b9e6000396000f3fe6080604052600436106102ae5760003560e01c806391c404ac11610175578063c5ec8970116100dc578063d547741f11610095578063edc20c3c1161006f578063edc20c3c14610af3578063f2b1b54914610b1c578063f8c39e4414610b59578063ffaac0eb14610b96576102ae565b8063d547741f14610a62578063d7a9cd7914610a8b578063dcdefd7314610ab6576102ae565b8063c5ec897014610942578063c8f8e9011461096d578063ca15c873146109aa578063cb10f215146109e7578063cdb0f73a14610a10578063d15ef64e14610a39576102ae565b80639debb3bd1161012e5780639debb3bd14610832578063a217fddf1461085d578063a9cf69fa14610888578063bd2a1820146108c5578063c0331b3e146108ee578063c5b37c2214610917576102ae565b806391c404ac1461071057806391d1485414610739578063926d7d7f14610776578063993bb8b7146107a15780639d82dd63146107de5780639dd694f414610807576102ae565b80634e0df3f6116102195780637febe63f116101d25780637febe63f146105ee578063802aabe81461062b57806380ae1c281461065657806384db809f1461066d5780638c0c2631146106aa5780639010d07c146106d3576102ae565b80634e0df3f6146104ba578063541d5548146104f75780635a1ad87c146105345780635c975abb1461055d5780635e1fab0f1461058857806377a03d95146105b1576102ae565b8063248a9ca31161026b578063248a9ca31461039c5780632f2ff15d146103d957806336568abe146104025780634603ae381461042b5780634b0b919d146104545780634e05600514610491576102ae565b806305e2ca17146102b35780631575422d146102cf578063157a876f146102f857806317f03ce5146103215780631a5fd13f1461034a578063206a98fd14610373575b600080fd5b6102cd60048036038101906102c89190613b4d565b610bad565b005b3480156102db57600080fd5b506102f660048036038101906102f19190613c1f565b610e2e565b005b34801561030457600080fd5b5061031f600480360381019061031a9190613c1f565b610e84565b005b34801561032d57600080fd5b5061034860048036038101906103439190613c9f565b610eda565b005b34801561035657600080fd5b50610371600480360381019061036c9190613d28565b6112ca565b005b34801561037f57600080fd5b5061039a60048036038101906103959190613db3565b6114c5565b005b3480156103a857600080fd5b506103c360048036038101906103be9190613e4d565b6118b6565b6040516103d09190613e89565b60405180910390f35b3480156103e557600080fd5b5061040060048036038101906103fb9190613ea4565b6118d6565b005b34801561040e57600080fd5b5061042960048036038101906104249190613ea4565b61194a565b005b34801561043757600080fd5b50610452600480360381019061044d9190613f90565b6119cd565b005b34801561046057600080fd5b5061047b60048036038101906104769190614011565b611a84565b604051610488919061404d565b60405180910390f35b34801561049d57600080fd5b506104b860048036038101906104b39190614068565b611aab565b005b3480156104c657600080fd5b506104e160048036038101906104dc9190613ea4565b611b10565b6040516104ee91906140a4565b60405180910390f35b34801561050357600080fd5b5061051e600480360381019061051991906140bf565b611b61565b60405161052b91906140fb565b60405180910390f35b34801561054057600080fd5b5061055b6004803603810190610556919061416e565b611b94565b005b34801561056957600080fd5b50610572611c6f565b60405161057f91906140fb565b60405180910390f35b34801561059457600080fd5b506105af60048036038101906105aa91906140bf565b611c85565b005b3480156105bd57600080fd5b506105d860048036038101906105d39190613e4d565b611d26565b6040516105e5919061420a565b60405180910390f35b3480156105fa57600080fd5b5061061560048036038101906106109190614266565b611d59565b60405161062291906140fb565b60405180910390f35b34801561063757600080fd5b50610640611e98565b60405161064d91906140a4565b60405180910390f35b34801561066257600080fd5b5061066b611ec8565b005b34801561067957600080fd5b50610694600480360381019061068f9190613e4d565b611ee2565b6040516106a1919061420a565b60405180910390f35b3480156106b657600080fd5b506106d160048036038101906106cc91906142b9565b611f15565b005b3480156106df57600080fd5b506106fa60048036038101906106f591906142f9565b611f92565b604051610707919061420a565b60405180910390f35b34801561071c57600080fd5b5061073760048036038101906107329190614068565b611fc4565b005b34801561074557600080fd5b50610760600480360381019061075b9190613ea4565b612080565b60405161076d91906140fb565b60405180910390f35b34801561078257600080fd5b5061078b6120b2565b6040516107989190613e89565b60405180910390f35b3480156107ad57600080fd5b506107c860048036038101906107c39190613e4d565b6120d6565b6040516107d5919061420a565b60405180910390f35b3480156107ea57600080fd5b50610805600480360381019061080091906140bf565b612113565b005b34801561081357600080fd5b5061081c6121e0565b6040516108299190614348565b60405180910390f35b34801561083e57600080fd5b506108476121f3565b60405161085491906140a4565b60405180910390f35b34801561086957600080fd5b506108726121f8565b60405161087f9190613e89565b60405180910390f35b34801561089457600080fd5b506108af60048036038101906108aa9190613c9f565b6121ff565b6040516108bc9190614492565b60405180910390f35b3480156108d157600080fd5b506108ec60048036038101906108e791906145ee565b61235f565b005b3480156108fa57600080fd5b506109156004803603810190610910919061464a565b6123dc565b005b34801561092357600080fd5b5061092c612ba7565b60405161093991906146fd565b60405180910390f35b34801561094e57600080fd5b50610957612bc7565b6040516109649190614727565b60405180910390f35b34801561097957600080fd5b50610994600480360381019061098f9190613e4d565b612bde565b6040516109a1919061420a565b60405180910390f35b3480156109b657600080fd5b506109d160048036038101906109cc9190613e4d565b612c11565b6040516109de91906140a4565b60405180910390f35b3480156109f357600080fd5b50610a0e6004803603810190610a099190614742565b612c38565b005b348015610a1c57600080fd5b50610a376004803603810190610a3291906140bf565b612d0a565b005b348015610a4557600080fd5b50610a606004803603810190610a5b9190614795565b612e22565b005b348015610a6e57600080fd5b50610a896004803603810190610a849190613ea4565b612e85565b005b348015610a9757600080fd5b50610aa0612ef9565b604051610aad9190614348565b60405180910390f35b348015610ac257600080fd5b50610add6004803603810190610ad89190613e4d565b612f0c565b604051610aea919061420a565b60405180910390f35b348015610aff57600080fd5b50610b1a6004803603810190610b1591906147d5565b612f49565b005b348015610b2857600080fd5b50610b436004803603810190610b3e9190613e4d565b613018565b604051610b50919061420a565b60405180910390f35b348015610b6557600080fd5b50610b806004803603810190610b7b91906140bf565b613055565b604051610b8d91906140fb565b60405180910390f35b348015610ba257600080fd5b50610bab613075565b005b610bb56131ec565b60028054906101000a90046fffffffffffffffffffffffffffffffff166fffffffffffffffffffffffffffffffff163414610c25576040517f08c379a0000000000000000000000000000000000000000000000000000000008152600401610c1c90614872565b60405180910390fd5b60006004600085815260200190815260200160002060009054906101000a900473ffffffffffffffffffffffffffffffffffffffff169050600073ffffffffffffffffffffffffffffffffffffffff168173ffffffffffffffffffffffffffffffffffffffff161415610ccd576040517f08c379a0000000000000000000000000000000000000000000000000000000008152600401610cc4906148de565b60405180910390fd5b6000600360008760ff1660ff168152602001908152602001600020600081819054906101000a900467ffffffffffffffff16610d089061492d565b91906101000a81548167ffffffffffffffff021916908367ffffffffffffffff160217905590506000610d3961323c565b9050600083905060008173ffffffffffffffffffffffffffffffffffffffff1663b07e54bb89858a8a6040518563ffffffff1660e01b8152600401610d81949392919061499c565b6000604051808303816000875af1158015610da0573d6000803e3d6000fd5b505050506040513d6000823e3d601f19601f82011682018060405250810190610dc99190614a7f565b90508273ffffffffffffffffffffffffffffffffffffffff167f17bc3181e17a9620a479c24e6c606e474ba84fc036877b768926872e8cd0e11f8a8a878b8b87604051610e1b96959493929190614b0c565b60405180910390a2505050505050505050565b816006600083815260200190815260200160002060006101000a81548173ffffffffffffffffffffffffffffffffffffffff021916908373ffffffffffffffffffffffffffffffffffffffff1602179055505050565b816005600083815260200190815260200160002060006101000a81548173ffffffffffffffffffffffffffffffffffffffff021916908373ffffffffffffffffffffffffffffffffffffffff1602179055505050565b610ee26132b7565b60008360ff1660088467ffffffffffffffff1668ffffffffffffffffff16901b1790506000600860008368ffffffffffffffffff1668ffffffffffffffffff16815260200190815260200160002060008481526020019081526020016000206040518060800160405290816000820160009054906101000a900460ff166004811115610f7157610f70614363565b5b6004811115610f8357610f82614363565b5b81526020016000820160019054906101000a900478ffffffffffffffffffffffffffffffffffffffffffffffffff1678ffffffffffffffffffffffffffffffffffffffffffffffffff1678ffffffffffffffffffffffffffffffffffffffffffffffffff16815260200160008201601a9054906101000a900460ff1660ff1660ff16815260200160008201601b9054906101000a900464ffffffffff1664ffffffffff1664ffffffffff168152505090506000816000015190506001600481111561105157611050614363565b5b81600481111561106457611063614363565b5b148061109457506002600481111561107f5761107e614363565b5b81600481111561109257611091614363565b5b145b6110d3576040517f08c379a00000000000000000000000000000000000000000000000000000000081526004016110ca90614bbb565b60405180910390fd5b600260129054906101000a900464ffffffffff1664ffffffffff1661110343846060015164ffffffffff16613343565b64ffffffffff161161114a576040517f08c379a000000000000000000000000000000000000000000000000000000000815260040161114190614c27565b60405180910390fd5b60048260000190600481111561116357611162614363565b5b9081600481111561117757611176614363565b5b8152505081600860008568ffffffffffffffffff1668ffffffffffffffffff168152602001908152602001600020600086815260200190815260200160002060008201518160000160006101000a81548160ff021916908360048111156111e1576111e0614363565b5b021790555060208201518160000160016101000a81548178ffffffffffffffffffffffffffffffffffffffffffffffffff021916908378ffffffffffffffffffffffffffffffffffffffffffffffffff160217905550604082015181600001601a6101000a81548160ff021916908360ff160217905550606082015181600001601b6101000a81548164ffffffffff021916908364ffffffffff1602179055509050507f968626a768e76ba1363efe44e322a6c4900c5f084e0b45f35e294dfddaa9e0d586866004876040516112ba9493929190614c56565b60405180910390a1505050505050565b60006006600083815260200190815260200160002060009054906101000a900473ffffffffffffffffffffffffffffffffffffffff16905060006005600084815260200190815260200160002060009054906101000a900473ffffffffffffffffffffffffffffffffffffffff169050600073ffffffffffffffffffffffffffffffffffffffff168273ffffffffffffffffffffffffffffffffffffffff1614611417578173ffffffffffffffffffffffffffffffffffffffff1663a1eb221a866040518263ffffffff1660e01b81526004016113a7919061420a565b600060405180830381600087803b1580156113c157600080fd5b505af11580156113d5573d6000803e3d6000fd5b505050507fb4a1dda2b824d34b537aa735f1656f84f5dc9cea8c6bcaf893c67dd04107a515828660405161140a929190614c9b565b60405180910390a16114be565b8073ffffffffffffffffffffffffffffffffffffffff16637e207f2186866040518363ffffffff1660e01b8152600401611452929190614cc4565b600060405180830381600087803b15801561146c57600080fd5b505af1158015611480573d6000803e3d6000fd5b505050507f598a7d14269ace307701be5b05bd8c354e4e905214b56b8a64b34d9b6e8e06bf81866040516114b5929190614c9b565b60405180910390a15b5050505050565b6114cd61338d565b6114d56131ec565b60006004600084815260200190815260200160002060009054906101000a900473ffffffffffffffffffffffffffffffffffffffff16905060008760ff1660088867ffffffffffffffff1668ffffffffffffffffff16901b179050600082878760405160200161154793929190614d65565b6040516020818303038152906040528051906020012090506000600860008468ffffffffffffffffff1668ffffffffffffffffff16815260200190815260200160002060008381526020019081526020016000209050600260048111156115b1576115b0614363565b5b8160000160009054906101000a900460ff1660048111156115d5576115d4614363565b5b14611615576040517f08c379a000000000000000000000000000000000000000000000000000000000815260040161160c90614ddb565b60405180910390fd5b60038160000160006101000a81548160ff0219169083600481111561163d5761163c614363565b5b0217905550600084905085156116c1578073ffffffffffffffffffffffffffffffffffffffff1663e248cff2888b8b6040518463ffffffff1660e01b815260040161168a93929190614dfb565b600060405180830381600087803b1580156116a457600080fd5b505af11580156116b8573d6000803e3d6000fd5b505050506117cf565b8073ffffffffffffffffffffffffffffffffffffffff1663e248cff2888b8b6040518463ffffffff1660e01b81526004016116fe93929190614dfb565b600060405180830381600087803b15801561171857600080fd5b505af1925050508015611729575060015b6117ce573d8060008114611759576040519150601f19603f3d011682016040523d82523d6000602084013e61175e565b606091505b5060028360000160006101000a81548160ff0219169083600481111561178757611786614363565b5b02179055507fbd37c1f0d53bb2f33fe4c2104de272fcdeb4d2fef3acdbf1e4ddc3d6833ca376816040516117bb9190614e2d565b60405180910390a15050505050506118ae565b5b60008060608b8b8101906117e39190614e4f565b80935081945050508b8b6040908460406117fd9190614e8f565b9261180a93929190614eef565b8080601f016020809104026020016040519081016040528093929190818152602001838380828437600081840152601f19601f8201169050808301925050505050505090506000602082015190506118668160601c858d6112ca565b7f968626a768e76ba1363efe44e322a6c4900c5f084e0b45f35e294dfddaa9e0d58f8f60038a60405161189c9493929190614c56565b60405180910390a15050505050505050505b505050505050565b600060016000838152602001908152602001600020600201549050919050565b6118fd60016000848152602001908152602001600020600201546118f861323c565b612080565b61193c576040517f08c379a000000000000000000000000000000000000000000000000000000000815260040161193390614f9c565b60405180910390fd5b61194682826133ff565b5050565b61195261323c565b73ffffffffffffffffffffffffffffffffffffffff168173ffffffffffffffffffffffffffffffffffffffff16146119bf576040517f08c379a00000000000000000000000000000000000000000000000000000000081526004016119b69061502e565b60405180910390fd5b6119c98282613493565b5050565b6119d5613527565b60005b84849050811015611a7d578484828181106119f6576119f561504e565b5b9050602002016020810190611a0b91906150bb565b73ffffffffffffffffffffffffffffffffffffffff166108fc848484818110611a3757611a3661504e565b5b905060200201359081150290604051600060405180830381858888f19350505050158015611a69573d6000803e3d6000fd5b508080611a75906150e8565b9150506119d8565b5050505050565b60036020528060005260406000206000915054906101000a900467ffffffffffffffff1681565b611ab3613527565b611abc8161308f565b600260016101000a81548160ff021916908360ff1602179055507fa20d6b84cd798a24038be305eff8a45ca82ef54a2aa2082005d8e14c0a4746c881604051611b0591906140a4565b60405180910390a150565b60006001600084815260200190815260200160002060000160000160010160008373ffffffffffffffffffffffffffffffffffffffff1660001b815260200190815260200160002054905092915050565b6000611b8d7fe2b7fb3b832174769106daebcfd6d1970523240dda11281102db9363b83b0dc483612080565b9050919050565b611b9c613527565b856004600087815260200190815260200160002060006101000a81548173ffffffffffffffffffffffffffffffffffffffff021916908373ffffffffffffffffffffffffffffffffffffffff16021790555060008690508073ffffffffffffffffffffffffffffffffffffffff1663de319d9987878787876040518663ffffffff1660e01b8152600401611c34959493929190615140565b600060405180830381600087803b158015611c4e57600080fd5b505af1158015611c62573d6000803e3d6000fd5b5050505050505050505050565b60008060009054906101000a900460ff16905090565b611c8d613527565b6000611c9761323c565b90508173ffffffffffffffffffffffffffffffffffffffff168173ffffffffffffffffffffffffffffffffffffffff161415611d08576040517f08c379a0000000000000000000000000000000000000000000000000000000008152600401611cff906151df565b60405180910390fd5b611d156000801b836118d6565b611d226000801b8261194a565b5050565b60066020528060005260406000206000915054906101000a900473ffffffffffffffffffffffffffffffffffffffff1681565b6000611e8f600860008668ffffffffffffffffff1668ffffffffffffffffff16815260200190815260200160002060008581526020019081526020016000206040518060800160405290816000820160009054906101000a900460ff166004811115611dc857611dc7614363565b5b6004811115611dda57611dd9614363565b5b81526020016000820160019054906101000a900478ffffffffffffffffffffffffffffffffffffffffffffffffff1678ffffffffffffffffffffffffffffffffffffffffffffffffff1678ffffffffffffffffffffffffffffffffffffffffffffffffff16815260200160008201601a9054906101000a900460ff1660ff1660ff16815260200160008201601b9054906101000a900464ffffffffff1664ffffffffff1664ffffffffff16815250508361357c565b90509392505050565b6000611ec37fe2b7fb3b832174769106daebcfd6d1970523240dda11281102db9363b83b0dc4612c11565b905090565b611ed0613527565b611ee0611edb61323c565b6135b2565b565b60046020528060005260406000206000915054906101000a900473ffffffffffffffffffffffffffffffffffffffff1681565b611f1d613527565b60008290508073ffffffffffffffffffffffffffffffffffffffff166307b7ed99836040518263ffffffff1660e01b8152600401611f5b919061420a565b600060405180830381600087803b158015611f7557600080fd5b505af1158015611f89573d6000803e3d6000fd5b50505050505050565b6000611fbc826001600086815260200190815260200160002060000161360e90919063ffffffff16565b905092915050565b611fcc613527565b8060028054906101000a90046fffffffffffffffffffffffffffffffff166fffffffffffffffffffffffffffffffff16141561203d576040517f08c379a00000000000000000000000000000000000000000000000000000000081526004016120349061524b565b60405180910390fd5b612046816130dd565b6002806101000a8154816fffffffffffffffffffffffffffffffff02191690836fffffffffffffffffffffffffffffffff16021790555050565b60006120aa82600160008681526020019081526020016000206000016131bc90919063ffffffff16565b905092915050565b7fe2b7fb3b832174769106daebcfd6d1970523240dda11281102db9363b83b0dc481565b60006006600083815260200190815260200160002060009054906101000a900473ffffffffffffffffffffffffffffffffffffffff169050919050565b61213d7fe2b7fb3b832174769106daebcfd6d1970523240dda11281102db9363b83b0dc482612080565b61217c576040517f08c379a0000000000000000000000000000000000000000000000000000000008152600401612173906152b7565b60405180910390fd5b6121a67fe2b7fb3b832174769106daebcfd6d1970523240dda11281102db9363b83b0dc482612e85565b7f10e1f7ce9fd7d1b90a66d13a2ab3cb8dd7f29f3f8d520b143b063ccfbab6906b816040516121d5919061420a565b60405180910390a150565b600260009054906101000a900460ff1681565b60c881565b6000801b81565b612207613a06565b60008460ff1660088567ffffffffffffffff1668ffffffffffffffffff16901b179050600860008268ffffffffffffffffff1668ffffffffffffffffff16815260200190815260200160002060008481526020019081526020016000206040518060800160405290816000820160009054906101000a900460ff16600481111561229457612293614363565b5b60048111156122a6576122a5614363565b5b81526020016000820160019054906101000a900478ffffffffffffffffffffffffffffffffffffffffffffffffff1678ffffffffffffffffffffffffffffffffffffffffffffffffff1678ffffffffffffffffffffffffffffffffffffffffffffffffff16815260200160008201601a9054906101000a900460ff1660ff1660ff16815260200160008201601b9054906101000a900464ffffffffff1664ffffffffff1664ffffffffff16815250509150509392505050565b612367613527565b60008290508073ffffffffffffffffffffffffffffffffffffffff16630968f264836040518263ffffffff1660e01b81526004016123a59190614e2d565b600060405180830381600087803b1580156123bf57600080fd5b505af11580156123d3573d6000803e3d6000fd5b50505050505050565b6123e461338d565b6123ec6131ec565b60006004600085815260200190815260200160002060009054906101000a900473ffffffffffffffffffffffffffffffffffffffff16905060008660ff1660088767ffffffffffffffff1668ffffffffffffffffff16901b179050600082858560405160200161245e93929190614d65565b6040516020818303038152906040528051906020012090506000600860008468ffffffffffffffffff1668ffffffffffffffffff16815260200190815260200160002060008381526020019081526020016000206040518060800160405290816000820160009054906101000a900460ff1660048111156124e2576124e1614363565b5b60048111156124f4576124f3614363565b5b81526020016000820160019054906101000a900478ffffffffffffffffffffffffffffffffffffffffffffffffff1678ffffffffffffffffffffffffffffffffffffffffffffffffff1678ffffffffffffffffffffffffffffffffffffffffffffffffff16815260200160008201601a9054906101000a900460ff1660ff1660ff16815260200160008201601b9054906101000a900464ffffffffff1664ffffffffff1664ffffffffff16815250509050600073ffffffffffffffffffffffffffffffffffffffff166004600089815260200190815260200160002060009054906101000a900473ffffffffffffffffffffffffffffffffffffffff1673ffffffffffffffffffffffffffffffffffffffff161415612648576040517f08c379a000000000000000000000000000000000000000000000000000000000815260040161263f90615323565b60405180910390fd5b6002600481111561265c5761265b614363565b5b8160000151600481111561267357612672614363565b5b141561269157612688898988888b60016114c5565b50505050612ba0565b600061269b61323c565b90506001826000015160048111156126b6576126b5614363565b5b11156126f7576040517f08c379a00000000000000000000000000000000000000000000000000000000081526004016126ee906153b5565b60405180910390fd5b612701828261357c565b15612741576040517f08c379a000000000000000000000000000000000000000000000000000000000815260040161273890615421565b60405180910390fd5b6000600481111561275557612754614363565b5b8260000151600481111561276c5761276b614363565b5b14156128125760405180608001604052806001600481111561279157612790614363565b5b8152602001600078ffffffffffffffffffffffffffffffffffffffffffffffffff168152602001600060ff1681526020014364ffffffffff1681525091507f968626a768e76ba1363efe44e322a6c4900c5f084e0b45f35e294dfddaa9e0d58a8a6001866040516128059493929190614c56565b60405180910390a16128c0565b600260129054906101000a900464ffffffffff1664ffffffffff1661284243846060015164ffffffffff16613343565b64ffffffffff1611156128bf5760048260000190600481111561286857612867614363565b5b9081600481111561287c5761287b614363565b5b815250507f968626a768e76ba1363efe44e322a6c4900c5f084e0b45f35e294dfddaa9e0d58a8a6004866040516128b69493929190614c56565b60405180910390a15b5b6004808111156128d3576128d2614363565b5b826000015160048111156128ea576128e9614363565b5b14612a50576129216128fb82613628565b836020015178ffffffffffffffffffffffffffffffffffffffffffffffffff1617613669565b826020019078ffffffffffffffffffffffffffffffffffffffffffffffffff16908178ffffffffffffffffffffffffffffffffffffffffffffffffff168152505081604001805180919061297490615441565b60ff1660ff16815250507f25f8daaa4635a7729927ba3f5b3d59cc3320aca7c32c9db4e7ca7b95743436408a8a8460000151866040516129b79493929190614c56565b60405180910390a1600260019054906101000a900460ff1660ff16826040015160ff1610612a4f576002826000019060048111156129f8576129f7614363565b5b90816004811115612a0c57612a0b614363565b5b815250507f968626a768e76ba1363efe44e322a6c4900c5f084e0b45f35e294dfddaa9e0d58a8a600286604051612a469493929190614c56565b60405180910390a15b5b81600860008668ffffffffffffffffff1668ffffffffffffffffff168152602001908152602001600020600085815260200190815260200160002060008201518160000160006101000a81548160ff02191690836004811115612ab657612ab5614363565b5b021790555060208201518160000160016101000a81548178ffffffffffffffffffffffffffffffffffffffffffffffffff021916908378ffffffffffffffffffffffffffffffffffffffffffffffffff160217905550604082015181600001601a6101000a81548160ff021916908360ff160217905550606082015181600001601b6101000a81548164ffffffffff021916908364ffffffffff16021790555090505060026004811115612b6d57612b6c614363565b5b82600001516004811115612b8457612b83614363565b5b1415612b9a57612b998a8a89898c60006114c5565b5b50505050505b5050505050565b60028054906101000a90046fffffffffffffffffffffffffffffffff1681565b600260129054906101000a900464ffffffffff1681565b60056020528060005260406000206000915054906101000a900473ffffffffffffffffffffffffffffffffffffffff1681565b6000612c31600160008481526020019081526020016000206000016136cf565b9050919050565b612c40613527565b826004600084815260200190815260200160002060006101000a81548173ffffffffffffffffffffffffffffffffffffffff021916908373ffffffffffffffffffffffffffffffffffffffff16021790555060008390508073ffffffffffffffffffffffffffffffffffffffff1663b8fa373684846040518363ffffffff1660e01b8152600401612cd292919061546b565b600060405180830381600087803b158015612cec57600080fd5b505af1158015612d00573d6000803e3d6000fd5b5050505050505050565b612d347fe2b7fb3b832174769106daebcfd6d1970523240dda11281102db9363b83b0dc482612080565b15612d74576040517f08c379a0000000000000000000000000000000000000000000000000000000008152600401612d6b906154e0565b60405180910390fd5b60c8612d7e611e98565b10612dbe576040517f08c379a0000000000000000000000000000000000000000000000000000000008152600401612db59061554c565b60405180910390fd5b612de87fe2b7fb3b832174769106daebcfd6d1970523240dda11281102db9363b83b0dc4826118d6565b7f03580ee9f53a62b7cb409a2cb56f9be87747dd15017afc5cef6eef321e4fb2c581604051612e17919061420a565b60405180910390a150565b612e2a613527565b80600760008473ffffffffffffffffffffffffffffffffffffffff1673ffffffffffffffffffffffffffffffffffffffff16815260200190815260200160002060006101000a81548160ff0219169083151502179055505050565b612eac6001600084815260200190815260200160002060020154612ea761323c565b612080565b612eeb576040517f08c379a0000000000000000000000000000000000000000000000000000000008152600401612ee2906155de565b60405180910390fd5b612ef58282613493565b5050565b600260019054906101000a900460ff1681565b60006005600083815260200190815260200160002060009054906101000a900473ffffffffffffffffffffffffffffffffffffffff169050919050565b612f51613527565b600360008360ff1660ff16815260200190815260200160002060009054906101000a900467ffffffffffffffff1667ffffffffffffffff168167ffffffffffffffff1611612fd4576040517f08c379a0000000000000000000000000000000000000000000000000000000008152600401612fcb90615670565b60405180910390fd5b80600360008460ff1660ff16815260200190815260200160002060006101000a81548167ffffffffffffffff021916908367ffffffffffffffff1602179055505050565b60006004600083815260200190815260200160002060009054906101000a900473ffffffffffffffffffffffffffffffffffffffff169050919050565b60076020528060005260406000206000915054906101000a900460ff1681565b61307d613527565b61308d61308861323c565b6136e4565b565b600061010082106130d5576040517f08c379a00000000000000000000000000000000000000000000000000000000081526004016130cc906156dc565b60405180910390fd5b819050919050565b60007001000000000000000000000000000000008210613132576040517f08c379a000000000000000000000000000000000000000000000000000000000815260040161312990615748565b60405180910390fd5b819050919050565b6000650100000000008210613184576040517f08c379a000000000000000000000000000000000000000000000000000000000815260040161317b906157b4565b60405180910390fd5b819050919050565b60006131b4836000018373ffffffffffffffffffffffffffffffffffffffff1660001b613740565b905092915050565b60006131e4836000018373ffffffffffffffffffffffffffffffffffffffff1660001b6137b0565b905092915050565b60008054906101000a900460ff161561323a576040517f08c379a000000000000000000000000000000000000000000000000000000000815260040161323190615820565b60405180910390fd5b565b60008033905060146000369050101580156132a05750600760008273ffffffffffffffffffffffffffffffffffffffff1673ffffffffffffffffffffffffffffffffffffffff16815260200190815260200160002060009054906101000a900460ff165b156132b057601436033560601c90505b8091505090565b60006132c161323c565b90506132d06000801b82612080565b8061330157506133007fe2b7fb3b832174769106daebcfd6d1970523240dda11281102db9363b83b0dc482612080565b5b613340576040517f08c379a00000000000000000000000000000000000000000000000000000000081526004016133379061588c565b60405180910390fd5b50565b600061338583836040518060400160405280601e81526020017f536166654d6174683a207375627472616374696f6e206f766572666c6f7700008152506137d3565b905092915050565b6133be7fe2b7fb3b832174769106daebcfd6d1970523240dda11281102db9363b83b0dc46133b961323c565b612080565b6133fd576040517f08c379a00000000000000000000000000000000000000000000000000000000081526004016133f4906158f8565b60405180910390fd5b565b613427816001600085815260200190815260200160002060000161318c90919063ffffffff16565b1561348f5761343461323c565b73ffffffffffffffffffffffffffffffffffffffff168173ffffffffffffffffffffffffffffffffffffffff16837f2f8788117e7eff1d82e926ec794901d17c78024a50270940304540a733656f0d60405160405180910390a45b5050565b6134bb816001600085815260200190815260200160002060000161383790919063ffffffff16565b15613523576134c861323c565b73ffffffffffffffffffffffffffffffffffffffff168173ffffffffffffffffffffffffffffffffffffffff16837ff6391f5c32d9c69d2a47ea670b442974b53935d1edc7fd64eb21e047a839171b60405160405180910390a45b5050565b61353b6000801b61353661323c565b612080565b61357a576040517f08c379a000000000000000000000000000000000000000000000000000000000815260040161357190615964565b60405180910390fd5b565b600080836020015178ffffffffffffffffffffffffffffffffffffffffffffffffff166135a884613628565b1611905092915050565b6135ba6131ec565b60016000806101000a81548160ff0219169083151502179055507f62e78cea01bee320cd4e420270b5ea74000d11b0c9f74754ebdbfc544b05a25881604051613603919061420a565b60405180910390a150565b600061361d8360000183613867565b60001c905092915050565b600061365e6136577fe2b7fb3b832174769106daebcfd6d1970523240dda11281102db9363b83b0dc484611b10565b6001613343565b6001901b9050919050565b600079010000000000000000000000000000000000000000000000000082106136c7576040517f08c379a00000000000000000000000000000000000000000000000000000000081526004016136be906159d0565b60405180910390fd5b819050919050565b60006136dd82600001613892565b9050919050565b6136ec6138a3565b60008060006101000a81548160ff0219169083151502179055507f5db9ee0a495bf2e6ff9c91a7834c1ba4fdd244a5e8aa4e537bd38aeae4b073aa81604051613735919061420a565b60405180910390a150565b600061374c83836137b0565b6137a55782600001829080600181540180825580915050600190039060005260206000200160009091909190915055826000018054905083600101600084815260200190815260200160002081905550600190506137aa565b600090505b92915050565b600080836001016000848152602001908152602001600020541415905092915050565b600083831115829061381b576040517f08c379a00000000000000000000000000000000000000000000000000000000081526004016138129190615a34565b60405180910390fd5b506000838561382a9190615a56565b9050809150509392505050565b600061385f836000018373ffffffffffffffffffffffffffffffffffffffff1660001b6138f2565b905092915050565b600082600001828154811061387f5761387e61504e565b5b9060005260206000200154905092915050565b600081600001805490509050919050565b60008054906101000a900460ff166138f0576040517f08c379a00000000000000000000000000000000000000000000000000000000081526004016138e790615ad6565b60405180910390fd5b565b600080836001016000848152602001908152602001600020549050600081146139fa5760006001826139249190615a56565b905060006001866000018054905061393c9190615a56565b90508181146139ab57600086600001828154811061395d5761395c61504e565b5b90600052602060002001549050808760000184815481106139815761398061504e565b5b90600052602060002001819055508387600101600083815260200190815260200160002081905550505b856000018054806139bf576139be615af6565b5b600190038181906000526020600020016000905590558560010160008681526020019081526020016000206000905560019350505050613a00565b60009150505b92915050565b604051806080016040528060006004811115613a2557613a24614363565b5b8152602001600078ffffffffffffffffffffffffffffffffffffffffffffffffff168152602001600060ff168152602001600064ffffffffff1681525090565b6000604051905090565b600080fd5b600080fd5b600060ff82169050919050565b613a8f81613a79565b8114613a9a57600080fd5b50565b600081359050613aac81613a86565b92915050565b6000819050919050565b613ac581613ab2565b8114613ad057600080fd5b50565b600081359050613ae281613abc565b92915050565b600080fd5b600080fd5b600080fd5b60008083601f840112613b0d57613b0c613ae8565b5b8235905067ffffffffffffffff811115613b2a57613b29613aed565b5b602083019150836001820283011115613b4657613b45613af2565b5b9250929050565b60008060008060608587031215613b6757613b66613a6f565b5b6000613b7587828801613a9d565b9450506020613b8687828801613ad3565b935050604085013567ffffffffffffffff811115613ba757613ba6613a74565b5b613bb387828801613af7565b925092505092959194509250565b600073ffffffffffffffffffffffffffffffffffffffff82169050919050565b6000613bec82613bc1565b9050919050565b613bfc81613be1565b8114613c0757600080fd5b50565b600081359050613c1981613bf3565b92915050565b60008060408385031215613c3657613c35613a6f565b5b6000613c4485828601613c0a565b9250506020613c5585828601613ad3565b9150509250929050565b600067ffffffffffffffff82169050919050565b613c7c81613c5f565b8114613c8757600080fd5b50565b600081359050613c9981613c73565b92915050565b600080600060608486031215613cb857613cb7613a6f565b5b6000613cc686828701613a9d565b9350506020613cd786828701613c8a565b9250506040613ce886828701613ad3565b9150509250925092565b6000819050919050565b613d0581613cf2565b8114613d1057600080fd5b50565b600081359050613d2281613cfc565b92915050565b600080600060608486031215613d4157613d40613a6f565b5b6000613d4f86828701613c0a565b9350506020613d6086828701613d13565b9250506040613d7186828701613ad3565b9150509250925092565b60008115159050919050565b613d9081613d7b565b8114613d9b57600080fd5b50565b600081359050613dad81613d87565b92915050565b60008060008060008060a08789031215613dd057613dcf613a6f565b5b6000613dde89828a01613a9d565b9650506020613def89828a01613c8a565b955050604087013567ffffffffffffffff811115613e1057613e0f613a74565b5b613e1c89828a01613af7565b94509450506060613e2f89828a01613ad3565b9250506080613e4089828a01613d9e565b9150509295509295509295565b600060208284031215613e6357613e62613a6f565b5b6000613e7184828501613ad3565b91505092915050565b613e8381613ab2565b82525050565b6000602082019050613e9e6000830184613e7a565b92915050565b60008060408385031215613ebb57613eba613a6f565b5b6000613ec985828601613ad3565b9250506020613eda85828601613c0a565b9150509250929050565b60008083601f840112613efa57613ef9613ae8565b5b8235905067ffffffffffffffff811115613f1757613f16613aed565b5b602083019150836020820283011115613f3357613f32613af2565b5b9250929050565b60008083601f840112613f5057613f4f613ae8565b5b8235905067ffffffffffffffff811115613f6d57613f6c613aed565b5b602083019150836020820283011115613f8957613f88613af2565b5b9250929050565b60008060008060408587031215613faa57613fa9613a6f565b5b600085013567ffffffffffffffff811115613fc857613fc7613a74565b5b613fd487828801613ee4565b9450945050602085013567ffffffffffffffff811115613ff757613ff6613a74565b5b61400387828801613f3a565b925092505092959194509250565b60006020828403121561402757614026613a6f565b5b600061403584828501613a9d565b91505092915050565b61404781613c5f565b82525050565b6000602082019050614062600083018461403e565b92915050565b60006020828403121561407e5761407d613a6f565b5b600061408c84828501613d13565b91505092915050565b61409e81613cf2565b82525050565b60006020820190506140b96000830184614095565b92915050565b6000602082840312156140d5576140d4613a6f565b5b60006140e384828501613c0a565b91505092915050565b6140f581613d7b565b82525050565b600060208201905061411060008301846140ec565b92915050565b60007fffffffff0000000000000000000000000000000000000000000000000000000082169050919050565b61414b81614116565b811461415657600080fd5b50565b60008135905061416881614142565b92915050565b60008060008060008060c0878903121561418b5761418a613a6f565b5b600061419989828a01613c0a565b96505060206141aa89828a01613ad3565b95505060406141bb89828a01613c0a565b94505060606141cc89828a01614159565b93505060806141dd89828a01613d13565b92505060a06141ee89828a01614159565b9150509295509295509295565b61420481613be1565b82525050565b600060208201905061421f60008301846141fb565b92915050565b600068ffffffffffffffffff82169050919050565b61424381614225565b811461424e57600080fd5b50565b6000813590506142608161423a565b92915050565b60008060006060848603121561427f5761427e613a6f565b5b600061428d86828701614251565b935050602061429e86828701613ad3565b92505060406142af86828701613c0a565b9150509250925092565b600080604083850312156142d0576142cf613a6f565b5b60006142de85828601613c0a565b92505060206142ef85828601613c0a565b9150509250929050565b600080604083850312156143105761430f613a6f565b5b600061431e85828601613ad3565b925050602061432f85828601613d13565b9150509250929050565b61434281613a79565b82525050565b600060208201905061435d6000830184614339565b92915050565b7f4e487b7100000000000000000000000000000000000000000000000000000000600052602160045260246000fd5b600581106143a3576143a2614363565b5b50565b60008190506143b482614392565b919050565b60006143c4826143a6565b9050919050565b6143d4816143b9565b82525050565b600078ffffffffffffffffffffffffffffffffffffffffffffffffff82169050919050565b614408816143da565b82525050565b61441781613a79565b82525050565b600064ffffffffff82169050919050565b6144378161441d565b82525050565b60808201600082015161445360008501826143cb565b50602082015161446660208501826143ff565b506040820151614479604085018261440e565b50606082015161448c606085018261442e565b50505050565b60006080820190506144a7600083018461443d565b92915050565b600080fd5b6000601f19601f8301169050919050565b7f4e487b7100000000000000000000000000000000000000000000000000000000600052604160045260246000fd5b6144fb826144b2565b810181811067ffffffffffffffff8211171561451a576145196144c3565b5b80604052505050565b600061452d613a65565b905061453982826144f2565b919050565b600067ffffffffffffffff821115614559576145586144c3565b5b614562826144b2565b9050602081019050919050565b82818337600083830152505050565b600061459161458c8461453e565b614523565b9050828152602081018484840111156145ad576145ac6144ad565b5b6145b884828561456f565b509392505050565b600082601f8301126145d5576145d4613ae8565b5b81356145e584826020860161457e565b91505092915050565b6000806040838503121561460557614604613a6f565b5b600061461385828601613c0a565b925050602083013567ffffffffffffffff81111561463457614633613a74565b5b614640858286016145c0565b9150509250929050565b60008060008060006080868803121561466657614665613a6f565b5b600061467488828901613a9d565b955050602061468588828901613c8a565b945050604061469688828901613ad3565b935050606086013567ffffffffffffffff8111156146b7576146b6613a74565b5b6146c388828901613af7565b92509250509295509295909350565b60006fffffffffffffffffffffffffffffffff82169050919050565b6146f7816146d2565b82525050565b600060208201905061471260008301846146ee565b92915050565b6147218161441d565b82525050565b600060208201905061473c6000830184614718565b92915050565b60008060006060848603121561475b5761475a613a6f565b5b600061476986828701613c0a565b935050602061477a86828701613ad3565b925050604061478b86828701613c0a565b9150509250925092565b600080604083850312156147ac576147ab613a6f565b5b60006147ba85828601613c0a565b92505060206147cb85828601613d9e565b9150509250929050565b600080604083850312156147ec576147eb613a6f565b5b60006147fa85828601613a9d565b925050602061480b85828601613c8a565b9150509250929050565b600082825260208201905092915050565b7f496e636f72726563742066656520737570706c69656400000000000000000000600082015250565b600061485c601683614815565b915061486782614826565b602082019050919050565b6000602082019050818103600083015261488b8161484f565b9050919050565b7f7265736f757263654944206e6f74206d617070656420746f2068616e646c6572600082015250565b60006148c8602083614815565b91506148d382614892565b602082019050919050565b600060208201905081810360008301526148f7816148bb565b9050919050565b7f4e487b7100000000000000000000000000000000000000000000000000000000600052601160045260246000fd5b600061493882613c5f565b915067ffffffffffffffff821415614953576149526148fe565b5b600182019050919050565b600082825260208201905092915050565b600061497b838561495e565b935061498883858461456f565b614991836144b2565b840190509392505050565b60006060820190506149b16000830187613e7a565b6149be60208301866141fb565b81810360408301526149d181848661496f565b905095945050505050565b60005b838110156149fa5780820151818401526020810190506149df565b83811115614a09576000848401525b50505050565b6000614a22614a1d8461453e565b614523565b905082815260208101848484011115614a3e57614a3d6144ad565b5b614a498482856149dc565b509392505050565b600082601f830112614a6657614a65613ae8565b5b8151614a76848260208601614a0f565b91505092915050565b600060208284031215614a9557614a94613a6f565b5b600082015167ffffffffffffffff811115614ab357614ab2613a74565b5b614abf84828501614a51565b91505092915050565b600081519050919050565b6000614ade82614ac8565b614ae8818561495e565b9350614af88185602086016149dc565b614b01816144b2565b840191505092915050565b600060a082019050614b216000830189614339565b614b2e6020830188613e7a565b614b3b604083018761403e565b8181036060830152614b4e81858761496f565b90508181036080830152614b628184614ad3565b9050979650505050505050565b7f50726f706f73616c2063616e6e6f742062652063616e63656c6c656400000000600082015250565b6000614ba5601c83614815565b9150614bb082614b6f565b602082019050919050565b60006020820190508181036000830152614bd481614b98565b9050919050565b7f50726f706f73616c206e6f7420617420657870697279207468726573686f6c64600082015250565b6000614c11602083614815565b9150614c1c82614bdb565b602082019050919050565b60006020820190508181036000830152614c4081614c04565b9050919050565b614c50816143b9565b82525050565b6000608082019050614c6b6000830187614339565b614c78602083018661403e565b614c856040830185614c47565b614c926060830184613e7a565b95945050505050565b6000604082019050614cb060008301856141fb565b614cbd60208301846141fb565b9392505050565b6000604082019050614cd960008301856141fb565b614ce66020830184614095565b9392505050565b60008160601b9050919050565b6000614d0582614ced565b9050919050565b6000614d1782614cfa565b9050919050565b614d2f614d2a82613be1565b614d0c565b82525050565b600081905092915050565b6000614d4c8385614d35565b9350614d5983858461456f565b82840190509392505050565b6000614d718286614d1e565b601482019150614d82828486614d40565b9150819050949350505050565b7f50726f706f73616c206d75737420686176652050617373656420737461747573600082015250565b6000614dc5602083614815565b9150614dd082614d8f565b602082019050919050565b60006020820190508181036000830152614df481614db8565b9050919050565b6000604082019050614e106000830186613e7a565b8181036020830152614e2381848661496f565b9050949350505050565b60006020820190508181036000830152614e478184614ad3565b905092915050565b60008060408385031215614e6657614e65613a6f565b5b6000614e7485828601613d13565b9250506020614e8585828601613d13565b9150509250929050565b6000614e9a82613cf2565b9150614ea583613cf2565b9250827fffffffffffffffffffffffffffffffffffffffffffffffffffffffffffffffff03821115614eda57614ed96148fe565b5b828201905092915050565b600080fd5b600080fd5b60008085851115614f0357614f02614ee5565b5b83861115614f1457614f13614eea565b5b6001850283019150848603905094509492505050565b7f416363657373436f6e74726f6c3a2073656e646572206d75737420626520616e60008201527f2061646d696e20746f206772616e740000000000000000000000000000000000602082015250565b6000614f86602f83614815565b9150614f9182614f2a565b604082019050919050565b60006020820190508181036000830152614fb581614f79565b9050919050565b7f416363657373436f6e74726f6c3a2063616e206f6e6c792072656e6f756e636560008201527f20726f6c657320666f722073656c660000000000000000000000000000000000602082015250565b6000615018602f83614815565b915061502382614fbc565b604082019050919050565b600060208201905081810360008301526150478161500b565b9050919050565b7f4e487b7100000000000000000000000000000000000000000000000000000000600052603260045260246000fd5b600061508882613bc1565b9050919050565b6150988161507d565b81146150a357600080fd5b50565b6000813590506150b58161508f565b92915050565b6000602082840312156150d1576150d0613a6f565b5b60006150df848285016150a6565b91505092915050565b60006150f382613cf2565b91507fffffffffffffffffffffffffffffffffffffffffffffffffffffffffffffffff821415615126576151256148fe565b5b600182019050919050565b61513a81614116565b82525050565b600060a0820190506151556000830188613e7a565b61516260208301876141fb565b61516f6040830186615131565b61517c6060830185614095565b6151896080830184615131565b9695505050505050565b7f43616e6e6f742072656e6f756e6365206f6e6573656c66000000000000000000600082015250565b60006151c9601783614815565b91506151d482615193565b602082019050919050565b600060208201905081810360008301526151f8816151bc565b9050919050565b7f43757272656e742066656520697320657175616c20746f206e65772066656500600082015250565b6000615235601f83614815565b9150615240826151ff565b602082019050919050565b6000602082019050818103600083015261526481615228565b9050919050565b7f6164647220646f65736e277420686176652072656c6179657220726f6c652100600082015250565b60006152a1601f83614815565b91506152ac8261526b565b602082019050919050565b600060208201905081810360008301526152d081615294565b9050919050565b7f6e6f2068616e646c657220666f72207265736f75726365494400000000000000600082015250565b600061530d601983614815565b9150615318826152d7565b602082019050919050565b6000602082019050818103600083015261533c81615300565b9050919050565b7f70726f706f73616c20616c72656164792065786563757465642f63616e63656c60008201527f6c65640000000000000000000000000000000000000000000000000000000000602082015250565b600061539f602383614815565b91506153aa82615343565b604082019050919050565b600060208201905081810360008301526153ce81615392565b9050919050565b7f72656c6179657220616c726561647920766f7465640000000000000000000000600082015250565b600061540b601583614815565b9150615416826153d5565b602082019050919050565b6000602082019050818103600083015261543a816153fe565b9050919050565b600061544c82613a79565b915060ff8214156154605761545f6148fe565b5b600182019050919050565b60006040820190506154806000830185613e7a565b61548d60208301846141fb565b9392505050565b7f6164647220616c7265616479206861732072656c6179657220726f6c65210000600082015250565b60006154ca601e83614815565b91506154d582615494565b602082019050919050565b600060208201905081810360008301526154f9816154bd565b9050919050565b7f72656c6179657273206c696d6974207265616368656400000000000000000000600082015250565b6000615536601683614815565b915061554182615500565b602082019050919050565b6000602082019050818103600083015261556581615529565b9050919050565b7f416363657373436f6e74726f6c3a2073656e646572206d75737420626520616e60008201527f2061646d696e20746f207265766f6b6500000000000000000000000000000000602082015250565b60006155c8603083614815565b91506155d38261556c565b604082019050919050565b600060208201905081810360008301526155f7816155bb565b9050919050565b7f446f6573206e6f7420616c6c6f772064656372656d656e7473206f662074686560008201527f206e6f6e63650000000000000000000000000000000000000000000000000000602082015250565b600061565a602683614815565b9150615665826155fe565b604082019050919050565b600060208201905081810360008301526156898161564d565b9050919050565b7f76616c756520646f6573206e6f742066697420696e2038206269747300000000600082015250565b60006156c6601c83614815565b91506156d182615690565b602082019050919050565b600060208201905081810360008301526156f5816156b9565b9050919050565b7f76616c756520646f6573206e6f742066697420696e2031323820626974730000600082015250565b6000615732601e83614815565b915061573d826156fc565b602082019050919050565b6000602082019050818103600083015261576181615725565b9050919050565b7f76616c756520646f6573206e6f742066697420696e2034302062697473000000600082015250565b600061579e601d83614815565b91506157a982615768565b602082019050919050565b600060208201905081810360008301526157cd81615791565b9050919050565b7f5061757361626c653a2070617573656400000000000000000000000000000000600082015250565b600061580a601083614815565b9150615815826157d4565b602082019050919050565b60006020820190508181036000830152615839816157fd565b9050919050565b7f73656e646572206973206e6f742072656c61796572206f722061646d696e0000600082015250565b6000615876601e83614815565b915061588182615840565b602082019050919050565b600060208201905081810360008301526158a581615869565b9050919050565b7f73656e64657220646f65736e277420686176652072656c6179657220726f6c65600082015250565b60006158e2602083614815565b91506158ed826158ac565b602082019050919050565b60006020820190508181036000830152615911816158d5565b9050919050565b7f73656e64657220646f65736e277420686176652061646d696e20726f6c650000600082015250565b600061594e601e83614815565b915061595982615918565b602082019050919050565b6000602082019050818103600083015261597d81615941565b9050919050565b7f76616c756520646f6573206e6f742066697420696e2032303020626974730000600082015250565b60006159ba601e83614815565b91506159c582615984565b602082019050919050565b600060208201905081810360008301526159e9816159ad565b9050919050565b600081519050919050565b6000615a06826159f0565b615a108185614815565b9350615a208185602086016149dc565b615a29816144b2565b840191505092915050565b60006020820190508181036000830152615a4e81846159fb565b905092915050565b6000615a6182613cf2565b9150615a6c83613cf2565b925082821015615a7f57615a7e6148fe565b5b828203905092915050565b7f5061757361626c653a206e6f7420706175736564000000000000000000000000600082015250565b6000615ac0601483614815565b9150615acb82615a8a565b602082019050919050565b60006020820190508181036000830152615aef81615ab3565b9050919050565b7f4e487b7100000000000000000000000000000000000000000000000000000000600052603160045260246000fdfea26469706673582212205b4ed983e36ecc841bf269c4c923604525eaaf411d6eef0dd2d27f96f564bee164736f6c634300080b0033",
			"opcodes": "PUSH1 0x80 PUSH1 0x40 MSTORE CALLVALUE DUP1 ISZERO PUSH3 0x11 JUMPI PUSH1 0x0 DUP1 REVERT JUMPDEST POP PUSH1 0x40 MLOAD PUSH3 0x66F9 CODESIZE SUB DUP1 PUSH3 0x66F9 DUP4 CODECOPY DUP2 DUP2 ADD PUSH1 0x40 MSTORE DUP2 ADD SWAP1 PUSH3 0x37 SWAP2 SWAP1 PUSH3 0x83C JUMP JUMPDEST PUSH1 0x0 DUP1 PUSH1 0x0 PUSH2 0x100 EXP DUP2 SLOAD DUP2 PUSH1 0xFF MUL NOT AND SWAP1 DUP4 ISZERO ISZERO MUL OR SWAP1 SSTORE POP DUP5 PUSH1 0x2 PUSH1 0x0 PUSH2 0x100 EXP DUP2 SLOAD DUP2 PUSH1 0xFF MUL NOT AND SWAP1 DUP4 PUSH1 0xFF AND MUL OR SWAP1 SSTORE POP PUSH3 0x82 DUP4 PUSH3 0x1C3 PUSH1 0x20 SHL PUSH3 0x308F OR PUSH1 0x20 SHR JUMP JUMPDEST PUSH1 0x2 PUSH1 0x1 PUSH2 0x100 EXP DUP2 SLOAD DUP2 PUSH1 0xFF MUL NOT AND SWAP1 DUP4 PUSH1 0xFF AND MUL OR SWAP1 SSTORE POP PUSH3 0xB2 DUP3 PUSH3 0x214 PUSH1 0x20 SHL PUSH3 0x30DD OR PUSH1 0x20 SHR JUMP JUMPDEST PUSH1 0x2 DUP1 PUSH2 0x100 EXP DUP2 SLOAD DUP2 PUSH16 0xFFFFFFFFFFFFFFFFFFFFFFFFFFFFFFFF MUL NOT AND SWAP1 DUP4 PUSH16 0xFFFFFFFFFFFFFFFFFFFFFFFFFFFFFFFF AND MUL OR SWAP1 SSTORE POP PUSH3 0xFF DUP2 PUSH3 0x274 PUSH1 0x20 SHL PUSH3 0x313A OR PUSH1 0x20 SHR JUMP JUMPDEST PUSH1 0x2 PUSH1 0x12 PUSH2 0x100 EXP DUP2 SLOAD DUP2 PUSH5 0xFFFFFFFFFF MUL NOT AND SWAP1 DUP4 PUSH5 0xFFFFFFFFFF AND MUL OR SWAP1 SSTORE POP PUSH3 0x145 PUSH1 0x0 DUP1 SHL PUSH3 0x139 PUSH3 0x2C9 PUSH1 0x20 SHL PUSH1 0x20 SHR JUMP JUMPDEST PUSH3 0x346 PUSH1 0x20 SHL PUSH1 0x20 SHR JUMP JUMPDEST PUSH1 0x0 JUMPDEST DUP5 MLOAD DUP2 LT ISZERO PUSH3 0x1B7 JUMPI PUSH3 0x1A1 PUSH32 0xE2B7FB3B832174769106DAEBCFD6D1970523240DDA11281102DB9363B83B0DC4 DUP7 DUP4 DUP2 MLOAD DUP2 LT PUSH3 0x18D JUMPI PUSH3 0x18C PUSH3 0x8E3 JUMP JUMPDEST JUMPDEST PUSH1 0x20 MUL PUSH1 0x20 ADD ADD MLOAD PUSH3 0x35C PUSH1 0x20 SHL PUSH1 0x20 SHR JUMP JUMPDEST DUP1 DUP1 PUSH3 0x1AE SWAP1 PUSH3 0x941 JUMP JUMPDEST SWAP2 POP POP PUSH3 0x148 JUMP JUMPDEST POP POP POP POP POP POP PUSH3 0xB8E JUMP JUMPDEST PUSH1 0x0 PUSH2 0x100 DUP3 LT PUSH3 0x20C JUMPI PUSH1 0x40 MLOAD PUSH32 0x8C379A000000000000000000000000000000000000000000000000000000000 DUP2 MSTORE PUSH1 0x4 ADD PUSH3 0x203 SWAP1 PUSH3 0x9F0 JUMP JUMPDEST PUSH1 0x40 MLOAD DUP1 SWAP2 SUB SWAP1 REVERT JUMPDEST DUP2 SWAP1 POP SWAP2 SWAP1 POP JUMP JUMPDEST PUSH1 0x0 PUSH17 0x100000000000000000000000000000000 DUP3 LT PUSH3 0x26C JUMPI PUSH1 0x40 MLOAD PUSH32 0x8C379A000000000000000000000000000000000000000000000000000000000 DUP2 MSTORE PUSH1 0x4 ADD PUSH3 0x263 SWAP1 PUSH3 0xA62 JUMP JUMPDEST PUSH1 0x40 MLOAD DUP1 SWAP2 SUB SWAP1 REVERT JUMPDEST DUP2 SWAP1 POP SWAP2 SWAP1 POP JUMP JUMPDEST PUSH1 0x0 PUSH6 0x10000000000 DUP3 LT PUSH3 0x2C1 JUMPI PUSH1 0x40 MLOAD PUSH32 0x8C379A000000000000000000000000000000000000000000000000000000000 DUP2 MSTORE PUSH1 0x4 ADD PUSH3 0x2B8 SWAP1 PUSH3 0xAD4 JUMP JUMPDEST PUSH1 0x40 MLOAD DUP1 SWAP2 SUB SWAP1 REVERT JUMPDEST DUP2 SWAP1 POP SWAP2 SWAP1 POP JUMP JUMPDEST PUSH1 0x0 DUP1 CALLER SWAP1 POP PUSH1 0x14 PUSH1 0x0 CALLDATASIZE SWAP1 POP LT ISZERO DUP1 ISZERO PUSH3 0x32E JUMPI POP PUSH1 0x7 PUSH1 0x0 DUP3 PUSH20 0xFFFFFFFFFFFFFFFFFFFFFFFFFFFFFFFFFFFFFFFF AND PUSH20 0xFFFFFFFFFFFFFFFFFFFFFFFFFFFFFFFFFFFFFFFF AND DUP2 MSTORE PUSH1 0x20 ADD SWAP1 DUP2 MSTORE PUSH1 0x20 ADD PUSH1 0x0 KECCAK256 PUSH1 0x0 SWAP1 SLOAD SWAP1 PUSH2 0x100 EXP SWAP1 DIV PUSH1 0xFF AND JUMPDEST ISZERO PUSH3 0x33F JUMPI PUSH1 0x14 CALLDATASIZE SUB CALLDATALOAD PUSH1 0x60 SHR SWAP1 POP JUMPDEST DUP1 SWAP2 POP POP SWAP1 JUMP JUMPDEST PUSH3 0x358 DUP3 DUP3 PUSH3 0x3EB PUSH1 0x20 SHL PUSH1 0x20 SHR JUMP JUMPDEST POP POP JUMP JUMPDEST PUSH3 0x393 PUSH1 0x1 PUSH1 0x0 DUP5 DUP2 MSTORE PUSH1 0x20 ADD SWAP1 DUP2 MSTORE PUSH1 0x20 ADD PUSH1 0x0 KECCAK256 PUSH1 0x2 ADD SLOAD PUSH3 0x387 PUSH3 0x2C9 PUSH1 0x20 SHL PUSH1 0x20 SHR JUMP JUMPDEST PUSH3 0x48F PUSH1 0x20 SHL PUSH1 0x20 SHR JUMP JUMPDEST PUSH3 0x3D5 JUMPI PUSH1 0x40 MLOAD PUSH32 0x8C379A000000000000000000000000000000000000000000000000000000000 DUP2 MSTORE PUSH1 0x4 ADD PUSH3 0x3CC SWAP1 PUSH3 0xB6C JUMP JUMPDEST PUSH1 0x40 MLOAD DUP1 SWAP2 SUB SWAP1 REVERT JUMPDEST PUSH3 0x3E7 DUP3 DUP3 PUSH3 0x3EB PUSH1 0x20 SHL PUSH1 0x20 SHR JUMP JUMPDEST POP POP JUMP JUMPDEST PUSH3 0x41A DUP2 PUSH1 0x1 PUSH1 0x0 DUP6 DUP2 MSTORE PUSH1 0x20 ADD SWAP1 DUP2 MSTORE PUSH1 0x20 ADD PUSH1 0x0 KECCAK256 PUSH1 0x0 ADD PUSH3 0x4C8 PUSH1 0x20 SHL PUSH3 0x318C OR SWAP1 SWAP2 SWAP1 PUSH1 0x20 SHR JUMP JUMPDEST ISZERO PUSH3 0x48B JUMPI PUSH3 0x430 PUSH3 0x2C9 PUSH1 0x20 SHL PUSH1 0x20 SHR JUMP JUMPDEST PUSH20 0xFFFFFFFFFFFFFFFFFFFFFFFFFFFFFFFFFFFFFFFF AND DUP2 PUSH20 0xFFFFFFFFFFFFFFFFFFFFFFFFFFFFFFFFFFFFFFFF AND DUP4 PUSH32 0x2F8788117E7EFF1D82E926EC794901D17C78024A50270940304540A733656F0D PUSH1 0x40 MLOAD PUSH1 0x40 MLOAD DUP1 SWAP2 SUB SWAP1 LOG4 JUMPDEST POP POP JUMP JUMPDEST PUSH1 0x0 PUSH3 0x4C0 DUP3 PUSH1 0x1 PUSH1 0x0 DUP7 DUP2 MSTORE PUSH1 0x20 ADD SWAP1 DUP2 MSTORE PUSH1 0x20 ADD PUSH1 0x0 KECCAK256 PUSH1 0x0 ADD PUSH3 0x500 PUSH1 0x20 SHL PUSH3 0x31BC OR SWAP1 SWAP2 SWAP1 PUSH1 0x20 SHR JUMP JUMPDEST SWAP1 POP SWAP3 SWAP2 POP POP JUMP JUMPDEST PUSH1 0x0 PUSH3 0x4F8 DUP4 PUSH1 0x0 ADD DUP4 PUSH20 0xFFFFFFFFFFFFFFFFFFFFFFFFFFFFFFFFFFFFFFFF AND PUSH1 0x0 SHL PUSH3 0x538 PUSH1 0x20 SHL PUSH1 0x20 SHR JUMP JUMPDEST SWAP1 POP SWAP3 SWAP2 POP POP JUMP JUMPDEST PUSH1 0x0 PUSH3 0x530 DUP4 PUSH1 0x0 ADD DUP4 PUSH20 0xFFFFFFFFFFFFFFFFFFFFFFFFFFFFFFFFFFFFFFFF AND PUSH1 0x0 SHL PUSH3 0x5B2 PUSH1 0x20 SHL PUSH1 0x20 SHR JUMP JUMPDEST SWAP1 POP SWAP3 SWAP2 POP POP JUMP JUMPDEST PUSH1 0x0 PUSH3 0x54C DUP4 DUP4 PUSH3 0x5B2 PUSH1 0x20 SHL PUSH1 0x20 SHR JUMP JUMPDEST PUSH3 0x5A7 JUMPI DUP3 PUSH1 0x0 ADD DUP3 SWAP1 DUP1 PUSH1 0x1 DUP2 SLOAD ADD DUP1 DUP3 SSTORE DUP1 SWAP2 POP POP PUSH1 0x1 SWAP1 SUB SWAP1 PUSH1 0x0 MSTORE PUSH1 0x20 PUSH1 0x0 KECCAK256 ADD PUSH1 0x0 SWAP1 SWAP2 SWAP1 SWAP2 SWAP1 SWAP2 POP SSTORE DUP3 PUSH1 0x0 ADD DUP1 SLOAD SWAP1 POP DUP4 PUSH1 0x1 ADD PUSH1 0x0 DUP5 DUP2 MSTORE PUSH1 0x20 ADD SWAP1 DUP2 MSTORE PUSH1 0x20 ADD PUSH1 0x0 KECCAK256 DUP2 SWAP1 SSTORE POP PUSH1 0x1 SWAP1 POP PUSH3 0x5AC JUMP JUMPDEST PUSH1 0x0 SWAP1 POP JUMPDEST SWAP3 SWAP2 POP POP JUMP JUMPDEST PUSH1 0x0 DUP1 DUP4 PUSH1 0x1 ADD PUSH1 0x0 DUP5 DUP2 MSTORE PUSH1 0x20 ADD SWAP1 DUP2 MSTORE PUSH1 0x20 ADD PUSH1 0x0 KECCAK256 SLOAD EQ ISZERO SWAP1 POP SWAP3 SWAP2 POP POP JUMP JUMPDEST PUSH1 0x0 PUSH1 0x40 MLOAD SWAP1 POP SWAP1 JUMP JUMPDEST PUSH1 0x0 DUP1 REVERT JUMPDEST PUSH1 0x0 DUP1 REVERT JUMPDEST PUSH1 0x0 PUSH1 0xFF DUP3 AND SWAP1 POP SWAP2 SWAP1 POP JUMP JUMPDEST PUSH3 0x601 DUP2 PUSH3 0x5E9 JUMP JUMPDEST DUP2 EQ PUSH3 0x60D JUMPI PUSH1 0x0 DUP1 REVERT JUMPDEST POP JUMP JUMPDEST PUSH1 0x0 DUP2 MLOAD SWAP1 POP PUSH3 0x621 DUP2 PUSH3 0x5F6 JUMP JUMPDEST SWAP3 SWAP2 POP POP JUMP JUMPDEST PUSH1 0x0 DUP1 REVERT JUMPDEST PUSH1 0x0 PUSH1 0x1F NOT PUSH1 0x1F DUP4 ADD AND SWAP1 POP SWAP2 SWAP1 POP JUMP JUMPDEST PUSH32 0x4E487B7100000000000000000000000000000000000000000000000000000000 PUSH1 0x0 MSTORE PUSH1 0x41 PUSH1 0x4 MSTORE PUSH1 0x24 PUSH1 0x0 REVERT JUMPDEST PUSH3 0x677 DUP3 PUSH3 0x62C JUMP JUMPDEST DUP2 ADD DUP2 DUP2 LT PUSH8 0xFFFFFFFFFFFFFFFF DUP3 GT OR ISZERO PUSH3 0x699 JUMPI PUSH3 0x698 PUSH3 0x63D JUMP JUMPDEST JUMPDEST DUP1 PUSH1 0x40 MSTORE POP POP POP JUMP JUMPDEST PUSH1 0x0 PUSH3 0x6AE PUSH3 0x5D5 JUMP JUMPDEST SWAP1 POP PUSH3 0x6BC DUP3 DUP3 PUSH3 0x66C JUMP JUMPDEST SWAP2 SWAP1 POP JUMP JUMPDEST PUSH1 0x0 PUSH8 0xFFFFFFFFFFFFFFFF DUP3 GT ISZERO PUSH3 0x6DF JUMPI PUSH3 0x6DE PUSH3 0x63D JUMP JUMPDEST JUMPDEST PUSH1 0x20 DUP3 MUL SWAP1 POP PUSH1 0x20 DUP2 ADD SWAP1 POP SWAP2 SWAP1 POP JUMP JUMPDEST PUSH1 0x0 DUP1 REVERT JUMPDEST PUSH1 0x0 PUSH20 0xFFFFFFFFFFFFFFFFFFFFFFFFFFFFFFFFFFFFFFFF DUP3 AND SWAP1 POP SWAP2 SWAP1 POP JUMP JUMPDEST PUSH1 0x0 PUSH3 0x722 DUP3 PUSH3 0x6F5 JUMP JUMPDEST SWAP1 POP SWAP2 SWAP1 POP JUMP JUMPDEST PUSH3 0x734 DUP2 PUSH3 0x715 JUMP JUMPDEST DUP2 EQ PUSH3 0x740 JUMPI PUSH1 0x0 DUP1 REVERT JUMPDEST POP JUMP JUMPDEST PUSH1 0x0 DUP2 MLOAD SWAP1 POP PUSH3 0x754 DUP2 PUSH3 0x729 JUMP JUMPDEST SWAP3 SWAP2 POP POP JUMP JUMPDEST PUSH1 0x0 PUSH3 0x771 PUSH3 0x76B DUP5 PUSH3 0x6C1 JUMP JUMPDEST PUSH3 0x6A2 JUMP JUMPDEST SWAP1 POP DUP1 DUP4 DUP3 MSTORE PUSH1 0x20 DUP3 ADD SWAP1 POP PUSH1 0x20 DUP5 MUL DUP4 ADD DUP6 DUP2 GT ISZERO PUSH3 0x797 JUMPI PUSH3 0x796 PUSH3 0x6F0 JUMP JUMPDEST JUMPDEST DUP4 JUMPDEST DUP2 DUP2 LT ISZERO PUSH3 0x7C4 JUMPI DUP1 PUSH3 0x7AF DUP9 DUP3 PUSH3 0x743 JUMP JUMPDEST DUP5 MSTORE PUSH1 0x20 DUP5 ADD SWAP4 POP POP PUSH1 0x20 DUP2 ADD SWAP1 POP PUSH3 0x799 JUMP JUMPDEST POP POP POP SWAP4 SWAP3 POP POP POP JUMP JUMPDEST PUSH1 0x0 DUP3 PUSH1 0x1F DUP4 ADD SLT PUSH3 0x7E6 JUMPI PUSH3 0x7E5 PUSH3 0x627 JUMP JUMPDEST JUMPDEST DUP2 MLOAD PUSH3 0x7F8 DUP5 DUP3 PUSH1 0x20 DUP7 ADD PUSH3 0x75A JUMP JUMPDEST SWAP2 POP POP SWAP3 SWAP2 POP POP JUMP JUMPDEST PUSH1 0x0 DUP2 SWAP1 POP SWAP2 SWAP1 POP JUMP JUMPDEST PUSH3 0x816 DUP2 PUSH3 0x801 JUMP JUMPDEST DUP2 EQ PUSH3 0x822 JUMPI PUSH1 0x0 DUP1 REVERT JUMPDEST POP JUMP JUMPDEST PUSH1 0x0 DUP2 MLOAD SWAP1 POP PUSH3 0x836 DUP2 PUSH3 0x80B JUMP JUMPDEST SWAP3 SWAP2 POP POP JUMP JUMPDEST PUSH1 0x0 DUP1 PUSH1 0x0 DUP1 PUSH1 0x0 PUSH1 0xA0 DUP7 DUP9 SUB SLT ISZERO PUSH3 0x85B JUMPI PUSH3 0x85A PUSH3 0x5DF JUMP JUMPDEST JUMPDEST PUSH1 0x0 PUSH3 0x86B DUP9 DUP3 DUP10 ADD PUSH3 0x610 JUMP JUMPDEST SWAP6 POP POP PUSH1 0x20 DUP7 ADD MLOAD PUSH8 0xFFFFFFFFFFFFFFFF DUP2 GT ISZERO PUSH3 0x88F JUMPI PUSH3 0x88E PUSH3 0x5E4 JUMP JUMPDEST JUMPDEST PUSH3 0x89D DUP9 DUP3 DUP10 ADD PUSH3 0x7CE JUMP JUMPDEST SWAP5 POP POP PUSH1 0x40 PUSH3 0x8B0 DUP9 DUP3 DUP10 ADD PUSH3 0x825 JUMP JUMPDEST SWAP4 POP POP PUSH1 0x60 PUSH3 0x8C3 DUP9 DUP3 DUP10 ADD PUSH3 0x825 JUMP JUMPDEST SWAP3 POP POP PUSH1 0x80 PUSH3 0x8D6 DUP9 DUP3 DUP10 ADD PUSH3 0x825 JUMP JUMPDEST SWAP2 POP POP SWAP3 SWAP6 POP SWAP3 SWAP6 SWAP1 SWAP4 POP JUMP JUMPDEST PUSH32 0x4E487B7100000000000000000000000000000000000000000000000000000000 PUSH1 0x0 MSTORE PUSH1 0x32 PUSH1 0x4 MSTORE PUSH1 0x24 PUSH1 0x0 REVERT JUMPDEST PUSH32 0x4E487B7100000000000000000000000000000000000000000000000000000000 PUSH1 0x0 MSTORE PUSH1 0x11 PUSH1 0x4 MSTORE PUSH1 0x24 PUSH1 0x0 REVERT JUMPDEST PUSH1 0x0 PUSH3 0x94E DUP3 PUSH3 0x801 JUMP JUMPDEST SWAP2 POP PUSH32 0xFFFFFFFFFFFFFFFFFFFFFFFFFFFFFFFFFFFFFFFFFFFFFFFFFFFFFFFFFFFFFFFF DUP3 EQ ISZERO PUSH3 0x984 JUMPI PUSH3 0x983 PUSH3 0x912 JUMP JUMPDEST JUMPDEST PUSH1 0x1 DUP3 ADD SWAP1 POP SWAP2 SWAP1 POP JUMP JUMPDEST PUSH1 0x0 DUP3 DUP3 MSTORE PUSH1 0x20 DUP3 ADD SWAP1 POP SWAP3 SWAP2 POP POP JUMP JUMPDEST PUSH32 0x76616C756520646F6573206E6F742066697420696E2038206269747300000000 PUSH1 0x0 DUP3 ADD MSTORE POP JUMP JUMPDEST PUSH1 0x0 PUSH3 0x9D8 PUSH1 0x1C DUP4 PUSH3 0x98F JUMP JUMPDEST SWAP2 POP PUSH3 0x9E5 DUP3 PUSH3 0x9A0 JUMP JUMPDEST PUSH1 0x20 DUP3 ADD SWAP1 POP SWAP2 SWAP1 POP JUMP JUMPDEST PUSH1 0x0 PUSH1 0x20 DUP3 ADD SWAP1 POP DUP2 DUP2 SUB PUSH1 0x0 DUP4 ADD MSTORE PUSH3 0xA0B DUP2 PUSH3 0x9C9 JUMP JUMPDEST SWAP1 POP SWAP2 SWAP1 POP JUMP JUMPDEST PUSH32 0x76616C756520646F6573206E6F742066697420696E2031323820626974730000 PUSH1 0x0 DUP3 ADD MSTORE POP JUMP JUMPDEST PUSH1 0x0 PUSH3 0xA4A PUSH1 0x1E DUP4 PUSH3 0x98F JUMP JUMPDEST SWAP2 POP PUSH3 0xA57 DUP3 PUSH3 0xA12 JUMP JUMPDEST PUSH1 0x20 DUP3 ADD SWAP1 POP SWAP2 SWAP1 POP JUMP JUMPDEST PUSH1 0x0 PUSH1 0x20 DUP3 ADD SWAP1 POP DUP2 DUP2 SUB PUSH1 0x0 DUP4 ADD MSTORE PUSH3 0xA7D DUP2 PUSH3 0xA3B JUMP JUMPDEST SWAP1 POP SWAP2 SWAP1 POP JUMP JUMPDEST PUSH32 0x76616C756520646F6573206E6F742066697420696E2034302062697473000000 PUSH1 0x0 DUP3 ADD MSTORE POP JUMP JUMPDEST PUSH1 0x0 PUSH3 0xABC PUSH1 0x1D DUP4 PUSH3 0x98F JUMP JUMPDEST SWAP2 POP PUSH3 0xAC9 DUP3 PUSH3 0xA84 JUMP JUMPDEST PUSH1 0x20 DUP3 ADD SWAP1 POP SWAP2 SWAP1 POP JUMP JUMPDEST PUSH1 0x0 PUSH1 0x20 DUP3 ADD SWAP1 POP DUP2 DUP2 SUB PUSH1 0x0 DUP4 ADD MSTORE PUSH3 0xAEF DUP2 PUSH3 0xAAD JUMP JUMPDEST SWAP1 POP SWAP2 SWAP1 POP JUMP JUMPDEST PUSH32 0x416363657373436F6E74726F6C3A2073656E646572206D75737420626520616E PUSH1 0x0 DUP3 ADD MSTORE PUSH32 0x2061646D696E20746F206772616E740000000000000000000000000000000000 PUSH1 0x20 DUP3 ADD MSTORE POP JUMP JUMPDEST PUSH1 0x0 PUSH3 0xB54 PUSH1 0x2F DUP4 PUSH3 0x98F JUMP JUMPDEST SWAP2 POP PUSH3 0xB61 DUP3 PUSH3 0xAF6 JUMP JUMPDEST PUSH1 0x40 DUP3 ADD SWAP1 POP SWAP2 SWAP1 POP JUMP JUMPDEST PUSH1 0x0 PUSH1 0x20 DUP3 ADD SWAP1 POP DUP2 DUP2 SUB PUSH1 0x0 DUP4 ADD MSTORE PUSH3 0xB87 DUP2 PUSH3 0xB45 JUMP JUMPDEST SWAP1 POP SWAP2 SWAP1 POP JUMP JUMPDEST PUSH2 0x5B5B DUP1 PUSH3 0xB9E PUSH1 0x0 CODECOPY PUSH1 0x0 RETURN INVALID PUSH1 0x80 PUSH1 0x40 MSTORE PUSH1 0x4 CALLDATASIZE LT PUSH2 0x2AE JUMPI PUSH1 0x0 CALLDATALOAD PUSH1 0xE0 SHR DUP1 PUSH4 0x91C404AC GT PUSH2 0x175 JUMPI DUP1 PUSH4 0xC5EC8970 GT PUSH2 0xDC JUMPI DUP1 PUSH4 0xD547741F GT PUSH2 0x95 JUMPI DUP1 PUSH4 0xEDC20C3C GT PUSH2 0x6F JUMPI DUP1 PUSH4 0xEDC20C3C EQ PUSH2 0xAF3 JUMPI DUP1 PUSH4 0xF2B1B549 EQ PUSH2 0xB1C JUMPI DUP1 PUSH4 0xF8C39E44 EQ PUSH2 0xB59 JUMPI DUP1 PUSH4 0xFFAAC0EB EQ PUSH2 0xB96 JUMPI PUSH2 0x2AE JUMP JUMPDEST DUP1 PUSH4 0xD547741F EQ PUSH2 0xA62 JUMPI DUP1 PUSH4 0xD7A9CD79 EQ PUSH2 0xA8B JUMPI DUP1 PUSH4 0xDCDEFD73 EQ PUSH2 0xAB6 JUMPI PUSH2 0x2AE JUMP JUMPDEST DUP1 PUSH4 0xC5EC8970 EQ PUSH2 0x942 JUMPI DUP1 PUSH4 0xC8F8E901 EQ PUSH2 0x96D JUMPI DUP1 PUSH4 0xCA15C873 EQ PUSH2 0x9AA JUMPI DUP1 PUSH4 0xCB10F215 EQ PUSH2 0x9E7 JUMPI DUP1 PUSH4 0xCDB0F73A EQ PUSH2 0xA10 JUMPI DUP1 PUSH4 0xD15EF64E EQ PUSH2 0xA39 JUMPI PUSH2 0x2AE JUMP JUMPDEST DUP1 PUSH4 0x9DEBB3BD GT PUSH2 0x12E JUMPI DUP1 PUSH4 0x9DEBB3BD EQ PUSH2 0x832 JUMPI DUP1 PUSH4 0xA217FDDF EQ PUSH2 0x85D JUMPI DUP1 PUSH4 0xA9CF69FA EQ PUSH2 0x888 JUMPI DUP1 PUSH4 0xBD2A1820 EQ PUSH2 0x8C5 JUMPI DUP1 PUSH4 0xC0331B3E EQ PUSH2 0x8EE JUMPI DUP1 PUSH4 0xC5B37C22 EQ PUSH2 0x917 JUMPI PUSH2 0x2AE JUMP JUMPDEST DUP1 PUSH4 0x91C404AC EQ PUSH2 0x710 JUMPI DUP1 PUSH4 0x91D14854 EQ PUSH2 0x739 JUMPI DUP1 PUSH4 0x926D7D7F EQ PUSH2 0x776 JUMPI DUP1 PUSH4 0x993BB8B7 EQ PUSH2 0x7A1 JUMPI DUP1 PUSH4 0x9D82DD63 EQ PUSH2 0x7DE JUMPI DUP1 PUSH4 0x9DD694F4 EQ PUSH2 0x807 JUMPI PUSH2 0x2AE JUMP JUMPDEST DUP1 PUSH4 0x4E0DF3F6 GT PUSH2 0x219 JUMPI DUP1 PUSH4 0x7FEBE63F GT PUSH2 0x1D2 JUMPI DUP1 PUSH4 0x7FEBE63F EQ PUSH2 0x5EE JUMPI DUP1 PUSH4 0x802AABE8 EQ PUSH2 0x62B JUMPI DUP1 PUSH4 0x80AE1C28 EQ PUSH2 0x656 JUMPI DUP1 PUSH4 0x84DB809F EQ PUSH2 0x66D JUMPI DUP1 PUSH4 0x8C0C2631 EQ PUSH2 0x6AA JUMPI DUP1 PUSH4 0x9010D07C EQ PUSH2 0x6D3 JUMPI PUSH2 0x2AE JUMP JUMPDEST DUP1 PUSH4 0x4E0DF3F6 EQ PUSH2 0x4BA JUMPI DUP1 PUSH4 0x541D5548 EQ PUSH2 0x4F7 JUMPI DUP1 PUSH4 0x5A1AD87C EQ PUSH2 0x534 JUMPI DUP1 PUSH4 0x5C975ABB EQ PUSH2 0x55D JUMPI DUP1 PUSH4 0x5E1FAB0F EQ PUSH2 0x588 JUMPI DUP1 PUSH4 0x77A03D95 EQ PUSH2 0x5B1 JUMPI PUSH2 0x2AE JUMP JUMPDEST DUP1 PUSH4 0x248A9CA3 GT PUSH2 0x26B JUMPI DUP1 PUSH4 0x248A9CA3 EQ PUSH2 0x39C JUMPI DUP1 PUSH4 0x2F2FF15D EQ PUSH2 0x3D9 JUMPI DUP1 PUSH4 0x36568ABE EQ PUSH2 0x402 JUMPI DUP1 PUSH4 0x4603AE38 EQ PUSH2 0x42B JUMPI DUP1 PUSH4 0x4B0B919D EQ PUSH2 0x454 JUMPI DUP1 PUSH4 0x4E056005 EQ PUSH2 0x491 JUMPI PUSH2 0x2AE JUMP JUMPDEST DUP1 PUSH4 0x5E2CA17 EQ PUSH2 0x2B3 JUMPI DUP1 PUSH4 0x1575422D EQ PUSH2 0x2CF JUMPI DUP1 PUSH4 0x157A876F EQ PUSH2 0x2F8 JUMPI DUP1 PUSH4 0x17F03CE5 EQ PUSH2 0x321 JUMPI DUP1 PUSH4 0x1A5FD13F EQ PUSH2 0x34A JUMPI DUP1 PUSH4 0x206A98FD EQ PUSH2 0x373 JUMPI JUMPDEST PUSH1 0x0 DUP1 REVERT JUMPDEST PUSH2 0x2CD PUSH1 0x4 DUP1 CALLDATASIZE SUB DUP2 ADD SWAP1 PUSH2 0x2C8 SWAP2 SWAP1 PUSH2 0x3B4D JUMP JUMPDEST PUSH2 0xBAD JUMP JUMPDEST STOP JUMPDEST CALLVALUE DUP1 ISZERO PUSH2 0x2DB JUMPI PUSH1 0x0 DUP1 REVERT JUMPDEST POP PUSH2 0x2F6 PUSH1 0x4 DUP1 CALLDATASIZE SUB DUP2 ADD SWAP1 PUSH2 0x2F1 SWAP2 SWAP1 PUSH2 0x3C1F JUMP JUMPDEST PUSH2 0xE2E JUMP JUMPDEST STOP JUMPDEST CALLVALUE DUP1 ISZERO PUSH2 0x304 JUMPI PUSH1 0x0 DUP1 REVERT JUMPDEST POP PUSH2 0x31F PUSH1 0x4 DUP1 CALLDATASIZE SUB DUP2 ADD SWAP1 PUSH2 0x31A SWAP2 SWAP1 PUSH2 0x3C1F JUMP JUMPDEST PUSH2 0xE84 JUMP JUMPDEST STOP JUMPDEST CALLVALUE DUP1 ISZERO PUSH2 0x32D JUMPI PUSH1 0x0 DUP1 REVERT JUMPDEST POP PUSH2 0x348 PUSH1 0x4 DUP1 CALLDATASIZE SUB DUP2 ADD SWAP1 PUSH2 0x343 SWAP2 SWAP1 PUSH2 0x3C9F JUMP JUMPDEST PUSH2 0xEDA JUMP JUMPDEST STOP JUMPDEST CALLVALUE DUP1 ISZERO PUSH2 0x356 JUMPI PUSH1 0x0 DUP1 REVERT JUMPDEST POP PUSH2 0x371 PUSH1 0x4 DUP1 CALLDATASIZE SUB DUP2 ADD SWAP1 PUSH2 0x36C SWAP2 SWAP1 PUSH2 0x3D28 JUMP JUMPDEST PUSH2 0x12CA JUMP JUMPDEST STOP JUMPDEST CALLVALUE DUP1 ISZERO PUSH2 0x37F JUMPI PUSH1 0x0 DUP1 REVERT JUMPDEST POP PUSH2 0x39A PUSH1 0x4 DUP1 CALLDATASIZE SUB DUP2 ADD SWAP1 PUSH2 0x395 SWAP2 SWAP1 PUSH2 0x3DB3 JUMP JUMPDEST PUSH2 0x14C5 JUMP JUMPDEST STOP JUMPDEST CALLVALUE DUP1 ISZERO PUSH2 0x3A8 JUMPI PUSH1 0x0 DUP1 REVERT JUMPDEST POP PUSH2 0x3C3 PUSH1 0x4 DUP1 CALLDATASIZE SUB DUP2 ADD SWAP1 PUSH2 0x3BE SWAP2 SWAP1 PUSH2 0x3E4D JUMP JUMPDEST PUSH2 0x18B6 JUMP JUMPDEST PUSH1 0x40 MLOAD PUSH2 0x3D0 SWAP2 SWAP1 PUSH2 0x3E89 JUMP JUMPDEST PUSH1 0x40 MLOAD DUP1 SWAP2 SUB SWAP1 RETURN JUMPDEST CALLVALUE DUP1 ISZERO PUSH2 0x3E5 JUMPI PUSH1 0x0 DUP1 REVERT JUMPDEST POP PUSH2 0x400 PUSH1 0x4 DUP1 CALLDATASIZE SUB DUP2 ADD SWAP1 PUSH2 0x3FB SWAP2 SWAP1 PUSH2 0x3EA4 JUMP JUMPDEST PUSH2 0x18D6 JUMP JUMPDEST STOP JUMPDEST CALLVALUE DUP1 ISZERO PUSH2 0x40E JUMPI PUSH1 0x0 DUP1 REVERT JUMPDEST POP PUSH2 0x429 PUSH1 0x4 DUP1 CALLDATASIZE SUB DUP2 ADD SWAP1 PUSH2 0x424 SWAP2 SWAP1 PUSH2 0x3EA4 JUMP JUMPDEST PUSH2 0x194A JUMP JUMPDEST STOP JUMPDEST CALLVALUE DUP1 ISZERO PUSH2 0x437 JUMPI PUSH1 0x0 DUP1 REVERT JUMPDEST POP PUSH2 0x452 PUSH1 0x4 DUP1 CALLDATASIZE SUB DUP2 ADD SWAP1 PUSH2 0x44D SWAP2 SWAP1 PUSH2 0x3F90 JUMP JUMPDEST PUSH2 0x19CD JUMP JUMPDEST STOP JUMPDEST CALLVALUE DUP1 ISZERO PUSH2 0x460 JUMPI PUSH1 0x0 DUP1 REVERT JUMPDEST POP PUSH2 0x47B PUSH1 0x4 DUP1 CALLDATASIZE SUB DUP2 ADD SWAP1 PUSH2 0x476 SWAP2 SWAP1 PUSH2 0x4011 JUMP JUMPDEST PUSH2 0x1A84 JUMP JUMPDEST PUSH1 0x40 MLOAD PUSH2 0x488 SWAP2 SWAP1 PUSH2 0x404D JUMP JUMPDEST PUSH1 0x40 MLOAD DUP1 SWAP2 SUB SWAP1 RETURN JUMPDEST CALLVALUE DUP1 ISZERO PUSH2 0x49D JUMPI PUSH1 0x0 DUP1 REVERT JUMPDEST POP PUSH2 0x4B8 PUSH1 0x4 DUP1 CALLDATASIZE SUB DUP2 ADD SWAP1 PUSH2 0x4B3 SWAP2 SWAP1 PUSH2 0x4068 JUMP JUMPDEST PUSH2 0x1AAB JUMP JUMPDEST STOP JUMPDEST CALLVALUE DUP1 ISZERO PUSH2 0x4C6 JUMPI PUSH1 0x0 DUP1 REVERT JUMPDEST POP PUSH2 0x4E1 PUSH1 0x4 DUP1 CALLDATASIZE SUB DUP2 ADD SWAP1 PUSH2 0x4DC SWAP2 SWAP1 PUSH2 0x3EA4 JUMP JUMPDEST PUSH2 0x1B10 JUMP JUMPDEST PUSH1 0x40 MLOAD PUSH2 0x4EE SWAP2 SWAP1 PUSH2 0x40A4 JUMP JUMPDEST PUSH1 0x40 MLOAD DUP1 SWAP2 SUB SWAP1 RETURN JUMPDEST CALLVALUE DUP1 ISZERO PUSH2 0x503 JUMPI PUSH1 0x0 DUP1 REVERT JUMPDEST POP PUSH2 0x51E PUSH1 0x4 DUP1 CALLDATASIZE SUB DUP2 ADD SWAP1 PUSH2 0x519 SWAP2 SWAP1 PUSH2 0x40BF JUMP JUMPDEST PUSH2 0x1B61 JUMP JUMPDEST PUSH1 0x40 MLOAD PUSH2 0x52B SWAP2 SWAP1 PUSH2 0x40FB JUMP JUMPDEST PUSH1 0x40 MLOAD DUP1 SWAP2 SUB SWAP1 RETURN JUMPDEST CALLVALUE DUP1 ISZERO PUSH2 0x540 JUMPI PUSH1 0x0 DUP1 REVERT JUMPDEST POP PUSH2 0x55B PUSH1 0x4 DUP1 CALLDATASIZE SUB DUP2 ADD SWAP1 PUSH2 0x556 SWAP2 SWAP1 PUSH2 0x416E JUMP JUMPDEST PUSH2 0x1B94 JUMP JUMPDEST STOP JUMPDEST CALLVALUE DUP1 ISZERO PUSH2 0x569 JUMPI PUSH1 0x0 DUP1 REVERT JUMPDEST POP PUSH2 0x572 PUSH2 0x1C6F JUMP JUMPDEST PUSH1 0x40 MLOAD PUSH2 0x57F SWAP2 SWAP1 PUSH2 0x40FB JUMP JUMPDEST PUSH1 0x40 MLOAD DUP1 SWAP2 SUB SWAP1 RETURN JUMPDEST CALLVALUE DUP1 ISZERO PUSH2 0x594 JUMPI PUSH1 0x0 DUP1 REVERT JUMPDEST POP PUSH2 0x5AF PUSH1 0x4 DUP1 CALLDATASIZE SUB DUP2 ADD SWAP1 PUSH2 0x5AA SWAP2 SWAP1 PUSH2 0x40BF JUMP JUMPDEST PUSH2 0x1C85 JUMP JUMPDEST STOP JUMPDEST CALLVALUE DUP1 ISZERO PUSH2 0x5BD JUMPI PUSH1 0x0 DUP1 REVERT JUMPDEST POP PUSH2 0x5D8 PUSH1 0x4 DUP1 CALLDATASIZE SUB DUP2 ADD SWAP1 PUSH2 0x5D3 SWAP2 SWAP1 PUSH2 0x3E4D JUMP JUMPDEST PUSH2 0x1D26 JUMP JUMPDEST PUSH1 0x40 MLOAD PUSH2 0x5E5 SWAP2 SWAP1 PUSH2 0x420A JUMP JUMPDEST PUSH1 0x40 MLOAD DUP1 SWAP2 SUB SWAP1 RETURN JUMPDEST CALLVALUE DUP1 ISZERO PUSH2 0x5FA JUMPI PUSH1 0x0 DUP1 REVERT JUMPDEST POP PUSH2 0x615 PUSH1 0x4 DUP1 CALLDATASIZE SUB DUP2 ADD SWAP1 PUSH2 0x610 SWAP2 SWAP1 PUSH2 0x4266 JUMP JUMPDEST PUSH2 0x1D59 JUMP JUMPDEST PUSH1 0x40 MLOAD PUSH2 0x622 SWAP2 SWAP1 PUSH2 0x40FB JUMP JUMPDEST PUSH1 0x40 MLOAD DUP1 SWAP2 SUB SWAP1 RETURN JUMPDEST CALLVALUE DUP1 ISZERO PUSH2 0x637 JUMPI PUSH1 0x0 DUP1 REVERT JUMPDEST POP PUSH2 0x640 PUSH2 0x1E98 JUMP JUMPDEST PUSH1 0x40 MLOAD PUSH2 0x64D SWAP2 SWAP1 PUSH2 0x40A4 JUMP JUMPDEST PUSH1 0x40 MLOAD DUP1 SWAP2 SUB SWAP1 RETURN JUMPDEST CALLVALUE DUP1 ISZERO PUSH2 0x662 JUMPI PUSH1 0x0 DUP1 REVERT JUMPDEST POP PUSH2 0x66B PUSH2 0x1EC8 JUMP JUMPDEST STOP JUMPDEST CALLVALUE DUP1 ISZERO PUSH2 0x679 JUMPI PUSH1 0x0 DUP1 REVERT JUMPDEST POP PUSH2 0x694 PUSH1 0x4 DUP1 CALLDATASIZE SUB DUP2 ADD SWAP1 PUSH2 0x68F SWAP2 SWAP1 PUSH2 0x3E4D JUMP JUMPDEST PUSH2 0x1EE2 JUMP JUMPDEST PUSH1 0x40 MLOAD PUSH2 0x6A1 SWAP2 SWAP1 PUSH2 0x420A JUMP JUMPDEST PUSH1 0x40 MLOAD DUP1 SWAP2 SUB SWAP1 RETURN JUMPDEST CALLVALUE DUP1 ISZERO PUSH2 0x6B6 JUMPI PUSH1 0x0 DUP1 REVERT JUMPDEST POP PUSH2 0x6D1 PUSH1 0x4 DUP1 CALLDATASIZE SUB DUP2 ADD SWAP1 PUSH2 0x6CC SWAP2 SWAP1 PUSH2 0x42B9 JUMP JUMPDEST PUSH2 0x1F15 JUMP JUMPDEST STOP JUMPDEST CALLVALUE DUP1 ISZERO PUSH2 0x6DF JUMPI PUSH1 0x0 DUP1 REVERT JUMPDEST POP PUSH2 0x6FA PUSH1 0x4 DUP1 CALLDATASIZE SUB DUP2 ADD SWAP1 PUSH2 0x6F5 SWAP2 SWAP1 PUSH2 0x42F9 JUMP JUMPDEST PUSH2 0x1F92 JUMP JUMPDEST PUSH1 0x40 MLOAD PUSH2 0x707 SWAP2 SWAP1 PUSH2 0x420A JUMP JUMPDEST PUSH1 0x40 MLOAD DUP1 SWAP2 SUB SWAP1 RETURN JUMPDEST CALLVALUE DUP1 ISZERO PUSH2 0x71C JUMPI PUSH1 0x0 DUP1 REVERT JUMPDEST POP PUSH2 0x737 PUSH1 0x4 DUP1 CALLDATASIZE SUB DUP2 ADD SWAP1 PUSH2 0x732 SWAP2 SWAP1 PUSH2 0x4068 JUMP JUMPDEST PUSH2 0x1FC4 JUMP JUMPDEST STOP JUMPDEST CALLVALUE DUP1 ISZERO PUSH2 0x745 JUMPI PUSH1 0x0 DUP1 REVERT JUMPDEST POP PUSH2 0x760 PUSH1 0x4 DUP1 CALLDATASIZE SUB DUP2 ADD SWAP1 PUSH2 0x75B SWAP2 SWAP1 PUSH2 0x3EA4 JUMP JUMPDEST PUSH2 0x2080 JUMP JUMPDEST PUSH1 0x40 MLOAD PUSH2 0x76D SWAP2 SWAP1 PUSH2 0x40FB JUMP JUMPDEST PUSH1 0x40 MLOAD DUP1 SWAP2 SUB SWAP1 RETURN JUMPDEST CALLVALUE DUP1 ISZERO PUSH2 0x782 JUMPI PUSH1 0x0 DUP1 REVERT JUMPDEST POP PUSH2 0x78B PUSH2 0x20B2 JUMP JUMPDEST PUSH1 0x40 MLOAD PUSH2 0x798 SWAP2 SWAP1 PUSH2 0x3E89 JUMP JUMPDEST PUSH1 0x40 MLOAD DUP1 SWAP2 SUB SWAP1 RETURN JUMPDEST CALLVALUE DUP1 ISZERO PUSH2 0x7AD JUMPI PUSH1 0x0 DUP1 REVERT JUMPDEST POP PUSH2 0x7C8 PUSH1 0x4 DUP1 CALLDATASIZE SUB DUP2 ADD SWAP1 PUSH2 0x7C3 SWAP2 SWAP1 PUSH2 0x3E4D JUMP JUMPDEST PUSH2 0x20D6 JUMP JUMPDEST PUSH1 0x40 MLOAD PUSH2 0x7D5 SWAP2 SWAP1 PUSH2 0x420A JUMP JUMPDEST PUSH1 0x40 MLOAD DUP1 SWAP2 SUB SWAP1 RETURN JUMPDEST CALLVALUE DUP1 ISZERO PUSH2 0x7EA JUMPI PUSH1 0x0 DUP1 REVERT JUMPDEST POP PUSH2 0x805 PUSH1 0x4 DUP1 CALLDATASIZE SUB DUP2 ADD SWAP1 PUSH2 0x800 SWAP2 SWAP1 PUSH2 0x40BF JUMP JUMPDEST PUSH2 0x2113 JUMP JUMPDEST STOP JUMPDEST CALLVALUE DUP1 ISZERO PUSH2 0x813 JUMPI PUSH1 0x0 DUP1 REVERT JUMPDEST POP PUSH2 0x81C PUSH2 0x21E0 JUMP JUMPDEST PUSH1 0x40 MLOAD PUSH2 0x829 SWAP2 SWAP1 PUSH2 0x4348 JUMP JUMPDEST PUSH1 0x40 MLOAD DUP1 SWAP2 SUB SWAP1 RETURN JUMPDEST CALLVALUE DUP1 ISZERO PUSH2 0x83E JUMPI PUSH1 0x0 DUP1 REVERT JUMPDEST POP PUSH2 0x847 PUSH2 0x21F3 JUMP JUMPDEST PUSH1 0x40 MLOAD PUSH2 0x854 SWAP2 SWAP1 PUSH2 0x40A4 JUMP JUMPDEST PUSH1 0x40 MLOAD DUP1 SWAP2 SUB SWAP1 RETURN JUMPDEST CALLVALUE DUP1 ISZERO PUSH2 0x869 JUMPI PUSH1 0x0 DUP1 REVERT JUMPDEST POP PUSH2 0x872 PUSH2 0x21F8 JUMP JUMPDEST PUSH1 0x40 MLOAD PUSH2 0x87F SWAP2 SWAP1 PUSH2 0x3E89 JUMP JUMPDEST PUSH1 0x40 MLOAD DUP1 SWAP2 SUB SWAP1 RETURN JUMPDEST CALLVALUE DUP1 ISZERO PUSH2 0x894 JUMPI PUSH1 0x0 DUP1 REVERT JUMPDEST POP PUSH2 0x8AF PUSH1 0x4 DUP1 CALLDATASIZE SUB DUP2 ADD SWAP1 PUSH2 0x8AA SWAP2 SWAP1 PUSH2 0x3C9F JUMP JUMPDEST PUSH2 0x21FF JUMP JUMPDEST PUSH1 0x40 MLOAD PUSH2 0x8BC SWAP2 SWAP1 PUSH2 0x4492 JUMP JUMPDEST PUSH1 0x40 MLOAD DUP1 SWAP2 SUB SWAP1 RETURN JUMPDEST CALLVALUE DUP1 ISZERO PUSH2 0x8D1 JUMPI PUSH1 0x0 DUP1 REVERT JUMPDEST POP PUSH2 0x8EC PUSH1 0x4 DUP1 CALLDATASIZE SUB DUP2 ADD SWAP1 PUSH2 0x8E7 SWAP2 SWAP1 PUSH2 0x45EE JUMP JUMPDEST PUSH2 0x235F JUMP JUMPDEST STOP JUMPDEST CALLVALUE DUP1 ISZERO PUSH2 0x8FA JUMPI PUSH1 0x0 DUP1 REVERT JUMPDEST POP PUSH2 0x915 PUSH1 0x4 DUP1 CALLDATASIZE SUB DUP2 ADD SWAP1 PUSH2 0x910 SWAP2 SWAP1 PUSH2 0x464A JUMP JUMPDEST PUSH2 0x23DC JUMP JUMPDEST STOP JUMPDEST CALLVALUE DUP1 ISZERO PUSH2 0x923 JUMPI PUSH1 0x0 DUP1 REVERT JUMPDEST POP PUSH2 0x92C PUSH2 0x2BA7 JUMP JUMPDEST PUSH1 0x40 MLOAD PUSH2 0x939 SWAP2 SWAP1 PUSH2 0x46FD JUMP JUMPDEST PUSH1 0x40 MLOAD DUP1 SWAP2 SUB SWAP1 RETURN JUMPDEST CALLVALUE DUP1 ISZERO PUSH2 0x94E JUMPI PUSH1 0x0 DUP1 REVERT JUMPDEST POP PUSH2 0x957 PUSH2 0x2BC7 JUMP JUMPDEST PUSH1 0x40 MLOAD PUSH2 0x964 SWAP2 SWAP1 PUSH2 0x4727 JUMP JUMPDEST PUSH1 0x40 MLOAD DUP1 SWAP2 SUB SWAP1 RETURN JUMPDEST CALLVALUE DUP1 ISZERO PUSH2 0x979 JUMPI PUSH1 0x0 DUP1 REVERT JUMPDEST POP PUSH2 0x994 PUSH1 0x4 DUP1 CALLDATASIZE SUB DUP2 ADD SWAP1 PUSH2 0x98F SWAP2 SWAP1 PUSH2 0x3E4D JUMP JUMPDEST PUSH2 0x2BDE JUMP JUMPDEST PUSH1 0x40 MLOAD PUSH2 0x9A1 SWAP2 SWAP1 PUSH2 0x420A JUMP JUMPDEST PUSH1 0x40 MLOAD DUP1 SWAP2 SUB SWAP1 RETURN JUMPDEST CALLVALUE DUP1 ISZERO PUSH2 0x9B6 JUMPI PUSH1 0x0 DUP1 REVERT JUMPDEST POP PUSH2 0x9D1 PUSH1 0x4 DUP1 CALLDATASIZE SUB DUP2 ADD SWAP1 PUSH2 0x9CC SWAP2 SWAP1 PUSH2 0x3E4D JUMP JUMPDEST PUSH2 0x2C11 JUMP JUMPDEST PUSH1 0x40 MLOAD PUSH2 0x9DE SWAP2 SWAP1 PUSH2 0x40A4 JUMP JUMPDEST PUSH1 0x40 MLOAD DUP1 SWAP2 SUB SWAP1 RETURN JUMPDEST CALLVALUE DUP1 ISZERO PUSH2 0x9F3 JUMPI PUSH1 0x0 DUP1 REVERT JUMPDEST POP PUSH2 0xA0E PUSH1 0x4 DUP1 CALLDATASIZE SUB DUP2 ADD SWAP1 PUSH2 0xA09 SWAP2 SWAP1 PUSH2 0x4742 JUMP JUMPDEST PUSH2 0x2C38 JUMP JUMPDEST STOP JUMPDEST CALLVALUE DUP1 ISZERO PUSH2 0xA1C JUMPI PUSH1 0x0 DUP1 REVERT JUMPDEST POP PUSH2 0xA37 PUSH1 0x4 DUP1 CALLDATASIZE SUB DUP2 ADD SWAP1 PUSH2 0xA32 SWAP2 SWAP1 PUSH2 0x40BF JUMP JUMPDEST PUSH2 0x2D0A JUMP JUMPDEST STOP JUMPDEST CALLVALUE DUP1 ISZERO PUSH2 0xA45 JUMPI PUSH1 0x0 DUP1 REVERT JUMPDEST POP PUSH2 0xA60 PUSH1 0x4 DUP1 CALLDATASIZE SUB DUP2 ADD SWAP1 PUSH2 0xA5B SWAP2 SWAP1 PUSH2 0x4795 JUMP JUMPDEST PUSH2 0x2E22 JUMP JUMPDEST STOP JUMPDEST CALLVALUE DUP1 ISZERO PUSH2 0xA6E JUMPI PUSH1 0x0 DUP1 REVERT JUMPDEST POP PUSH2 0xA89 PUSH1 0x4 DUP1 CALLDATASIZE SUB DUP2 ADD SWAP1 PUSH2 0xA84 SWAP2 SWAP1 PUSH2 0x3EA4 JUMP JUMPDEST PUSH2 0x2E85 JUMP JUMPDEST STOP JUMPDEST CALLVALUE DUP1 ISZERO PUSH2 0xA97 JUMPI PUSH1 0x0 DUP1 REVERT JUMPDEST POP PUSH2 0xAA0 PUSH2 0x2EF9 JUMP JUMPDEST PUSH1 0x40 MLOAD PUSH2 0xAAD SWAP2 SWAP1 PUSH2 0x4348 JUMP JUMPDEST PUSH1 0x40 MLOAD DUP1 SWAP2 SUB SWAP1 RETURN JUMPDEST CALLVALUE DUP1 ISZERO PUSH2 0xAC2 JUMPI PUSH1 0x0 DUP1 REVERT JUMPDEST POP PUSH2 0xADD PUSH1 0x4 DUP1 CALLDATASIZE SUB DUP2 ADD SWAP1 PUSH2 0xAD8 SWAP2 SWAP1 PUSH2 0x3E4D JUMP JUMPDEST PUSH2 0x2F0C JUMP JUMPDEST PUSH1 0x40 MLOAD PUSH2 0xAEA SWAP2 SWAP1 PUSH2 0x420A JUMP JUMPDEST PUSH1 0x40 MLOAD DUP1 SWAP2 SUB SWAP1 RETURN JUMPDEST CALLVALUE DUP1 ISZERO PUSH2 0xAFF JUMPI PUSH1 0x0 DUP1 REVERT JUMPDEST POP PUSH2 0xB1A PUSH1 0x4 DUP1 CALLDATASIZE SUB DUP2 ADD SWAP1 PUSH2 0xB15 SWAP2 SWAP1 PUSH2 0x47D5 JUMP JUMPDEST PUSH2 0x2F49 JUMP JUMPDEST STOP JUMPDEST CALLVALUE DUP1 ISZERO PUSH2 0xB28 JUMPI PUSH1 0x0 DUP1 REVERT JUMPDEST POP PUSH2 0xB43 PUSH1 0x4 DUP1 CALLDATASIZE SUB DUP2 ADD SWAP1 PUSH2 0xB3E SWAP2 SWAP1 PUSH2 0x3E4D JUMP JUMPDEST PUSH2 0x3018 JUMP JUMPDEST PUSH1 0x40 MLOAD PUSH2 0xB50 SWAP2 SWAP1 PUSH2 0x420A JUMP JUMPDEST PUSH1 0x40 MLOAD DUP1 SWAP2 SUB SWAP1 RETURN JUMPDEST CALLVALUE DUP1 ISZERO PUSH2 0xB65 JUMPI PUSH1 0x0 DUP1 REVERT JUMPDEST POP PUSH2 0xB80 PUSH1 0x4 DUP1 CALLDATASIZE SUB DUP2 ADD SWAP1 PUSH2 0xB7B SWAP2 SWAP1 PUSH2 0x40BF JUMP JUMPDEST PUSH2 0x3055 JUMP JUMPDEST PUSH1 0x40 MLOAD PUSH2 0xB8D SWAP2 SWAP1 PUSH2 0x40FB JUMP JUMPDEST PUSH1 0x40 MLOAD DUP1 SWAP2 SUB SWAP1 RETURN JUMPDEST CALLVALUE DUP1 ISZERO PUSH2 0xBA2 JUMPI PUSH1 0x0 DUP1 REVERT JUMPDEST POP PUSH2 0xBAB PUSH2 0x3075 JUMP JUMPDEST STOP JUMPDEST PUSH2 0xBB5 PUSH2 0x31EC JUMP JUMPDEST PUSH1 0x2 DUP1 SLOAD SWAP1 PUSH2 0x100 EXP SWAP1 DIV PUSH16 0xFFFFFFFFFFFFFFFFFFFFFFFFFFFFFFFF AND PUSH16 0xFFFFFFFFFFFFFFFFFFFFFFFFFFFFFFFF AND CALLVALUE EQ PUSH2 0xC25 JUMPI PUSH1 0x40 MLOAD PUSH32 0x8C379A000000000000000000000000000000000000000000000000000000000 DUP2 MSTORE PUSH1 0x4 ADD PUSH2 0xC1C SWAP1 PUSH2 0x4872 JUMP JUMPDEST PUSH1 0x40 MLOAD DUP1 SWAP2 SUB SWAP1 REVERT JUMPDEST PUSH1 0x0 PUSH1 0x4 PUSH1 0x0 DUP6 DUP2 MSTORE PUSH1 0x20 ADD SWAP1 DUP2 MSTORE PUSH1 0x20 ADD PUSH1 0x0 KECCAK256 PUSH1 0x0 SWAP1 SLOAD SWAP1 PUSH2 0x100 EXP SWAP1 DIV PUSH20 0xFFFFFFFFFFFFFFFFFFFFFFFFFFFFFFFFFFFFFFFF AND SWAP1 POP PUSH1 0x0 PUSH20 0xFFFFFFFFFFFFFFFFFFFFFFFFFFFFFFFFFFFFFFFF AND DUP2 PUSH20 0xFFFFFFFFFFFFFFFFFFFFFFFFFFFFFFFFFFFFFFFF AND EQ ISZERO PUSH2 0xCCD JUMPI PUSH1 0x40 MLOAD PUSH32 0x8C379A000000000000000000000000000000000000000000000000000000000 DUP2 MSTORE PUSH1 0x4 ADD PUSH2 0xCC4 SWAP1 PUSH2 0x48DE JUMP JUMPDEST PUSH1 0x40 MLOAD DUP1 SWAP2 SUB SWAP1 REVERT JUMPDEST PUSH1 0x0 PUSH1 0x3 PUSH1 0x0 DUP8 PUSH1 0xFF AND PUSH1 0xFF AND DUP2 MSTORE PUSH1 0x20 ADD SWAP1 DUP2 MSTORE PUSH1 0x20 ADD PUSH1 0x0 KECCAK256 PUSH1 0x0 DUP2 DUP2 SWAP1 SLOAD SWAP1 PUSH2 0x100 EXP SWAP1 DIV PUSH8 0xFFFFFFFFFFFFFFFF AND PUSH2 0xD08 SWAP1 PUSH2 0x492D JUMP JUMPDEST SWAP2 SWAP1 PUSH2 0x100 EXP DUP2 SLOAD DUP2 PUSH8 0xFFFFFFFFFFFFFFFF MUL NOT AND SWAP1 DUP4 PUSH8 0xFFFFFFFFFFFFFFFF AND MUL OR SWAP1 SSTORE SWAP1 POP PUSH1 0x0 PUSH2 0xD39 PUSH2 0x323C JUMP JUMPDEST SWAP1 POP PUSH1 0x0 DUP4 SWAP1 POP PUSH1 0x0 DUP2 PUSH20 0xFFFFFFFFFFFFFFFFFFFFFFFFFFFFFFFFFFFFFFFF AND PUSH4 0xB07E54BB DUP10 DUP6 DUP11 DUP11 PUSH1 0x40 MLOAD DUP6 PUSH4 0xFFFFFFFF AND PUSH1 0xE0 SHL DUP2 MSTORE PUSH1 0x4 ADD PUSH2 0xD81 SWAP5 SWAP4 SWAP3 SWAP2 SWAP1 PUSH2 0x499C JUMP JUMPDEST PUSH1 0x0 PUSH1 0x40 MLOAD DUP1 DUP4 SUB DUP2 PUSH1 0x0 DUP8 GAS CALL ISZERO DUP1 ISZERO PUSH2 0xDA0 JUMPI RETURNDATASIZE PUSH1 0x0 DUP1 RETURNDATACOPY RETURNDATASIZE PUSH1 0x0 REVERT JUMPDEST POP POP POP POP PUSH1 0x40 MLOAD RETURNDATASIZE PUSH1 0x0 DUP3 RETURNDATACOPY RETURNDATASIZE PUSH1 0x1F NOT PUSH1 0x1F DUP3 ADD AND DUP3 ADD DUP1 PUSH1 0x40 MSTORE POP DUP2 ADD SWAP1 PUSH2 0xDC9 SWAP2 SWAP1 PUSH2 0x4A7F JUMP JUMPDEST SWAP1 POP DUP3 PUSH20 0xFFFFFFFFFFFFFFFFFFFFFFFFFFFFFFFFFFFFFFFF AND PUSH32 0x17BC3181E17A9620A479C24E6C606E474BA84FC036877B768926872E8CD0E11F DUP11 DUP11 DUP8 DUP12 DUP12 DUP8 PUSH1 0x40 MLOAD PUSH2 0xE1B SWAP7 SWAP6 SWAP5 SWAP4 SWAP3 SWAP2 SWAP1 PUSH2 0x4B0C JUMP JUMPDEST PUSH1 0x40 MLOAD DUP1 SWAP2 SUB SWAP1 LOG2 POP POP POP POP POP POP POP POP POP JUMP JUMPDEST DUP2 PUSH1 0x6 PUSH1 0x0 DUP4 DUP2 MSTORE PUSH1 0x20 ADD SWAP1 DUP2 MSTORE PUSH1 0x20 ADD PUSH1 0x0 KECCAK256 PUSH1 0x0 PUSH2 0x100 EXP DUP2 SLOAD DUP2 PUSH20 0xFFFFFFFFFFFFFFFFFFFFFFFFFFFFFFFFFFFFFFFF MUL NOT AND SWAP1 DUP4 PUSH20 0xFFFFFFFFFFFFFFFFFFFFFFFFFFFFFFFFFFFFFFFF AND MUL OR SWAP1 SSTORE POP POP POP JUMP JUMPDEST DUP2 PUSH1 0x5 PUSH1 0x0 DUP4 DUP2 MSTORE PUSH1 0x20 ADD SWAP1 DUP2 MSTORE PUSH1 0x20 ADD PUSH1 0x0 KECCAK256 PUSH1 0x0 PUSH2 0x100 EXP DUP2 SLOAD DUP2 PUSH20 0xFFFFFFFFFFFFFFFFFFFFFFFFFFFFFFFFFFFFFFFF MUL NOT AND SWAP1 DUP4 PUSH20 0xFFFFFFFFFFFFFFFFFFFFFFFFFFFFFFFFFFFFFFFF AND MUL OR SWAP1 SSTORE POP POP POP JUMP JUMPDEST PUSH2 0xEE2 PUSH2 0x32B7 JUMP JUMPDEST PUSH1 0x0 DUP4 PUSH1 0xFF AND PUSH1 0x8 DUP5 PUSH8 0xFFFFFFFFFFFFFFFF AND PUSH9 0xFFFFFFFFFFFFFFFFFF AND SWAP1 SHL OR SWAP1 POP PUSH1 0x0 PUSH1 0x8 PUSH1 0x0 DUP4 PUSH9 0xFFFFFFFFFFFFFFFFFF AND PUSH9 0xFFFFFFFFFFFFFFFFFF AND DUP2 MSTORE PUSH1 0x20 ADD SWAP1 DUP2 MSTORE PUSH1 0x20 ADD PUSH1 0x0 KECCAK256 PUSH1 0x0 DUP5 DUP2 MSTORE PUSH1 0x20 ADD SWAP1 DUP2 MSTORE PUSH1 0x20 ADD PUSH1 0x0 KECCAK256 PUSH1 0x40 MLOAD DUP1 PUSH1 0x80 ADD PUSH1 0x40 MSTORE SWAP1 DUP2 PUSH1 0x0 DUP3 ADD PUSH1 0x0 SWAP1 SLOAD SWAP1 PUSH2 0x100 EXP SWAP1 DIV PUSH1 0xFF AND PUSH1 0x4 DUP2 GT ISZERO PUSH2 0xF71 JUMPI PUSH2 0xF70 PUSH2 0x4363 JUMP JUMPDEST JUMPDEST PUSH1 0x4 DUP2 GT ISZERO PUSH2 0xF83 JUMPI PUSH2 0xF82 PUSH2 0x4363 JUMP JUMPDEST JUMPDEST DUP2 MSTORE PUSH1 0x20 ADD PUSH1 0x0 DUP3 ADD PUSH1 0x1 SWAP1 SLOAD SWAP1 PUSH2 0x100 EXP SWAP1 DIV PUSH25 0xFFFFFFFFFFFFFFFFFFFFFFFFFFFFFFFFFFFFFFFFFFFFFFFFFF AND PUSH25 0xFFFFFFFFFFFFFFFFFFFFFFFFFFFFFFFFFFFFFFFFFFFFFFFFFF AND PUSH25 0xFFFFFFFFFFFFFFFFFFFFFFFFFFFFFFFFFFFFFFFFFFFFFFFFFF AND DUP2 MSTORE PUSH1 0x20 ADD PUSH1 0x0 DUP3 ADD PUSH1 0x1A SWAP1 SLOAD SWAP1 PUSH2 0x100 EXP SWAP1 DIV PUSH1 0xFF AND PUSH1 0xFF AND PUSH1 0xFF AND DUP2 MSTORE PUSH1 0x20 ADD PUSH1 0x0 DUP3 ADD PUSH1 0x1B SWAP1 SLOAD SWAP1 PUSH2 0x100 EXP SWAP1 DIV PUSH5 0xFFFFFFFFFF AND PUSH5 0xFFFFFFFFFF AND PUSH5 0xFFFFFFFFFF AND DUP2 MSTORE POP POP SWAP1 POP PUSH1 0x0 DUP2 PUSH1 0x0 ADD MLOAD SWAP1 POP PUSH1 0x1 PUSH1 0x4 DUP2 GT ISZERO PUSH2 0x1051 JUMPI PUSH2 0x1050 PUSH2 0x4363 JUMP JUMPDEST JUMPDEST DUP2 PUSH1 0x4 DUP2 GT ISZERO PUSH2 0x1064 JUMPI PUSH2 0x1063 PUSH2 0x4363 JUMP JUMPDEST JUMPDEST EQ DUP1 PUSH2 0x1094 JUMPI POP PUSH1 0x2 PUSH1 0x4 DUP2 GT ISZERO PUSH2 0x107F JUMPI PUSH2 0x107E PUSH2 0x4363 JUMP JUMPDEST JUMPDEST DUP2 PUSH1 0x4 DUP2 GT ISZERO PUSH2 0x1092 JUMPI PUSH2 0x1091 PUSH2 0x4363 JUMP JUMPDEST JUMPDEST EQ JUMPDEST PUSH2 0x10D3 JUMPI PUSH1 0x40 MLOAD PUSH32 0x8C379A000000000000000000000000000000000000000000000000000000000 DUP2 MSTORE PUSH1 0x4 ADD PUSH2 0x10CA SWAP1 PUSH2 0x4BBB JUMP JUMPDEST PUSH1 0x40 MLOAD DUP1 SWAP2 SUB SWAP1 REVERT JUMPDEST PUSH1 0x2 PUSH1 0x12 SWAP1 SLOAD SWAP1 PUSH2 0x100 EXP SWAP1 DIV PUSH5 0xFFFFFFFFFF AND PUSH5 0xFFFFFFFFFF AND PUSH2 0x1103 NUMBER DUP5 PUSH1 0x60 ADD MLOAD PUSH5 0xFFFFFFFFFF AND PUSH2 0x3343 JUMP JUMPDEST PUSH5 0xFFFFFFFFFF AND GT PUSH2 0x114A JUMPI PUSH1 0x40 MLOAD PUSH32 0x8C379A000000000000000000000000000000000000000000000000000000000 DUP2 MSTORE PUSH1 0x4 ADD PUSH2 0x1141 SWAP1 PUSH2 0x4C27 JUMP JUMPDEST PUSH1 0x40 MLOAD DUP1 SWAP2 SUB SWAP1 REVERT JUMPDEST PUSH1 0x4 DUP3 PUSH1 0x0 ADD SWAP1 PUSH1 0x4 DUP2 GT ISZERO PUSH2 0x1163 JUMPI PUSH2 0x1162 PUSH2 0x4363 JUMP JUMPDEST JUMPDEST SWAP1 DUP2 PUSH1 0x4 DUP2 GT ISZERO PUSH2 0x1177 JUMPI PUSH2 0x1176 PUSH2 0x4363 JUMP JUMPDEST JUMPDEST DUP2 MSTORE POP POP DUP2 PUSH1 0x8 PUSH1 0x0 DUP6 PUSH9 0xFFFFFFFFFFFFFFFFFF AND PUSH9 0xFFFFFFFFFFFFFFFFFF AND DUP2 MSTORE PUSH1 0x20 ADD SWAP1 DUP2 MSTORE PUSH1 0x20 ADD PUSH1 0x0 KECCAK256 PUSH1 0x0 DUP7 DUP2 MSTORE PUSH1 0x20 ADD SWAP1 DUP2 MSTORE PUSH1 0x20 ADD PUSH1 0x0 KECCAK256 PUSH1 0x0 DUP3 ADD MLOAD DUP2 PUSH1 0x0 ADD PUSH1 0x0 PUSH2 0x100 EXP DUP2 SLOAD DUP2 PUSH1 0xFF MUL NOT AND SWAP1 DUP4 PUSH1 0x4 DUP2 GT ISZERO PUSH2 0x11E1 JUMPI PUSH2 0x11E0 PUSH2 0x4363 JUMP JUMPDEST JUMPDEST MUL OR SWAP1 SSTORE POP PUSH1 0x20 DUP3 ADD MLOAD DUP2 PUSH1 0x0 ADD PUSH1 0x1 PUSH2 0x100 EXP DUP2 SLOAD DUP2 PUSH25 0xFFFFFFFFFFFFFFFFFFFFFFFFFFFFFFFFFFFFFFFFFFFFFFFFFF MUL NOT AND SWAP1 DUP4 PUSH25 0xFFFFFFFFFFFFFFFFFFFFFFFFFFFFFFFFFFFFFFFFFFFFFFFFFF AND MUL OR SWAP1 SSTORE POP PUSH1 0x40 DUP3 ADD MLOAD DUP2 PUSH1 0x0 ADD PUSH1 0x1A PUSH2 0x100 EXP DUP2 SLOAD DUP2 PUSH1 0xFF MUL NOT AND SWAP1 DUP4 PUSH1 0xFF AND MUL OR SWAP1 SSTORE POP PUSH1 0x60 DUP3 ADD MLOAD DUP2 PUSH1 0x0 ADD PUSH1 0x1B PUSH2 0x100 EXP DUP2 SLOAD DUP2 PUSH5 0xFFFFFFFFFF MUL NOT AND SWAP1 DUP4 PUSH5 0xFFFFFFFFFF AND MUL OR SWAP1 SSTORE POP SWAP1 POP POP PUSH32 0x968626A768E76BA1363EFE44E322A6C4900C5F084E0B45F35E294DFDDAA9E0D5 DUP7 DUP7 PUSH1 0x4 DUP8 PUSH1 0x40 MLOAD PUSH2 0x12BA SWAP5 SWAP4 SWAP3 SWAP2 SWAP1 PUSH2 0x4C56 JUMP JUMPDEST PUSH1 0x40 MLOAD DUP1 SWAP2 SUB SWAP1 LOG1 POP POP POP POP POP POP JUMP JUMPDEST PUSH1 0x0 PUSH1 0x6 PUSH1 0x0 DUP4 DUP2 MSTORE PUSH1 0x20 ADD SWAP1 DUP2 MSTORE PUSH1 0x20 ADD PUSH1 0x0 KECCAK256 PUSH1 0x0 SWAP1 SLOAD SWAP1 PUSH2 0x100 EXP SWAP1 DIV PUSH20 0xFFFFFFFFFFFFFFFFFFFFFFFFFFFFFFFFFFFFFFFF AND SWAP1 POP PUSH1 0x0 PUSH1 0x5 PUSH1 0x0 DUP5 DUP2 MSTORE PUSH1 0x20 ADD SWAP1 DUP2 MSTORE PUSH1 0x20 ADD PUSH1 0x0 KECCAK256 PUSH1 0x0 SWAP1 SLOAD SWAP1 PUSH2 0x100 EXP SWAP1 DIV PUSH20 0xFFFFFFFFFFFFFFFFFFFFFFFFFFFFFFFFFFFFFFFF AND SWAP1 POP PUSH1 0x0 PUSH20 0xFFFFFFFFFFFFFFFFFFFFFFFFFFFFFFFFFFFFFFFF AND DUP3 PUSH20 0xFFFFFFFFFFFFFFFFFFFFFFFFFFFFFFFFFFFFFFFF AND EQ PUSH2 0x1417 JUMPI DUP2 PUSH20 0xFFFFFFFFFFFFFFFFFFFFFFFFFFFFFFFFFFFFFFFF AND PUSH4 0xA1EB221A DUP7 PUSH1 0x40 MLOAD DUP3 PUSH4 0xFFFFFFFF AND PUSH1 0xE0 SHL DUP2 MSTORE PUSH1 0x4 ADD PUSH2 0x13A7 SWAP2 SWAP1 PUSH2 0x420A JUMP JUMPDEST PUSH1 0x0 PUSH1 0x40 MLOAD DUP1 DUP4 SUB DUP2 PUSH1 0x0 DUP8 DUP1 EXTCODESIZE ISZERO DUP1 ISZERO PUSH2 0x13C1 JUMPI PUSH1 0x0 DUP1 REVERT JUMPDEST POP GAS CALL ISZERO DUP1 ISZERO PUSH2 0x13D5 JUMPI RETURNDATASIZE PUSH1 0x0 DUP1 RETURNDATACOPY RETURNDATASIZE PUSH1 0x0 REVERT JUMPDEST POP POP POP POP PUSH32 0xB4A1DDA2B824D34B537AA735F1656F84F5DC9CEA8C6BCAF893C67DD04107A515 DUP3 DUP7 PUSH1 0x40 MLOAD PUSH2 0x140A SWAP3 SWAP2 SWAP1 PUSH2 0x4C9B JUMP JUMPDEST PUSH1 0x40 MLOAD DUP1 SWAP2 SUB SWAP1 LOG1 PUSH2 0x14BE JUMP JUMPDEST DUP1 PUSH20 0xFFFFFFFFFFFFFFFFFFFFFFFFFFFFFFFFFFFFFFFF AND PUSH4 0x7E207F21 DUP7 DUP7 PUSH1 0x40 MLOAD DUP4 PUSH4 0xFFFFFFFF AND PUSH1 0xE0 SHL DUP2 MSTORE PUSH1 0x4 ADD PUSH2 0x1452 SWAP3 SWAP2 SWAP1 PUSH2 0x4CC4 JUMP JUMPDEST PUSH1 0x0 PUSH1 0x40 MLOAD DUP1 DUP4 SUB DUP2 PUSH1 0x0 DUP8 DUP1 EXTCODESIZE ISZERO DUP1 ISZERO PUSH2 0x146C JUMPI PUSH1 0x0 DUP1 REVERT JUMPDEST POP GAS CALL ISZERO DUP1 ISZERO PUSH2 0x1480 JUMPI RETURNDATASIZE PUSH1 0x0 DUP1 RETURNDATACOPY RETURNDATASIZE PUSH1 0x0 REVERT JUMPDEST POP POP POP POP PUSH32 0x598A7D14269ACE307701BE5B05BD8C354E4E905214B56B8A64B34D9B6E8E06BF DUP2 DUP7 PUSH1 0x40 MLOAD PUSH2 0x14B5 SWAP3 SWAP2 SWAP1 PUSH2 0x4C9B JUMP JUMPDEST PUSH1 0x40 MLOAD DUP1 SWAP2 SUB SWAP1 LOG1 JUMPDEST POP POP POP POP POP JUMP JUMPDEST PUSH2 0x14CD PUSH2 0x338D JUMP JUMPDEST PUSH2 0x14D5 PUSH2 0x31EC JUMP JUMPDEST PUSH1 0x0 PUSH1 0x4 PUSH1 0x0 DUP5 DUP2 MSTORE PUSH1 0x20 ADD SWAP1 DUP2 MSTORE PUSH1 0x20 ADD PUSH1 0x0 KECCAK256 PUSH1 0x0 SWAP1 SLOAD SWAP1 PUSH2 0x100 EXP SWAP1 DIV PUSH20 0xFFFFFFFFFFFFFFFFFFFFFFFFFFFFFFFFFFFFFFFF AND SWAP1 POP PUSH1 0x0 DUP8 PUSH1 0xFF AND PUSH1 0x8 DUP9 PUSH8 0xFFFFFFFFFFFFFFFF AND PUSH9 0xFFFFFFFFFFFFFFFFFF AND SWAP1 SHL OR SWAP1 POP PUSH1 0x0 DUP3 DUP8 DUP8 PUSH1 0x40 MLOAD PUSH1 0x20 ADD PUSH2 0x1547 SWAP4 SWAP3 SWAP2 SWAP1 PUSH2 0x4D65 JUMP JUMPDEST PUSH1 0x40 MLOAD PUSH1 0x20 DUP2 DUP4 SUB SUB DUP2 MSTORE SWAP1 PUSH1 0x40 MSTORE DUP1 MLOAD SWAP1 PUSH1 0x20 ADD KECCAK256 SWAP1 POP PUSH1 0x0 PUSH1 0x8 PUSH1 0x0 DUP5 PUSH9 0xFFFFFFFFFFFFFFFFFF AND PUSH9 0xFFFFFFFFFFFFFFFFFF AND DUP2 MSTORE PUSH1 0x20 ADD SWAP1 DUP2 MSTORE PUSH1 0x20 ADD PUSH1 0x0 KECCAK256 PUSH1 0x0 DUP4 DUP2 MSTORE PUSH1 0x20 ADD SWAP1 DUP2 MSTORE PUSH1 0x20 ADD PUSH1 0x0 KECCAK256 SWAP1 POP PUSH1 0x2 PUSH1 0x4 DUP2 GT ISZERO PUSH2 0x15B1 JUMPI PUSH2 0x15B0 PUSH2 0x4363 JUMP JUMPDEST JUMPDEST DUP2 PUSH1 0x0 ADD PUSH1 0x0 SWAP1 SLOAD SWAP1 PUSH2 0x100 EXP SWAP1 DIV PUSH1 0xFF AND PUSH1 0x4 DUP2 GT ISZERO PUSH2 0x15D5 JUMPI PUSH2 0x15D4 PUSH2 0x4363 JUMP JUMPDEST JUMPDEST EQ PUSH2 0x1615 JUMPI PUSH1 0x40 MLOAD PUSH32 0x8C379A000000000000000000000000000000000000000000000000000000000 DUP2 MSTORE PUSH1 0x4 ADD PUSH2 0x160C SWAP1 PUSH2 0x4DDB JUMP JUMPDEST PUSH1 0x40 MLOAD DUP1 SWAP2 SUB SWAP1 REVERT JUMPDEST PUSH1 0x3 DUP2 PUSH1 0x0 ADD PUSH1 0x0 PUSH2 0x100 EXP DUP2 SLOAD DUP2 PUSH1 0xFF MUL NOT AND SWAP1 DUP4 PUSH1 0x4 DUP2 GT ISZERO PUSH2 0x163D JUMPI PUSH2 0x163C PUSH2 0x4363 JUMP JUMPDEST JUMPDEST MUL OR SWAP1 SSTORE POP PUSH1 0x0 DUP5 SWAP1 POP DUP6 ISZERO PUSH2 0x16C1 JUMPI DUP1 PUSH20 0xFFFFFFFFFFFFFFFFFFFFFFFFFFFFFFFFFFFFFFFF AND PUSH4 0xE248CFF2 DUP9 DUP12 DUP12 PUSH1 0x40 MLOAD DUP5 PUSH4 0xFFFFFFFF AND PUSH1 0xE0 SHL DUP2 MSTORE PUSH1 0x4 ADD PUSH2 0x168A SWAP4 SWAP3 SWAP2 SWAP1 PUSH2 0x4DFB JUMP JUMPDEST PUSH1 0x0 PUSH1 0x40 MLOAD DUP1 DUP4 SUB DUP2 PUSH1 0x0 DUP8 DUP1 EXTCODESIZE ISZERO DUP1 ISZERO PUSH2 0x16A4 JUMPI PUSH1 0x0 DUP1 REVERT JUMPDEST POP GAS CALL ISZERO DUP1 ISZERO PUSH2 0x16B8 JUMPI RETURNDATASIZE PUSH1 0x0 DUP1 RETURNDATACOPY RETURNDATASIZE PUSH1 0x0 REVERT JUMPDEST POP POP POP POP PUSH2 0x17CF JUMP JUMPDEST DUP1 PUSH20 0xFFFFFFFFFFFFFFFFFFFFFFFFFFFFFFFFFFFFFFFF AND PUSH4 0xE248CFF2 DUP9 DUP12 DUP12 PUSH1 0x40 MLOAD DUP5 PUSH4 0xFFFFFFFF AND PUSH1 0xE0 SHL DUP2 MSTORE PUSH1 0x4 ADD PUSH2 0x16FE SWAP4 SWAP3 SWAP2 SWAP1 PUSH2 0x4DFB JUMP JUMPDEST PUSH1 0x0 PUSH1 0x40 MLOAD DUP1 DUP4 SUB DUP2 PUSH1 0x0 DUP8 DUP1 EXTCODESIZE ISZERO DUP1 ISZERO PUSH2 0x1718 JUMPI PUSH1 0x0 DUP1 REVERT JUMPDEST POP GAS CALL SWAP3 POP POP POP DUP1 ISZERO PUSH2 0x1729 JUMPI POP PUSH1 0x1 JUMPDEST PUSH2 0x17CE JUMPI RETURNDATASIZE DUP1 PUSH1 0x0 DUP2 EQ PUSH2 0x1759 JUMPI PUSH1 0x40 MLOAD SWAP2 POP PUSH1 0x1F NOT PUSH1 0x3F RETURNDATASIZE ADD AND DUP3 ADD PUSH1 0x40 MSTORE RETURNDATASIZE DUP3 MSTORE RETURNDATASIZE PUSH1 0x0 PUSH1 0x20 DUP5 ADD RETURNDATACOPY PUSH2 0x175E JUMP JUMPDEST PUSH1 0x60 SWAP2 POP JUMPDEST POP PUSH1 0x2 DUP4 PUSH1 0x0 ADD PUSH1 0x0 PUSH2 0x100 EXP DUP2 SLOAD DUP2 PUSH1 0xFF MUL NOT AND SWAP1 DUP4 PUSH1 0x4 DUP2 GT ISZERO PUSH2 0x1787 JUMPI PUSH2 0x1786 PUSH2 0x4363 JUMP JUMPDEST JUMPDEST MUL OR SWAP1 SSTORE POP PUSH32 0xBD37C1F0D53BB2F33FE4C2104DE272FCDEB4D2FEF3ACDBF1E4DDC3D6833CA376 DUP2 PUSH1 0x40 MLOAD PUSH2 0x17BB SWAP2 SWAP1 PUSH2 0x4E2D JUMP JUMPDEST PUSH1 0x40 MLOAD DUP1 SWAP2 SUB SWAP1 LOG1 POP POP POP POP POP POP PUSH2 0x18AE JUMP JUMPDEST JUMPDEST PUSH1 0x0 DUP1 PUSH1 0x60 DUP12 DUP12 DUP2 ADD SWAP1 PUSH2 0x17E3 SWAP2 SWAP1 PUSH2 0x4E4F JUMP JUMPDEST DUP1 SWAP4 POP DUP2 SWAP5 POP POP POP DUP12 DUP12 PUSH1 0x40 SWAP1 DUP5 PUSH1 0x40 PUSH2 0x17FD SWAP2 SWAP1 PUSH2 0x4E8F JUMP JUMPDEST SWAP3 PUSH2 0x180A SWAP4 SWAP3 SWAP2 SWAP1 PUSH2 0x4EEF JUMP JUMPDEST DUP1 DUP1 PUSH1 0x1F ADD PUSH1 0x20 DUP1 SWAP2 DIV MUL PUSH1 0x20 ADD PUSH1 0x40 MLOAD SWAP1 DUP2 ADD PUSH1 0x40 MSTORE DUP1 SWAP4 SWAP3 SWAP2 SWAP1 DUP2 DUP2 MSTORE PUSH1 0x20 ADD DUP4 DUP4 DUP1 DUP3 DUP5 CALLDATACOPY PUSH1 0x0 DUP2 DUP5 ADD MSTORE PUSH1 0x1F NOT PUSH1 0x1F DUP3 ADD AND SWAP1 POP DUP1 DUP4 ADD SWAP3 POP POP POP POP POP POP POP SWAP1 POP PUSH1 0x0 PUSH1 0x20 DUP3 ADD MLOAD SWAP1 POP PUSH2 0x1866 DUP2 PUSH1 0x60 SHR DUP6 DUP14 PUSH2 0x12CA JUMP JUMPDEST PUSH32 0x968626A768E76BA1363EFE44E322A6C4900C5F084E0B45F35E294DFDDAA9E0D5 DUP16 DUP16 PUSH1 0x3 DUP11 PUSH1 0x40 MLOAD PUSH2 0x189C SWAP5 SWAP4 SWAP3 SWAP2 SWAP1 PUSH2 0x4C56 JUMP JUMPDEST PUSH1 0x40 MLOAD DUP1 SWAP2 SUB SWAP1 LOG1 POP POP POP POP POP POP POP POP POP JUMPDEST POP POP POP POP POP POP JUMP JUMPDEST PUSH1 0x0 PUSH1 0x1 PUSH1 0x0 DUP4 DUP2 MSTORE PUSH1 0x20 ADD SWAP1 DUP2 MSTORE PUSH1 0x20 ADD PUSH1 0x0 KECCAK256 PUSH1 0x2 ADD SLOAD SWAP1 POP SWAP2 SWAP1 POP JUMP JUMPDEST PUSH2 0x18FD PUSH1 0x1 PUSH1 0x0 DUP5 DUP2 MSTORE PUSH1 0x20 ADD SWAP1 DUP2 MSTORE PUSH1 0x20 ADD PUSH1 0x0 KECCAK256 PUSH1 0x2 ADD SLOAD PUSH2 0x18F8 PUSH2 0x323C JUMP JUMPDEST PUSH2 0x2080 JUMP JUMPDEST PUSH2 0x193C JUMPI PUSH1 0x40 MLOAD PUSH32 0x8C379A000000000000000000000000000000000000000000000000000000000 DUP2 MSTORE PUSH1 0x4 ADD PUSH2 0x1933 SWAP1 PUSH2 0x4F9C JUMP JUMPDEST PUSH1 0x40 MLOAD DUP1 SWAP2 SUB SWAP1 REVERT JUMPDEST PUSH2 0x1946 DUP3 DUP3 PUSH2 0x33FF JUMP JUMPDEST POP POP JUMP JUMPDEST PUSH2 0x1952 PUSH2 0x323C JUMP JUMPDEST PUSH20 0xFFFFFFFFFFFFFFFFFFFFFFFFFFFFFFFFFFFFFFFF AND DUP2 PUSH20 0xFFFFFFFFFFFFFFFFFFFFFFFFFFFFFFFFFFFFFFFF AND EQ PUSH2 0x19BF JUMPI PUSH1 0x40 MLOAD PUSH32 0x8C379A000000000000000000000000000000000000000000000000000000000 DUP2 MSTORE PUSH1 0x4 ADD PUSH2 0x19B6 SWAP1 PUSH2 0x502E JUMP JUMPDEST PUSH1 0x40 MLOAD DUP1 SWAP2 SUB SWAP1 REVERT JUMPDEST PUSH2 0x19C9 DUP3 DUP3 PUSH2 0x3493 JUMP JUMPDEST POP POP JUMP JUMPDEST PUSH2 0x19D5 PUSH2 0x3527 JUMP JUMPDEST PUSH1 0x0 JUMPDEST DUP5 DUP5 SWAP1 POP DUP2 LT ISZERO PUSH2 0x1A7D JUMPI DUP5 DUP5 DUP3 DUP2 DUP2 LT PUSH2 0x19F6 JUMPI PUSH2 0x19F5 PUSH2 0x504E JUMP JUMPDEST JUMPDEST SWAP1 POP PUSH1 0x20 MUL ADD PUSH1 0x20 DUP2 ADD SWAP1 PUSH2 0x1A0B SWAP2 SWAP1 PUSH2 0x50BB JUMP JUMPDEST PUSH20 0xFFFFFFFFFFFFFFFFFFFFFFFFFFFFFFFFFFFFFFFF AND PUSH2 0x8FC DUP5 DUP5 DUP5 DUP2 DUP2 LT PUSH2 0x1A37 JUMPI PUSH2 0x1A36 PUSH2 0x504E JUMP JUMPDEST JUMPDEST SWAP1 POP PUSH1 0x20 MUL ADD CALLDATALOAD SWAP1 DUP2 ISZERO MUL SWAP1 PUSH1 0x40 MLOAD PUSH1 0x0 PUSH1 0x40 MLOAD DUP1 DUP4 SUB DUP2 DUP6 DUP9 DUP9 CALL SWAP4 POP POP POP POP ISZERO DUP1 ISZERO PUSH2 0x1A69 JUMPI RETURNDATASIZE PUSH1 0x0 DUP1 RETURNDATACOPY RETURNDATASIZE PUSH1 0x0 REVERT JUMPDEST POP DUP1 DUP1 PUSH2 0x1A75 SWAP1 PUSH2 0x50E8 JUMP JUMPDEST SWAP2 POP POP PUSH2 0x19D8 JUMP JUMPDEST POP POP POP POP POP JUMP JUMPDEST PUSH1 0x3 PUSH1 0x20 MSTORE DUP1 PUSH1 0x0 MSTORE PUSH1 0x40 PUSH1 0x0 KECCAK256 PUSH1 0x0 SWAP2 POP SLOAD SWAP1 PUSH2 0x100 EXP SWAP1 DIV PUSH8 0xFFFFFFFFFFFFFFFF AND DUP2 JUMP JUMPDEST PUSH2 0x1AB3 PUSH2 0x3527 JUMP JUMPDEST PUSH2 0x1ABC DUP2 PUSH2 0x308F JUMP JUMPDEST PUSH1 0x2 PUSH1 0x1 PUSH2 0x100 EXP DUP2 SLOAD DUP2 PUSH1 0xFF MUL NOT AND SWAP1 DUP4 PUSH1 0xFF AND MUL OR SWAP1 SSTORE POP PUSH32 0xA20D6B84CD798A24038BE305EFF8A45CA82EF54A2AA2082005D8E14C0A4746C8 DUP2 PUSH1 0x40 MLOAD PUSH2 0x1B05 SWAP2 SWAP1 PUSH2 0x40A4 JUMP JUMPDEST PUSH1 0x40 MLOAD DUP1 SWAP2 SUB SWAP1 LOG1 POP JUMP JUMPDEST PUSH1 0x0 PUSH1 0x1 PUSH1 0x0 DUP5 DUP2 MSTORE PUSH1 0x20 ADD SWAP1 DUP2 MSTORE PUSH1 0x20 ADD PUSH1 0x0 KECCAK256 PUSH1 0x0 ADD PUSH1 0x0 ADD PUSH1 0x1 ADD PUSH1 0x0 DUP4 PUSH20 0xFFFFFFFFFFFFFFFFFFFFFFFFFFFFFFFFFFFFFFFF AND PUSH1 0x0 SHL DUP2 MSTORE PUSH1 0x20 ADD SWAP1 DUP2 MSTORE PUSH1 0x20 ADD PUSH1 0x0 KECCAK256 SLOAD SWAP1 POP SWAP3 SWAP2 POP POP JUMP JUMPDEST PUSH1 0x0 PUSH2 0x1B8D PUSH32 0xE2B7FB3B832174769106DAEBCFD6D1970523240DDA11281102DB9363B83B0DC4 DUP4 PUSH2 0x2080 JUMP JUMPDEST SWAP1 POP SWAP2 SWAP1 POP JUMP JUMPDEST PUSH2 0x1B9C PUSH2 0x3527 JUMP JUMPDEST DUP6 PUSH1 0x4 PUSH1 0x0 DUP8 DUP2 MSTORE PUSH1 0x20 ADD SWAP1 DUP2 MSTORE PUSH1 0x20 ADD PUSH1 0x0 KECCAK256 PUSH1 0x0 PUSH2 0x100 EXP DUP2 SLOAD DUP2 PUSH20 0xFFFFFFFFFFFFFFFFFFFFFFFFFFFFFFFFFFFFFFFF MUL NOT AND SWAP1 DUP4 PUSH20 0xFFFFFFFFFFFFFFFFFFFFFFFFFFFFFFFFFFFFFFFF AND MUL OR SWAP1 SSTORE POP PUSH1 0x0 DUP7 SWAP1 POP DUP1 PUSH20 0xFFFFFFFFFFFFFFFFFFFFFFFFFFFFFFFFFFFFFFFF AND PUSH4 0xDE319D99 DUP8 DUP8 DUP8 DUP8 DUP8 PUSH1 0x40 MLOAD DUP7 PUSH4 0xFFFFFFFF AND PUSH1 0xE0 SHL DUP2 MSTORE PUSH1 0x4 ADD PUSH2 0x1C34 SWAP6 SWAP5 SWAP4 SWAP3 SWAP2 SWAP1 PUSH2 0x5140 JUMP JUMPDEST PUSH1 0x0 PUSH1 0x40 MLOAD DUP1 DUP4 SUB DUP2 PUSH1 0x0 DUP8 DUP1 EXTCODESIZE ISZERO DUP1 ISZERO PUSH2 0x1C4E JUMPI PUSH1 0x0 DUP1 REVERT JUMPDEST POP GAS CALL ISZERO DUP1 ISZERO PUSH2 0x1C62 JUMPI RETURNDATASIZE PUSH1 0x0 DUP1 RETURNDATACOPY RETURNDATASIZE PUSH1 0x0 REVERT JUMPDEST POP POP POP POP POP POP POP POP POP POP POP JUMP JUMPDEST PUSH1 0x0 DUP1 PUSH1 0x0 SWAP1 SLOAD SWAP1 PUSH2 0x100 EXP SWAP1 DIV PUSH1 0xFF AND SWAP1 POP SWAP1 JUMP JUMPDEST PUSH2 0x1C8D PUSH2 0x3527 JUMP JUMPDEST PUSH1 0x0 PUSH2 0x1C97 PUSH2 0x323C JUMP JUMPDEST SWAP1 POP DUP2 PUSH20 0xFFFFFFFFFFFFFFFFFFFFFFFFFFFFFFFFFFFFFFFF AND DUP2 PUSH20 0xFFFFFFFFFFFFFFFFFFFFFFFFFFFFFFFFFFFFFFFF AND EQ ISZERO PUSH2 0x1D08 JUMPI PUSH1 0x40 MLOAD PUSH32 0x8C379A000000000000000000000000000000000000000000000000000000000 DUP2 MSTORE PUSH1 0x4 ADD PUSH2 0x1CFF SWAP1 PUSH2 0x51DF JUMP JUMPDEST PUSH1 0x40 MLOAD DUP1 SWAP2 SUB SWAP1 REVERT JUMPDEST PUSH2 0x1D15 PUSH1 0x0 DUP1 SHL DUP4 PUSH2 0x18D6 JUMP JUMPDEST PUSH2 0x1D22 PUSH1 0x0 DUP1 SHL DUP3 PUSH2 0x194A JUMP JUMPDEST POP POP JUMP JUMPDEST PUSH1 0x6 PUSH1 0x20 MSTORE DUP1 PUSH1 0x0 MSTORE PUSH1 0x40 PUSH1 0x0 KECCAK256 PUSH1 0x0 SWAP2 POP SLOAD SWAP1 PUSH2 0x100 EXP SWAP1 DIV PUSH20 0xFFFFFFFFFFFFFFFFFFFFFFFFFFFFFFFFFFFFFFFF AND DUP2 JUMP JUMPDEST PUSH1 0x0 PUSH2 0x1E8F PUSH1 0x8 PUSH1 0x0 DUP7 PUSH9 0xFFFFFFFFFFFFFFFFFF AND PUSH9 0xFFFFFFFFFFFFFFFFFF AND DUP2 MSTORE PUSH1 0x20 ADD SWAP1 DUP2 MSTORE PUSH1 0x20 ADD PUSH1 0x0 KECCAK256 PUSH1 0x0 DUP6 DUP2 MSTORE PUSH1 0x20 ADD SWAP1 DUP2 MSTORE PUSH1 0x20 ADD PUSH1 0x0 KECCAK256 PUSH1 0x40 MLOAD DUP1 PUSH1 0x80 ADD PUSH1 0x40 MSTORE SWAP1 DUP2 PUSH1 0x0 DUP3 ADD PUSH1 0x0 SWAP1 SLOAD SWAP1 PUSH2 0x100 EXP SWAP1 DIV PUSH1 0xFF AND PUSH1 0x4 DUP2 GT ISZERO PUSH2 0x1DC8 JUMPI PUSH2 0x1DC7 PUSH2 0x4363 JUMP JUMPDEST JUMPDEST PUSH1 0x4 DUP2 GT ISZERO PUSH2 0x1DDA JUMPI PUSH2 0x1DD9 PUSH2 0x4363 JUMP JUMPDEST JUMPDEST DUP2 MSTORE PUSH1 0x20 ADD PUSH1 0x0 DUP3 ADD PUSH1 0x1 SWAP1 SLOAD SWAP1 PUSH2 0x100 EXP SWAP1 DIV PUSH25 0xFFFFFFFFFFFFFFFFFFFFFFFFFFFFFFFFFFFFFFFFFFFFFFFFFF AND PUSH25 0xFFFFFFFFFFFFFFFFFFFFFFFFFFFFFFFFFFFFFFFFFFFFFFFFFF AND PUSH25 0xFFFFFFFFFFFFFFFFFFFFFFFFFFFFFFFFFFFFFFFFFFFFFFFFFF AND DUP2 MSTORE PUSH1 0x20 ADD PUSH1 0x0 DUP3 ADD PUSH1 0x1A SWAP1 SLOAD SWAP1 PUSH2 0x100 EXP SWAP1 DIV PUSH1 0xFF AND PUSH1 0xFF AND PUSH1 0xFF AND DUP2 MSTORE PUSH1 0x20 ADD PUSH1 0x0 DUP3 ADD PUSH1 0x1B SWAP1 SLOAD SWAP1 PUSH2 0x100 EXP SWAP1 DIV PUSH5 0xFFFFFFFFFF AND PUSH5 0xFFFFFFFFFF AND PUSH5 0xFFFFFFFFFF AND DUP2 MSTORE POP POP DUP4 PUSH2 0x357C JUMP JUMPDEST SWAP1 POP SWAP4 SWAP3 POP POP POP JUMP JUMPDEST PUSH1 0x0 PUSH2 0x1EC3 PUSH32 0xE2B7FB3B832174769106DAEBCFD6D1970523240DDA11281102DB9363B83B0DC4 PUSH2 0x2C11 JUMP JUMPDEST SWAP1 POP SWAP1 JUMP JUMPDEST PUSH2 0x1ED0 PUSH2 0x3527 JUMP JUMPDEST PUSH2 0x1EE0 PUSH2 0x1EDB PUSH2 0x323C JUMP JUMPDEST PUSH2 0x35B2 JUMP JUMPDEST JUMP JUMPDEST PUSH1 0x4 PUSH1 0x20 MSTORE DUP1 PUSH1 0x0 MSTORE PUSH1 0x40 PUSH1 0x0 KECCAK256 PUSH1 0x0 SWAP2 POP SLOAD SWAP1 PUSH2 0x100 EXP SWAP1 DIV PUSH20 0xFFFFFFFFFFFFFFFFFFFFFFFFFFFFFFFFFFFFFFFF AND DUP2 JUMP JUMPDEST PUSH2 0x1F1D PUSH2 0x3527 JUMP JUMPDEST PUSH1 0x0 DUP3 SWAP1 POP DUP1 PUSH20 0xFFFFFFFFFFFFFFFFFFFFFFFFFFFFFFFFFFFFFFFF AND PUSH4 0x7B7ED99 DUP4 PUSH1 0x40 MLOAD DUP3 PUSH4 0xFFFFFFFF AND PUSH1 0xE0 SHL DUP2 MSTORE PUSH1 0x4 ADD PUSH2 0x1F5B SWAP2 SWAP1 PUSH2 0x420A JUMP JUMPDEST PUSH1 0x0 PUSH1 0x40 MLOAD DUP1 DUP4 SUB DUP2 PUSH1 0x0 DUP8 DUP1 EXTCODESIZE ISZERO DUP1 ISZERO PUSH2 0x1F75 JUMPI PUSH1 0x0 DUP1 REVERT JUMPDEST POP GAS CALL ISZERO DUP1 ISZERO PUSH2 0x1F89 JUMPI RETURNDATASIZE PUSH1 0x0 DUP1 RETURNDATACOPY RETURNDATASIZE PUSH1 0x0 REVERT JUMPDEST POP POP POP POP POP POP POP JUMP JUMPDEST PUSH1 0x0 PUSH2 0x1FBC DUP3 PUSH1 0x1 PUSH1 0x0 DUP7 DUP2 MSTORE PUSH1 0x20 ADD SWAP1 DUP2 MSTORE PUSH1 0x20 ADD PUSH1 0x0 KECCAK256 PUSH1 0x0 ADD PUSH2 0x360E SWAP1 SWAP2 SWAP1 PUSH4 0xFFFFFFFF AND JUMP JUMPDEST SWAP1 POP SWAP3 SWAP2 POP POP JUMP JUMPDEST PUSH2 0x1FCC PUSH2 0x3527 JUMP JUMPDEST DUP1 PUSH1 0x2 DUP1 SLOAD SWAP1 PUSH2 0x100 EXP SWAP1 DIV PUSH16 0xFFFFFFFFFFFFFFFFFFFFFFFFFFFFFFFF AND PUSH16 0xFFFFFFFFFFFFFFFFFFFFFFFFFFFFFFFF AND EQ ISZERO PUSH2 0x203D JUMPI PUSH1 0x40 MLOAD PUSH32 0x8C379A000000000000000000000000000000000000000000000000000000000 DUP2 MSTORE PUSH1 0x4 ADD PUSH2 0x2034 SWAP1 PUSH2 0x524B JUMP JUMPDEST PUSH1 0x40 MLOAD DUP1 SWAP2 SUB SWAP1 REVERT JUMPDEST PUSH2 0x2046 DUP2 PUSH2 0x30DD JUMP JUMPDEST PUSH1 0x2 DUP1 PUSH2 0x100 EXP DUP2 SLOAD DUP2 PUSH16 0xFFFFFFFFFFFFFFFFFFFFFFFFFFFFFFFF MUL NOT AND SWAP1 DUP4 PUSH16 0xFFFFFFFFFFFFFFFFFFFFFFFFFFFFFFFF AND MUL OR SWAP1 SSTORE POP POP JUMP JUMPDEST PUSH1 0x0 PUSH2 0x20AA DUP3 PUSH1 0x1 PUSH1 0x0 DUP7 DUP2 MSTORE PUSH1 0x20 ADD SWAP1 DUP2 MSTORE PUSH1 0x20 ADD PUSH1 0x0 KECCAK256 PUSH1 0x0 ADD PUSH2 0x31BC SWAP1 SWAP2 SWAP1 PUSH4 0xFFFFFFFF AND JUMP JUMPDEST SWAP1 POP SWAP3 SWAP2 POP POP JUMP JUMPDEST PUSH32 0xE2B7FB3B832174769106DAEBCFD6D1970523240DDA11281102DB9363B83B0DC4 DUP2 JUMP JUMPDEST PUSH1 0x0 PUSH1 0x6 PUSH1 0x0 DUP4 DUP2 MSTORE PUSH1 0x20 ADD SWAP1 DUP2 MSTORE PUSH1 0x20 ADD PUSH1 0x0 KECCAK256 PUSH1 0x0 SWAP1 SLOAD SWAP1 PUSH2 0x100 EXP SWAP1 DIV PUSH20 0xFFFFFFFFFFFFFFFFFFFFFFFFFFFFFFFFFFFFFFFF AND SWAP1 POP SWAP2 SWAP1 POP JUMP JUMPDEST PUSH2 0x213D PUSH32 0xE2B7FB3B832174769106DAEBCFD6D1970523240DDA11281102DB9363B83B0DC4 DUP3 PUSH2 0x2080 JUMP JUMPDEST PUSH2 0x217C JUMPI PUSH1 0x40 MLOAD PUSH32 0x8C379A000000000000000000000000000000000000000000000000000000000 DUP2 MSTORE PUSH1 0x4 ADD PUSH2 0x2173 SWAP1 PUSH2 0x52B7 JUMP JUMPDEST PUSH1 0x40 MLOAD DUP1 SWAP2 SUB SWAP1 REVERT JUMPDEST PUSH2 0x21A6 PUSH32 0xE2B7FB3B832174769106DAEBCFD6D1970523240DDA11281102DB9363B83B0DC4 DUP3 PUSH2 0x2E85 JUMP JUMPDEST PUSH32 0x10E1F7CE9FD7D1B90A66D13A2AB3CB8DD7F29F3F8D520B143B063CCFBAB6906B DUP2 PUSH1 0x40 MLOAD PUSH2 0x21D5 SWAP2 SWAP1 PUSH2 0x420A JUMP JUMPDEST PUSH1 0x40 MLOAD DUP1 SWAP2 SUB SWAP1 LOG1 POP JUMP JUMPDEST PUSH1 0x2 PUSH1 0x0 SWAP1 SLOAD SWAP1 PUSH2 0x100 EXP SWAP1 DIV PUSH1 0xFF AND DUP2 JUMP JUMPDEST PUSH1 0xC8 DUP2 JUMP JUMPDEST PUSH1 0x0 DUP1 SHL DUP2 JUMP JUMPDEST PUSH2 0x2207 PUSH2 0x3A06 JUMP JUMPDEST PUSH1 0x0 DUP5 PUSH1 0xFF AND PUSH1 0x8 DUP6 PUSH8 0xFFFFFFFFFFFFFFFF AND PUSH9 0xFFFFFFFFFFFFFFFFFF AND SWAP1 SHL OR SWAP1 POP PUSH1 0x8 PUSH1 0x0 DUP3 PUSH9 0xFFFFFFFFFFFFFFFFFF AND PUSH9 0xFFFFFFFFFFFFFFFFFF AND DUP2 MSTORE PUSH1 0x20 ADD SWAP1 DUP2 MSTORE PUSH1 0x20 ADD PUSH1 0x0 KECCAK256 PUSH1 0x0 DUP5 DUP2 MSTORE PUSH1 0x20 ADD SWAP1 DUP2 MSTORE PUSH1 0x20 ADD PUSH1 0x0 KECCAK256 PUSH1 0x40 MLOAD DUP1 PUSH1 0x80 ADD PUSH1 0x40 MSTORE SWAP1 DUP2 PUSH1 0x0 DUP3 ADD PUSH1 0x0 SWAP1 SLOAD SWAP1 PUSH2 0x100 EXP SWAP1 DIV PUSH1 0xFF AND PUSH1 0x4 DUP2 GT ISZERO PUSH2 0x2294 JUMPI PUSH2 0x2293 PUSH2 0x4363 JUMP JUMPDEST JUMPDEST PUSH1 0x4 DUP2 GT ISZERO PUSH2 0x22A6 JUMPI PUSH2 0x22A5 PUSH2 0x4363 JUMP JUMPDEST JUMPDEST DUP2 MSTORE PUSH1 0x20 ADD PUSH1 0x0 DUP3 ADD PUSH1 0x1 SWAP1 SLOAD SWAP1 PUSH2 0x100 EXP SWAP1 DIV PUSH25 0xFFFFFFFFFFFFFFFFFFFFFFFFFFFFFFFFFFFFFFFFFFFFFFFFFF AND PUSH25 0xFFFFFFFFFFFFFFFFFFFFFFFFFFFFFFFFFFFFFFFFFFFFFFFFFF AND PUSH25 0xFFFFFFFFFFFFFFFFFFFFFFFFFFFFFFFFFFFFFFFFFFFFFFFFFF AND DUP2 MSTORE PUSH1 0x20 ADD PUSH1 0x0 DUP3 ADD PUSH1 0x1A SWAP1 SLOAD SWAP1 PUSH2 0x100 EXP SWAP1 DIV PUSH1 0xFF AND PUSH1 0xFF AND PUSH1 0xFF AND DUP2 MSTORE PUSH1 0x20 ADD PUSH1 0x0 DUP3 ADD PUSH1 0x1B SWAP1 SLOAD SWAP1 PUSH2 0x100 EXP SWAP1 DIV PUSH5 0xFFFFFFFFFF AND PUSH5 0xFFFFFFFFFF AND PUSH5 0xFFFFFFFFFF AND DUP2 MSTORE POP POP SWAP2 POP POP SWAP4 SWAP3 POP POP POP JUMP JUMPDEST PUSH2 0x2367 PUSH2 0x3527 JUMP JUMPDEST PUSH1 0x0 DUP3 SWAP1 POP DUP1 PUSH20 0xFFFFFFFFFFFFFFFFFFFFFFFFFFFFFFFFFFFFFFFF AND PUSH4 0x968F264 DUP4 PUSH1 0x40 MLOAD DUP3 PUSH4 0xFFFFFFFF AND PUSH1 0xE0 SHL DUP2 MSTORE PUSH1 0x4 ADD PUSH2 0x23A5 SWAP2 SWAP1 PUSH2 0x4E2D JUMP JUMPDEST PUSH1 0x0 PUSH1 0x40 MLOAD DUP1 DUP4 SUB DUP2 PUSH1 0x0 DUP8 DUP1 EXTCODESIZE ISZERO DUP1 ISZERO PUSH2 0x23BF JUMPI PUSH1 0x0 DUP1 REVERT JUMPDEST POP GAS CALL ISZERO DUP1 ISZERO PUSH2 0x23D3 JUMPI RETURNDATASIZE PUSH1 0x0 DUP1 RETURNDATACOPY RETURNDATASIZE PUSH1 0x0 REVERT JUMPDEST POP POP POP POP POP POP POP JUMP JUMPDEST PUSH2 0x23E4 PUSH2 0x338D JUMP JUMPDEST PUSH2 0x23EC PUSH2 0x31EC JUMP JUMPDEST PUSH1 0x0 PUSH1 0x4 PUSH1 0x0 DUP6 DUP2 MSTORE PUSH1 0x20 ADD SWAP1 DUP2 MSTORE PUSH1 0x20 ADD PUSH1 0x0 KECCAK256 PUSH1 0x0 SWAP1 SLOAD SWAP1 PUSH2 0x100 EXP SWAP1 DIV PUSH20 0xFFFFFFFFFFFFFFFFFFFFFFFFFFFFFFFFFFFFFFFF AND SWAP1 POP PUSH1 0x0 DUP7 PUSH1 0xFF AND PUSH1 0x8 DUP8 PUSH8 0xFFFFFFFFFFFFFFFF AND PUSH9 0xFFFFFFFFFFFFFFFFFF AND SWAP1 SHL OR SWAP1 POP PUSH1 0x0 DUP3 DUP6 DUP6 PUSH1 0x40 MLOAD PUSH1 0x20 ADD PUSH2 0x245E SWAP4 SWAP3 SWAP2 SWAP1 PUSH2 0x4D65 JUMP JUMPDEST PUSH1 0x40 MLOAD PUSH1 0x20 DUP2 DUP4 SUB SUB DUP2 MSTORE SWAP1 PUSH1 0x40 MSTORE DUP1 MLOAD SWAP1 PUSH1 0x20 ADD KECCAK256 SWAP1 POP PUSH1 0x0 PUSH1 0x8 PUSH1 0x0 DUP5 PUSH9 0xFFFFFFFFFFFFFFFFFF AND PUSH9 0xFFFFFFFFFFFFFFFFFF AND DUP2 MSTORE PUSH1 0x20 ADD SWAP1 DUP2 MSTORE PUSH1 0x20 ADD PUSH1 0x0 KECCAK256 PUSH1 0x0 DUP4 DUP2 MSTORE PUSH1 0x20 ADD SWAP1 DUP2 MSTORE PUSH1 0x20 ADD PUSH1 0x0 KECCAK256 PUSH1 0x40 MLOAD DUP1 PUSH1 0x80 ADD PUSH1 0x40 MSTORE SWAP1 DUP2 PUSH1 0x0 DUP3 ADD PUSH1 0x0 SWAP1 SLOAD SWAP1 PUSH2 0x100 EXP SWAP1 DIV PUSH1 0xFF AND PUSH1 0x4 DUP2 GT ISZERO PUSH2 0x24E2 JUMPI PUSH2 0x24E1 PUSH2 0x4363 JUMP JUMPDEST JUMPDEST PUSH1 0x4 DUP2 GT ISZERO PUSH2 0x24F4 JUMPI PUSH2 0x24F3 PUSH2 0x4363 JUMP JUMPDEST JUMPDEST DUP2 MSTORE PUSH1 0x20 ADD PUSH1 0x0 DUP3 ADD PUSH1 0x1 SWAP1 SLOAD SWAP1 PUSH2 0x100 EXP SWAP1 DIV PUSH25 0xFFFFFFFFFFFFFFFFFFFFFFFFFFFFFFFFFFFFFFFFFFFFFFFFFF AND PUSH25 0xFFFFFFFFFFFFFFFFFFFFFFFFFFFFFFFFFFFFFFFFFFFFFFFFFF AND PUSH25 0xFFFFFFFFFFFFFFFFFFFFFFFFFFFFFFFFFFFFFFFFFFFFFFFFFF AND DUP2 MSTORE PUSH1 0x20 ADD PUSH1 0x0 DUP3 ADD PUSH1 0x1A SWAP1 SLOAD SWAP1 PUSH2 0x100 EXP SWAP1 DIV PUSH1 0xFF AND PUSH1 0xFF AND PUSH1 0xFF AND DUP2 MSTORE PUSH1 0x20 ADD PUSH1 0x0 DUP3 ADD PUSH1 0x1B SWAP1 SLOAD SWAP1 PUSH2 0x100 EXP SWAP1 DIV PUSH5 0xFFFFFFFFFF AND PUSH5 0xFFFFFFFFFF AND PUSH5 0xFFFFFFFFFF AND DUP2 MSTORE POP POP SWAP1 POP PUSH1 0x0 PUSH20 0xFFFFFFFFFFFFFFFFFFFFFFFFFFFFFFFFFFFFFFFF AND PUSH1 0x4 PUSH1 0x0 DUP10 DUP2 MSTORE PUSH1 0x20 ADD SWAP1 DUP2 MSTORE PUSH1 0x20 ADD PUSH1 0x0 KECCAK256 PUSH1 0x0 SWAP1 SLOAD SWAP1 PUSH2 0x100 EXP SWAP1 DIV PUSH20 0xFFFFFFFFFFFFFFFFFFFFFFFFFFFFFFFFFFFFFFFF AND PUSH20 0xFFFFFFFFFFFFFFFFFFFFFFFFFFFFFFFFFFFFFFFF AND EQ ISZERO PUSH2 0x2648 JUMPI PUSH1 0x40 MLOAD PUSH32 0x8C379A000000000000000000000000000000000000000000000000000000000 DUP2 MSTORE PUSH1 0x4 ADD PUSH2 0x263F SWAP1 PUSH2 0x5323 JUMP JUMPDEST PUSH1 0x40 MLOAD DUP1 SWAP2 SUB SWAP1 REVERT JUMPDEST PUSH1 0x2 PUSH1 0x4 DUP2 GT ISZERO PUSH2 0x265C JUMPI PUSH2 0x265B PUSH2 0x4363 JUMP JUMPDEST JUMPDEST DUP2 PUSH1 0x0 ADD MLOAD PUSH1 0x4 DUP2 GT ISZERO PUSH2 0x2673 JUMPI PUSH2 0x2672 PUSH2 0x4363 JUMP JUMPDEST JUMPDEST EQ ISZERO PUSH2 0x2691 JUMPI PUSH2 0x2688 DUP10 DUP10 DUP9 DUP9 DUP12 PUSH1 0x1 PUSH2 0x14C5 JUMP JUMPDEST POP POP POP POP PUSH2 0x2BA0 JUMP JUMPDEST PUSH1 0x0 PUSH2 0x269B PUSH2 0x323C JUMP JUMPDEST SWAP1 POP PUSH1 0x1 DUP3 PUSH1 0x0 ADD MLOAD PUSH1 0x4 DUP2 GT ISZERO PUSH2 0x26B6 JUMPI PUSH2 0x26B5 PUSH2 0x4363 JUMP JUMPDEST JUMPDEST GT ISZERO PUSH2 0x26F7 JUMPI PUSH1 0x40 MLOAD PUSH32 0x8C379A000000000000000000000000000000000000000000000000000000000 DUP2 MSTORE PUSH1 0x4 ADD PUSH2 0x26EE SWAP1 PUSH2 0x53B5 JUMP JUMPDEST PUSH1 0x40 MLOAD DUP1 SWAP2 SUB SWAP1 REVERT JUMPDEST PUSH2 0x2701 DUP3 DUP3 PUSH2 0x357C JUMP JUMPDEST ISZERO PUSH2 0x2741 JUMPI PUSH1 0x40 MLOAD PUSH32 0x8C379A000000000000000000000000000000000000000000000000000000000 DUP2 MSTORE PUSH1 0x4 ADD PUSH2 0x2738 SWAP1 PUSH2 0x5421 JUMP JUMPDEST PUSH1 0x40 MLOAD DUP1 SWAP2 SUB SWAP1 REVERT JUMPDEST PUSH1 0x0 PUSH1 0x4 DUP2 GT ISZERO PUSH2 0x2755 JUMPI PUSH2 0x2754 PUSH2 0x4363 JUMP JUMPDEST JUMPDEST DUP3 PUSH1 0x0 ADD MLOAD PUSH1 0x4 DUP2 GT ISZERO PUSH2 0x276C JUMPI PUSH2 0x276B PUSH2 0x4363 JUMP JUMPDEST JUMPDEST EQ ISZERO PUSH2 0x2812 JUMPI PUSH1 0x40 MLOAD DUP1 PUSH1 0x80 ADD PUSH1 0x40 MSTORE DUP1 PUSH1 0x1 PUSH1 0x4 DUP2 GT ISZERO PUSH2 0x2791 JUMPI PUSH2 0x2790 PUSH2 0x4363 JUMP JUMPDEST JUMPDEST DUP2 MSTORE PUSH1 0x20 ADD PUSH1 0x0 PUSH25 0xFFFFFFFFFFFFFFFFFFFFFFFFFFFFFFFFFFFFFFFFFFFFFFFFFF AND DUP2 MSTORE PUSH1 0x20 ADD PUSH1 0x0 PUSH1 0xFF AND DUP2 MSTORE PUSH1 0x20 ADD NUMBER PUSH5 0xFFFFFFFFFF AND DUP2 MSTORE POP SWAP2 POP PUSH32 0x968626A768E76BA1363EFE44E322A6C4900C5F084E0B45F35E294DFDDAA9E0D5 DUP11 DUP11 PUSH1 0x1 DUP7 PUSH1 0x40 MLOAD PUSH2 0x2805 SWAP5 SWAP4 SWAP3 SWAP2 SWAP1 PUSH2 0x4C56 JUMP JUMPDEST PUSH1 0x40 MLOAD DUP1 SWAP2 SUB SWAP1 LOG1 PUSH2 0x28C0 JUMP JUMPDEST PUSH1 0x2 PUSH1 0x12 SWAP1 SLOAD SWAP1 PUSH2 0x100 EXP SWAP1 DIV PUSH5 0xFFFFFFFFFF AND PUSH5 0xFFFFFFFFFF AND PUSH2 0x2842 NUMBER DUP5 PUSH1 0x60 ADD MLOAD PUSH5 0xFFFFFFFFFF AND PUSH2 0x3343 JUMP JUMPDEST PUSH5 0xFFFFFFFFFF AND GT ISZERO PUSH2 0x28BF JUMPI PUSH1 0x4 DUP3 PUSH1 0x0 ADD SWAP1 PUSH1 0x4 DUP2 GT ISZERO PUSH2 0x2868 JUMPI PUSH2 0x2867 PUSH2 0x4363 JUMP JUMPDEST JUMPDEST SWAP1 DUP2 PUSH1 0x4 DUP2 GT ISZERO PUSH2 0x287C JUMPI PUSH2 0x287B PUSH2 0x4363 JUMP JUMPDEST JUMPDEST DUP2 MSTORE POP POP PUSH32 0x968626A768E76BA1363EFE44E322A6C4900C5F084E0B45F35E294DFDDAA9E0D5 DUP11 DUP11 PUSH1 0x4 DUP7 PUSH1 0x40 MLOAD PUSH2 0x28B6 SWAP5 SWAP4 SWAP3 SWAP2 SWAP1 PUSH2 0x4C56 JUMP JUMPDEST PUSH1 0x40 MLOAD DUP1 SWAP2 SUB SWAP1 LOG1 JUMPDEST JUMPDEST PUSH1 0x4 DUP1 DUP2 GT ISZERO PUSH2 0x28D3 JUMPI PUSH2 0x28D2 PUSH2 0x4363 JUMP JUMPDEST JUMPDEST DUP3 PUSH1 0x0 ADD MLOAD PUSH1 0x4 DUP2 GT ISZERO PUSH2 0x28EA JUMPI PUSH2 0x28E9 PUSH2 0x4363 JUMP JUMPDEST JUMPDEST EQ PUSH2 0x2A50 JUMPI PUSH2 0x2921 PUSH2 0x28FB DUP3 PUSH2 0x3628 JUMP JUMPDEST DUP4 PUSH1 0x20 ADD MLOAD PUSH25 0xFFFFFFFFFFFFFFFFFFFFFFFFFFFFFFFFFFFFFFFFFFFFFFFFFF AND OR PUSH2 0x3669 JUMP JUMPDEST DUP3 PUSH1 0x20 ADD SWAP1 PUSH25 0xFFFFFFFFFFFFFFFFFFFFFFFFFFFFFFFFFFFFFFFFFFFFFFFFFF AND SWAP1 DUP2 PUSH25 0xFFFFFFFFFFFFFFFFFFFFFFFFFFFFFFFFFFFFFFFFFFFFFFFFFF AND DUP2 MSTORE POP POP DUP2 PUSH1 0x40 ADD DUP1 MLOAD DUP1 SWAP2 SWAP1 PUSH2 0x2974 SWAP1 PUSH2 0x5441 JUMP JUMPDEST PUSH1 0xFF AND PUSH1 0xFF AND DUP2 MSTORE POP POP PUSH32 0x25F8DAAA4635A7729927BA3F5B3D59CC3320ACA7C32C9DB4E7CA7B9574343640 DUP11 DUP11 DUP5 PUSH1 0x0 ADD MLOAD DUP7 PUSH1 0x40 MLOAD PUSH2 0x29B7 SWAP5 SWAP4 SWAP3 SWAP2 SWAP1 PUSH2 0x4C56 JUMP JUMPDEST PUSH1 0x40 MLOAD DUP1 SWAP2 SUB SWAP1 LOG1 PUSH1 0x2 PUSH1 0x1 SWAP1 SLOAD SWAP1 PUSH2 0x100 EXP SWAP1 DIV PUSH1 0xFF AND PUSH1 0xFF AND DUP3 PUSH1 0x40 ADD MLOAD PUSH1 0xFF AND LT PUSH2 0x2A4F JUMPI PUSH1 0x2 DUP3 PUSH1 0x0 ADD SWAP1 PUSH1 0x4 DUP2 GT ISZERO PUSH2 0x29F8 JUMPI PUSH2 0x29F7 PUSH2 0x4363 JUMP JUMPDEST JUMPDEST SWAP1 DUP2 PUSH1 0x4 DUP2 GT ISZERO PUSH2 0x2A0C JUMPI PUSH2 0x2A0B PUSH2 0x4363 JUMP JUMPDEST JUMPDEST DUP2 MSTORE POP POP PUSH32 0x968626A768E76BA1363EFE44E322A6C4900C5F084E0B45F35E294DFDDAA9E0D5 DUP11 DUP11 PUSH1 0x2 DUP7 PUSH1 0x40 MLOAD PUSH2 0x2A46 SWAP5 SWAP4 SWAP3 SWAP2 SWAP1 PUSH2 0x4C56 JUMP JUMPDEST PUSH1 0x40 MLOAD DUP1 SWAP2 SUB SWAP1 LOG1 JUMPDEST JUMPDEST DUP2 PUSH1 0x8 PUSH1 0x0 DUP7 PUSH9 0xFFFFFFFFFFFFFFFFFF AND PUSH9 0xFFFFFFFFFFFFFFFFFF AND DUP2 MSTORE PUSH1 0x20 ADD SWAP1 DUP2 MSTORE PUSH1 0x20 ADD PUSH1 0x0 KECCAK256 PUSH1 0x0 DUP6 DUP2 MSTORE PUSH1 0x20 ADD SWAP1 DUP2 MSTORE PUSH1 0x20 ADD PUSH1 0x0 KECCAK256 PUSH1 0x0 DUP3 ADD MLOAD DUP2 PUSH1 0x0 ADD PUSH1 0x0 PUSH2 0x100 EXP DUP2 SLOAD DUP2 PUSH1 0xFF MUL NOT AND SWAP1 DUP4 PUSH1 0x4 DUP2 GT ISZERO PUSH2 0x2AB6 JUMPI PUSH2 0x2AB5 PUSH2 0x4363 JUMP JUMPDEST JUMPDEST MUL OR SWAP1 SSTORE POP PUSH1 0x20 DUP3 ADD MLOAD DUP2 PUSH1 0x0 ADD PUSH1 0x1 PUSH2 0x100 EXP DUP2 SLOAD DUP2 PUSH25 0xFFFFFFFFFFFFFFFFFFFFFFFFFFFFFFFFFFFFFFFFFFFFFFFFFF MUL NOT AND SWAP1 DUP4 PUSH25 0xFFFFFFFFFFFFFFFFFFFFFFFFFFFFFFFFFFFFFFFFFFFFFFFFFF AND MUL OR SWAP1 SSTORE POP PUSH1 0x40 DUP3 ADD MLOAD DUP2 PUSH1 0x0 ADD PUSH1 0x1A PUSH2 0x100 EXP DUP2 SLOAD DUP2 PUSH1 0xFF MUL NOT AND SWAP1 DUP4 PUSH1 0xFF AND MUL OR SWAP1 SSTORE POP PUSH1 0x60 DUP3 ADD MLOAD DUP2 PUSH1 0x0 ADD PUSH1 0x1B PUSH2 0x100 EXP DUP2 SLOAD DUP2 PUSH5 0xFFFFFFFFFF MUL NOT AND SWAP1 DUP4 PUSH5 0xFFFFFFFFFF AND MUL OR SWAP1 SSTORE POP SWAP1 POP POP PUSH1 0x2 PUSH1 0x4 DUP2 GT ISZERO PUSH2 0x2B6D JUMPI PUSH2 0x2B6C PUSH2 0x4363 JUMP JUMPDEST JUMPDEST DUP3 PUSH1 0x0 ADD MLOAD PUSH1 0x4 DUP2 GT ISZERO PUSH2 0x2B84 JUMPI PUSH2 0x2B83 PUSH2 0x4363 JUMP JUMPDEST JUMPDEST EQ ISZERO PUSH2 0x2B9A JUMPI PUSH2 0x2B99 DUP11 DUP11 DUP10 DUP10 DUP13 PUSH1 0x0 PUSH2 0x14C5 JUMP JUMPDEST JUMPDEST POP POP POP POP POP JUMPDEST POP POP POP POP POP JUMP JUMPDEST PUSH1 0x2 DUP1 SLOAD SWAP1 PUSH2 0x100 EXP SWAP1 DIV PUSH16 0xFFFFFFFFFFFFFFFFFFFFFFFFFFFFFFFF AND DUP2 JUMP JUMPDEST PUSH1 0x2 PUSH1 0x12 SWAP1 SLOAD SWAP1 PUSH2 0x100 EXP SWAP1 DIV PUSH5 0xFFFFFFFFFF AND DUP2 JUMP JUMPDEST PUSH1 0x5 PUSH1 0x20 MSTORE DUP1 PUSH1 0x0 MSTORE PUSH1 0x40 PUSH1 0x0 KECCAK256 PUSH1 0x0 SWAP2 POP SLOAD SWAP1 PUSH2 0x100 EXP SWAP1 DIV PUSH20 0xFFFFFFFFFFFFFFFFFFFFFFFFFFFFFFFFFFFFFFFF AND DUP2 JUMP JUMPDEST PUSH1 0x0 PUSH2 0x2C31 PUSH1 0x1 PUSH1 0x0 DUP5 DUP2 MSTORE PUSH1 0x20 ADD SWAP1 DUP2 MSTORE PUSH1 0x20 ADD PUSH1 0x0 KECCAK256 PUSH1 0x0 ADD PUSH2 0x36CF JUMP JUMPDEST SWAP1 POP SWAP2 SWAP1 POP JUMP JUMPDEST PUSH2 0x2C40 PUSH2 0x3527 JUMP JUMPDEST DUP3 PUSH1 0x4 PUSH1 0x0 DUP5 DUP2 MSTORE PUSH1 0x20 ADD SWAP1 DUP2 MSTORE PUSH1 0x20 ADD PUSH1 0x0 KECCAK256 PUSH1 0x0 PUSH2 0x100 EXP DUP2 SLOAD DUP2 PUSH20 0xFFFFFFFFFFFFFFFFFFFFFFFFFFFFFFFFFFFFFFFF MUL NOT AND SWAP1 DUP4 PUSH20 0xFFFFFFFFFFFFFFFFFFFFFFFFFFFFFFFFFFFFFFFF AND MUL OR SWAP1 SSTORE POP PUSH1 0x0 DUP4 SWAP1 POP DUP1 PUSH20 0xFFFFFFFFFFFFFFFFFFFFFFFFFFFFFFFFFFFFFFFF AND PUSH4 0xB8FA3736 DUP5 DUP5 PUSH1 0x40 MLOAD DUP4 PUSH4 0xFFFFFFFF AND PUSH1 0xE0 SHL DUP2 MSTORE PUSH1 0x4 ADD PUSH2 0x2CD2 SWAP3 SWAP2 SWAP1 PUSH2 0x546B JUMP JUMPDEST PUSH1 0x0 PUSH1 0x40 MLOAD DUP1 DUP4 SUB DUP2 PUSH1 0x0 DUP8 DUP1 EXTCODESIZE ISZERO DUP1 ISZERO PUSH2 0x2CEC JUMPI PUSH1 0x0 DUP1 REVERT JUMPDEST POP GAS CALL ISZERO DUP1 ISZERO PUSH2 0x2D00 JUMPI RETURNDATASIZE PUSH1 0x0 DUP1 RETURNDATACOPY RETURNDATASIZE PUSH1 0x0 REVERT JUMPDEST POP POP POP POP POP POP POP POP JUMP JUMPDEST PUSH2 0x2D34 PUSH32 0xE2B7FB3B832174769106DAEBCFD6D1970523240DDA11281102DB9363B83B0DC4 DUP3 PUSH2 0x2080 JUMP JUMPDEST ISZERO PUSH2 0x2D74 JUMPI PUSH1 0x40 MLOAD PUSH32 0x8C379A000000000000000000000000000000000000000000000000000000000 DUP2 MSTORE PUSH1 0x4 ADD PUSH2 0x2D6B SWAP1 PUSH2 0x54E0 JUMP JUMPDEST PUSH1 0x40 MLOAD DUP1 SWAP2 SUB SWAP1 REVERT JUMPDEST PUSH1 0xC8 PUSH2 0x2D7E PUSH2 0x1E98 JUMP JUMPDEST LT PUSH2 0x2DBE JUMPI PUSH1 0x40 MLOAD PUSH32 0x8C379A000000000000000000000000000000000000000000000000000000000 DUP2 MSTORE PUSH1 0x4 ADD PUSH2 0x2DB5 SWAP1 PUSH2 0x554C JUMP JUMPDEST PUSH1 0x40 MLOAD DUP1 SWAP2 SUB SWAP1 REVERT JUMPDEST PUSH2 0x2DE8 PUSH32 0xE2B7FB3B832174769106DAEBCFD6D1970523240DDA11281102DB9363B83B0DC4 DUP3 PUSH2 0x18D6 JUMP JUMPDEST PUSH32 0x3580EE9F53A62B7CB409A2CB56F9BE87747DD15017AFC5CEF6EEF321E4FB2C5 DUP2 PUSH1 0x40 MLOAD PUSH2 0x2E17 SWAP2 SWAP1 PUSH2 0x420A JUMP JUMPDEST PUSH1 0x40 MLOAD DUP1 SWAP2 SUB SWAP1 LOG1 POP JUMP JUMPDEST PUSH2 0x2E2A PUSH2 0x3527 JUMP JUMPDEST DUP1 PUSH1 0x7 PUSH1 0x0 DUP5 PUSH20 0xFFFFFFFFFFFFFFFFFFFFFFFFFFFFFFFFFFFFFFFF AND PUSH20 0xFFFFFFFFFFFFFFFFFFFFFFFFFFFFFFFFFFFFFFFF AND DUP2 MSTORE PUSH1 0x20 ADD SWAP1 DUP2 MSTORE PUSH1 0x20 ADD PUSH1 0x0 KECCAK256 PUSH1 0x0 PUSH2 0x100 EXP DUP2 SLOAD DUP2 PUSH1 0xFF MUL NOT AND SWAP1 DUP4 ISZERO ISZERO MUL OR SWAP1 SSTORE POP POP POP JUMP JUMPDEST PUSH2 0x2EAC PUSH1 0x1 PUSH1 0x0 DUP5 DUP2 MSTORE PUSH1 0x20 ADD SWAP1 DUP2 MSTORE PUSH1 0x20 ADD PUSH1 0x0 KECCAK256 PUSH1 0x2 ADD SLOAD PUSH2 0x2EA7 PUSH2 0x323C JUMP JUMPDEST PUSH2 0x2080 JUMP JUMPDEST PUSH2 0x2EEB JUMPI PUSH1 0x40 MLOAD PUSH32 0x8C379A000000000000000000000000000000000000000000000000000000000 DUP2 MSTORE PUSH1 0x4 ADD PUSH2 0x2EE2 SWAP1 PUSH2 0x55DE JUMP JUMPDEST PUSH1 0x40 MLOAD DUP1 SWAP2 SUB SWAP1 REVERT JUMPDEST PUSH2 0x2EF5 DUP3 DUP3 PUSH2 0x3493 JUMP JUMPDEST POP POP JUMP JUMPDEST PUSH1 0x2 PUSH1 0x1 SWAP1 SLOAD SWAP1 PUSH2 0x100 EXP SWAP1 DIV PUSH1 0xFF AND DUP2 JUMP JUMPDEST PUSH1 0x0 PUSH1 0x5 PUSH1 0x0 DUP4 DUP2 MSTORE PUSH1 0x20 ADD SWAP1 DUP2 MSTORE PUSH1 0x20 ADD PUSH1 0x0 KECCAK256 PUSH1 0x0 SWAP1 SLOAD SWAP1 PUSH2 0x100 EXP SWAP1 DIV PUSH20 0xFFFFFFFFFFFFFFFFFFFFFFFFFFFFFFFFFFFFFFFF AND SWAP1 POP SWAP2 SWAP1 POP JUMP JUMPDEST PUSH2 0x2F51 PUSH2 0x3527 JUMP JUMPDEST PUSH1 0x3 PUSH1 0x0 DUP4 PUSH1 0xFF AND PUSH1 0xFF AND DUP2 MSTORE PUSH1 0x20 ADD SWAP1 DUP2 MSTORE PUSH1 0x20 ADD PUSH1 0x0 KECCAK256 PUSH1 0x0 SWAP1 SLOAD SWAP1 PUSH2 0x100 EXP SWAP1 DIV PUSH8 0xFFFFFFFFFFFFFFFF AND PUSH8 0xFFFFFFFFFFFFFFFF AND DUP2 PUSH8 0xFFFFFFFFFFFFFFFF AND GT PUSH2 0x2FD4 JUMPI PUSH1 0x40 MLOAD PUSH32 0x8C379A000000000000000000000000000000000000000000000000000000000 DUP2 MSTORE PUSH1 0x4 ADD PUSH2 0x2FCB SWAP1 PUSH2 0x5670 JUMP JUMPDEST PUSH1 0x40 MLOAD DUP1 SWAP2 SUB SWAP1 REVERT JUMPDEST DUP1 PUSH1 0x3 PUSH1 0x0 DUP5 PUSH1 0xFF AND PUSH1 0xFF AND DUP2 MSTORE PUSH1 0x20 ADD SWAP1 DUP2 MSTORE PUSH1 0x20 ADD PUSH1 0x0 KECCAK256 PUSH1 0x0 PUSH2 0x100 EXP DUP2 SLOAD DUP2 PUSH8 0xFFFFFFFFFFFFFFFF MUL NOT AND SWAP1 DUP4 PUSH8 0xFFFFFFFFFFFFFFFF AND MUL OR SWAP1 SSTORE POP POP POP JUMP JUMPDEST PUSH1 0x0 PUSH1 0x4 PUSH1 0x0 DUP4 DUP2 MSTORE PUSH1 0x20 ADD SWAP1 DUP2 MSTORE PUSH1 0x20 ADD PUSH1 0x0 KECCAK256 PUSH1 0x0 SWAP1 SLOAD SWAP1 PUSH2 0x100 EXP SWAP1 DIV PUSH20 0xFFFFFFFFFFFFFFFFFFFFFFFFFFFFFFFFFFFFFFFF AND SWAP1 POP SWAP2 SWAP1 POP JUMP JUMPDEST PUSH1 0x7 PUSH1 0x20 MSTORE DUP1 PUSH1 0x0 MSTORE PUSH1 0x40 PUSH1 0x0 KECCAK256 PUSH1 0x0 SWAP2 POP SLOAD SWAP1 PUSH2 0x100 EXP SWAP1 DIV PUSH1 0xFF AND DUP2 JUMP JUMPDEST PUSH2 0x307D PUSH2 0x3527 JUMP JUMPDEST PUSH2 0x308D PUSH2 0x3088 PUSH2 0x323C JUMP JUMPDEST PUSH2 0x36E4 JUMP JUMPDEST JUMP JUMPDEST PUSH1 0x0 PUSH2 0x100 DUP3 LT PUSH2 0x30D5 JUMPI PUSH1 0x40 MLOAD PUSH32 0x8C379A000000000000000000000000000000000000000000000000000000000 DUP2 MSTORE PUSH1 0x4 ADD PUSH2 0x30CC SWAP1 PUSH2 0x56DC JUMP JUMPDEST PUSH1 0x40 MLOAD DUP1 SWAP2 SUB SWAP1 REVERT JUMPDEST DUP2 SWAP1 POP SWAP2 SWAP1 POP JUMP JUMPDEST PUSH1 0x0 PUSH17 0x100000000000000000000000000000000 DUP3 LT PUSH2 0x3132 JUMPI PUSH1 0x40 MLOAD PUSH32 0x8C379A000000000000000000000000000000000000000000000000000000000 DUP2 MSTORE PUSH1 0x4 ADD PUSH2 0x3129 SWAP1 PUSH2 0x5748 JUMP JUMPDEST PUSH1 0x40 MLOAD DUP1 SWAP2 SUB SWAP1 REVERT JUMPDEST DUP2 SWAP1 POP SWAP2 SWAP1 POP JUMP JUMPDEST PUSH1 0x0 PUSH6 0x10000000000 DUP3 LT PUSH2 0x3184 JUMPI PUSH1 0x40 MLOAD PUSH32 0x8C379A000000000000000000000000000000000000000000000000000000000 DUP2 MSTORE PUSH1 0x4 ADD PUSH2 0x317B SWAP1 PUSH2 0x57B4 JUMP JUMPDEST PUSH1 0x40 MLOAD DUP1 SWAP2 SUB SWAP1 REVERT JUMPDEST DUP2 SWAP1 POP SWAP2 SWAP1 POP JUMP JUMPDEST PUSH1 0x0 PUSH2 0x31B4 DUP4 PUSH1 0x0 ADD DUP4 PUSH20 0xFFFFFFFFFFFFFFFFFFFFFFFFFFFFFFFFFFFFFFFF AND PUSH1 0x0 SHL PUSH2 0x3740 JUMP JUMPDEST SWAP1 POP SWAP3 SWAP2 POP POP JUMP JUMPDEST PUSH1 0x0 PUSH2 0x31E4 DUP4 PUSH1 0x0 ADD DUP4 PUSH20 0xFFFFFFFFFFFFFFFFFFFFFFFFFFFFFFFFFFFFFFFF AND PUSH1 0x0 SHL PUSH2 0x37B0 JUMP JUMPDEST SWAP1 POP SWAP3 SWAP2 POP POP JUMP JUMPDEST PUSH1 0x0 DUP1 SLOAD SWAP1 PUSH2 0x100 EXP SWAP1 DIV PUSH1 0xFF AND ISZERO PUSH2 0x323A JUMPI PUSH1 0x40 MLOAD PUSH32 0x8C379A000000000000000000000000000000000000000000000000000000000 DUP2 MSTORE PUSH1 0x4 ADD PUSH2 0x3231 SWAP1 PUSH2 0x5820 JUMP JUMPDEST PUSH1 0x40 MLOAD DUP1 SWAP2 SUB SWAP1 REVERT JUMPDEST JUMP JUMPDEST PUSH1 0x0 DUP1 CALLER SWAP1 POP PUSH1 0x14 PUSH1 0x0 CALLDATASIZE SWAP1 POP LT ISZERO DUP1 ISZERO PUSH2 0x32A0 JUMPI POP PUSH1 0x7 PUSH1 0x0 DUP3 PUSH20 0xFFFFFFFFFFFFFFFFFFFFFFFFFFFFFFFFFFFFFFFF AND PUSH20 0xFFFFFFFFFFFFFFFFFFFFFFFFFFFFFFFFFFFFFFFF AND DUP2 MSTORE PUSH1 0x20 ADD SWAP1 DUP2 MSTORE PUSH1 0x20 ADD PUSH1 0x0 KECCAK256 PUSH1 0x0 SWAP1 SLOAD SWAP1 PUSH2 0x100 EXP SWAP1 DIV PUSH1 0xFF AND JUMPDEST ISZERO PUSH2 0x32B0 JUMPI PUSH1 0x14 CALLDATASIZE SUB CALLDATALOAD PUSH1 0x60 SHR SWAP1 POP JUMPDEST DUP1 SWAP2 POP POP SWAP1 JUMP JUMPDEST PUSH1 0x0 PUSH2 0x32C1 PUSH2 0x323C JUMP JUMPDEST SWAP1 POP PUSH2 0x32D0 PUSH1 0x0 DUP1 SHL DUP3 PUSH2 0x2080 JUMP JUMPDEST DUP1 PUSH2 0x3301 JUMPI POP PUSH2 0x3300 PUSH32 0xE2B7FB3B832174769106DAEBCFD6D1970523240DDA11281102DB9363B83B0DC4 DUP3 PUSH2 0x2080 JUMP JUMPDEST JUMPDEST PUSH2 0x3340 JUMPI PUSH1 0x40 MLOAD PUSH32 0x8C379A000000000000000000000000000000000000000000000000000000000 DUP2 MSTORE PUSH1 0x4 ADD PUSH2 0x3337 SWAP1 PUSH2 0x588C JUMP JUMPDEST PUSH1 0x40 MLOAD DUP1 SWAP2 SUB SWAP1 REVERT JUMPDEST POP JUMP JUMPDEST PUSH1 0x0 PUSH2 0x3385 DUP4 DUP4 PUSH1 0x40 MLOAD DUP1 PUSH1 0x40 ADD PUSH1 0x40 MSTORE DUP1 PUSH1 0x1E DUP2 MSTORE PUSH1 0x20 ADD PUSH32 0x536166654D6174683A207375627472616374696F6E206F766572666C6F770000 DUP2 MSTORE POP PUSH2 0x37D3 JUMP JUMPDEST SWAP1 POP SWAP3 SWAP2 POP POP JUMP JUMPDEST PUSH2 0x33BE PUSH32 0xE2B7FB3B832174769106DAEBCFD6D1970523240DDA11281102DB9363B83B0DC4 PUSH2 0x33B9 PUSH2 0x323C JUMP JUMPDEST PUSH2 0x2080 JUMP JUMPDEST PUSH2 0x33FD JUMPI PUSH1 0x40 MLOAD PUSH32 0x8C379A000000000000000000000000000000000000000000000000000000000 DUP2 MSTORE PUSH1 0x4 ADD PUSH2 0x33F4 SWAP1 PUSH2 0x58F8 JUMP JUMPDEST PUSH1 0x40 MLOAD DUP1 SWAP2 SUB SWAP1 REVERT JUMPDEST JUMP JUMPDEST PUSH2 0x3427 DUP2 PUSH1 0x1 PUSH1 0x0 DUP6 DUP2 MSTORE PUSH1 0x20 ADD SWAP1 DUP2 MSTORE PUSH1 0x20 ADD PUSH1 0x0 KECCAK256 PUSH1 0x0 ADD PUSH2 0x318C SWAP1 SWAP2 SWAP1 PUSH4 0xFFFFFFFF AND JUMP JUMPDEST ISZERO PUSH2 0x348F JUMPI PUSH2 0x3434 PUSH2 0x323C JUMP JUMPDEST PUSH20 0xFFFFFFFFFFFFFFFFFFFFFFFFFFFFFFFFFFFFFFFF AND DUP2 PUSH20 0xFFFFFFFFFFFFFFFFFFFFFFFFFFFFFFFFFFFFFFFF AND DUP4 PUSH32 0x2F8788117E7EFF1D82E926EC794901D17C78024A50270940304540A733656F0D PUSH1 0x40 MLOAD PUSH1 0x40 MLOAD DUP1 SWAP2 SUB SWAP1 LOG4 JUMPDEST POP POP JUMP JUMPDEST PUSH2 0x34BB DUP2 PUSH1 0x1 PUSH1 0x0 DUP6 DUP2 MSTORE PUSH1 0x20 ADD SWAP1 DUP2 MSTORE PUSH1 0x20 ADD PUSH1 0x0 KECCAK256 PUSH1 0x0 ADD PUSH2 0x3837 SWAP1 SWAP2 SWAP1 PUSH4 0xFFFFFFFF AND JUMP JUMPDEST ISZERO PUSH2 0x3523 JUMPI PUSH2 0x34C8 PUSH2 0x323C JUMP JUMPDEST PUSH20 0xFFFFFFFFFFFFFFFFFFFFFFFFFFFFFFFFFFFFFFFF AND DUP2 PUSH20 0xFFFFFFFFFFFFFFFFFFFFFFFFFFFFFFFFFFFFFFFF AND DUP4 PUSH32 0xF6391F5C32D9C69D2A47EA670B442974B53935D1EDC7FD64EB21E047A839171B PUSH1 0x40 MLOAD PUSH1 0x40 MLOAD DUP1 SWAP2 SUB SWAP1 LOG4 JUMPDEST POP POP JUMP JUMPDEST PUSH2 0x353B PUSH1 0x0 DUP1 SHL PUSH2 0x3536 PUSH2 0x323C JUMP JUMPDEST PUSH2 0x2080 JUMP JUMPDEST PUSH2 0x357A JUMPI PUSH1 0x40 MLOAD PUSH32 0x8C379A000000000000000000000000000000000000000000000000000000000 DUP2 MSTORE PUSH1 0x4 ADD PUSH2 0x3571 SWAP1 PUSH2 0x5964 JUMP JUMPDEST PUSH1 0x40 MLOAD DUP1 SWAP2 SUB SWAP1 REVERT JUMPDEST JUMP JUMPDEST PUSH1 0x0 DUP1 DUP4 PUSH1 0x20 ADD MLOAD PUSH25 0xFFFFFFFFFFFFFFFFFFFFFFFFFFFFFFFFFFFFFFFFFFFFFFFFFF AND PUSH2 0x35A8 DUP5 PUSH2 0x3628 JUMP JUMPDEST AND GT SWAP1 POP SWAP3 SWAP2 POP POP JUMP JUMPDEST PUSH2 0x35BA PUSH2 0x31EC JUMP JUMPDEST PUSH1 0x1 PUSH1 0x0 DUP1 PUSH2 0x100 EXP DUP2 SLOAD DUP2 PUSH1 0xFF MUL NOT AND SWAP1 DUP4 ISZERO ISZERO MUL OR SWAP1 SSTORE POP PUSH32 0x62E78CEA01BEE320CD4E420270B5EA74000D11B0C9F74754EBDBFC544B05A258 DUP2 PUSH1 0x40 MLOAD PUSH2 0x3603 SWAP2 SWAP1 PUSH2 0x420A JUMP JUMPDEST PUSH1 0x40 MLOAD DUP1 SWAP2 SUB SWAP1 LOG1 POP JUMP JUMPDEST PUSH1 0x0 PUSH2 0x361D DUP4 PUSH1 0x0 ADD DUP4 PUSH2 0x3867 JUMP JUMPDEST PUSH1 0x0 SHR SWAP1 POP SWAP3 SWAP2 POP POP JUMP JUMPDEST PUSH1 0x0 PUSH2 0x365E PUSH2 0x3657 PUSH32 0xE2B7FB3B832174769106DAEBCFD6D1970523240DDA11281102DB9363B83B0DC4 DUP5 PUSH2 0x1B10 JUMP JUMPDEST PUSH1 0x1 PUSH2 0x3343 JUMP JUMPDEST PUSH1 0x1 SWAP1 SHL SWAP1 POP SWAP2 SWAP1 POP JUMP JUMPDEST PUSH1 0x0 PUSH26 0x100000000000000000000000000000000000000000000000000 DUP3 LT PUSH2 0x36C7 JUMPI PUSH1 0x40 MLOAD PUSH32 0x8C379A000000000000000000000000000000000000000000000000000000000 DUP2 MSTORE PUSH1 0x4 ADD PUSH2 0x36BE SWAP1 PUSH2 0x59D0 JUMP JUMPDEST PUSH1 0x40 MLOAD DUP1 SWAP2 SUB SWAP1 REVERT JUMPDEST DUP2 SWAP1 POP SWAP2 SWAP1 POP JUMP JUMPDEST PUSH1 0x0 PUSH2 0x36DD DUP3 PUSH1 0x0 ADD PUSH2 0x3892 JUMP JUMPDEST SWAP1 POP SWAP2 SWAP1 POP JUMP JUMPDEST PUSH2 0x36EC PUSH2 0x38A3 JUMP JUMPDEST PUSH1 0x0 DUP1 PUSH1 0x0 PUSH2 0x100 EXP DUP2 SLOAD DUP2 PUSH1 0xFF MUL NOT AND SWAP1 DUP4 ISZERO ISZERO MUL OR SWAP1 SSTORE POP PUSH32 0x5DB9EE0A495BF2E6FF9C91A7834C1BA4FDD244A5E8AA4E537BD38AEAE4B073AA DUP2 PUSH1 0x40 MLOAD PUSH2 0x3735 SWAP2 SWAP1 PUSH2 0x420A JUMP JUMPDEST PUSH1 0x40 MLOAD DUP1 SWAP2 SUB SWAP1 LOG1 POP JUMP JUMPDEST PUSH1 0x0 PUSH2 0x374C DUP4 DUP4 PUSH2 0x37B0 JUMP JUMPDEST PUSH2 0x37A5 JUMPI DUP3 PUSH1 0x0 ADD DUP3 SWAP1 DUP1 PUSH1 0x1 DUP2 SLOAD ADD DUP1 DUP3 SSTORE DUP1 SWAP2 POP POP PUSH1 0x1 SWAP1 SUB SWAP1 PUSH1 0x0 MSTORE PUSH1 0x20 PUSH1 0x0 KECCAK256 ADD PUSH1 0x0 SWAP1 SWAP2 SWAP1 SWAP2 SWAP1 SWAP2 POP SSTORE DUP3 PUSH1 0x0 ADD DUP1 SLOAD SWAP1 POP DUP4 PUSH1 0x1 ADD PUSH1 0x0 DUP5 DUP2 MSTORE PUSH1 0x20 ADD SWAP1 DUP2 MSTORE PUSH1 0x20 ADD PUSH1 0x0 KECCAK256 DUP2 SWAP1 SSTORE POP PUSH1 0x1 SWAP1 POP PUSH2 0x37AA JUMP JUMPDEST PUSH1 0x0 SWAP1 POP JUMPDEST SWAP3 SWAP2 POP POP JUMP JUMPDEST PUSH1 0x0 DUP1 DUP4 PUSH1 0x1 ADD PUSH1 0x0 DUP5 DUP2 MSTORE PUSH1 0x20 ADD SWAP1 DUP2 MSTORE PUSH1 0x20 ADD PUSH1 0x0 KECCAK256 SLOAD EQ ISZERO SWAP1 POP SWAP3 SWAP2 POP POP JUMP JUMPDEST PUSH1 0x0 DUP4 DUP4 GT ISZERO DUP3 SWAP1 PUSH2 0x381B JUMPI PUSH1 0x40 MLOAD PUSH32 0x8C379A000000000000000000000000000000000000000000000000000000000 DUP2 MSTORE PUSH1 0x4 ADD PUSH2 0x3812 SWAP2 SWAP1 PUSH2 0x5A34 JUMP JUMPDEST PUSH1 0x40 MLOAD DUP1 SWAP2 SUB SWAP1 REVERT JUMPDEST POP PUSH1 0x0 DUP4 DUP6 PUSH2 0x382A SWAP2 SWAP1 PUSH2 0x5A56 JUMP JUMPDEST SWAP1 POP DUP1 SWAP2 POP POP SWAP4 SWAP3 POP POP POP JUMP JUMPDEST PUSH1 0x0 PUSH2 0x385F DUP4 PUSH1 0x0 ADD DUP4 PUSH20 0xFFFFFFFFFFFFFFFFFFFFFFFFFFFFFFFFFFFFFFFF AND PUSH1 0x0 SHL PUSH2 0x38F2 JUMP JUMPDEST SWAP1 POP SWAP3 SWAP2 POP POP JUMP JUMPDEST PUSH1 0x0 DUP3 PUSH1 0x0 ADD DUP3 DUP2 SLOAD DUP2 LT PUSH2 0x387F JUMPI PUSH2 0x387E PUSH2 0x504E JUMP JUMPDEST JUMPDEST SWAP1 PUSH1 0x0 MSTORE PUSH1 0x20 PUSH1 0x0 KECCAK256 ADD SLOAD SWAP1 POP SWAP3 SWAP2 POP POP JUMP JUMPDEST PUSH1 0x0 DUP2 PUSH1 0x0 ADD DUP1 SLOAD SWAP1 POP SWAP1 POP SWAP2 SWAP1 POP JUMP JUMPDEST PUSH1 0x0 DUP1 SLOAD SWAP1 PUSH2 0x100 EXP SWAP1 DIV PUSH1 0xFF AND PUSH2 0x38F0 JUMPI PUSH1 0x40 MLOAD PUSH32 0x8C379A000000000000000000000000000000000000000000000000000000000 DUP2 MSTORE PUSH1 0x4 ADD PUSH2 0x38E7 SWAP1 PUSH2 0x5AD6 JUMP JUMPDEST PUSH1 0x40 MLOAD DUP1 SWAP2 SUB SWAP1 REVERT JUMPDEST JUMP JUMPDEST PUSH1 0x0 DUP1 DUP4 PUSH1 0x1 ADD PUSH1 0x0 DUP5 DUP2 MSTORE PUSH1 0x20 ADD SWAP1 DUP2 MSTORE PUSH1 0x20 ADD PUSH1 0x0 KECCAK256 SLOAD SWAP1 POP PUSH1 0x0 DUP2 EQ PUSH2 0x39FA JUMPI PUSH1 0x0 PUSH1 0x1 DUP3 PUSH2 0x3924 SWAP2 SWAP1 PUSH2 0x5A56 JUMP JUMPDEST SWAP1 POP PUSH1 0x0 PUSH1 0x1 DUP7 PUSH1 0x0 ADD DUP1 SLOAD SWAP1 POP PUSH2 0x393C SWAP2 SWAP1 PUSH2 0x5A56 JUMP JUMPDEST SWAP1 POP DUP2 DUP2 EQ PUSH2 0x39AB JUMPI PUSH1 0x0 DUP7 PUSH1 0x0 ADD DUP3 DUP2 SLOAD DUP2 LT PUSH2 0x395D JUMPI PUSH2 0x395C PUSH2 0x504E JUMP JUMPDEST JUMPDEST SWAP1 PUSH1 0x0 MSTORE PUSH1 0x20 PUSH1 0x0 KECCAK256 ADD SLOAD SWAP1 POP DUP1 DUP8 PUSH1 0x0 ADD DUP5 DUP2 SLOAD DUP2 LT PUSH2 0x3981 JUMPI PUSH2 0x3980 PUSH2 0x504E JUMP JUMPDEST JUMPDEST SWAP1 PUSH1 0x0 MSTORE PUSH1 0x20 PUSH1 0x0 KECCAK256 ADD DUP2 SWAP1 SSTORE POP DUP4 DUP8 PUSH1 0x1 ADD PUSH1 0x0 DUP4 DUP2 MSTORE PUSH1 0x20 ADD SWAP1 DUP2 MSTORE PUSH1 0x20 ADD PUSH1 0x0 KECCAK256 DUP2 SWAP1 SSTORE POP POP JUMPDEST DUP6 PUSH1 0x0 ADD DUP1 SLOAD DUP1 PUSH2 0x39BF JUMPI PUSH2 0x39BE PUSH2 0x5AF6 JUMP JUMPDEST JUMPDEST PUSH1 0x1 SWAP1 SUB DUP2 DUP2 SWAP1 PUSH1 0x0 MSTORE PUSH1 0x20 PUSH1 0x0 KECCAK256 ADD PUSH1 0x0 SWAP1 SSTORE SWAP1 SSTORE DUP6 PUSH1 0x1 ADD PUSH1 0x0 DUP7 DUP2 MSTORE PUSH1 0x20 ADD SWAP1 DUP2 MSTORE PUSH1 0x20 ADD PUSH1 0x0 KECCAK256 PUSH1 0x0 SWAP1 SSTORE PUSH1 0x1 SWAP4 POP POP POP POP PUSH2 0x3A00 JUMP JUMPDEST PUSH1 0x0 SWAP2 POP POP JUMPDEST SWAP3 SWAP2 POP POP JUMP JUMPDEST PUSH1 0x40 MLOAD DUP1 PUSH1 0x80 ADD PUSH1 0x40 MSTORE DUP1 PUSH1 0x0 PUSH1 0x4 DUP2 GT ISZERO PUSH2 0x3A25 JUMPI PUSH2 0x3A24 PUSH2 0x4363 JUMP JUMPDEST JUMPDEST DUP2 MSTORE PUSH1 0x20 ADD PUSH1 0x0 PUSH25 0xFFFFFFFFFFFFFFFFFFFFFFFFFFFFFFFFFFFFFFFFFFFFFFFFFF AND DUP2 MSTORE PUSH1 0x20 ADD PUSH1 0x0 PUSH1 0xFF AND DUP2 MSTORE PUSH1 0x20 ADD PUSH1 0x0 PUSH5 0xFFFFFFFFFF AND DUP2 MSTORE POP SWAP1 JUMP JUMPDEST PUSH1 0x0 PUSH1 0x40 MLOAD SWAP1 POP SWAP1 JUMP JUMPDEST PUSH1 0x0 DUP1 REVERT JUMPDEST PUSH1 0x0 DUP1 REVERT JUMPDEST PUSH1 0x0 PUSH1 0xFF DUP3 AND SWAP1 POP SWAP2 SWAP1 POP JUMP JUMPDEST PUSH2 0x3A8F DUP2 PUSH2 0x3A79 JUMP JUMPDEST DUP2 EQ PUSH2 0x3A9A JUMPI PUSH1 0x0 DUP1 REVERT JUMPDEST POP JUMP JUMPDEST PUSH1 0x0 DUP2 CALLDATALOAD SWAP1 POP PUSH2 0x3AAC DUP2 PUSH2 0x3A86 JUMP JUMPDEST SWAP3 SWAP2 POP POP JUMP JUMPDEST PUSH1 0x0 DUP2 SWAP1 POP SWAP2 SWAP1 POP JUMP JUMPDEST PUSH2 0x3AC5 DUP2 PUSH2 0x3AB2 JUMP JUMPDEST DUP2 EQ PUSH2 0x3AD0 JUMPI PUSH1 0x0 DUP1 REVERT JUMPDEST POP JUMP JUMPDEST PUSH1 0x0 DUP2 CALLDATALOAD SWAP1 POP PUSH2 0x3AE2 DUP2 PUSH2 0x3ABC JUMP JUMPDEST SWAP3 SWAP2 POP POP JUMP JUMPDEST PUSH1 0x0 DUP1 REVERT JUMPDEST PUSH1 0x0 DUP1 REVERT JUMPDEST PUSH1 0x0 DUP1 REVERT JUMPDEST PUSH1 0x0 DUP1 DUP4 PUSH1 0x1F DUP5 ADD SLT PUSH2 0x3B0D JUMPI PUSH2 0x3B0C PUSH2 0x3AE8 JUMP JUMPDEST JUMPDEST DUP3 CALLDATALOAD SWAP1 POP PUSH8 0xFFFFFFFFFFFFFFFF DUP2 GT ISZERO PUSH2 0x3B2A JUMPI PUSH2 0x3B29 PUSH2 0x3AED JUMP JUMPDEST JUMPDEST PUSH1 0x20 DUP4 ADD SWAP2 POP DUP4 PUSH1 0x1 DUP3 MUL DUP4 ADD GT ISZERO PUSH2 0x3B46 JUMPI PUSH2 0x3B45 PUSH2 0x3AF2 JUMP JUMPDEST JUMPDEST SWAP3 POP SWAP3 SWAP1 POP JUMP JUMPDEST PUSH1 0x0 DUP1 PUSH1 0x0 DUP1 PUSH1 0x60 DUP6 DUP8 SUB SLT ISZERO PUSH2 0x3B67 JUMPI PUSH2 0x3B66 PUSH2 0x3A6F JUMP JUMPDEST JUMPDEST PUSH1 0x0 PUSH2 0x3B75 DUP8 DUP3 DUP9 ADD PUSH2 0x3A9D JUMP JUMPDEST SWAP5 POP POP PUSH1 0x20 PUSH2 0x3B86 DUP8 DUP3 DUP9 ADD PUSH2 0x3AD3 JUMP JUMPDEST SWAP4 POP POP PUSH1 0x40 DUP6 ADD CALLDATALOAD PUSH8 0xFFFFFFFFFFFFFFFF DUP2 GT ISZERO PUSH2 0x3BA7 JUMPI PUSH2 0x3BA6 PUSH2 0x3A74 JUMP JUMPDEST JUMPDEST PUSH2 0x3BB3 DUP8 DUP3 DUP9 ADD PUSH2 0x3AF7 JUMP JUMPDEST SWAP3 POP SWAP3 POP POP SWAP3 SWAP6 SWAP2 SWAP5 POP SWAP3 POP JUMP JUMPDEST PUSH1 0x0 PUSH20 0xFFFFFFFFFFFFFFFFFFFFFFFFFFFFFFFFFFFFFFFF DUP3 AND SWAP1 POP SWAP2 SWAP1 POP JUMP JUMPDEST PUSH1 0x0 PUSH2 0x3BEC DUP3 PUSH2 0x3BC1 JUMP JUMPDEST SWAP1 POP SWAP2 SWAP1 POP JUMP JUMPDEST PUSH2 0x3BFC DUP2 PUSH2 0x3BE1 JUMP JUMPDEST DUP2 EQ PUSH2 0x3C07 JUMPI PUSH1 0x0 DUP1 REVERT JUMPDEST POP JUMP JUMPDEST PUSH1 0x0 DUP2 CALLDATALOAD SWAP1 POP PUSH2 0x3C19 DUP2 PUSH2 0x3BF3 JUMP JUMPDEST SWAP3 SWAP2 POP POP JUMP JUMPDEST PUSH1 0x0 DUP1 PUSH1 0x40 DUP4 DUP6 SUB SLT ISZERO PUSH2 0x3C36 JUMPI PUSH2 0x3C35 PUSH2 0x3A6F JUMP JUMPDEST JUMPDEST PUSH1 0x0 PUSH2 0x3C44 DUP6 DUP3 DUP7 ADD PUSH2 0x3C0A JUMP JUMPDEST SWAP3 POP POP PUSH1 0x20 PUSH2 0x3C55 DUP6 DUP3 DUP7 ADD PUSH2 0x3AD3 JUMP JUMPDEST SWAP2 POP POP SWAP3 POP SWAP3 SWAP1 POP JUMP JUMPDEST PUSH1 0x0 PUSH8 0xFFFFFFFFFFFFFFFF DUP3 AND SWAP1 POP SWAP2 SWAP1 POP JUMP JUMPDEST PUSH2 0x3C7C DUP2 PUSH2 0x3C5F JUMP JUMPDEST DUP2 EQ PUSH2 0x3C87 JUMPI PUSH1 0x0 DUP1 REVERT JUMPDEST POP JUMP JUMPDEST PUSH1 0x0 DUP2 CALLDATALOAD SWAP1 POP PUSH2 0x3C99 DUP2 PUSH2 0x3C73 JUMP JUMPDEST SWAP3 SWAP2 POP POP JUMP JUMPDEST PUSH1 0x0 DUP1 PUSH1 0x0 PUSH1 0x60 DUP5 DUP7 SUB SLT ISZERO PUSH2 0x3CB8 JUMPI PUSH2 0x3CB7 PUSH2 0x3A6F JUMP JUMPDEST JUMPDEST PUSH1 0x0 PUSH2 0x3CC6 DUP7 DUP3 DUP8 ADD PUSH2 0x3A9D JUMP JUMPDEST SWAP4 POP POP PUSH1 0x20 PUSH2 0x3CD7 DUP7 DUP3 DUP8 ADD PUSH2 0x3C8A JUMP JUMPDEST SWAP3 POP POP PUSH1 0x40 PUSH2 0x3CE8 DUP7 DUP3 DUP8 ADD PUSH2 0x3AD3 JUMP JUMPDEST SWAP2 POP POP SWAP3 POP SWAP3 POP SWAP3 JUMP JUMPDEST PUSH1 0x0 DUP2 SWAP1 POP SWAP2 SWAP1 POP JUMP JUMPDEST PUSH2 0x3D05 DUP2 PUSH2 0x3CF2 JUMP JUMPDEST DUP2 EQ PUSH2 0x3D10 JUMPI PUSH1 0x0 DUP1 REVERT JUMPDEST POP JUMP JUMPDEST PUSH1 0x0 DUP2 CALLDATALOAD SWAP1 POP PUSH2 0x3D22 DUP2 PUSH2 0x3CFC JUMP JUMPDEST SWAP3 SWAP2 POP POP JUMP JUMPDEST PUSH1 0x0 DUP1 PUSH1 0x0 PUSH1 0x60 DUP5 DUP7 SUB SLT ISZERO PUSH2 0x3D41 JUMPI PUSH2 0x3D40 PUSH2 0x3A6F JUMP JUMPDEST JUMPDEST PUSH1 0x0 PUSH2 0x3D4F DUP7 DUP3 DUP8 ADD PUSH2 0x3C0A JUMP JUMPDEST SWAP4 POP POP PUSH1 0x20 PUSH2 0x3D60 DUP7 DUP3 DUP8 ADD PUSH2 0x3D13 JUMP JUMPDEST SWAP3 POP POP PUSH1 0x40 PUSH2 0x3D71 DUP7 DUP3 DUP8 ADD PUSH2 0x3AD3 JUMP JUMPDEST SWAP2 POP POP SWAP3 POP SWAP3 POP SWAP3 JUMP JUMPDEST PUSH1 0x0 DUP2 ISZERO ISZERO SWAP1 POP SWAP2 SWAP1 POP JUMP JUMPDEST PUSH2 0x3D90 DUP2 PUSH2 0x3D7B JUMP JUMPDEST DUP2 EQ PUSH2 0x3D9B JUMPI PUSH1 0x0 DUP1 REVERT JUMPDEST POP JUMP JUMPDEST PUSH1 0x0 DUP2 CALLDATALOAD SWAP1 POP PUSH2 0x3DAD DUP2 PUSH2 0x3D87 JUMP JUMPDEST SWAP3 SWAP2 POP POP JUMP JUMPDEST PUSH1 0x0 DUP1 PUSH1 0x0 DUP1 PUSH1 0x0 DUP1 PUSH1 0xA0 DUP8 DUP10 SUB SLT ISZERO PUSH2 0x3DD0 JUMPI PUSH2 0x3DCF PUSH2 0x3A6F JUMP JUMPDEST JUMPDEST PUSH1 0x0 PUSH2 0x3DDE DUP10 DUP3 DUP11 ADD PUSH2 0x3A9D JUMP JUMPDEST SWAP7 POP POP PUSH1 0x20 PUSH2 0x3DEF DUP10 DUP3 DUP11 ADD PUSH2 0x3C8A JUMP JUMPDEST SWAP6 POP POP PUSH1 0x40 DUP8 ADD CALLDATALOAD PUSH8 0xFFFFFFFFFFFFFFFF DUP2 GT ISZERO PUSH2 0x3E10 JUMPI PUSH2 0x3E0F PUSH2 0x3A74 JUMP JUMPDEST JUMPDEST PUSH2 0x3E1C DUP10 DUP3 DUP11 ADD PUSH2 0x3AF7 JUMP JUMPDEST SWAP5 POP SWAP5 POP POP PUSH1 0x60 PUSH2 0x3E2F DUP10 DUP3 DUP11 ADD PUSH2 0x3AD3 JUMP JUMPDEST SWAP3 POP POP PUSH1 0x80 PUSH2 0x3E40 DUP10 DUP3 DUP11 ADD PUSH2 0x3D9E JUMP JUMPDEST SWAP2 POP POP SWAP3 SWAP6 POP SWAP3 SWAP6 POP SWAP3 SWAP6 JUMP JUMPDEST PUSH1 0x0 PUSH1 0x20 DUP3 DUP5 SUB SLT ISZERO PUSH2 0x3E63 JUMPI PUSH2 0x3E62 PUSH2 0x3A6F JUMP JUMPDEST JUMPDEST PUSH1 0x0 PUSH2 0x3E71 DUP5 DUP3 DUP6 ADD PUSH2 0x3AD3 JUMP JUMPDEST SWAP2 POP POP SWAP3 SWAP2 POP POP JUMP JUMPDEST PUSH2 0x3E83 DUP2 PUSH2 0x3AB2 JUMP JUMPDEST DUP3 MSTORE POP POP JUMP JUMPDEST PUSH1 0x0 PUSH1 0x20 DUP3 ADD SWAP1 POP PUSH2 0x3E9E PUSH1 0x0 DUP4 ADD DUP5 PUSH2 0x3E7A JUMP JUMPDEST SWAP3 SWAP2 POP POP JUMP JUMPDEST PUSH1 0x0 DUP1 PUSH1 0x40 DUP4 DUP6 SUB SLT ISZERO PUSH2 0x3EBB JUMPI PUSH2 0x3EBA PUSH2 0x3A6F JUMP JUMPDEST JUMPDEST PUSH1 0x0 PUSH2 0x3EC9 DUP6 DUP3 DUP7 ADD PUSH2 0x3AD3 JUMP JUMPDEST SWAP3 POP POP PUSH1 0x20 PUSH2 0x3EDA DUP6 DUP3 DUP7 ADD PUSH2 0x3C0A JUMP JUMPDEST SWAP2 POP POP SWAP3 POP SWAP3 SWAP1 POP JUMP JUMPDEST PUSH1 0x0 DUP1 DUP4 PUSH1 0x1F DUP5 ADD SLT PUSH2 0x3EFA JUMPI PUSH2 0x3EF9 PUSH2 0x3AE8 JUMP JUMPDEST JUMPDEST DUP3 CALLDATALOAD SWAP1 POP PUSH8 0xFFFFFFFFFFFFFFFF DUP2 GT ISZERO PUSH2 0x3F17 JUMPI PUSH2 0x3F16 PUSH2 0x3AED JUMP JUMPDEST JUMPDEST PUSH1 0x20 DUP4 ADD SWAP2 POP DUP4 PUSH1 0x20 DUP3 MUL DUP4 ADD GT ISZERO PUSH2 0x3F33 JUMPI PUSH2 0x3F32 PUSH2 0x3AF2 JUMP JUMPDEST JUMPDEST SWAP3 POP SWAP3 SWAP1 POP JUMP JUMPDEST PUSH1 0x0 DUP1 DUP4 PUSH1 0x1F DUP5 ADD SLT PUSH2 0x3F50 JUMPI PUSH2 0x3F4F PUSH2 0x3AE8 JUMP JUMPDEST JUMPDEST DUP3 CALLDATALOAD SWAP1 POP PUSH8 0xFFFFFFFFFFFFFFFF DUP2 GT ISZERO PUSH2 0x3F6D JUMPI PUSH2 0x3F6C PUSH2 0x3AED JUMP JUMPDEST JUMPDEST PUSH1 0x20 DUP4 ADD SWAP2 POP DUP4 PUSH1 0x20 DUP3 MUL DUP4 ADD GT ISZERO PUSH2 0x3F89 JUMPI PUSH2 0x3F88 PUSH2 0x3AF2 JUMP JUMPDEST JUMPDEST SWAP3 POP SWAP3 SWAP1 POP JUMP JUMPDEST PUSH1 0x0 DUP1 PUSH1 0x0 DUP1 PUSH1 0x40 DUP6 DUP8 SUB SLT ISZERO PUSH2 0x3FAA JUMPI PUSH2 0x3FA9 PUSH2 0x3A6F JUMP JUMPDEST JUMPDEST PUSH1 0x0 DUP6 ADD CALLDATALOAD PUSH8 0xFFFFFFFFFFFFFFFF DUP2 GT ISZERO PUSH2 0x3FC8 JUMPI PUSH2 0x3FC7 PUSH2 0x3A74 JUMP JUMPDEST JUMPDEST PUSH2 0x3FD4 DUP8 DUP3 DUP9 ADD PUSH2 0x3EE4 JUMP JUMPDEST SWAP5 POP SWAP5 POP POP PUSH1 0x20 DUP6 ADD CALLDATALOAD PUSH8 0xFFFFFFFFFFFFFFFF DUP2 GT ISZERO PUSH2 0x3FF7 JUMPI PUSH2 0x3FF6 PUSH2 0x3A74 JUMP JUMPDEST JUMPDEST PUSH2 0x4003 DUP8 DUP3 DUP9 ADD PUSH2 0x3F3A JUMP JUMPDEST SWAP3 POP SWAP3 POP POP SWAP3 SWAP6 SWAP2 SWAP5 POP SWAP3 POP JUMP JUMPDEST PUSH1 0x0 PUSH1 0x20 DUP3 DUP5 SUB SLT ISZERO PUSH2 0x4027 JUMPI PUSH2 0x4026 PUSH2 0x3A6F JUMP JUMPDEST JUMPDEST PUSH1 0x0 PUSH2 0x4035 DUP5 DUP3 DUP6 ADD PUSH2 0x3A9D JUMP JUMPDEST SWAP2 POP POP SWAP3 SWAP2 POP POP JUMP JUMPDEST PUSH2 0x4047 DUP2 PUSH2 0x3C5F JUMP JUMPDEST DUP3 MSTORE POP POP JUMP JUMPDEST PUSH1 0x0 PUSH1 0x20 DUP3 ADD SWAP1 POP PUSH2 0x4062 PUSH1 0x0 DUP4 ADD DUP5 PUSH2 0x403E JUMP JUMPDEST SWAP3 SWAP2 POP POP JUMP JUMPDEST PUSH1 0x0 PUSH1 0x20 DUP3 DUP5 SUB SLT ISZERO PUSH2 0x407E JUMPI PUSH2 0x407D PUSH2 0x3A6F JUMP JUMPDEST JUMPDEST PUSH1 0x0 PUSH2 0x408C DUP5 DUP3 DUP6 ADD PUSH2 0x3D13 JUMP JUMPDEST SWAP2 POP POP SWAP3 SWAP2 POP POP JUMP JUMPDEST PUSH2 0x409E DUP2 PUSH2 0x3CF2 JUMP JUMPDEST DUP3 MSTORE POP POP JUMP JUMPDEST PUSH1 0x0 PUSH1 0x20 DUP3 ADD SWAP1 POP PUSH2 0x40B9 PUSH1 0x0 DUP4 ADD DUP5 PUSH2 0x4095 JUMP JUMPDEST SWAP3 SWAP2 POP POP JUMP JUMPDEST PUSH1 0x0 PUSH1 0x20 DUP3 DUP5 SUB SLT ISZERO PUSH2 0x40D5 JUMPI PUSH2 0x40D4 PUSH2 0x3A6F JUMP JUMPDEST JUMPDEST PUSH1 0x0 PUSH2 0x40E3 DUP5 DUP3 DUP6 ADD PUSH2 0x3C0A JUMP JUMPDEST SWAP2 POP POP SWAP3 SWAP2 POP POP JUMP JUMPDEST PUSH2 0x40F5 DUP2 PUSH2 0x3D7B JUMP JUMPDEST DUP3 MSTORE POP POP JUMP JUMPDEST PUSH1 0x0 PUSH1 0x20 DUP3 ADD SWAP1 POP PUSH2 0x4110 PUSH1 0x0 DUP4 ADD DUP5 PUSH2 0x40EC JUMP JUMPDEST SWAP3 SWAP2 POP POP JUMP JUMPDEST PUSH1 0x0 PUSH32 0xFFFFFFFF00000000000000000000000000000000000000000000000000000000 DUP3 AND SWAP1 POP SWAP2 SWAP1 POP JUMP JUMPDEST PUSH2 0x414B DUP2 PUSH2 0x4116 JUMP JUMPDEST DUP2 EQ PUSH2 0x4156 JUMPI PUSH1 0x0 DUP1 REVERT JUMPDEST POP JUMP JUMPDEST PUSH1 0x0 DUP2 CALLDATALOAD SWAP1 POP PUSH2 0x4168 DUP2 PUSH2 0x4142 JUMP JUMPDEST SWAP3 SWAP2 POP POP JUMP JUMPDEST PUSH1 0x0 DUP1 PUSH1 0x0 DUP1 PUSH1 0x0 DUP1 PUSH1 0xC0 DUP8 DUP10 SUB SLT ISZERO PUSH2 0x418B JUMPI PUSH2 0x418A PUSH2 0x3A6F JUMP JUMPDEST JUMPDEST PUSH1 0x0 PUSH2 0x4199 DUP10 DUP3 DUP11 ADD PUSH2 0x3C0A JUMP JUMPDEST SWAP7 POP POP PUSH1 0x20 PUSH2 0x41AA DUP10 DUP3 DUP11 ADD PUSH2 0x3AD3 JUMP JUMPDEST SWAP6 POP POP PUSH1 0x40 PUSH2 0x41BB DUP10 DUP3 DUP11 ADD PUSH2 0x3C0A JUMP JUMPDEST SWAP5 POP POP PUSH1 0x60 PUSH2 0x41CC DUP10 DUP3 DUP11 ADD PUSH2 0x4159 JUMP JUMPDEST SWAP4 POP POP PUSH1 0x80 PUSH2 0x41DD DUP10 DUP3 DUP11 ADD PUSH2 0x3D13 JUMP JUMPDEST SWAP3 POP POP PUSH1 0xA0 PUSH2 0x41EE DUP10 DUP3 DUP11 ADD PUSH2 0x4159 JUMP JUMPDEST SWAP2 POP POP SWAP3 SWAP6 POP SWAP3 SWAP6 POP SWAP3 SWAP6 JUMP JUMPDEST PUSH2 0x4204 DUP2 PUSH2 0x3BE1 JUMP JUMPDEST DUP3 MSTORE POP POP JUMP JUMPDEST PUSH1 0x0 PUSH1 0x20 DUP3 ADD SWAP1 POP PUSH2 0x421F PUSH1 0x0 DUP4 ADD DUP5 PUSH2 0x41FB JUMP JUMPDEST SWAP3 SWAP2 POP POP JUMP JUMPDEST PUSH1 0x0 PUSH9 0xFFFFFFFFFFFFFFFFFF DUP3 AND SWAP1 POP SWAP2 SWAP1 POP JUMP JUMPDEST PUSH2 0x4243 DUP2 PUSH2 0x4225 JUMP JUMPDEST DUP2 EQ PUSH2 0x424E JUMPI PUSH1 0x0 DUP1 REVERT JUMPDEST POP JUMP JUMPDEST PUSH1 0x0 DUP2 CALLDATALOAD SWAP1 POP PUSH2 0x4260 DUP2 PUSH2 0x423A JUMP JUMPDEST SWAP3 SWAP2 POP POP JUMP JUMPDEST PUSH1 0x0 DUP1 PUSH1 0x0 PUSH1 0x60 DUP5 DUP7 SUB SLT ISZERO PUSH2 0x427F JUMPI PUSH2 0x427E PUSH2 0x3A6F JUMP JUMPDEST JUMPDEST PUSH1 0x0 PUSH2 0x428D DUP7 DUP3 DUP8 ADD PUSH2 0x4251 JUMP JUMPDEST SWAP4 POP POP PUSH1 0x20 PUSH2 0x429E DUP7 DUP3 DUP8 ADD PUSH2 0x3AD3 JUMP JUMPDEST SWAP3 POP POP PUSH1 0x40 PUSH2 0x42AF DUP7 DUP3 DUP8 ADD PUSH2 0x3C0A JUMP JUMPDEST SWAP2 POP POP SWAP3 POP SWAP3 POP SWAP3 JUMP JUMPDEST PUSH1 0x0 DUP1 PUSH1 0x40 DUP4 DUP6 SUB SLT ISZERO PUSH2 0x42D0 JUMPI PUSH2 0x42CF PUSH2 0x3A6F JUMP JUMPDEST JUMPDEST PUSH1 0x0 PUSH2 0x42DE DUP6 DUP3 DUP7 ADD PUSH2 0x3C0A JUMP JUMPDEST SWAP3 POP POP PUSH1 0x20 PUSH2 0x42EF DUP6 DUP3 DUP7 ADD PUSH2 0x3C0A JUMP JUMPDEST SWAP2 POP POP SWAP3 POP SWAP3 SWAP1 POP JUMP JUMPDEST PUSH1 0x0 DUP1 PUSH1 0x40 DUP4 DUP6 SUB SLT ISZERO PUSH2 0x4310 JUMPI PUSH2 0x430F PUSH2 0x3A6F JUMP JUMPDEST JUMPDEST PUSH1 0x0 PUSH2 0x431E DUP6 DUP3 DUP7 ADD PUSH2 0x3AD3 JUMP JUMPDEST SWAP3 POP POP PUSH1 0x20 PUSH2 0x432F DUP6 DUP3 DUP7 ADD PUSH2 0x3D13 JUMP JUMPDEST SWAP2 POP POP SWAP3 POP SWAP3 SWAP1 POP JUMP JUMPDEST PUSH2 0x4342 DUP2 PUSH2 0x3A79 JUMP JUMPDEST DUP3 MSTORE POP POP JUMP JUMPDEST PUSH1 0x0 PUSH1 0x20 DUP3 ADD SWAP1 POP PUSH2 0x435D PUSH1 0x0 DUP4 ADD DUP5 PUSH2 0x4339 JUMP JUMPDEST SWAP3 SWAP2 POP POP JUMP JUMPDEST PUSH32 0x4E487B7100000000000000000000000000000000000000000000000000000000 PUSH1 0x0 MSTORE PUSH1 0x21 PUSH1 0x4 MSTORE PUSH1 0x24 PUSH1 0x0 REVERT JUMPDEST PUSH1 0x5 DUP2 LT PUSH2 0x43A3 JUMPI PUSH2 0x43A2 PUSH2 0x4363 JUMP JUMPDEST JUMPDEST POP JUMP JUMPDEST PUSH1 0x0 DUP2 SWAP1 POP PUSH2 0x43B4 DUP3 PUSH2 0x4392 JUMP JUMPDEST SWAP2 SWAP1 POP JUMP JUMPDEST PUSH1 0x0 PUSH2 0x43C4 DUP3 PUSH2 0x43A6 JUMP JUMPDEST SWAP1 POP SWAP2 SWAP1 POP JUMP JUMPDEST PUSH2 0x43D4 DUP2 PUSH2 0x43B9 JUMP JUMPDEST DUP3 MSTORE POP POP JUMP JUMPDEST PUSH1 0x0 PUSH25 0xFFFFFFFFFFFFFFFFFFFFFFFFFFFFFFFFFFFFFFFFFFFFFFFFFF DUP3 AND SWAP1 POP SWAP2 SWAP1 POP JUMP JUMPDEST PUSH2 0x4408 DUP2 PUSH2 0x43DA JUMP JUMPDEST DUP3 MSTORE POP POP JUMP JUMPDEST PUSH2 0x4417 DUP2 PUSH2 0x3A79 JUMP JUMPDEST DUP3 MSTORE POP POP JUMP JUMPDEST PUSH1 0x0 PUSH5 0xFFFFFFFFFF DUP3 AND SWAP1 POP SWAP2 SWAP1 POP JUMP JUMPDEST PUSH2 0x4437 DUP2 PUSH2 0x441D JUMP JUMPDEST DUP3 MSTORE POP POP JUMP JUMPDEST PUSH1 0x80 DUP3 ADD PUSH1 0x0 DUP3 ADD MLOAD PUSH2 0x4453 PUSH1 0x0 DUP6 ADD DUP3 PUSH2 0x43CB JUMP JUMPDEST POP PUSH1 0x20 DUP3 ADD MLOAD PUSH2 0x4466 PUSH1 0x20 DUP6 ADD DUP3 PUSH2 0x43FF JUMP JUMPDEST POP PUSH1 0x40 DUP3 ADD MLOAD PUSH2 0x4479 PUSH1 0x40 DUP6 ADD DUP3 PUSH2 0x440E JUMP JUMPDEST POP PUSH1 0x60 DUP3 ADD MLOAD PUSH2 0x448C PUSH1 0x60 DUP6 ADD DUP3 PUSH2 0x442E JUMP JUMPDEST POP POP POP POP JUMP JUMPDEST PUSH1 0x0 PUSH1 0x80 DUP3 ADD SWAP1 POP PUSH2 0x44A7 PUSH1 0x0 DUP4 ADD DUP5 PUSH2 0x443D JUMP JUMPDEST SWAP3 SWAP2 POP POP JUMP JUMPDEST PUSH1 0x0 DUP1 REVERT JUMPDEST PUSH1 0x0 PUSH1 0x1F NOT PUSH1 0x1F DUP4 ADD AND SWAP1 POP SWAP2 SWAP1 POP JUMP JUMPDEST PUSH32 0x4E487B7100000000000000000000000000000000000000000000000000000000 PUSH1 0x0 MSTORE PUSH1 0x41 PUSH1 0x4 MSTORE PUSH1 0x24 PUSH1 0x0 REVERT JUMPDEST PUSH2 0x44FB DUP3 PUSH2 0x44B2 JUMP JUMPDEST DUP2 ADD DUP2 DUP2 LT PUSH8 0xFFFFFFFFFFFFFFFF DUP3 GT OR ISZERO PUSH2 0x451A JUMPI PUSH2 0x4519 PUSH2 0x44C3 JUMP JUMPDEST JUMPDEST DUP1 PUSH1 0x40 MSTORE POP POP POP JUMP JUMPDEST PUSH1 0x0 PUSH2 0x452D PUSH2 0x3A65 JUMP JUMPDEST SWAP1 POP PUSH2 0x4539 DUP3 DUP3 PUSH2 0x44F2 JUMP JUMPDEST SWAP2 SWAP1 POP JUMP JUMPDEST PUSH1 0x0 PUSH8 0xFFFFFFFFFFFFFFFF DUP3 GT ISZERO PUSH2 0x4559 JUMPI PUSH2 0x4558 PUSH2 0x44C3 JUMP JUMPDEST JUMPDEST PUSH2 0x4562 DUP3 PUSH2 0x44B2 JUMP JUMPDEST SWAP1 POP PUSH1 0x20 DUP2 ADD SWAP1 POP SWAP2 SWAP1 POP JUMP JUMPDEST DUP3 DUP2 DUP4 CALLDATACOPY PUSH1 0x0 DUP4 DUP4 ADD MSTORE POP POP POP JUMP JUMPDEST PUSH1 0x0 PUSH2 0x4591 PUSH2 0x458C DUP5 PUSH2 0x453E JUMP JUMPDEST PUSH2 0x4523 JUMP JUMPDEST SWAP1 POP DUP3 DUP2 MSTORE PUSH1 0x20 DUP2 ADD DUP5 DUP5 DUP5 ADD GT ISZERO PUSH2 0x45AD JUMPI PUSH2 0x45AC PUSH2 0x44AD JUMP JUMPDEST JUMPDEST PUSH2 0x45B8 DUP5 DUP3 DUP6 PUSH2 0x456F JUMP JUMPDEST POP SWAP4 SWAP3 POP POP POP JUMP JUMPDEST PUSH1 0x0 DUP3 PUSH1 0x1F DUP4 ADD SLT PUSH2 0x45D5 JUMPI PUSH2 0x45D4 PUSH2 0x3AE8 JUMP JUMPDEST JUMPDEST DUP2 CALLDATALOAD PUSH2 0x45E5 DUP5 DUP3 PUSH1 0x20 DUP7 ADD PUSH2 0x457E JUMP JUMPDEST SWAP2 POP POP SWAP3 SWAP2 POP POP JUMP JUMPDEST PUSH1 0x0 DUP1 PUSH1 0x40 DUP4 DUP6 SUB SLT ISZERO PUSH2 0x4605 JUMPI PUSH2 0x4604 PUSH2 0x3A6F JUMP JUMPDEST JUMPDEST PUSH1 0x0 PUSH2 0x4613 DUP6 DUP3 DUP7 ADD PUSH2 0x3C0A JUMP JUMPDEST SWAP3 POP POP PUSH1 0x20 DUP4 ADD CALLDATALOAD PUSH8 0xFFFFFFFFFFFFFFFF DUP2 GT ISZERO PUSH2 0x4634 JUMPI PUSH2 0x4633 PUSH2 0x3A74 JUMP JUMPDEST JUMPDEST PUSH2 0x4640 DUP6 DUP3 DUP7 ADD PUSH2 0x45C0 JUMP JUMPDEST SWAP2 POP POP SWAP3 POP SWAP3 SWAP1 POP JUMP JUMPDEST PUSH1 0x0 DUP1 PUSH1 0x0 DUP1 PUSH1 0x0 PUSH1 0x80 DUP7 DUP9 SUB SLT ISZERO PUSH2 0x4666 JUMPI PUSH2 0x4665 PUSH2 0x3A6F JUMP JUMPDEST JUMPDEST PUSH1 0x0 PUSH2 0x4674 DUP9 DUP3 DUP10 ADD PUSH2 0x3A9D JUMP JUMPDEST SWAP6 POP POP PUSH1 0x20 PUSH2 0x4685 DUP9 DUP3 DUP10 ADD PUSH2 0x3C8A JUMP JUMPDEST SWAP5 POP POP PUSH1 0x40 PUSH2 0x4696 DUP9 DUP3 DUP10 ADD PUSH2 0x3AD3 JUMP JUMPDEST SWAP4 POP POP PUSH1 0x60 DUP7 ADD CALLDATALOAD PUSH8 0xFFFFFFFFFFFFFFFF DUP2 GT ISZERO PUSH2 0x46B7 JUMPI PUSH2 0x46B6 PUSH2 0x3A74 JUMP JUMPDEST JUMPDEST PUSH2 0x46C3 DUP9 DUP3 DUP10 ADD PUSH2 0x3AF7 JUMP JUMPDEST SWAP3 POP SWAP3 POP POP SWAP3 SWAP6 POP SWAP3 SWAP6 SWAP1 SWAP4 POP JUMP JUMPDEST PUSH1 0x0 PUSH16 0xFFFFFFFFFFFFFFFFFFFFFFFFFFFFFFFF DUP3 AND SWAP1 POP SWAP2 SWAP1 POP JUMP JUMPDEST PUSH2 0x46F7 DUP2 PUSH2 0x46D2 JUMP JUMPDEST DUP3 MSTORE POP POP JUMP JUMPDEST PUSH1 0x0 PUSH1 0x20 DUP3 ADD SWAP1 POP PUSH2 0x4712 PUSH1 0x0 DUP4 ADD DUP5 PUSH2 0x46EE JUMP JUMPDEST SWAP3 SWAP2 POP POP JUMP JUMPDEST PUSH2 0x4721 DUP2 PUSH2 0x441D JUMP JUMPDEST DUP3 MSTORE POP POP JUMP JUMPDEST PUSH1 0x0 PUSH1 0x20 DUP3 ADD SWAP1 POP PUSH2 0x473C PUSH1 0x0 DUP4 ADD DUP5 PUSH2 0x4718 JUMP JUMPDEST SWAP3 SWAP2 POP POP JUMP JUMPDEST PUSH1 0x0 DUP1 PUSH1 0x0 PUSH1 0x60 DUP5 DUP7 SUB SLT ISZERO PUSH2 0x475B JUMPI PUSH2 0x475A PUSH2 0x3A6F JUMP JUMPDEST JUMPDEST PUSH1 0x0 PUSH2 0x4769 DUP7 DUP3 DUP8 ADD PUSH2 0x3C0A JUMP JUMPDEST SWAP4 POP POP PUSH1 0x20 PUSH2 0x477A DUP7 DUP3 DUP8 ADD PUSH2 0x3AD3 JUMP JUMPDEST SWAP3 POP POP PUSH1 0x40 PUSH2 0x478B DUP7 DUP3 DUP8 ADD PUSH2 0x3C0A JUMP JUMPDEST SWAP2 POP POP SWAP3 POP SWAP3 POP SWAP3 JUMP JUMPDEST PUSH1 0x0 DUP1 PUSH1 0x40 DUP4 DUP6 SUB SLT ISZERO PUSH2 0x47AC JUMPI PUSH2 0x47AB PUSH2 0x3A6F JUMP JUMPDEST JUMPDEST PUSH1 0x0 PUSH2 0x47BA DUP6 DUP3 DUP7 ADD PUSH2 0x3C0A JUMP JUMPDEST SWAP3 POP POP PUSH1 0x20 PUSH2 0x47CB DUP6 DUP3 DUP7 ADD PUSH2 0x3D9E JUMP JUMPDEST SWAP2 POP POP SWAP3 POP SWAP3 SWAP1 POP JUMP JUMPDEST PUSH1 0x0 DUP1 PUSH1 0x40 DUP4 DUP6 SUB SLT ISZERO PUSH2 0x47EC JUMPI PUSH2 0x47EB PUSH2 0x3A6F JUMP JUMPDEST JUMPDEST PUSH1 0x0 PUSH2 0x47FA DUP6 DUP3 DUP7 ADD PUSH2 0x3A9D JUMP JUMPDEST SWAP3 POP POP PUSH1 0x20 PUSH2 0x480B DUP6 DUP3 DUP7 ADD PUSH2 0x3C8A JUMP JUMPDEST SWAP2 POP POP SWAP3 POP SWAP3 SWAP1 POP JUMP JUMPDEST PUSH1 0x0 DUP3 DUP3 MSTORE PUSH1 0x20 DUP3 ADD SWAP1 POP SWAP3 SWAP2 POP POP JUMP JUMPDEST PUSH32 0x496E636F72726563742066656520737570706C69656400000000000000000000 PUSH1 0x0 DUP3 ADD MSTORE POP JUMP JUMPDEST PUSH1 0x0 PUSH2 0x485C PUSH1 0x16 DUP4 PUSH2 0x4815 JUMP JUMPDEST SWAP2 POP PUSH2 0x4867 DUP3 PUSH2 0x4826 JUMP JUMPDEST PUSH1 0x20 DUP3 ADD SWAP1 POP SWAP2 SWAP1 POP JUMP JUMPDEST PUSH1 0x0 PUSH1 0x20 DUP3 ADD SWAP1 POP DUP2 DUP2 SUB PUSH1 0x0 DUP4 ADD MSTORE PUSH2 0x488B DUP2 PUSH2 0x484F JUMP JUMPDEST SWAP1 POP SWAP2 SWAP1 POP JUMP JUMPDEST PUSH32 0x7265736F757263654944206E6F74206D617070656420746F2068616E646C6572 PUSH1 0x0 DUP3 ADD MSTORE POP JUMP JUMPDEST PUSH1 0x0 PUSH2 0x48C8 PUSH1 0x20 DUP4 PUSH2 0x4815 JUMP JUMPDEST SWAP2 POP PUSH2 0x48D3 DUP3 PUSH2 0x4892 JUMP JUMPDEST PUSH1 0x20 DUP3 ADD SWAP1 POP SWAP2 SWAP1 POP JUMP JUMPDEST PUSH1 0x0 PUSH1 0x20 DUP3 ADD SWAP1 POP DUP2 DUP2 SUB PUSH1 0x0 DUP4 ADD MSTORE PUSH2 0x48F7 DUP2 PUSH2 0x48BB JUMP JUMPDEST SWAP1 POP SWAP2 SWAP1 POP JUMP JUMPDEST PUSH32 0x4E487B7100000000000000000000000000000000000000000000000000000000 PUSH1 0x0 MSTORE PUSH1 0x11 PUSH1 0x4 MSTORE PUSH1 0x24 PUSH1 0x0 REVERT JUMPDEST PUSH1 0x0 PUSH2 0x4938 DUP3 PUSH2 0x3C5F JUMP JUMPDEST SWAP2 POP PUSH8 0xFFFFFFFFFFFFFFFF DUP3 EQ ISZERO PUSH2 0x4953 JUMPI PUSH2 0x4952 PUSH2 0x48FE JUMP JUMPDEST JUMPDEST PUSH1 0x1 DUP3 ADD SWAP1 POP SWAP2 SWAP1 POP JUMP JUMPDEST PUSH1 0x0 DUP3 DUP3 MSTORE PUSH1 0x20 DUP3 ADD SWAP1 POP SWAP3 SWAP2 POP POP JUMP JUMPDEST PUSH1 0x0 PUSH2 0x497B DUP4 DUP6 PUSH2 0x495E JUMP JUMPDEST SWAP4 POP PUSH2 0x4988 DUP4 DUP6 DUP5 PUSH2 0x456F JUMP JUMPDEST PUSH2 0x4991 DUP4 PUSH2 0x44B2 JUMP JUMPDEST DUP5 ADD SWAP1 POP SWAP4 SWAP3 POP POP POP JUMP JUMPDEST PUSH1 0x0 PUSH1 0x60 DUP3 ADD SWAP1 POP PUSH2 0x49B1 PUSH1 0x0 DUP4 ADD DUP8 PUSH2 0x3E7A JUMP JUMPDEST PUSH2 0x49BE PUSH1 0x20 DUP4 ADD DUP7 PUSH2 0x41FB JUMP JUMPDEST DUP2 DUP2 SUB PUSH1 0x40 DUP4 ADD MSTORE PUSH2 0x49D1 DUP2 DUP5 DUP7 PUSH2 0x496F JUMP JUMPDEST SWAP1 POP SWAP6 SWAP5 POP POP POP POP POP JUMP JUMPDEST PUSH1 0x0 JUMPDEST DUP4 DUP2 LT ISZERO PUSH2 0x49FA JUMPI DUP1 DUP3 ADD MLOAD DUP2 DUP5 ADD MSTORE PUSH1 0x20 DUP2 ADD SWAP1 POP PUSH2 0x49DF JUMP JUMPDEST DUP4 DUP2 GT ISZERO PUSH2 0x4A09 JUMPI PUSH1 0x0 DUP5 DUP5 ADD MSTORE JUMPDEST POP POP POP POP JUMP JUMPDEST PUSH1 0x0 PUSH2 0x4A22 PUSH2 0x4A1D DUP5 PUSH2 0x453E JUMP JUMPDEST PUSH2 0x4523 JUMP JUMPDEST SWAP1 POP DUP3 DUP2 MSTORE PUSH1 0x20 DUP2 ADD DUP5 DUP5 DUP5 ADD GT ISZERO PUSH2 0x4A3E JUMPI PUSH2 0x4A3D PUSH2 0x44AD JUMP JUMPDEST JUMPDEST PUSH2 0x4A49 DUP5 DUP3 DUP6 PUSH2 0x49DC JUMP JUMPDEST POP SWAP4 SWAP3 POP POP POP JUMP JUMPDEST PUSH1 0x0 DUP3 PUSH1 0x1F DUP4 ADD SLT PUSH2 0x4A66 JUMPI PUSH2 0x4A65 PUSH2 0x3AE8 JUMP JUMPDEST JUMPDEST DUP2 MLOAD PUSH2 0x4A76 DUP5 DUP3 PUSH1 0x20 DUP7 ADD PUSH2 0x4A0F JUMP JUMPDEST SWAP2 POP POP SWAP3 SWAP2 POP POP JUMP JUMPDEST PUSH1 0x0 PUSH1 0x20 DUP3 DUP5 SUB SLT ISZERO PUSH2 0x4A95 JUMPI PUSH2 0x4A94 PUSH2 0x3A6F JUMP JUMPDEST JUMPDEST PUSH1 0x0 DUP3 ADD MLOAD PUSH8 0xFFFFFFFFFFFFFFFF DUP2 GT ISZERO PUSH2 0x4AB3 JUMPI PUSH2 0x4AB2 PUSH2 0x3A74 JUMP JUMPDEST JUMPDEST PUSH2 0x4ABF DUP5 DUP3 DUP6 ADD PUSH2 0x4A51 JUMP JUMPDEST SWAP2 POP POP SWAP3 SWAP2 POP POP JUMP JUMPDEST PUSH1 0x0 DUP2 MLOAD SWAP1 POP SWAP2 SWAP1 POP JUMP JUMPDEST PUSH1 0x0 PUSH2 0x4ADE DUP3 PUSH2 0x4AC8 JUMP JUMPDEST PUSH2 0x4AE8 DUP2 DUP6 PUSH2 0x495E JUMP JUMPDEST SWAP4 POP PUSH2 0x4AF8 DUP2 DUP6 PUSH1 0x20 DUP7 ADD PUSH2 0x49DC JUMP JUMPDEST PUSH2 0x4B01 DUP2 PUSH2 0x44B2 JUMP JUMPDEST DUP5 ADD SWAP2 POP POP SWAP3 SWAP2 POP POP JUMP JUMPDEST PUSH1 0x0 PUSH1 0xA0 DUP3 ADD SWAP1 POP PUSH2 0x4B21 PUSH1 0x0 DUP4 ADD DUP10 PUSH2 0x4339 JUMP JUMPDEST PUSH2 0x4B2E PUSH1 0x20 DUP4 ADD DUP9 PUSH2 0x3E7A JUMP JUMPDEST PUSH2 0x4B3B PUSH1 0x40 DUP4 ADD DUP8 PUSH2 0x403E JUMP JUMPDEST DUP2 DUP2 SUB PUSH1 0x60 DUP4 ADD MSTORE PUSH2 0x4B4E DUP2 DUP6 DUP8 PUSH2 0x496F JUMP JUMPDEST SWAP1 POP DUP2 DUP2 SUB PUSH1 0x80 DUP4 ADD MSTORE PUSH2 0x4B62 DUP2 DUP5 PUSH2 0x4AD3 JUMP JUMPDEST SWAP1 POP SWAP8 SWAP7 POP POP POP POP POP POP POP JUMP JUMPDEST PUSH32 0x50726F706F73616C2063616E6E6F742062652063616E63656C6C656400000000 PUSH1 0x0 DUP3 ADD MSTORE POP JUMP JUMPDEST PUSH1 0x0 PUSH2 0x4BA5 PUSH1 0x1C DUP4 PUSH2 0x4815 JUMP JUMPDEST SWAP2 POP PUSH2 0x4BB0 DUP3 PUSH2 0x4B6F JUMP JUMPDEST PUSH1 0x20 DUP3 ADD SWAP1 POP SWAP2 SWAP1 POP JUMP JUMPDEST PUSH1 0x0 PUSH1 0x20 DUP3 ADD SWAP1 POP DUP2 DUP2 SUB PUSH1 0x0 DUP4 ADD MSTORE PUSH2 0x4BD4 DUP2 PUSH2 0x4B98 JUMP JUMPDEST SWAP1 POP SWAP2 SWAP1 POP JUMP JUMPDEST PUSH32 0x50726F706F73616C206E6F7420617420657870697279207468726573686F6C64 PUSH1 0x0 DUP3 ADD MSTORE POP JUMP JUMPDEST PUSH1 0x0 PUSH2 0x4C11 PUSH1 0x20 DUP4 PUSH2 0x4815 JUMP JUMPDEST SWAP2 POP PUSH2 0x4C1C DUP3 PUSH2 0x4BDB JUMP JUMPDEST PUSH1 0x20 DUP3 ADD SWAP1 POP SWAP2 SWAP1 POP JUMP JUMPDEST PUSH1 0x0 PUSH1 0x20 DUP3 ADD SWAP1 POP DUP2 DUP2 SUB PUSH1 0x0 DUP4 ADD MSTORE PUSH2 0x4C40 DUP2 PUSH2 0x4C04 JUMP JUMPDEST SWAP1 POP SWAP2 SWAP1 POP JUMP JUMPDEST PUSH2 0x4C50 DUP2 PUSH2 0x43B9 JUMP JUMPDEST DUP3 MSTORE POP POP JUMP JUMPDEST PUSH1 0x0 PUSH1 0x80 DUP3 ADD SWAP1 POP PUSH2 0x4C6B PUSH1 0x0 DUP4 ADD DUP8 PUSH2 0x4339 JUMP JUMPDEST PUSH2 0x4C78 PUSH1 0x20 DUP4 ADD DUP7 PUSH2 0x403E JUMP JUMPDEST PUSH2 0x4C85 PUSH1 0x40 DUP4 ADD DUP6 PUSH2 0x4C47 JUMP JUMPDEST PUSH2 0x4C92 PUSH1 0x60 DUP4 ADD DUP5 PUSH2 0x3E7A JUMP JUMPDEST SWAP6 SWAP5 POP POP POP POP POP JUMP JUMPDEST PUSH1 0x0 PUSH1 0x40 DUP3 ADD SWAP1 POP PUSH2 0x4CB0 PUSH1 0x0 DUP4 ADD DUP6 PUSH2 0x41FB JUMP JUMPDEST PUSH2 0x4CBD PUSH1 0x20 DUP4 ADD DUP5 PUSH2 0x41FB JUMP JUMPDEST SWAP4 SWAP3 POP POP POP JUMP JUMPDEST PUSH1 0x0 PUSH1 0x40 DUP3 ADD SWAP1 POP PUSH2 0x4CD9 PUSH1 0x0 DUP4 ADD DUP6 PUSH2 0x41FB JUMP JUMPDEST PUSH2 0x4CE6 PUSH1 0x20 DUP4 ADD DUP5 PUSH2 0x4095 JUMP JUMPDEST SWAP4 SWAP3 POP POP POP JUMP JUMPDEST PUSH1 0x0 DUP2 PUSH1 0x60 SHL SWAP1 POP SWAP2 SWAP1 POP JUMP JUMPDEST PUSH1 0x0 PUSH2 0x4D05 DUP3 PUSH2 0x4CED JUMP JUMPDEST SWAP1 POP SWAP2 SWAP1 POP JUMP JUMPDEST PUSH1 0x0 PUSH2 0x4D17 DUP3 PUSH2 0x4CFA JUMP JUMPDEST SWAP1 POP SWAP2 SWAP1 POP JUMP JUMPDEST PUSH2 0x4D2F PUSH2 0x4D2A DUP3 PUSH2 0x3BE1 JUMP JUMPDEST PUSH2 0x4D0C JUMP JUMPDEST DUP3 MSTORE POP POP JUMP JUMPDEST PUSH1 0x0 DUP2 SWAP1 POP SWAP3 SWAP2 POP POP JUMP JUMPDEST PUSH1 0x0 PUSH2 0x4D4C DUP4 DUP6 PUSH2 0x4D35 JUMP JUMPDEST SWAP4 POP PUSH2 0x4D59 DUP4 DUP6 DUP5 PUSH2 0x456F JUMP JUMPDEST DUP3 DUP5 ADD SWAP1 POP SWAP4 SWAP3 POP POP POP JUMP JUMPDEST PUSH1 0x0 PUSH2 0x4D71 DUP3 DUP7 PUSH2 0x4D1E JUMP JUMPDEST PUSH1 0x14 DUP3 ADD SWAP2 POP PUSH2 0x4D82 DUP3 DUP5 DUP7 PUSH2 0x4D40 JUMP JUMPDEST SWAP2 POP DUP2 SWAP1 POP SWAP5 SWAP4 POP POP POP POP JUMP JUMPDEST PUSH32 0x50726F706F73616C206D75737420686176652050617373656420737461747573 PUSH1 0x0 DUP3 ADD MSTORE POP JUMP JUMPDEST PUSH1 0x0 PUSH2 0x4DC5 PUSH1 0x20 DUP4 PUSH2 0x4815 JUMP JUMPDEST SWAP2 POP PUSH2 0x4DD0 DUP3 PUSH2 0x4D8F JUMP JUMPDEST PUSH1 0x20 DUP3 ADD SWAP1 POP SWAP2 SWAP1 POP JUMP JUMPDEST PUSH1 0x0 PUSH1 0x20 DUP3 ADD SWAP1 POP DUP2 DUP2 SUB PUSH1 0x0 DUP4 ADD MSTORE PUSH2 0x4DF4 DUP2 PUSH2 0x4DB8 JUMP JUMPDEST SWAP1 POP SWAP2 SWAP1 POP JUMP JUMPDEST PUSH1 0x0 PUSH1 0x40 DUP3 ADD SWAP1 POP PUSH2 0x4E10 PUSH1 0x0 DUP4 ADD DUP7 PUSH2 0x3E7A JUMP JUMPDEST DUP2 DUP2 SUB PUSH1 0x20 DUP4 ADD MSTORE PUSH2 0x4E23 DUP2 DUP5 DUP7 PUSH2 0x496F JUMP JUMPDEST SWAP1 POP SWAP5 SWAP4 POP POP POP POP JUMP JUMPDEST PUSH1 0x0 PUSH1 0x20 DUP3 ADD SWAP1 POP DUP2 DUP2 SUB PUSH1 0x0 DUP4 ADD MSTORE PUSH2 0x4E47 DUP2 DUP5 PUSH2 0x4AD3 JUMP JUMPDEST SWAP1 POP SWAP3 SWAP2 POP POP JUMP JUMPDEST PUSH1 0x0 DUP1 PUSH1 0x40 DUP4 DUP6 SUB SLT ISZERO PUSH2 0x4E66 JUMPI PUSH2 0x4E65 PUSH2 0x3A6F JUMP JUMPDEST JUMPDEST PUSH1 0x0 PUSH2 0x4E74 DUP6 DUP3 DUP7 ADD PUSH2 0x3D13 JUMP JUMPDEST SWAP3 POP POP PUSH1 0x20 PUSH2 0x4E85 DUP6 DUP3 DUP7 ADD PUSH2 0x3D13 JUMP JUMPDEST SWAP2 POP POP SWAP3 POP SWAP3 SWAP1 POP JUMP JUMPDEST PUSH1 0x0 PUSH2 0x4E9A DUP3 PUSH2 0x3CF2 JUMP JUMPDEST SWAP2 POP PUSH2 0x4EA5 DUP4 PUSH2 0x3CF2 JUMP JUMPDEST SWAP3 POP DUP3 PUSH32 0xFFFFFFFFFFFFFFFFFFFFFFFFFFFFFFFFFFFFFFFFFFFFFFFFFFFFFFFFFFFFFFFF SUB DUP3 GT ISZERO PUSH2 0x4EDA JUMPI PUSH2 0x4ED9 PUSH2 0x48FE JUMP JUMPDEST JUMPDEST DUP3 DUP3 ADD SWAP1 POP SWAP3 SWAP2 POP POP JUMP JUMPDEST PUSH1 0x0 DUP1 REVERT JUMPDEST PUSH1 0x0 DUP1 REVERT JUMPDEST PUSH1 0x0 DUP1 DUP6 DUP6 GT ISZERO PUSH2 0x4F03 JUMPI PUSH2 0x4F02 PUSH2 0x4EE5 JUMP JUMPDEST JUMPDEST DUP4 DUP7 GT ISZERO PUSH2 0x4F14 JUMPI PUSH2 0x4F13 PUSH2 0x4EEA JUMP JUMPDEST JUMPDEST PUSH1 0x1 DUP6 MUL DUP4 ADD SWAP2 POP DUP5 DUP7 SUB SWAP1 POP SWAP5 POP SWAP5 SWAP3 POP POP POP JUMP JUMPDEST PUSH32 0x416363657373436F6E74726F6C3A2073656E646572206D75737420626520616E PUSH1 0x0 DUP3 ADD MSTORE PUSH32 0x2061646D696E20746F206772616E740000000000000000000000000000000000 PUSH1 0x20 DUP3 ADD MSTORE POP JUMP JUMPDEST PUSH1 0x0 PUSH2 0x4F86 PUSH1 0x2F DUP4 PUSH2 0x4815 JUMP JUMPDEST SWAP2 POP PUSH2 0x4F91 DUP3 PUSH2 0x4F2A JUMP JUMPDEST PUSH1 0x40 DUP3 ADD SWAP1 POP SWAP2 SWAP1 POP JUMP JUMPDEST PUSH1 0x0 PUSH1 0x20 DUP3 ADD SWAP1 POP DUP2 DUP2 SUB PUSH1 0x0 DUP4 ADD MSTORE PUSH2 0x4FB5 DUP2 PUSH2 0x4F79 JUMP JUMPDEST SWAP1 POP SWAP2 SWAP1 POP JUMP JUMPDEST PUSH32 0x416363657373436F6E74726F6C3A2063616E206F6E6C792072656E6F756E6365 PUSH1 0x0 DUP3 ADD MSTORE PUSH32 0x20726F6C657320666F722073656C660000000000000000000000000000000000 PUSH1 0x20 DUP3 ADD MSTORE POP JUMP JUMPDEST PUSH1 0x0 PUSH2 0x5018 PUSH1 0x2F DUP4 PUSH2 0x4815 JUMP JUMPDEST SWAP2 POP PUSH2 0x5023 DUP3 PUSH2 0x4FBC JUMP JUMPDEST PUSH1 0x40 DUP3 ADD SWAP1 POP SWAP2 SWAP1 POP JUMP JUMPDEST PUSH1 0x0 PUSH1 0x20 DUP3 ADD SWAP1 POP DUP2 DUP2 SUB PUSH1 0x0 DUP4 ADD MSTORE PUSH2 0x5047 DUP2 PUSH2 0x500B JUMP JUMPDEST SWAP1 POP SWAP2 SWAP1 POP JUMP JUMPDEST PUSH32 0x4E487B7100000000000000000000000000000000000000000000000000000000 PUSH1 0x0 MSTORE PUSH1 0x32 PUSH1 0x4 MSTORE PUSH1 0x24 PUSH1 0x0 REVERT JUMPDEST PUSH1 0x0 PUSH2 0x5088 DUP3 PUSH2 0x3BC1 JUMP JUMPDEST SWAP1 POP SWAP2 SWAP1 POP JUMP JUMPDEST PUSH2 0x5098 DUP2 PUSH2 0x507D JUMP JUMPDEST DUP2 EQ PUSH2 0x50A3 JUMPI PUSH1 0x0 DUP1 REVERT JUMPDEST POP JUMP JUMPDEST PUSH1 0x0 DUP2 CALLDATALOAD SWAP1 POP PUSH2 0x50B5 DUP2 PUSH2 0x508F JUMP JUMPDEST SWAP3 SWAP2 POP POP JUMP JUMPDEST PUSH1 0x0 PUSH1 0x20 DUP3 DUP5 SUB SLT ISZERO PUSH2 0x50D1 JUMPI PUSH2 0x50D0 PUSH2 0x3A6F JUMP JUMPDEST JUMPDEST PUSH1 0x0 PUSH2 0x50DF DUP5 DUP3 DUP6 ADD PUSH2 0x50A6 JUMP JUMPDEST SWAP2 POP POP SWAP3 SWAP2 POP POP JUMP JUMPDEST PUSH1 0x0 PUSH2 0x50F3 DUP3 PUSH2 0x3CF2 JUMP JUMPDEST SWAP2 POP PUSH32 0xFFFFFFFFFFFFFFFFFFFFFFFFFFFFFFFFFFFFFFFFFFFFFFFFFFFFFFFFFFFFFFFF DUP3 EQ ISZERO PUSH2 0x5126 JUMPI PUSH2 0x5125 PUSH2 0x48FE JUMP JUMPDEST JUMPDEST PUSH1 0x1 DUP3 ADD SWAP1 POP SWAP2 SWAP1 POP JUMP JUMPDEST PUSH2 0x513A DUP2 PUSH2 0x4116 JUMP JUMPDEST DUP3 MSTORE POP POP JUMP JUMPDEST PUSH1 0x0 PUSH1 0xA0 DUP3 ADD SWAP1 POP PUSH2 0x5155 PUSH1 0x0 DUP4 ADD DUP9 PUSH2 0x3E7A JUMP JUMPDEST PUSH2 0x5162 PUSH1 0x20 DUP4 ADD DUP8 PUSH2 0x41FB JUMP JUMPDEST PUSH2 0x516F PUSH1 0x40 DUP4 ADD DUP7 PUSH2 0x5131 JUMP JUMPDEST PUSH2 0x517C PUSH1 0x60 DUP4 ADD DUP6 PUSH2 0x4095 JUMP JUMPDEST PUSH2 0x5189 PUSH1 0x80 DUP4 ADD DUP5 PUSH2 0x5131 JUMP JUMPDEST SWAP7 SWAP6 POP POP POP POP POP POP JUMP JUMPDEST PUSH32 0x43616E6E6F742072656E6F756E6365206F6E6573656C66000000000000000000 PUSH1 0x0 DUP3 ADD MSTORE POP JUMP JUMPDEST PUSH1 0x0 PUSH2 0x51C9 PUSH1 0x17 DUP4 PUSH2 0x4815 JUMP JUMPDEST SWAP2 POP PUSH2 0x51D4 DUP3 PUSH2 0x5193 JUMP JUMPDEST PUSH1 0x20 DUP3 ADD SWAP1 POP SWAP2 SWAP1 POP JUMP JUMPDEST PUSH1 0x0 PUSH1 0x20 DUP3 ADD SWAP1 POP DUP2 DUP2 SUB PUSH1 0x0 DUP4 ADD MSTORE PUSH2 0x51F8 DUP2 PUSH2 0x51BC JUMP JUMPDEST SWAP1 POP SWAP2 SWAP1 POP JUMP JUMPDEST PUSH32 0x43757272656E742066656520697320657175616C20746F206E65772066656500 PUSH1 0x0 DUP3 ADD MSTORE POP JUMP JUMPDEST PUSH1 0x0 PUSH2 0x5235 PUSH1 0x1F DUP4 PUSH2 0x4815 JUMP JUMPDEST SWAP2 POP PUSH2 0x5240 DUP3 PUSH2 0x51FF JUMP JUMPDEST PUSH1 0x20 DUP3 ADD SWAP1 POP SWAP2 SWAP1 POP JUMP JUMPDEST PUSH1 0x0 PUSH1 0x20 DUP3 ADD SWAP1 POP DUP2 DUP2 SUB PUSH1 0x0 DUP4 ADD MSTORE PUSH2 0x5264 DUP2 PUSH2 0x5228 JUMP JUMPDEST SWAP1 POP SWAP2 SWAP1 POP JUMP JUMPDEST PUSH32 0x6164647220646F65736E277420686176652072656C6179657220726F6C652100 PUSH1 0x0 DUP3 ADD MSTORE POP JUMP JUMPDEST PUSH1 0x0 PUSH2 0x52A1 PUSH1 0x1F DUP4 PUSH2 0x4815 JUMP JUMPDEST SWAP2 POP PUSH2 0x52AC DUP3 PUSH2 0x526B JUMP JUMPDEST PUSH1 0x20 DUP3 ADD SWAP1 POP SWAP2 SWAP1 POP JUMP JUMPDEST PUSH1 0x0 PUSH1 0x20 DUP3 ADD SWAP1 POP DUP2 DUP2 SUB PUSH1 0x0 DUP4 ADD MSTORE PUSH2 0x52D0 DUP2 PUSH2 0x5294 JUMP JUMPDEST SWAP1 POP SWAP2 SWAP1 POP JUMP JUMPDEST PUSH32 0x6E6F2068616E646C657220666F72207265736F75726365494400000000000000 PUSH1 0x0 DUP3 ADD MSTORE POP JUMP JUMPDEST PUSH1 0x0 PUSH2 0x530D PUSH1 0x19 DUP4 PUSH2 0x4815 JUMP JUMPDEST SWAP2 POP PUSH2 0x5318 DUP3 PUSH2 0x52D7 JUMP JUMPDEST PUSH1 0x20 DUP3 ADD SWAP1 POP SWAP2 SWAP1 POP JUMP JUMPDEST PUSH1 0x0 PUSH1 0x20 DUP3 ADD SWAP1 POP DUP2 DUP2 SUB PUSH1 0x0 DUP4 ADD MSTORE PUSH2 0x533C DUP2 PUSH2 0x5300 JUMP JUMPDEST SWAP1 POP SWAP2 SWAP1 POP JUMP JUMPDEST PUSH32 0x70726F706F73616C20616C72656164792065786563757465642F63616E63656C PUSH1 0x0 DUP3 ADD MSTORE PUSH32 0x6C65640000000000000000000000000000000000000000000000000000000000 PUSH1 0x20 DUP3 ADD MSTORE POP JUMP JUMPDEST PUSH1 0x0 PUSH2 0x539F PUSH1 0x23 DUP4 PUSH2 0x4815 JUMP JUMPDEST SWAP2 POP PUSH2 0x53AA DUP3 PUSH2 0x5343 JUMP JUMPDEST PUSH1 0x40 DUP3 ADD SWAP1 POP SWAP2 SWAP1 POP JUMP JUMPDEST PUSH1 0x0 PUSH1 0x20 DUP3 ADD SWAP1 POP DUP2 DUP2 SUB PUSH1 0x0 DUP4 ADD MSTORE PUSH2 0x53CE DUP2 PUSH2 0x5392 JUMP JUMPDEST SWAP1 POP SWAP2 SWAP1 POP JUMP JUMPDEST PUSH32 0x72656C6179657220616C726561647920766F7465640000000000000000000000 PUSH1 0x0 DUP3 ADD MSTORE POP JUMP JUMPDEST PUSH1 0x0 PUSH2 0x540B PUSH1 0x15 DUP4 PUSH2 0x4815 JUMP JUMPDEST SWAP2 POP PUSH2 0x5416 DUP3 PUSH2 0x53D5 JUMP JUMPDEST PUSH1 0x20 DUP3 ADD SWAP1 POP SWAP2 SWAP1 POP JUMP JUMPDEST PUSH1 0x0 PUSH1 0x20 DUP3 ADD SWAP1 POP DUP2 DUP2 SUB PUSH1 0x0 DUP4 ADD MSTORE PUSH2 0x543A DUP2 PUSH2 0x53FE JUMP JUMPDEST SWAP1 POP SWAP2 SWAP1 POP JUMP JUMPDEST PUSH1 0x0 PUSH2 0x544C DUP3 PUSH2 0x3A79 JUMP JUMPDEST SWAP2 POP PUSH1 0xFF DUP3 EQ ISZERO PUSH2 0x5460 JUMPI PUSH2 0x545F PUSH2 0x48FE JUMP JUMPDEST JUMPDEST PUSH1 0x1 DUP3 ADD SWAP1 POP SWAP2 SWAP1 POP JUMP JUMPDEST PUSH1 0x0 PUSH1 0x40 DUP3 ADD SWAP1 POP PUSH2 0x5480 PUSH1 0x0 DUP4 ADD DUP6 PUSH2 0x3E7A JUMP JUMPDEST PUSH2 0x548D PUSH1 0x20 DUP4 ADD DUP5 PUSH2 0x41FB JUMP JUMPDEST SWAP4 SWAP3 POP POP POP JUMP JUMPDEST PUSH32 0x6164647220616C7265616479206861732072656C6179657220726F6C65210000 PUSH1 0x0 DUP3 ADD MSTORE POP JUMP JUMPDEST PUSH1 0x0 PUSH2 0x54CA PUSH1 0x1E DUP4 PUSH2 0x4815 JUMP JUMPDEST SWAP2 POP PUSH2 0x54D5 DUP3 PUSH2 0x5494 JUMP JUMPDEST PUSH1 0x20 DUP3 ADD SWAP1 POP SWAP2 SWAP1 POP JUMP JUMPDEST PUSH1 0x0 PUSH1 0x20 DUP3 ADD SWAP1 POP DUP2 DUP2 SUB PUSH1 0x0 DUP4 ADD MSTORE PUSH2 0x54F9 DUP2 PUSH2 0x54BD JUMP JUMPDEST SWAP1 POP SWAP2 SWAP1 POP JUMP JUMPDEST PUSH32 0x72656C6179657273206C696D6974207265616368656400000000000000000000 PUSH1 0x0 DUP3 ADD MSTORE POP JUMP JUMPDEST PUSH1 0x0 PUSH2 0x5536 PUSH1 0x16 DUP4 PUSH2 0x4815 JUMP JUMPDEST SWAP2 POP PUSH2 0x5541 DUP3 PUSH2 0x5500 JUMP JUMPDEST PUSH1 0x20 DUP3 ADD SWAP1 POP SWAP2 SWAP1 POP JUMP JUMPDEST PUSH1 0x0 PUSH1 0x20 DUP3 ADD SWAP1 POP DUP2 DUP2 SUB PUSH1 0x0 DUP4 ADD MSTORE PUSH2 0x5565 DUP2 PUSH2 0x5529 JUMP JUMPDEST SWAP1 POP SWAP2 SWAP1 POP JUMP JUMPDEST PUSH32 0x416363657373436F6E74726F6C3A2073656E646572206D75737420626520616E PUSH1 0x0 DUP3 ADD MSTORE PUSH32 0x2061646D696E20746F207265766F6B6500000000000000000000000000000000 PUSH1 0x20 DUP3 ADD MSTORE POP JUMP JUMPDEST PUSH1 0x0 PUSH2 0x55C8 PUSH1 0x30 DUP4 PUSH2 0x4815 JUMP JUMPDEST SWAP2 POP PUSH2 0x55D3 DUP3 PUSH2 0x556C JUMP JUMPDEST PUSH1 0x40 DUP3 ADD SWAP1 POP SWAP2 SWAP1 POP JUMP JUMPDEST PUSH1 0x0 PUSH1 0x20 DUP3 ADD SWAP1 POP DUP2 DUP2 SUB PUSH1 0x0 DUP4 ADD MSTORE PUSH2 0x55F7 DUP2 PUSH2 0x55BB JUMP JUMPDEST SWAP1 POP SWAP2 SWAP1 POP JUMP JUMPDEST PUSH32 0x446F6573206E6F7420616C6C6F772064656372656D656E7473206F6620746865 PUSH1 0x0 DUP3 ADD MSTORE PUSH32 0x206E6F6E63650000000000000000000000000000000000000000000000000000 PUSH1 0x20 DUP3 ADD MSTORE POP JUMP JUMPDEST PUSH1 0x0 PUSH2 0x565A PUSH1 0x26 DUP4 PUSH2 0x4815 JUMP JUMPDEST SWAP2 POP PUSH2 0x5665 DUP3 PUSH2 0x55FE JUMP JUMPDEST PUSH1 0x40 DUP3 ADD SWAP1 POP SWAP2 SWAP1 POP JUMP JUMPDEST PUSH1 0x0 PUSH1 0x20 DUP3 ADD SWAP1 POP DUP2 DUP2 SUB PUSH1 0x0 DUP4 ADD MSTORE PUSH2 0x5689 DUP2 PUSH2 0x564D JUMP JUMPDEST SWAP1 POP SWAP2 SWAP1 POP JUMP JUMPDEST PUSH32 0x76616C756520646F6573206E6F742066697420696E2038206269747300000000 PUSH1 0x0 DUP3 ADD MSTORE POP JUMP JUMPDEST PUSH1 0x0 PUSH2 0x56C6 PUSH1 0x1C DUP4 PUSH2 0x4815 JUMP JUMPDEST SWAP2 POP PUSH2 0x56D1 DUP3 PUSH2 0x5690 JUMP JUMPDEST PUSH1 0x20 DUP3 ADD SWAP1 POP SWAP2 SWAP1 POP JUMP JUMPDEST PUSH1 0x0 PUSH1 0x20 DUP3 ADD SWAP1 POP DUP2 DUP2 SUB PUSH1 0x0 DUP4 ADD MSTORE PUSH2 0x56F5 DUP2 PUSH2 0x56B9 JUMP JUMPDEST SWAP1 POP SWAP2 SWAP1 POP JUMP JUMPDEST PUSH32 0x76616C756520646F6573206E6F742066697420696E2031323820626974730000 PUSH1 0x0 DUP3 ADD MSTORE POP JUMP JUMPDEST PUSH1 0x0 PUSH2 0x5732 PUSH1 0x1E DUP4 PUSH2 0x4815 JUMP JUMPDEST SWAP2 POP PUSH2 0x573D DUP3 PUSH2 0x56FC JUMP JUMPDEST PUSH1 0x20 DUP3 ADD SWAP1 POP SWAP2 SWAP1 POP JUMP JUMPDEST PUSH1 0x0 PUSH1 0x20 DUP3 ADD SWAP1 POP DUP2 DUP2 SUB PUSH1 0x0 DUP4 ADD MSTORE PUSH2 0x5761 DUP2 PUSH2 0x5725 JUMP JUMPDEST SWAP1 POP SWAP2 SWAP1 POP JUMP JUMPDEST PUSH32 0x76616C756520646F6573206E6F742066697420696E2034302062697473000000 PUSH1 0x0 DUP3 ADD MSTORE POP JUMP JUMPDEST PUSH1 0x0 PUSH2 0x579E PUSH1 0x1D DUP4 PUSH2 0x4815 JUMP JUMPDEST SWAP2 POP PUSH2 0x57A9 DUP3 PUSH2 0x5768 JUMP JUMPDEST PUSH1 0x20 DUP3 ADD SWAP1 POP SWAP2 SWAP1 POP JUMP JUMPDEST PUSH1 0x0 PUSH1 0x20 DUP3 ADD SWAP1 POP DUP2 DUP2 SUB PUSH1 0x0 DUP4 ADD MSTORE PUSH2 0x57CD DUP2 PUSH2 0x5791 JUMP JUMPDEST SWAP1 POP SWAP2 SWAP1 POP JUMP JUMPDEST PUSH32 0x5061757361626C653A2070617573656400000000000000000000000000000000 PUSH1 0x0 DUP3 ADD MSTORE POP JUMP JUMPDEST PUSH1 0x0 PUSH2 0x580A PUSH1 0x10 DUP4 PUSH2 0x4815 JUMP JUMPDEST SWAP2 POP PUSH2 0x5815 DUP3 PUSH2 0x57D4 JUMP JUMPDEST PUSH1 0x20 DUP3 ADD SWAP1 POP SWAP2 SWAP1 POP JUMP JUMPDEST PUSH1 0x0 PUSH1 0x20 DUP3 ADD SWAP1 POP DUP2 DUP2 SUB PUSH1 0x0 DUP4 ADD MSTORE PUSH2 0x5839 DUP2 PUSH2 0x57FD JUMP JUMPDEST SWAP1 POP SWAP2 SWAP1 POP JUMP JUMPDEST PUSH32 0x73656E646572206973206E6F742072656C61796572206F722061646D696E0000 PUSH1 0x0 DUP3 ADD MSTORE POP JUMP JUMPDEST PUSH1 0x0 PUSH2 0x5876 PUSH1 0x1E DUP4 PUSH2 0x4815 JUMP JUMPDEST SWAP2 POP PUSH2 0x5881 DUP3 PUSH2 0x5840 JUMP JUMPDEST PUSH1 0x20 DUP3 ADD SWAP1 POP SWAP2 SWAP1 POP JUMP JUMPDEST PUSH1 0x0 PUSH1 0x20 DUP3 ADD SWAP1 POP DUP2 DUP2 SUB PUSH1 0x0 DUP4 ADD MSTORE PUSH2 0x58A5 DUP2 PUSH2 0x5869 JUMP JUMPDEST SWAP1 POP SWAP2 SWAP1 POP JUMP JUMPDEST PUSH32 0x73656E64657220646F65736E277420686176652072656C6179657220726F6C65 PUSH1 0x0 DUP3 ADD MSTORE POP JUMP JUMPDEST PUSH1 0x0 PUSH2 0x58E2 PUSH1 0x20 DUP4 PUSH2 0x4815 JUMP JUMPDEST SWAP2 POP PUSH2 0x58ED DUP3 PUSH2 0x58AC JUMP JUMPDEST PUSH1 0x20 DUP3 ADD SWAP1 POP SWAP2 SWAP1 POP JUMP JUMPDEST PUSH1 0x0 PUSH1 0x20 DUP3 ADD SWAP1 POP DUP2 DUP2 SUB PUSH1 0x0 DUP4 ADD MSTORE PUSH2 0x5911 DUP2 PUSH2 0x58D5 JUMP JUMPDEST SWAP1 POP SWAP2 SWAP1 POP JUMP JUMPDEST PUSH32 0x73656E64657220646F65736E277420686176652061646D696E20726F6C650000 PUSH1 0x0 DUP3 ADD MSTORE POP JUMP JUMPDEST PUSH1 0x0 PUSH2 0x594E PUSH1 0x1E DUP4 PUSH2 0x4815 JUMP JUMPDEST SWAP2 POP PUSH2 0x5959 DUP3 PUSH2 0x5918 JUMP JUMPDEST PUSH1 0x20 DUP3 ADD SWAP1 POP SWAP2 SWAP1 POP JUMP JUMPDEST PUSH1 0x0 PUSH1 0x20 DUP3 ADD SWAP1 POP DUP2 DUP2 SUB PUSH1 0x0 DUP4 ADD MSTORE PUSH2 0x597D DUP2 PUSH2 0x5941 JUMP JUMPDEST SWAP1 POP SWAP2 SWAP1 POP JUMP JUMPDEST PUSH32 0x76616C756520646F6573206E6F742066697420696E2032303020626974730000 PUSH1 0x0 DUP3 ADD MSTORE POP JUMP JUMPDEST PUSH1 0x0 PUSH2 0x59BA PUSH1 0x1E DUP4 PUSH2 0x4815 JUMP JUMPDEST SWAP2 POP PUSH2 0x59C5 DUP3 PUSH2 0x5984 JUMP JUMPDEST PUSH1 0x20 DUP3 ADD SWAP1 POP SWAP2 SWAP1 POP JUMP JUMPDEST PUSH1 0x0 PUSH1 0x20 DUP3 ADD SWAP1 POP DUP2 DUP2 SUB PUSH1 0x0 DUP4 ADD MSTORE PUSH2 0x59E9 DUP2 PUSH2 0x59AD JUMP JUMPDEST SWAP1 POP SWAP2 SWAP1 POP JUMP JUMPDEST PUSH1 0x0 DUP2 MLOAD SWAP1 POP SWAP2 SWAP1 POP JUMP JUMPDEST PUSH1 0x0 PUSH2 0x5A06 DUP3 PUSH2 0x59F0 JUMP JUMPDEST PUSH2 0x5A10 DUP2 DUP6 PUSH2 0x4815 JUMP JUMPDEST SWAP4 POP PUSH2 0x5A20 DUP2 DUP6 PUSH1 0x20 DUP7 ADD PUSH2 0x49DC JUMP JUMPDEST PUSH2 0x5A29 DUP2 PUSH2 0x44B2 JUMP JUMPDEST DUP5 ADD SWAP2 POP POP SWAP3 SWAP2 POP POP JUMP JUMPDEST PUSH1 0x0 PUSH1 0x20 DUP3 ADD SWAP1 POP DUP2 DUP2 SUB PUSH1 0x0 DUP4 ADD MSTORE PUSH2 0x5A4E DUP2 DUP5 PUSH2 0x59FB JUMP JUMPDEST SWAP1 POP SWAP3 SWAP2 POP POP JUMP JUMPDEST PUSH1 0x0 PUSH2 0x5A61 DUP3 PUSH2 0x3CF2 JUMP JUMPDEST SWAP2 POP PUSH2 0x5A6C DUP4 PUSH2 0x3CF2 JUMP JUMPDEST SWAP3 POP DUP3 DUP3 LT ISZERO PUSH2 0x5A7F JUMPI PUSH2 0x5A7E PUSH2 0x48FE JUMP JUMPDEST JUMPDEST DUP3 DUP3 SUB SWAP1 POP SWAP3 SWAP2 POP POP JUMP JUMPDEST PUSH32 0x5061757361626C653A206E6F7420706175736564000000000000000000000000 PUSH1 0x0 DUP3 ADD MSTORE POP JUMP JUMPDEST PUSH1 0x0 PUSH2 0x5AC0 PUSH1 0x14 DUP4 PUSH2 0x4815 JUMP JUMPDEST SWAP2 POP PUSH2 0x5ACB DUP3 PUSH2 0x5A8A JUMP JUMPDEST PUSH1 0x20 DUP3 ADD SWAP1 POP SWAP2 SWAP1 POP JUMP JUMPDEST PUSH1 0x0 PUSH1 0x20 DUP3 ADD SWAP1 POP DUP2 DUP2 SUB PUSH1 0x0 DUP4 ADD MSTORE PUSH2 0x5AEF DUP2 PUSH2 0x5AB3 JUMP JUMPDEST SWAP1 POP SWAP2 SWAP1 POP JUMP JUMPDEST PUSH32 0x4E487B7100000000000000000000000000000000000000000000000000000000 PUSH1 0x0 MSTORE PUSH1 0x31 PUSH1 0x4 MSTORE PUSH1 0x24 PUSH1 0x0 REVERT INVALID LOG2 PUSH5 0x6970667358 0x22 SLT KECCAK256 JUMPDEST 0x4E 0xD9 DUP4 0xE3 PUSH15 0xCC841BF269C4C923604525EAAF411D PUSH15 0xEF0DD2D27F96F564BEE164736F6C63 NUMBER STOP ADDMOD SIGNEXTEND STOP CALLER "
		},
		"gasEstimates": {
			"creation": {
				"codeDepositCost": "4677400",
				"executionCost": "infinite",
				"totalCost": "infinite"
			},
			"external": {
				"DEFAULT_ADMIN_ROLE()": "402",
				"MAX_RELAYERS()": "374",
				"RELAYER_ROLE()": "419",
				"_depositCounts(uint8)": "2936",
				"_domainID()": "2627",
				"_expiry()": "2566",
				"_fee()": "2673",
				"_hasVotedOnProposal(uint72,bytes32,address)": "infinite",
				"_relayerThreshold()": "2610",
				"_resourceIDToHandlerAddress(bytes32)": "2950",
				"_resourceIDToReviewsAddress(bytes32)": "2995",
				"_resourceIDToSalesAddress(bytes32)": "2906",
				"_totalRelayers()": "2737",
				"adminAddRelayer(address)": "infinite",
				"adminChangeFee(uint256)": "infinite",
				"adminChangeRelayerThreshold(uint256)": "infinite",
				"adminPauseTransfers()": "infinite",
				"adminRemoveRelayer(address)": "infinite",
				"adminSetBurnable(address,address)": "infinite",
				"adminSetDepositNonce(uint8,uint64)": "infinite",
				"adminSetForwarder(address,bool)": "infinite",
				"adminSetGenericResource(address,bytes32,address,bytes4,uint256,bytes4)": "infinite",
				"adminSetResource(address,bytes32,address)": "infinite",
				"adminUnpauseTransfers()": "infinite",
				"adminWithdraw(address,bytes)": "infinite",
				"cancelProposal(uint8,uint64,bytes32)": "infinite",
				"deposit(uint8,bytes32,bytes)": "infinite",
				"executeProposal(uint8,uint64,bytes,bytes32,bool)": "infinite",
				"getHandlerByResourceID(bytes32)": "2953",
				"getProposal(uint8,uint64,bytes32)": "infinite",
				"getReviewsAddress(bytes32)": "2977",
				"getRoleAdmin(bytes32)": "infinite",
				"getRoleMember(bytes32,uint256)": "infinite",
				"getRoleMemberCount(bytes32)": "2981",
				"getRoleMemberIndex(bytes32,address)": "3156",
				"getSalesAddress(bytes32)": "2976",
				"grantRole(bytes32,address)": "infinite",
				"hasRole(bytes32,address)": "infinite",
				"isRelayer(address)": "infinite",
				"isValidForwarder(address)": "2955",
				"paused()": "2591",
				"renounceAdmin(address)": "infinite",
				"renounceRole(bytes32,address)": "infinite",
				"revokeRole(bytes32,address)": "infinite",
				"setReviewsAddress(address,bytes32)": "25042",
				"setSalesAddress(address,bytes32)": "25064",
				"transferFunds(address[],uint256[])": "infinite",
				"updateDiscountPermission(address,uint256,bytes32)": "infinite",
				"voteProposal(uint8,uint64,bytes32,bytes)": "infinite"
			},
			"internal": {
				"_hasVoted(struct Bridge.Proposal memory,address)": "infinite",
				"_msgSender()": "2350",
				"_onlyAdmin()": "infinite",
				"_onlyAdminOrRelayer()": "infinite",
				"_onlyRelayers()": "infinite",
				"_relayerBit(address)": "infinite"
			}
		},
		"methodIdentifiers": {
			"DEFAULT_ADMIN_ROLE()": "a217fddf",
			"MAX_RELAYERS()": "9debb3bd",
			"RELAYER_ROLE()": "926d7d7f",
			"_depositCounts(uint8)": "4b0b919d",
			"_domainID()": "9dd694f4",
			"_expiry()": "c5ec8970",
			"_fee()": "c5b37c22",
			"_hasVotedOnProposal(uint72,bytes32,address)": "7febe63f",
			"_relayerThreshold()": "d7a9cd79",
			"_resourceIDToHandlerAddress(bytes32)": "84db809f",
			"_resourceIDToReviewsAddress(bytes32)": "77a03d95",
			"_resourceIDToSalesAddress(bytes32)": "c8f8e901",
			"_totalRelayers()": "802aabe8",
			"adminAddRelayer(address)": "cdb0f73a",
			"adminChangeFee(uint256)": "91c404ac",
			"adminChangeRelayerThreshold(uint256)": "4e056005",
			"adminPauseTransfers()": "80ae1c28",
			"adminRemoveRelayer(address)": "9d82dd63",
			"adminSetBurnable(address,address)": "8c0c2631",
			"adminSetDepositNonce(uint8,uint64)": "edc20c3c",
			"adminSetForwarder(address,bool)": "d15ef64e",
			"adminSetGenericResource(address,bytes32,address,bytes4,uint256,bytes4)": "5a1ad87c",
			"adminSetResource(address,bytes32,address)": "cb10f215",
			"adminUnpauseTransfers()": "ffaac0eb",
			"adminWithdraw(address,bytes)": "bd2a1820",
			"cancelProposal(uint8,uint64,bytes32)": "17f03ce5",
			"deposit(uint8,bytes32,bytes)": "05e2ca17",
			"executeProposal(uint8,uint64,bytes,bytes32,bool)": "206a98fd",
			"getHandlerByResourceID(bytes32)": "f2b1b549",
			"getProposal(uint8,uint64,bytes32)": "a9cf69fa",
			"getReviewsAddress(bytes32)": "993bb8b7",
			"getRoleAdmin(bytes32)": "248a9ca3",
			"getRoleMember(bytes32,uint256)": "9010d07c",
			"getRoleMemberCount(bytes32)": "ca15c873",
			"getRoleMemberIndex(bytes32,address)": "4e0df3f6",
			"getSalesAddress(bytes32)": "dcdefd73",
			"grantRole(bytes32,address)": "2f2ff15d",
			"hasRole(bytes32,address)": "91d14854",
			"isRelayer(address)": "541d5548",
			"isValidForwarder(address)": "f8c39e44",
			"paused()": "5c975abb",
			"renounceAdmin(address)": "5e1fab0f",
			"renounceRole(bytes32,address)": "36568abe",
			"revokeRole(bytes32,address)": "d547741f",
			"setReviewsAddress(address,bytes32)": "1575422d",
			"setSalesAddress(address,bytes32)": "157a876f",
			"transferFunds(address[],uint256[])": "4603ae38",
			"updateDiscountPermission(address,uint256,bytes32)": "1a5fd13f",
			"voteProposal(uint8,uint64,bytes32,bytes)": "c0331b3e"
		}
	},
	"abi": [
		{
			"inputs": [
				{
					"internalType": "uint8",
					"name": "domainID",
					"type": "uint8"
				},
				{
					"internalType": "address[]",
					"name": "initialRelayers",
					"type": "address[]"
				},
				{
					"internalType": "uint256",
					"name": "initialRelayerThreshold",
					"type": "uint256"
				},
				{
					"internalType": "uint256",
					"name": "fee",
					"type": "uint256"
				},
				{
					"internalType": "uint256",
					"name": "expiry",
					"type": "uint256"
				}
			],
			"stateMutability": "nonpayable",
			"type": "constructor"
		},
		{
			"anonymous": false,
			"inputs": [
				{
					"indexed": false,
					"internalType": "uint8",
					"name": "destinationDomainID",
					"type": "uint8"
				},
				{
					"indexed": false,
					"internalType": "bytes32",
					"name": "resourceID",
					"type": "bytes32"
				},
				{
					"indexed": false,
					"internalType": "uint64",
					"name": "depositNonce",
					"type": "uint64"
				},
				{
					"indexed": true,
					"internalType": "address",
					"name": "user",
					"type": "address"
				},
				{
					"indexed": false,
					"internalType": "bytes",
					"name": "data",
					"type": "bytes"
				},
				{
					"indexed": false,
					"internalType": "bytes",
					"name": "handlerResponse",
					"type": "bytes"
				}
			],
			"name": "Deposit",
			"type": "event"
		},
		{
			"anonymous": false,
			"inputs": [
				{
					"indexed": false,
					"internalType": "address",
					"name": "salesAddress",
					"type": "address"
				},
				{
					"indexed": false,
					"internalType": "address",
					"name": "recipient",
					"type": "address"
				}
			],
			"name": "DiscountEmitted",
			"type": "event"
		},
		{
			"anonymous": false,
			"inputs": [
				{
					"indexed": false,
					"internalType": "bytes",
					"name": "lowLevelData",
					"type": "bytes"
				}
			],
			"name": "FailedHandlerExecution",
			"type": "event"
		},
		{
			"anonymous": false,
			"inputs": [
				{
					"indexed": false,
					"internalType": "address",
					"name": "account",
					"type": "address"
				}
			],
			"name": "Paused",
			"type": "event"
		},
		{
			"anonymous": false,
			"inputs": [
				{
					"indexed": false,
					"internalType": "address",
					"name": "reviewAddress",
					"type": "address"
				},
				{
					"indexed": false,
					"internalType": "address",
					"name": "recipient",
					"type": "address"
				}
			],
			"name": "PermissionEmitted",
			"type": "event"
		},
		{
			"anonymous": false,
			"inputs": [
				{
					"indexed": false,
					"internalType": "uint8",
					"name": "originDomainID",
					"type": "uint8"
				},
				{
					"indexed": false,
					"internalType": "uint64",
					"name": "depositNonce",
					"type": "uint64"
				},
				{
					"indexed": false,
					"internalType": "enum Bridge.ProposalStatus",
					"name": "status",
					"type": "uint8"
				},
				{
					"indexed": false,
					"internalType": "bytes32",
					"name": "dataHash",
					"type": "bytes32"
				}
			],
			"name": "ProposalEvent",
			"type": "event"
		},
		{
			"anonymous": false,
			"inputs": [
				{
					"indexed": false,
					"internalType": "uint8",
					"name": "originDomainID",
					"type": "uint8"
				},
				{
					"indexed": false,
					"internalType": "uint64",
					"name": "depositNonce",
					"type": "uint64"
				},
				{
					"indexed": false,
					"internalType": "enum Bridge.ProposalStatus",
					"name": "status",
					"type": "uint8"
				},
				{
					"indexed": false,
					"internalType": "bytes32",
					"name": "dataHash",
					"type": "bytes32"
				}
			],
			"name": "ProposalVote",
			"type": "event"
		},
		{
			"anonymous": false,
			"inputs": [
				{
					"indexed": false,
					"internalType": "address",
					"name": "relayer",
					"type": "address"
				}
			],
			"name": "RelayerAdded",
			"type": "event"
		},
		{
			"anonymous": false,
			"inputs": [
				{
					"indexed": false,
					"internalType": "address",
					"name": "relayer",
					"type": "address"
				}
			],
			"name": "RelayerRemoved",
			"type": "event"
		},
		{
			"anonymous": false,
			"inputs": [
				{
					"indexed": false,
					"internalType": "uint256",
					"name": "newThreshold",
					"type": "uint256"
				}
			],
			"name": "RelayerThresholdChanged",
			"type": "event"
		},
		{
			"anonymous": false,
			"inputs": [
				{
					"indexed": true,
					"internalType": "bytes32",
					"name": "role",
					"type": "bytes32"
				},
				{
					"indexed": true,
					"internalType": "address",
					"name": "account",
					"type": "address"
				},
				{
					"indexed": true,
					"internalType": "address",
					"name": "sender",
					"type": "address"
				}
			],
			"name": "RoleGranted",
			"type": "event"
		},
		{
			"anonymous": false,
			"inputs": [
				{
					"indexed": true,
					"internalType": "bytes32",
					"name": "role",
					"type": "bytes32"
				},
				{
					"indexed": true,
					"internalType": "address",
					"name": "account",
					"type": "address"
				},
				{
					"indexed": true,
					"internalType": "address",
					"name": "sender",
					"type": "address"
				}
			],
			"name": "RoleRevoked",
			"type": "event"
		},
		{
			"anonymous": false,
			"inputs": [
				{
					"indexed": false,
					"internalType": "address",
					"name": "account",
					"type": "address"
				}
			],
			"name": "Unpaused",
			"type": "event"
		},
		{
			"inputs": [],
			"name": "DEFAULT_ADMIN_ROLE",
			"outputs": [
				{
					"internalType": "bytes32",
					"name": "",
					"type": "bytes32"
				}
			],
			"stateMutability": "view",
			"type": "function"
		},
		{
			"inputs": [],
			"name": "MAX_RELAYERS",
			"outputs": [
				{
					"internalType": "uint256",
					"name": "",
					"type": "uint256"
				}
			],
			"stateMutability": "view",
			"type": "function"
		},
		{
			"inputs": [],
			"name": "RELAYER_ROLE",
			"outputs": [
				{
					"internalType": "bytes32",
					"name": "",
					"type": "bytes32"
				}
			],
			"stateMutability": "view",
			"type": "function"
		},
		{
			"inputs": [
				{
					"internalType": "uint8",
					"name": "",
					"type": "uint8"
				}
			],
			"name": "_depositCounts",
			"outputs": [
				{
					"internalType": "uint64",
					"name": "",
					"type": "uint64"
				}
			],
			"stateMutability": "view",
			"type": "function"
		},
		{
			"inputs": [],
			"name": "_domainID",
			"outputs": [
				{
					"internalType": "uint8",
					"name": "",
					"type": "uint8"
				}
			],
			"stateMutability": "view",
			"type": "function"
		},
		{
			"inputs": [],
			"name": "_expiry",
			"outputs": [
				{
					"internalType": "uint40",
					"name": "",
					"type": "uint40"
				}
			],
			"stateMutability": "view",
			"type": "function"
		},
		{
			"inputs": [],
			"name": "_fee",
			"outputs": [
				{
					"internalType": "uint128",
					"name": "",
					"type": "uint128"
				}
			],
			"stateMutability": "view",
			"type": "function"
		},
		{
			"inputs": [
				{
					"internalType": "uint72",
					"name": "destNonce",
					"type": "uint72"
				},
				{
					"internalType": "bytes32",
					"name": "dataHash",
					"type": "bytes32"
				},
				{
					"internalType": "address",
					"name": "relayer",
					"type": "address"
				}
			],
			"name": "_hasVotedOnProposal",
			"outputs": [
				{
					"internalType": "bool",
					"name": "",
					"type": "bool"
				}
			],
			"stateMutability": "view",
			"type": "function"
		},
		{
			"inputs": [],
			"name": "_relayerThreshold",
			"outputs": [
				{
					"internalType": "uint8",
					"name": "",
					"type": "uint8"
				}
			],
			"stateMutability": "view",
			"type": "function"
		},
		{
			"inputs": [
				{
					"internalType": "bytes32",
					"name": "",
					"type": "bytes32"
				}
			],
			"name": "_resourceIDToHandlerAddress",
			"outputs": [
				{
					"internalType": "address",
					"name": "",
					"type": "address"
				}
			],
			"stateMutability": "view",
			"type": "function"
		},
		{
			"inputs": [
				{
					"internalType": "bytes32",
					"name": "",
					"type": "bytes32"
				}
			],
			"name": "_resourceIDToReviewsAddress",
			"outputs": [
				{
					"internalType": "address",
					"name": "",
					"type": "address"
				}
			],
			"stateMutability": "view",
			"type": "function"
		},
		{
			"inputs": [
				{
					"internalType": "bytes32",
					"name": "",
					"type": "bytes32"
				}
			],
			"name": "_resourceIDToSalesAddress",
			"outputs": [
				{
					"internalType": "address",
					"name": "",
					"type": "address"
				}
			],
			"stateMutability": "view",
			"type": "function"
		},
		{
			"inputs": [],
			"name": "_totalRelayers",
			"outputs": [
				{
					"internalType": "uint256",
					"name": "",
					"type": "uint256"
				}
			],
			"stateMutability": "view",
			"type": "function"
		},
		{
			"inputs": [
				{
					"internalType": "address",
					"name": "relayerAddress",
					"type": "address"
				}
			],
			"name": "adminAddRelayer",
			"outputs": [],
			"stateMutability": "nonpayable",
			"type": "function"
		},
		{
			"inputs": [
				{
					"internalType": "uint256",
					"name": "newFee",
					"type": "uint256"
				}
			],
			"name": "adminChangeFee",
			"outputs": [],
			"stateMutability": "nonpayable",
			"type": "function"
		},
		{
			"inputs": [
				{
					"internalType": "uint256",
					"name": "newThreshold",
					"type": "uint256"
				}
			],
			"name": "adminChangeRelayerThreshold",
			"outputs": [],
			"stateMutability": "nonpayable",
			"type": "function"
		},
		{
			"inputs": [],
			"name": "adminPauseTransfers",
			"outputs": [],
			"stateMutability": "nonpayable",
			"type": "function"
		},
		{
			"inputs": [
				{
					"internalType": "address",
					"name": "relayerAddress",
					"type": "address"
				}
			],
			"name": "adminRemoveRelayer",
			"outputs": [],
			"stateMutability": "nonpayable",
			"type": "function"
		},
		{
			"inputs": [
				{
					"internalType": "address",
					"name": "handlerAddress",
					"type": "address"
				},
				{
					"internalType": "address",
					"name": "tokenAddress",
					"type": "address"
				}
			],
			"name": "adminSetBurnable",
			"outputs": [],
			"stateMutability": "nonpayable",
			"type": "function"
		},
		{
			"inputs": [
				{
					"internalType": "uint8",
					"name": "domainID",
					"type": "uint8"
				},
				{
					"internalType": "uint64",
					"name": "nonce",
					"type": "uint64"
				}
			],
			"name": "adminSetDepositNonce",
			"outputs": [],
			"stateMutability": "nonpayable",
			"type": "function"
		},
		{
			"inputs": [
				{
					"internalType": "address",
					"name": "forwarder",
					"type": "address"
				},
				{
					"internalType": "bool",
					"name": "valid",
					"type": "bool"
				}
			],
			"name": "adminSetForwarder",
			"outputs": [],
			"stateMutability": "nonpayable",
			"type": "function"
		},
		{
			"inputs": [
				{
					"internalType": "address",
					"name": "handlerAddress",
					"type": "address"
				},
				{
					"internalType": "bytes32",
					"name": "resourceID",
					"type": "bytes32"
				},
				{
					"internalType": "address",
					"name": "contractAddress",
					"type": "address"
				},
				{
					"internalType": "bytes4",
					"name": "depositFunctionSig",
					"type": "bytes4"
				},
				{
					"internalType": "uint256",
					"name": "depositFunctionDepositerOffset",
					"type": "uint256"
				},
				{
					"internalType": "bytes4",
					"name": "executeFunctionSig",
					"type": "bytes4"
				}
			],
			"name": "adminSetGenericResource",
			"outputs": [],
			"stateMutability": "nonpayable",
			"type": "function"
		},
		{
			"inputs": [
				{
					"internalType": "address",
					"name": "handlerAddress",
					"type": "address"
				},
				{
					"internalType": "bytes32",
					"name": "resourceID",
					"type": "bytes32"
				},
				{
					"internalType": "address",
					"name": "tokenAddress",
					"type": "address"
				}
			],
			"name": "adminSetResource",
			"outputs": [],
			"stateMutability": "nonpayable",
			"type": "function"
		},
		{
			"inputs": [],
			"name": "adminUnpauseTransfers",
			"outputs": [],
			"stateMutability": "nonpayable",
			"type": "function"
		},
		{
			"inputs": [
				{
					"internalType": "address",
					"name": "handlerAddress",
					"type": "address"
				},
				{
					"internalType": "bytes",
					"name": "data",
					"type": "bytes"
				}
			],
			"name": "adminWithdraw",
			"outputs": [],
			"stateMutability": "nonpayable",
			"type": "function"
		},
		{
			"inputs": [
				{
					"internalType": "uint8",
					"name": "domainID",
					"type": "uint8"
				},
				{
					"internalType": "uint64",
					"name": "depositNonce",
					"type": "uint64"
				},
				{
					"internalType": "bytes32",
					"name": "dataHash",
					"type": "bytes32"
				}
			],
			"name": "cancelProposal",
			"outputs": [],
			"stateMutability": "nonpayable",
			"type": "function"
		},
		{
			"inputs": [
				{
					"internalType": "uint8",
					"name": "destinationDomainID",
					"type": "uint8"
				},
				{
					"internalType": "bytes32",
					"name": "resourceID",
					"type": "bytes32"
				},
				{
					"internalType": "bytes",
					"name": "data",
					"type": "bytes"
				}
			],
			"name": "deposit",
			"outputs": [],
			"stateMutability": "payable",
			"type": "function"
		},
		{
			"inputs": [
				{
					"internalType": "uint8",
					"name": "domainID",
					"type": "uint8"
				},
				{
					"internalType": "uint64",
					"name": "depositNonce",
					"type": "uint64"
				},
				{
					"internalType": "bytes",
					"name": "data",
					"type": "bytes"
				},
				{
					"internalType": "bytes32",
					"name": "resourceID",
					"type": "bytes32"
				},
				{
					"internalType": "bool",
					"name": "revertOnFail",
					"type": "bool"
				}
			],
			"name": "executeProposal",
			"outputs": [],
			"stateMutability": "nonpayable",
			"type": "function"
		},
		{
			"inputs": [
				{
					"internalType": "bytes32",
					"name": "resourceID",
					"type": "bytes32"
				}
			],
			"name": "getHandlerByResourceID",
			"outputs": [
				{
					"internalType": "address",
					"name": "",
					"type": "address"
				}
			],
			"stateMutability": "view",
			"type": "function"
		},
		{
			"inputs": [
				{
					"internalType": "uint8",
					"name": "originDomainID",
					"type": "uint8"
				},
				{
					"internalType": "uint64",
					"name": "depositNonce",
					"type": "uint64"
				},
				{
					"internalType": "bytes32",
					"name": "dataHash",
					"type": "bytes32"
				}
			],
			"name": "getProposal",
			"outputs": [
				{
					"components": [
						{
							"internalType": "enum Bridge.ProposalStatus",
							"name": "_status",
							"type": "uint8"
						},
						{
							"internalType": "uint200",
							"name": "_yesVotes",
							"type": "uint200"
						},
						{
							"internalType": "uint8",
							"name": "_yesVotesTotal",
							"type": "uint8"
						},
						{
							"internalType": "uint40",
							"name": "_proposedBlock",
							"type": "uint40"
						}
					],
					"internalType": "struct Bridge.Proposal",
					"name": "",
					"type": "tuple"
				}
			],
			"stateMutability": "view",
			"type": "function"
		},
		{
			"inputs": [
				{
					"internalType": "bytes32",
					"name": "resourceID",
					"type": "bytes32"
				}
			],
			"name": "getReviewsAddress",
			"outputs": [
				{
					"internalType": "address",
					"name": "",
					"type": "address"
				}
			],
			"stateMutability": "view",
			"type": "function"
		},
		{
			"inputs": [
				{
					"internalType": "bytes32",
					"name": "role",
					"type": "bytes32"
				}
			],
			"name": "getRoleAdmin",
			"outputs": [
				{
					"internalType": "bytes32",
					"name": "",
					"type": "bytes32"
				}
			],
			"stateMutability": "view",
			"type": "function"
		},
		{
			"inputs": [
				{
					"internalType": "bytes32",
					"name": "role",
					"type": "bytes32"
				},
				{
					"internalType": "uint256",
					"name": "index",
					"type": "uint256"
				}
			],
			"name": "getRoleMember",
			"outputs": [
				{
					"internalType": "address",
					"name": "",
					"type": "address"
				}
			],
			"stateMutability": "view",
			"type": "function"
		},
		{
			"inputs": [
				{
					"internalType": "bytes32",
					"name": "role",
					"type": "bytes32"
				}
			],
			"name": "getRoleMemberCount",
			"outputs": [
				{
					"internalType": "uint256",
					"name": "",
					"type": "uint256"
				}
			],
			"stateMutability": "view",
			"type": "function"
		},
		{
			"inputs": [
				{
					"internalType": "bytes32",
					"name": "role",
					"type": "bytes32"
				},
				{
					"internalType": "address",
					"name": "account",
					"type": "address"
				}
			],
			"name": "getRoleMemberIndex",
			"outputs": [
				{
					"internalType": "uint256",
					"name": "",
					"type": "uint256"
				}
			],
			"stateMutability": "view",
			"type": "function"
		},
		{
			"inputs": [
				{
					"internalType": "bytes32",
					"name": "resourceID",
					"type": "bytes32"
				}
			],
			"name": "getSalesAddress",
			"outputs": [
				{
					"internalType": "address",
					"name": "",
					"type": "address"
				}
			],
			"stateMutability": "view",
			"type": "function"
		},
		{
			"inputs": [
				{
					"internalType": "bytes32",
					"name": "role",
					"type": "bytes32"
				},
				{
					"internalType": "address",
					"name": "account",
					"type": "address"
				}
			],
			"name": "grantRole",
			"outputs": [],
			"stateMutability": "nonpayable",
			"type": "function"
		},
		{
			"inputs": [
				{
					"internalType": "bytes32",
					"name": "role",
					"type": "bytes32"
				},
				{
					"internalType": "address",
					"name": "account",
					"type": "address"
				}
			],
			"name": "hasRole",
			"outputs": [
				{
					"internalType": "bool",
					"name": "",
					"type": "bool"
				}
			],
			"stateMutability": "view",
			"type": "function"
		},
		{
			"inputs": [
				{
					"internalType": "address",
					"name": "relayer",
					"type": "address"
				}
			],
			"name": "isRelayer",
			"outputs": [
				{
					"internalType": "bool",
					"name": "",
					"type": "bool"
				}
			],
			"stateMutability": "view",
			"type": "function"
		},
		{
			"inputs": [
				{
					"internalType": "address",
					"name": "",
					"type": "address"
				}
			],
			"name": "isValidForwarder",
			"outputs": [
				{
					"internalType": "bool",
					"name": "",
					"type": "bool"
				}
			],
			"stateMutability": "view",
			"type": "function"
		},
		{
			"inputs": [],
			"name": "paused",
			"outputs": [
				{
					"internalType": "bool",
					"name": "",
					"type": "bool"
				}
			],
			"stateMutability": "view",
			"type": "function"
		},
		{
			"inputs": [
				{
					"internalType": "address",
					"name": "newAdmin",
					"type": "address"
				}
			],
			"name": "renounceAdmin",
			"outputs": [],
			"stateMutability": "nonpayable",
			"type": "function"
		},
		{
			"inputs": [
				{
					"internalType": "bytes32",
					"name": "role",
					"type": "bytes32"
				},
				{
					"internalType": "address",
					"name": "account",
					"type": "address"
				}
			],
			"name": "renounceRole",
			"outputs": [],
			"stateMutability": "nonpayable",
			"type": "function"
		},
		{
			"inputs": [
				{
					"internalType": "bytes32",
					"name": "role",
					"type": "bytes32"
				},
				{
					"internalType": "address",
					"name": "account",
					"type": "address"
				}
			],
			"name": "revokeRole",
			"outputs": [],
			"stateMutability": "nonpayable",
			"type": "function"
		},
		{
			"inputs": [
				{
					"internalType": "address",
					"name": "_reviewAddress",
					"type": "address"
				},
				{
					"internalType": "bytes32",
					"name": "resourceID",
					"type": "bytes32"
				}
			],
			"name": "setReviewsAddress",
			"outputs": [],
			"stateMutability": "nonpayable",
			"type": "function"
		},
		{
			"inputs": [
				{
					"internalType": "address",
					"name": "_salesAddress",
					"type": "address"
				},
				{
					"internalType": "bytes32",
					"name": "resourceID",
					"type": "bytes32"
				}
			],
			"name": "setSalesAddress",
			"outputs": [],
			"stateMutability": "nonpayable",
			"type": "function"
		},
		{
			"inputs": [
				{
					"internalType": "address payable[]",
					"name": "addrs",
					"type": "address[]"
				},
				{
					"internalType": "uint256[]",
					"name": "amounts",
					"type": "uint256[]"
				}
			],
			"name": "transferFunds",
			"outputs": [],
			"stateMutability": "nonpayable",
			"type": "function"
		},
		{
			"inputs": [
				{
					"internalType": "address",
					"name": "recipientAddress",
					"type": "address"
				},
				{
					"internalType": "uint256",
					"name": "amount",
					"type": "uint256"
				},
				{
					"internalType": "bytes32",
					"name": "resourceID",
					"type": "bytes32"
				}
			],
			"name": "updateDiscountPermission",
			"outputs": [],
			"stateMutability": "nonpayable",
			"type": "function"
		},
		{
			"inputs": [
				{
					"internalType": "uint8",
					"name": "domainID",
					"type": "uint8"
				},
				{
					"internalType": "uint64",
					"name": "depositNonce",
					"type": "uint64"
				},
				{
					"internalType": "bytes32",
					"name": "resourceID",
					"type": "bytes32"
				},
				{
					"internalType": "bytes",
					"name": "data",
					"type": "bytes"
				}
			],
			"name": "voteProposal",
			"outputs": [],
			"stateMutability": "nonpayable",
			"type": "function"
		}
	]
}