{
  "_format": "hh-sol-artifact-1",
  "contractName": "ERC721MinterBurnerPauser",
  "sourceName": "contracts/ERC721MinterBurnerPauser.sol",
  "abi": [
    {
      "inputs": [
        {
          "internalType": "string",
          "name": "name",
          "type": "string"
        },
        {
          "internalType": "string",
          "name": "symbol",
          "type": "string"
        },
        {
          "internalType": "string",
          "name": "baseURI",
          "type": "string"
        }
      ],
      "stateMutability": "nonpayable",
      "type": "constructor"
    },
    {
      "anonymous": false,
      "inputs": [
        {
          "indexed": true,
          "internalType": "address",
          "name": "owner",
          "type": "address"
        },
        {
          "indexed": true,
          "internalType": "address",
          "name": "approved",
          "type": "address"
        },
        {
          "indexed": true,
          "internalType": "uint256",
          "name": "tokenId",
          "type": "uint256"
        }
      ],
      "name": "Approval",
      "type": "event"
    },
    {
      "anonymous": false,
      "inputs": [
        {
          "indexed": true,
          "internalType": "address",
          "name": "owner",
          "type": "address"
        },
        {
          "indexed": true,
          "internalType": "address",
          "name": "operator",
          "type": "address"
        },
        {
          "indexed": false,
          "internalType": "bool",
          "name": "approved",
          "type": "bool"
        }
      ],
      "name": "ApprovalForAll",
      "type": "event"
    },
    {
      "anonymous": false,
      "inputs": [
        {
          "indexed": false,
          "internalType": "address",
          "name": "account",
          "type": "address"
        }
      ],
      "name": "Paused",
      "type": "event"
    },
    {
      "anonymous": false,
      "inputs": [
        {
          "indexed": true,
          "internalType": "bytes32",
          "name": "role",
          "type": "bytes32"
        },
        {
          "indexed": true,
          "internalType": "address",
          "name": "account",
          "type": "address"
        },
        {
          "indexed": true,
          "internalType": "address",
          "name": "sender",
          "type": "address"
        }
      ],
      "name": "RoleGranted",
      "type": "event"
    },
    {
      "anonymous": false,
      "inputs": [
        {
          "indexed": true,
          "internalType": "bytes32",
          "name": "role",
          "type": "bytes32"
        },
        {
          "indexed": true,
          "internalType": "address",
          "name": "account",
          "type": "address"
        },
        {
          "indexed": true,
          "internalType": "address",
          "name": "sender",
          "type": "address"
        }
      ],
      "name": "RoleRevoked",
      "type": "event"
    },
    {
      "anonymous": false,
      "inputs": [
        {
          "indexed": true,
          "internalType": "address",
          "name": "from",
          "type": "address"
        },
        {
          "indexed": true,
          "internalType": "address",
          "name": "to",
          "type": "address"
        },
        {
          "indexed": true,
          "internalType": "uint256",
          "name": "tokenId",
          "type": "uint256"
        }
      ],
      "name": "Transfer",
      "type": "event"
    },
    {
      "anonymous": false,
      "inputs": [
        {
          "indexed": false,
          "internalType": "address",
          "name": "account",
          "type": "address"
        }
      ],
      "name": "Unpaused",
      "type": "event"
    },
    {
      "inputs": [],
      "name": "DEFAULT_ADMIN_ROLE",
      "outputs": [
        {
          "internalType": "bytes32",
          "name": "",
          "type": "bytes32"
        }
      ],
      "stateMutability": "view",
      "type": "function"
    },
    {
      "inputs": [],
      "name": "MINTER_ROLE",
      "outputs": [
        {
          "internalType": "bytes32",
          "name": "",
          "type": "bytes32"
        }
      ],
      "stateMutability": "view",
      "type": "function"
    },
    {
      "inputs": [],
      "name": "PAUSER_ROLE",
      "outputs": [
        {
          "internalType": "bytes32",
          "name": "",
          "type": "bytes32"
        }
      ],
      "stateMutability": "view",
      "type": "function"
    },
    {
      "inputs": [
        {
          "internalType": "address",
          "name": "to",
          "type": "address"
        },
        {
          "internalType": "uint256",
          "name": "tokenId",
          "type": "uint256"
        }
      ],
      "name": "approve",
      "outputs": [],
      "stateMutability": "nonpayable",
      "type": "function"
    },
    {
      "inputs": [
        {
          "internalType": "address",
          "name": "owner",
          "type": "address"
        }
      ],
      "name": "balanceOf",
      "outputs": [
        {
          "internalType": "uint256",
          "name": "",
          "type": "uint256"
        }
      ],
      "stateMutability": "view",
      "type": "function"
    },
    {
      "inputs": [],
      "name": "baseURI",
      "outputs": [
        {
          "internalType": "string",
          "name": "",
          "type": "string"
        }
      ],
      "stateMutability": "view",
      "type": "function"
    },
    {
      "inputs": [
        {
          "internalType": "uint256",
          "name": "tokenId",
          "type": "uint256"
        }
      ],
      "name": "burn",
      "outputs": [],
      "stateMutability": "nonpayable",
      "type": "function"
    },
    {
      "inputs": [
        {
          "internalType": "uint256",
          "name": "tokenId",
          "type": "uint256"
        }
      ],
      "name": "getApproved",
      "outputs": [
        {
          "internalType": "address",
          "name": "",
          "type": "address"
        }
      ],
      "stateMutability": "view",
      "type": "function"
    },
    {
      "inputs": [
        {
          "internalType": "bytes32",
          "name": "role",
          "type": "bytes32"
        }
      ],
      "name": "getRoleAdmin",
      "outputs": [
        {
          "internalType": "bytes32",
          "name": "",
          "type": "bytes32"
        }
      ],
      "stateMutability": "view",
      "type": "function"
    },
    {
      "inputs": [
        {
          "internalType": "bytes32",
          "name": "role",
          "type": "bytes32"
        },
        {
          "internalType": "uint256",
          "name": "index",
          "type": "uint256"
        }
      ],
      "name": "getRoleMember",
      "outputs": [
        {
          "internalType": "address",
          "name": "",
          "type": "address"
        }
      ],
      "stateMutability": "view",
      "type": "function"
    },
    {
      "inputs": [
        {
          "internalType": "bytes32",
          "name": "role",
          "type": "bytes32"
        }
      ],
      "name": "getRoleMemberCount",
      "outputs": [
        {
          "internalType": "uint256",
          "name": "",
          "type": "uint256"
        }
      ],
      "stateMutability": "view",
      "type": "function"
    },
    {
      "inputs": [
        {
          "internalType": "bytes32",
          "name": "role",
          "type": "bytes32"
        },
        {
          "internalType": "address",
          "name": "account",
          "type": "address"
        }
      ],
      "name": "getRoleMemberIndex",
      "outputs": [
        {
          "internalType": "uint256",
          "name": "",
          "type": "uint256"
        }
      ],
      "stateMutability": "view",
      "type": "function"
    },
    {
      "inputs": [
        {
          "internalType": "bytes32",
          "name": "role",
          "type": "bytes32"
        },
        {
          "internalType": "address",
          "name": "account",
          "type": "address"
        }
      ],
      "name": "grantRole",
      "outputs": [],
      "stateMutability": "nonpayable",
      "type": "function"
    },
    {
      "inputs": [
        {
          "internalType": "bytes32",
          "name": "role",
          "type": "bytes32"
        },
        {
          "internalType": "address",
          "name": "account",
          "type": "address"
        }
      ],
      "name": "hasRole",
      "outputs": [
        {
          "internalType": "bool",
          "name": "",
          "type": "bool"
        }
      ],
      "stateMutability": "view",
      "type": "function"
    },
    {
      "inputs": [
        {
          "internalType": "address",
          "name": "owner",
          "type": "address"
        },
        {
          "internalType": "address",
          "name": "operator",
          "type": "address"
        }
      ],
      "name": "isApprovedForAll",
      "outputs": [
        {
          "internalType": "bool",
          "name": "",
          "type": "bool"
        }
      ],
      "stateMutability": "view",
      "type": "function"
    },
    {
      "inputs": [
        {
          "internalType": "address",
          "name": "to",
          "type": "address"
        },
        {
          "internalType": "uint256",
          "name": "tokenId",
          "type": "uint256"
        },
        {
          "internalType": "string",
          "name": "_data",
          "type": "string"
        }
      ],
      "name": "mint",
      "outputs": [],
      "stateMutability": "nonpayable",
      "type": "function"
    },
    {
      "inputs": [],
      "name": "name",
      "outputs": [
        {
          "internalType": "string",
          "name": "",
          "type": "string"
        }
      ],
      "stateMutability": "view",
      "type": "function"
    },
    {
      "inputs": [
        {
          "internalType": "uint256",
          "name": "tokenId",
          "type": "uint256"
        }
      ],
      "name": "ownerOf",
      "outputs": [
        {
          "internalType": "address",
          "name": "",
          "type": "address"
        }
      ],
      "stateMutability": "view",
      "type": "function"
    },
    {
      "inputs": [],
      "name": "pause",
      "outputs": [],
      "stateMutability": "nonpayable",
      "type": "function"
    },
    {
      "inputs": [],
      "name": "paused",
      "outputs": [
        {
          "internalType": "bool",
          "name": "",
          "type": "bool"
        }
      ],
      "stateMutability": "view",
      "type": "function"
    },
    {
      "inputs": [
        {
          "internalType": "bytes32",
          "name": "role",
          "type": "bytes32"
        },
        {
          "internalType": "address",
          "name": "account",
          "type": "address"
        }
      ],
      "name": "renounceRole",
      "outputs": [],
      "stateMutability": "nonpayable",
      "type": "function"
    },
    {
      "inputs": [
        {
          "internalType": "bytes32",
          "name": "role",
          "type": "bytes32"
        },
        {
          "internalType": "address",
          "name": "account",
          "type": "address"
        }
      ],
      "name": "revokeRole",
      "outputs": [],
      "stateMutability": "nonpayable",
      "type": "function"
    },
    {
      "inputs": [
        {
          "internalType": "address",
          "name": "from",
          "type": "address"
        },
        {
          "internalType": "address",
          "name": "to",
          "type": "address"
        },
        {
          "internalType": "uint256",
          "name": "tokenId",
          "type": "uint256"
        }
      ],
      "name": "safeTransferFrom",
      "outputs": [],
      "stateMutability": "nonpayable",
      "type": "function"
    },
    {
      "inputs": [
        {
          "internalType": "address",
          "name": "from",
          "type": "address"
        },
        {
          "internalType": "address",
          "name": "to",
          "type": "address"
        },
        {
          "internalType": "uint256",
          "name": "tokenId",
          "type": "uint256"
        },
        {
          "internalType": "bytes",
          "name": "data",
          "type": "bytes"
        }
      ],
      "name": "safeTransferFrom",
      "outputs": [],
      "stateMutability": "nonpayable",
      "type": "function"
    },
    {
      "inputs": [
        {
          "internalType": "address",
          "name": "operator",
          "type": "address"
        },
        {
          "internalType": "bool",
          "name": "approved",
          "type": "bool"
        }
      ],
      "name": "setApprovalForAll",
      "outputs": [],
      "stateMutability": "nonpayable",
      "type": "function"
    },
    {
      "inputs": [
        {
          "internalType": "bytes4",
          "name": "interfaceId",
          "type": "bytes4"
        }
      ],
      "name": "supportsInterface",
      "outputs": [
        {
          "internalType": "bool",
          "name": "",
          "type": "bool"
        }
      ],
      "stateMutability": "view",
      "type": "function"
    },
    {
      "inputs": [],
      "name": "symbol",
      "outputs": [
        {
          "internalType": "string",
          "name": "",
          "type": "string"
        }
      ],
      "stateMutability": "view",
      "type": "function"
    },
    {
      "inputs": [
        {
          "internalType": "uint256",
          "name": "tokenId",
          "type": "uint256"
        }
      ],
      "name": "tokenURI",
      "outputs": [
        {
          "internalType": "string",
          "name": "",
          "type": "string"
        }
      ],
      "stateMutability": "view",
      "type": "function"
    },
    {
      "inputs": [
        {
          "internalType": "address",
          "name": "from",
          "type": "address"
        },
        {
          "internalType": "address",
          "name": "to",
          "type": "address"
        },
        {
          "internalType": "uint256",
          "name": "tokenId",
          "type": "uint256"
        }
      ],
      "name": "transferFrom",
      "outputs": [],
      "stateMutability": "nonpayable",
      "type": "function"
    },
    {
      "inputs": [],
      "name": "unpause",
      "outputs": [],
      "stateMutability": "nonpayable",
      "type": "function"
    }
  ],
  "bytecode": "0x60806040523480156200001157600080fd5b50604051620044bc380380620044bc833981810160405281019062000037919062000547565b8282816001908051906020019062000051929190620002fa565b5080600290805190602001906200006a929190620002fa565b5050506000600760006101000a81548160ff021916908315150217905550620000ac6000801b620000a06200014860201b60201c565b6200015060201b60201c565b620000ed7f9f2df0fed2c77648de5860a4cc508cd0818c85b8b8a1ab4ceeef8d981c8956a6620000e16200014860201b60201c565b6200015060201b60201c565b6200012e7f65d7a28e3265b37a6474929f336521b332c1681b933f6cb9f3376673440d862a620001226200014860201b60201c565b6200015060201b60201c565b6200013f816200016660201b60201c565b50505062000665565b600033905090565b6200016282826200018260201b60201c565b5050565b80600990805190602001906200017e929190620002fa565b5050565b620001b0816000808581526020019081526020016000206000016200022560201b620011861790919060201c565b156200022157620001c66200014860201b60201c565b73ffffffffffffffffffffffffffffffffffffffff168173ffffffffffffffffffffffffffffffffffffffff16837f2f8788117e7eff1d82e926ec794901d17c78024a50270940304540a733656f0d60405160405180910390a45b5050565b600062000255836000018373ffffffffffffffffffffffffffffffffffffffff1660001b6200025d60201b60201c565b905092915050565b6000620002718383620002d760201b60201c565b620002cc578260000182908060018154018082558091505060019003906000526020600020016000909190919091505582600001805490508360010160008481526020019081526020016000208190555060019050620002d1565b600090505b92915050565b600080836001016000848152602001908152602001600020541415905092915050565b82805462000308906200062f565b90600052602060002090601f0160209004810192826200032c576000855562000378565b82601f106200034757805160ff191683800117855562000378565b8280016001018555821562000378579182015b82811115620003775782518255916020019190600101906200035a565b5b5090506200038791906200038b565b5090565b5b80821115620003a65760008160009055506001016200038c565b5090565b6000604051905090565b600080fd5b600080fd5b600080fd5b600080fd5b6000601f19601f8301169050919050565b7f4e487b7100000000000000000000000000000000000000000000000000000000600052604160045260246000fd5b6200041382620003c8565b810181811067ffffffffffffffff82111715620004355762000434620003d9565b5b80604052505050565b60006200044a620003aa565b905062000458828262000408565b919050565b600067ffffffffffffffff8211156200047b576200047a620003d9565b5b6200048682620003c8565b9050602081019050919050565b60005b83811015620004b357808201518184015260208101905062000496565b83811115620004c3576000848401525b50505050565b6000620004e0620004da846200045d565b6200043e565b905082815260208101848484011115620004ff57620004fe620003c3565b5b6200050c84828562000493565b509392505050565b600082601f8301126200052c576200052b620003be565b5b81516200053e848260208601620004c9565b91505092915050565b600080600060608486031215620005635762000562620003b4565b5b600084015167ffffffffffffffff811115620005845762000583620003b9565b5b620005928682870162000514565b935050602084015167ffffffffffffffff811115620005b657620005b5620003b9565b5b620005c48682870162000514565b925050604084015167ffffffffffffffff811115620005e857620005e7620003b9565b5b620005f68682870162000514565b9150509250925092565b7f4e487b7100000000000000000000000000000000000000000000000000000000600052602260045260246000fd5b600060028204905060018216806200064857607f821691505b602082108114156200065f576200065e62000600565b5b50919050565b613e4780620006756000396000f3fe608060405234801561001057600080fd5b50600436106101da5760003560e01c806370a0823111610104578063b88d4fde116100a2578063d539139311610071578063d539139314610565578063d547741f14610583578063e63ab1e91461059f578063e985e9c5146105bd576101da565b8063b88d4fde146104cd578063c87b56dd146104e9578063ca15c87314610519578063d3fc986414610549576101da565b806391d14854116100de57806391d148541461044557806395d89b4114610475578063a217fddf14610493578063a22cb465146104b1576101da565b806370a08231146103db5780638456cb591461040b5780639010d07c14610415576101da565b806336568abe1161017c5780634e0df3f61161014b5780634e0df3f61461033f5780635c975abb1461036f5780636352211e1461038d5780636c0360eb146103bd576101da565b806336568abe146102e15780633f4ba83a146102fd57806342842e0e1461030757806342966c6814610323576101da565b8063095ea7b3116101b8578063095ea7b31461025d57806323b872dd14610279578063248a9ca3146102955780632f2ff15d146102c5576101da565b806301ffc9a7146101df57806306fdde031461020f578063081812fc1461022d575b600080fd5b6101f960048036038101906101f491906127f2565b6105ed565b604051610206919061283a565b60405180910390f35b6102176106cf565b60405161022491906128ee565b60405180910390f35b61024760048036038101906102429190612946565b610761565b60405161025491906129b4565b60405180910390f35b610277600480360381019061027291906129fb565b6107a7565b005b610293600480360381019061028e9190612a3b565b6108bf565b005b6102af60048036038101906102aa9190612ac4565b61091f565b6040516102bc9190612b00565b60405180910390f35b6102df60048036038101906102da9190612b1b565b61093e565b005b6102fb60048036038101906102f69190612b1b565b6109b1565b005b610305610a34565b005b610321600480360381019061031c9190612a3b565b610aae565b005b61033d60048036038101906103389190612946565b610ace565b005b61035960048036038101906103549190612b1b565b610b2a565b6040516103669190612b6a565b60405180910390f35b610377610b7a565b604051610384919061283a565b60405180910390f35b6103a760048036038101906103a29190612946565b610b91565b6040516103b491906129b4565b60405180910390f35b6103c5610c43565b6040516103d291906128ee565b60405180910390f35b6103f560048036038101906103f09190612b85565b610cd1565b6040516104029190612b6a565b60405180910390f35b610413610d89565b005b61042f600480360381019061042a9190612bb2565b610e03565b60405161043c91906129b4565b60405180910390f35b61045f600480360381019061045a9190612b1b565b610e34565b60405161046c919061283a565b60405180910390f35b61047d610e65565b60405161048a91906128ee565b60405180910390f35b61049b610ef7565b6040516104a89190612b00565b60405180910390f35b6104cb60048036038101906104c69190612c1e565b610efe565b005b6104e760048036038101906104e29190612d93565b610f14565b005b61050360048036038101906104fe9190612946565b610f76565b60405161051091906128ee565b60405180910390f35b610533600480360381019061052e9190612ac4565b610f88565b6040516105409190612b6a565b60405180910390f35b610563600480360381019061055e9190612eb7565b610fae565b005b61056d611037565b60405161057a9190612b00565b60405180910390f35b61059d60048036038101906105989190612b1b565b61105b565b005b6105a76110ce565b6040516105b49190612b00565b60405180910390f35b6105d760048036038101906105d29190612f26565b6110f2565b6040516105e4919061283a565b60405180910390f35b60007f80ac58cd000000000000000000000000000000000000000000000000000000007bffffffffffffffffffffffffffffffffffffffffffffffffffffffff1916827bffffffffffffffffffffffffffffffffffffffffffffffffffffffff191614806106b857507f5b5e139f000000000000000000000000000000000000000000000000000000007bffffffffffffffffffffffffffffffffffffffffffffffffffffffff1916827bffffffffffffffffffffffffffffffffffffffffffffffffffffffff1916145b806106c857506106c7826111b6565b5b9050919050565b6060600180546106de90612f95565b80601f016020809104026020016040519081016040528092919081815260200182805461070a90612f95565b80156107575780601f1061072c57610100808354040283529160200191610757565b820191906000526020600020905b81548152906001019060200180831161073a57829003601f168201915b5050505050905090565b600061076c82611220565b6005600083815260200190815260200160002060009054906101000a900473ffffffffffffffffffffffffffffffffffffffff169050919050565b60006107b282610b91565b90508073ffffffffffffffffffffffffffffffffffffffff168373ffffffffffffffffffffffffffffffffffffffff161415610823576040517f08c379a000000000000000000000000000000000000000000000000000000000815260040161081a90613039565b60405180910390fd5b8073ffffffffffffffffffffffffffffffffffffffff1661084261126b565b73ffffffffffffffffffffffffffffffffffffffff16148061087157506108708161086b61126b565b6110f2565b5b6108b0576040517f08c379a00000000000000000000000000000000000000000000000000000000081526004016108a7906130cb565b60405180910390fd5b6108ba8383611273565b505050565b6108d06108ca61126b565b8261132c565b61090f576040517f08c379a00000000000000000000000000000000000000000000000000000000081526004016109069061315d565b60405180910390fd5b61091a8383836113c1565b505050565b6000806000838152602001908152602001600020600201549050919050565b6109646000808481526020019081526020016000206002015461095f61126b565b610e34565b6109a3576040517f08c379a000000000000000000000000000000000000000000000000000000000815260040161099a906131ef565b60405180910390fd5b6109ad8282611628565b5050565b6109b961126b565b73ffffffffffffffffffffffffffffffffffffffff168173ffffffffffffffffffffffffffffffffffffffff1614610a26576040517f08c379a0000000000000000000000000000000000000000000000000000000008152600401610a1d90613281565b60405180910390fd5b610a3082826116bb565b5050565b610a657f65d7a28e3265b37a6474929f336521b332c1681b933f6cb9f3376673440d862a610a6061126b565b610e34565b610aa4576040517f08c379a0000000000000000000000000000000000000000000000000000000008152600401610a9b90613313565b60405180910390fd5b610aac61174e565b565b610ac983838360405180602001604052806000815250610f14565b505050565b610adf610ad961126b565b8261132c565b610b1e576040517f08c379a0000000000000000000000000000000000000000000000000000000008152600401610b159061315d565b60405180910390fd5b610b27816117b1565b50565b600080600084815260200190815260200160002060000160000160010160008373ffffffffffffffffffffffffffffffffffffffff1660001b815260200190815260200160002054905092915050565b6000600760009054906101000a900460ff16905090565b6000806003600084815260200190815260200160002060009054906101000a900473ffffffffffffffffffffffffffffffffffffffff169050600073ffffffffffffffffffffffffffffffffffffffff168173ffffffffffffffffffffffffffffffffffffffff161415610c3a576040517f08c379a0000000000000000000000000000000000000000000000000000000008152600401610c319061337f565b60405180910390fd5b80915050919050565b60098054610c5090612f95565b80601f0160208091040260200160405190810160405280929190818152602001828054610c7c90612f95565b8015610cc95780601f10610c9e57610100808354040283529160200191610cc9565b820191906000526020600020905b815481529060010190602001808311610cac57829003601f168201915b505050505081565b60008073ffffffffffffffffffffffffffffffffffffffff168273ffffffffffffffffffffffffffffffffffffffff161415610d42576040517f08c379a0000000000000000000000000000000000000000000000000000000008152600401610d3990613411565b60405180910390fd5b600460008373ffffffffffffffffffffffffffffffffffffffff1673ffffffffffffffffffffffffffffffffffffffff168152602001908152602001600020549050919050565b610dba7f65d7a28e3265b37a6474929f336521b332c1681b933f6cb9f3376673440d862a610db561126b565b610e34565b610df9576040517f08c379a0000000000000000000000000000000000000000000000000000000008152600401610df0906134a3565b60405180910390fd5b610e016117bd565b565b6000610e2c8260008086815260200190815260200160002060000161182090919063ffffffff16565b905092915050565b6000610e5d8260008086815260200190815260200160002060000161183a90919063ffffffff16565b905092915050565b606060028054610e7490612f95565b80601f0160208091040260200160405190810160405280929190818152602001828054610ea090612f95565b8015610eed5780601f10610ec257610100808354040283529160200191610eed565b820191906000526020600020905b815481529060010190602001808311610ed057829003601f168201915b5050505050905090565b6000801b81565b610f10610f0961126b565b838361186a565b5050565b610f25610f1f61126b565b8361132c565b610f64576040517f08c379a0000000000000000000000000000000000000000000000000000000008152600401610f5b9061315d565b60405180910390fd5b610f70848484846119d7565b50505050565b6060610f8182611a33565b9050919050565b6000610fa7600080848152602001908152602001600020600001611b46565b9050919050565b610fdf7f9f2df0fed2c77648de5860a4cc508cd0818c85b8b8a1ab4ceeef8d981c8956a6610fda61126b565b610e34565b61101e576040517f08c379a000000000000000000000000000000000000000000000000000000000815260040161101590613535565b60405180910390fd5b6110288383611b5b565b6110328282611d35565b505050565b7f9f2df0fed2c77648de5860a4cc508cd0818c85b8b8a1ab4ceeef8d981c8956a681565b6110816000808481526020019081526020016000206002015461107c61126b565b610e34565b6110c0576040517f08c379a00000000000000000000000000000000000000000000000000000000081526004016110b7906135c7565b60405180910390fd5b6110ca82826116bb565b5050565b7f65d7a28e3265b37a6474929f336521b332c1681b933f6cb9f3376673440d862a81565b6000600660008473ffffffffffffffffffffffffffffffffffffffff1673ffffffffffffffffffffffffffffffffffffffff16815260200190815260200160002060008373ffffffffffffffffffffffffffffffffffffffff1673ffffffffffffffffffffffffffffffffffffffff16815260200190815260200160002060009054906101000a900460ff16905092915050565b60006111ae836000018373ffffffffffffffffffffffffffffffffffffffff1660001b611da9565b905092915050565b60007f01ffc9a7000000000000000000000000000000000000000000000000000000007bffffffffffffffffffffffffffffffffffffffffffffffffffffffff1916827bffffffffffffffffffffffffffffffffffffffffffffffffffffffff1916149050919050565b61122981611e19565b611268576040517f08c379a000000000000000000000000000000000000000000000000000000000815260040161125f9061337f565b60405180910390fd5b50565b600033905090565b816005600083815260200190815260200160002060006101000a81548173ffffffffffffffffffffffffffffffffffffffff021916908373ffffffffffffffffffffffffffffffffffffffff160217905550808273ffffffffffffffffffffffffffffffffffffffff166112e683610b91565b73ffffffffffffffffffffffffffffffffffffffff167f8c5be1e5ebec7d5bd14f71427d1e84f3dd0314c0f7b2291e5b200ac8c7c3b92560405160405180910390a45050565b60008061133883610b91565b90508073ffffffffffffffffffffffffffffffffffffffff168473ffffffffffffffffffffffffffffffffffffffff16148061137a575061137981856110f2565b5b806113b857508373ffffffffffffffffffffffffffffffffffffffff166113a084610761565b73ffffffffffffffffffffffffffffffffffffffff16145b91505092915050565b8273ffffffffffffffffffffffffffffffffffffffff166113e182610b91565b73ffffffffffffffffffffffffffffffffffffffff1614611437576040517f08c379a000000000000000000000000000000000000000000000000000000000815260040161142e90613659565b60405180910390fd5b600073ffffffffffffffffffffffffffffffffffffffff168273ffffffffffffffffffffffffffffffffffffffff1614156114a7576040517f08c379a000000000000000000000000000000000000000000000000000000000815260040161149e906136eb565b60405180910390fd5b6114b2838383611e85565b6114bd600082611273565b6001600460008573ffffffffffffffffffffffffffffffffffffffff1673ffffffffffffffffffffffffffffffffffffffff168152602001908152602001600020600082825461150d919061373a565b925050819055506001600460008473ffffffffffffffffffffffffffffffffffffffff1673ffffffffffffffffffffffffffffffffffffffff1681526020019081526020016000206000828254611564919061376e565b92505081905550816003600083815260200190815260200160002060006101000a81548173ffffffffffffffffffffffffffffffffffffffff021916908373ffffffffffffffffffffffffffffffffffffffff160217905550808273ffffffffffffffffffffffffffffffffffffffff168473ffffffffffffffffffffffffffffffffffffffff167fddf252ad1be2c89b69c2b068fc378daa952ba7f163c4a11628f55a4df523b3ef60405160405180910390a4611623838383611e95565b505050565b61164f8160008085815260200190815260200160002060000161118690919063ffffffff16565b156116b75761165c61126b565b73ffffffffffffffffffffffffffffffffffffffff168173ffffffffffffffffffffffffffffffffffffffff16837f2f8788117e7eff1d82e926ec794901d17c78024a50270940304540a733656f0d60405160405180910390a45b5050565b6116e281600080858152602001908152602001600020600001611e9a90919063ffffffff16565b1561174a576116ef61126b565b73ffffffffffffffffffffffffffffffffffffffff168173ffffffffffffffffffffffffffffffffffffffff16837ff6391f5c32d9c69d2a47ea670b442974b53935d1edc7fd64eb21e047a839171b60405160405180910390a45b5050565b611756611eca565b6000600760006101000a81548160ff0219169083151502179055507f5db9ee0a495bf2e6ff9c91a7834c1ba4fdd244a5e8aa4e537bd38aeae4b073aa61179a61126b565b6040516117a791906129b4565b60405180910390a1565b6117ba81611f13565b50565b6117c5611f66565b6001600760006101000a81548160ff0219169083151502179055507f62e78cea01bee320cd4e420270b5ea74000d11b0c9f74754ebdbfc544b05a25861180961126b565b60405161181691906129b4565b60405180910390a1565b600061182f8360000183611fb0565b60001c905092915050565b6000611862836000018373ffffffffffffffffffffffffffffffffffffffff1660001b611fdb565b905092915050565b8173ffffffffffffffffffffffffffffffffffffffff168373ffffffffffffffffffffffffffffffffffffffff1614156118d9576040517f08c379a00000000000000000000000000000000000000000000000000000000081526004016118d090613810565b60405180910390fd5b80600660008573ffffffffffffffffffffffffffffffffffffffff1673ffffffffffffffffffffffffffffffffffffffff16815260200190815260200160002060008473ffffffffffffffffffffffffffffffffffffffff1673ffffffffffffffffffffffffffffffffffffffff16815260200190815260200160002060006101000a81548160ff0219169083151502179055508173ffffffffffffffffffffffffffffffffffffffff168373ffffffffffffffffffffffffffffffffffffffff167f17307eab39ab6107e8899845ad3d59bd9653f200f220920489ca2b5937696c31836040516119ca919061283a565b60405180910390a3505050565b6119e28484846113c1565b6119ee84848484611ffe565b611a2d576040517f08c379a0000000000000000000000000000000000000000000000000000000008152600401611a24906138a2565b60405180910390fd5b50505050565b6060611a3e82611220565b6000600860008481526020019081526020016000208054611a5e90612f95565b80601f0160208091040260200160405190810160405280929190818152602001828054611a8a90612f95565b8015611ad75780601f10611aac57610100808354040283529160200191611ad7565b820191906000526020600020905b815481529060010190602001808311611aba57829003601f168201915b505050505090506000611ae8612186565b9050600081511415611afe578192505050611b41565b600082511115611b33578082604051602001611b1b9291906138fe565b60405160208183030381529060405292505050611b41565b611b3c84612218565b925050505b919050565b6000611b5482600001612280565b9050919050565b600073ffffffffffffffffffffffffffffffffffffffff168273ffffffffffffffffffffffffffffffffffffffff161415611bcb576040517f08c379a0000000000000000000000000000000000000000000000000000000008152600401611bc29061396e565b60405180910390fd5b611bd481611e19565b15611c14576040517f08c379a0000000000000000000000000000000000000000000000000000000008152600401611c0b906139da565b60405180910390fd5b611c2060008383611e85565b6001600460008473ffffffffffffffffffffffffffffffffffffffff1673ffffffffffffffffffffffffffffffffffffffff1681526020019081526020016000206000828254611c70919061376e565b92505081905550816003600083815260200190815260200160002060006101000a81548173ffffffffffffffffffffffffffffffffffffffff021916908373ffffffffffffffffffffffffffffffffffffffff160217905550808273ffffffffffffffffffffffffffffffffffffffff16600073ffffffffffffffffffffffffffffffffffffffff167fddf252ad1be2c89b69c2b068fc378daa952ba7f163c4a11628f55a4df523b3ef60405160405180910390a4611d3160008383611e95565b5050565b611d3e82611e19565b611d7d576040517f08c379a0000000000000000000000000000000000000000000000000000000008152600401611d7490613a6c565b60405180910390fd5b80600860008481526020019081526020016000209080519060200190611da49291906126a3565b505050565b6000611db58383611fdb565b611e0e578260000182908060018154018082558091505060019003906000526020600020016000909190919091505582600001805490508360010160008481526020019081526020016000208190555060019050611e13565b600090505b92915050565b60008073ffffffffffffffffffffffffffffffffffffffff166003600084815260200190815260200160002060009054906101000a900473ffffffffffffffffffffffffffffffffffffffff1673ffffffffffffffffffffffffffffffffffffffff1614159050919050565b611e90838383612291565b505050565b505050565b6000611ec2836000018373ffffffffffffffffffffffffffffffffffffffff1660001b6122e9565b905092915050565b611ed2610b7a565b611f11576040517f08c379a0000000000000000000000000000000000000000000000000000000008152600401611f0890613ad8565b60405180910390fd5b565b611f1c816123fd565b6000600860008381526020019081526020016000208054611f3c90612f95565b905014611f6357600860008281526020019081526020016000206000611f629190612729565b5b50565b611f6e610b7a565b15611fae576040517f08c379a0000000000000000000000000000000000000000000000000000000008152600401611fa590613b44565b60405180910390fd5b565b6000826000018281548110611fc857611fc7613b64565b5b9060005260206000200154905092915050565b600080836001016000848152602001908152602001600020541415905092915050565b600061201f8473ffffffffffffffffffffffffffffffffffffffff1661251a565b15612179578373ffffffffffffffffffffffffffffffffffffffff1663150b7a0261204861126b565b8786866040518563ffffffff1660e01b815260040161206a9493929190613be8565b6020604051808303816000875af19250505080156120a657506040513d601f19601f820116820180604052508101906120a39190613c49565b60015b612129573d80600081146120d6576040519150601f19603f3d011682016040523d82523d6000602084013e6120db565b606091505b50600081511415612121576040517f08c379a0000000000000000000000000000000000000000000000000000000008152600401612118906138a2565b60405180910390fd5b805181602001fd5b63150b7a0260e01b7bffffffffffffffffffffffffffffffffffffffffffffffffffffffff1916817bffffffffffffffffffffffffffffffffffffffffffffffffffffffff19161491505061217e565b600190505b949350505050565b60606009805461219590612f95565b80601f01602080910402602001604051908101604052809291908181526020018280546121c190612f95565b801561220e5780601f106121e35761010080835404028352916020019161220e565b820191906000526020600020905b8154815290600101906020018083116121f157829003601f168201915b5050505050905090565b606061222382611220565b600061222d612186565b9050600081511161224d5760405180602001604052806000815250612278565b806122578461253d565b6040516020016122689291906138fe565b6040516020818303038152906040525b915050919050565b600081600001805490509050919050565b61229c83838361269e565b6122a4610b7a565b156122e4576040517f08c379a00000000000000000000000000000000000000000000000000000000081526004016122db90613ce8565b60405180910390fd5b505050565b600080836001016000848152602001908152602001600020549050600081146123f157600060018261231b919061373a565b9050600060018660000180549050612333919061373a565b90508181146123a257600086600001828154811061235457612353613b64565b5b906000526020600020015490508087600001848154811061237857612377613b64565b5b90600052602060002001819055508387600101600083815260200190815260200160002081905550505b856000018054806123b6576123b5613d08565b5b6001900381819060005260206000200160009055905585600101600086815260200190815260200160002060009055600193505050506123f7565b60009150505b92915050565b600061240882610b91565b905061241681600084611e85565b612421600083611273565b6001600460008373ffffffffffffffffffffffffffffffffffffffff1673ffffffffffffffffffffffffffffffffffffffff1681526020019081526020016000206000828254612471919061373a565b925050819055506003600083815260200190815260200160002060006101000a81549073ffffffffffffffffffffffffffffffffffffffff021916905581600073ffffffffffffffffffffffffffffffffffffffff168273ffffffffffffffffffffffffffffffffffffffff167fddf252ad1be2c89b69c2b068fc378daa952ba7f163c4a11628f55a4df523b3ef60405160405180910390a461251681600084611e95565b5050565b6000808273ffffffffffffffffffffffffffffffffffffffff163b119050919050565b60606000821415612585576040518060400160405280600181526020017f30000000000000000000000000000000000000000000000000000000000000008152509050612699565b600082905060005b600082146125b75780806125a090613d37565b915050600a826125b09190613daf565b915061258d565b60008167ffffffffffffffff8111156125d3576125d2612c68565b5b6040519080825280601f01601f1916602001820160405280156126055781602001600182028036833780820191505090505b5090505b600085146126925760018261261e919061373a565b9150600a8561262d9190613de0565b6030612639919061376e565b60f81b81838151811061264f5761264e613b64565b5b60200101907effffffffffffffffffffffffffffffffffffffffffffffffffffffffffffff1916908160001a905350600a8561268b9190613daf565b9450612609565b8093505050505b919050565b505050565b8280546126af90612f95565b90600052602060002090601f0160209004810192826126d15760008555612718565b82601f106126ea57805160ff1916838001178555612718565b82800160010185558215612718579182015b828111156127175782518255916020019190600101906126fc565b5b5090506127259190612769565b5090565b50805461273590612f95565b6000825580601f106127475750612766565b601f0160209004906000526020600020908101906127659190612769565b5b50565b5b8082111561278257600081600090555060010161276a565b5090565b6000604051905090565b600080fd5b600080fd5b60007fffffffff0000000000000000000000000000000000000000000000000000000082169050919050565b6127cf8161279a565b81146127da57600080fd5b50565b6000813590506127ec816127c6565b92915050565b60006020828403121561280857612807612790565b5b6000612816848285016127dd565b91505092915050565b60008115159050919050565b6128348161281f565b82525050565b600060208201905061284f600083018461282b565b92915050565b600081519050919050565b600082825260208201905092915050565b60005b8381101561288f578082015181840152602081019050612874565b8381111561289e576000848401525b50505050565b6000601f19601f8301169050919050565b60006128c082612855565b6128ca8185612860565b93506128da818560208601612871565b6128e3816128a4565b840191505092915050565b6000602082019050818103600083015261290881846128b5565b905092915050565b6000819050919050565b61292381612910565b811461292e57600080fd5b50565b6000813590506129408161291a565b92915050565b60006020828403121561295c5761295b612790565b5b600061296a84828501612931565b91505092915050565b600073ffffffffffffffffffffffffffffffffffffffff82169050919050565b600061299e82612973565b9050919050565b6129ae81612993565b82525050565b60006020820190506129c960008301846129a5565b92915050565b6129d881612993565b81146129e357600080fd5b50565b6000813590506129f5816129cf565b92915050565b60008060408385031215612a1257612a11612790565b5b6000612a20858286016129e6565b9250506020612a3185828601612931565b9150509250929050565b600080600060608486031215612a5457612a53612790565b5b6000612a62868287016129e6565b9350506020612a73868287016129e6565b9250506040612a8486828701612931565b9150509250925092565b6000819050919050565b612aa181612a8e565b8114612aac57600080fd5b50565b600081359050612abe81612a98565b92915050565b600060208284031215612ada57612ad9612790565b5b6000612ae884828501612aaf565b91505092915050565b612afa81612a8e565b82525050565b6000602082019050612b156000830184612af1565b92915050565b60008060408385031215612b3257612b31612790565b5b6000612b4085828601612aaf565b9250506020612b51858286016129e6565b9150509250929050565b612b6481612910565b82525050565b6000602082019050612b7f6000830184612b5b565b92915050565b600060208284031215612b9b57612b9a612790565b5b6000612ba9848285016129e6565b91505092915050565b60008060408385031215612bc957612bc8612790565b5b6000612bd785828601612aaf565b9250506020612be885828601612931565b9150509250929050565b612bfb8161281f565b8114612c0657600080fd5b50565b600081359050612c1881612bf2565b92915050565b60008060408385031215612c3557612c34612790565b5b6000612c43858286016129e6565b9250506020612c5485828601612c09565b9150509250929050565b600080fd5b600080fd5b7f4e487b7100000000000000000000000000000000000000000000000000000000600052604160045260246000fd5b612ca0826128a4565b810181811067ffffffffffffffff82111715612cbf57612cbe612c68565b5b80604052505050565b6000612cd2612786565b9050612cde8282612c97565b919050565b600067ffffffffffffffff821115612cfe57612cfd612c68565b5b612d07826128a4565b9050602081019050919050565b82818337600083830152505050565b6000612d36612d3184612ce3565b612cc8565b905082815260208101848484011115612d5257612d51612c63565b5b612d5d848285612d14565b509392505050565b600082601f830112612d7a57612d79612c5e565b5b8135612d8a848260208601612d23565b91505092915050565b60008060008060808587031215612dad57612dac612790565b5b6000612dbb878288016129e6565b9450506020612dcc878288016129e6565b9350506040612ddd87828801612931565b925050606085013567ffffffffffffffff811115612dfe57612dfd612795565b5b612e0a87828801612d65565b91505092959194509250565b600067ffffffffffffffff821115612e3157612e30612c68565b5b612e3a826128a4565b9050602081019050919050565b6000612e5a612e5584612e16565b612cc8565b905082815260208101848484011115612e7657612e75612c63565b5b612e81848285612d14565b509392505050565b600082601f830112612e9e57612e9d612c5e565b5b8135612eae848260208601612e47565b91505092915050565b600080600060608486031215612ed057612ecf612790565b5b6000612ede868287016129e6565b9350506020612eef86828701612931565b925050604084013567ffffffffffffffff811115612f1057612f0f612795565b5b612f1c86828701612e89565b9150509250925092565b60008060408385031215612f3d57612f3c612790565b5b6000612f4b858286016129e6565b9250506020612f5c858286016129e6565b9150509250929050565b7f4e487b7100000000000000000000000000000000000000000000000000000000600052602260045260246000fd5b60006002820490506001821680612fad57607f821691505b60208210811415612fc157612fc0612f66565b5b50919050565b7f4552433732313a20617070726f76616c20746f2063757272656e74206f776e6560008201527f7200000000000000000000000000000000000000000000000000000000000000602082015250565b6000613023602183612860565b915061302e82612fc7565b604082019050919050565b6000602082019050818103600083015261305281613016565b9050919050565b7f4552433732313a20617070726f76652063616c6c6572206973206e6f7420746f60008201527f6b656e206f776e6572206e6f7220617070726f76656420666f7220616c6c0000602082015250565b60006130b5603e83612860565b91506130c082613059565b604082019050919050565b600060208201905081810360008301526130e4816130a8565b9050919050565b7f4552433732313a2063616c6c6572206973206e6f7420746f6b656e206f776e6560008201527f72206e6f7220617070726f766564000000000000000000000000000000000000602082015250565b6000613147602e83612860565b9150613152826130eb565b604082019050919050565b600060208201905081810360008301526131768161313a565b9050919050565b7f416363657373436f6e74726f6c3a2073656e646572206d75737420626520616e60008201527f2061646d696e20746f206772616e740000000000000000000000000000000000602082015250565b60006131d9602f83612860565b91506131e48261317d565b604082019050919050565b60006020820190508181036000830152613208816131cc565b9050919050565b7f416363657373436f6e74726f6c3a2063616e206f6e6c792072656e6f756e636560008201527f20726f6c657320666f722073656c660000000000000000000000000000000000602082015250565b600061326b602f83612860565b91506132768261320f565b604082019050919050565b6000602082019050818103600083015261329a8161325e565b9050919050565b7f4552433732314d696e7465724275726e65725061757365723a206d757374206860008201527f6176652070617573657220726f6c6520746f20756e7061757365000000000000602082015250565b60006132fd603a83612860565b9150613308826132a1565b604082019050919050565b6000602082019050818103600083015261332c816132f0565b9050919050565b7f4552433732313a20696e76616c696420746f6b656e2049440000000000000000600082015250565b6000613369601883612860565b915061337482613333565b602082019050919050565b600060208201905081810360008301526133988161335c565b9050919050565b7f4552433732313a2061646472657373207a65726f206973206e6f74206120766160008201527f6c6964206f776e65720000000000000000000000000000000000000000000000602082015250565b60006133fb602983612860565b91506134068261339f565b604082019050919050565b6000602082019050818103600083015261342a816133ee565b9050919050565b7f4552433732314d696e7465724275726e65725061757365723a206d757374206860008201527f6176652070617573657220726f6c6520746f2070617573650000000000000000602082015250565b600061348d603883612860565b915061349882613431565b604082019050919050565b600060208201905081810360008301526134bc81613480565b9050919050565b7f4552433732314d696e7465724275726e65725061757365723a206d757374206860008201527f617665206d696e74657220726f6c6520746f206d696e74000000000000000000602082015250565b600061351f603783612860565b915061352a826134c3565b604082019050919050565b6000602082019050818103600083015261354e81613512565b9050919050565b7f416363657373436f6e74726f6c3a2073656e646572206d75737420626520616e60008201527f2061646d696e20746f207265766f6b6500000000000000000000000000000000602082015250565b60006135b1603083612860565b91506135bc82613555565b604082019050919050565b600060208201905081810360008301526135e0816135a4565b9050919050565b7f4552433732313a207472616e736665722066726f6d20696e636f72726563742060008201527f6f776e6572000000000000000000000000000000000000000000000000000000602082015250565b6000613643602583612860565b915061364e826135e7565b604082019050919050565b6000602082019050818103600083015261367281613636565b9050919050565b7f4552433732313a207472616e7366657220746f20746865207a65726f2061646460008201527f7265737300000000000000000000000000000000000000000000000000000000602082015250565b60006136d5602483612860565b91506136e082613679565b604082019050919050565b60006020820190508181036000830152613704816136c8565b9050919050565b7f4e487b7100000000000000000000000000000000000000000000000000000000600052601160045260246000fd5b600061374582612910565b915061375083612910565b9250828210156137635761376261370b565b5b828203905092915050565b600061377982612910565b915061378483612910565b9250827fffffffffffffffffffffffffffffffffffffffffffffffffffffffffffffffff038211156137b9576137b861370b565b5b828201905092915050565b7f4552433732313a20617070726f766520746f2063616c6c657200000000000000600082015250565b60006137fa601983612860565b9150613805826137c4565b602082019050919050565b60006020820190508181036000830152613829816137ed565b9050919050565b7f4552433732313a207472616e7366657220746f206e6f6e20455243373231526560008201527f63656976657220696d706c656d656e7465720000000000000000000000000000602082015250565b600061388c603283612860565b915061389782613830565b604082019050919050565b600060208201905081810360008301526138bb8161387f565b9050919050565b600081905092915050565b60006138d882612855565b6138e281856138c2565b93506138f2818560208601612871565b80840191505092915050565b600061390a82856138cd565b915061391682846138cd565b91508190509392505050565b7f4552433732313a206d696e7420746f20746865207a65726f2061646472657373600082015250565b6000613958602083612860565b915061396382613922565b602082019050919050565b600060208201905081810360008301526139878161394b565b9050919050565b7f4552433732313a20746f6b656e20616c7265616479206d696e74656400000000600082015250565b60006139c4601c83612860565b91506139cf8261398e565b602082019050919050565b600060208201905081810360008301526139f3816139b7565b9050919050565b7f45524337323155524953746f726167653a2055524920736574206f66206e6f6e60008201527f6578697374656e7420746f6b656e000000000000000000000000000000000000602082015250565b6000613a56602e83612860565b9150613a61826139fa565b604082019050919050565b60006020820190508181036000830152613a8581613a49565b9050919050565b7f5061757361626c653a206e6f7420706175736564000000000000000000000000600082015250565b6000613ac2601483612860565b9150613acd82613a8c565b602082019050919050565b60006020820190508181036000830152613af181613ab5565b9050919050565b7f5061757361626c653a2070617573656400000000000000000000000000000000600082015250565b6000613b2e601083612860565b9150613b3982613af8565b602082019050919050565b60006020820190508181036000830152613b5d81613b21565b9050919050565b7f4e487b7100000000000000000000000000000000000000000000000000000000600052603260045260246000fd5b600081519050919050565b600082825260208201905092915050565b6000613bba82613b93565b613bc48185613b9e565b9350613bd4818560208601612871565b613bdd816128a4565b840191505092915050565b6000608082019050613bfd60008301876129a5565b613c0a60208301866129a5565b613c176040830185612b5b565b8181036060830152613c298184613baf565b905095945050505050565b600081519050613c43816127c6565b92915050565b600060208284031215613c5f57613c5e612790565b5b6000613c6d84828501613c34565b91505092915050565b7f4552433732315061757361626c653a20746f6b656e207472616e73666572207760008201527f68696c6520706175736564000000000000000000000000000000000000000000602082015250565b6000613cd2602b83612860565b9150613cdd82613c76565b604082019050919050565b60006020820190508181036000830152613d0181613cc5565b9050919050565b7f4e487b7100000000000000000000000000000000000000000000000000000000600052603160045260246000fd5b6000613d4282612910565b91507fffffffffffffffffffffffffffffffffffffffffffffffffffffffffffffffff821415613d7557613d7461370b565b5b600182019050919050565b7f4e487b7100000000000000000000000000000000000000000000000000000000600052601260045260246000fd5b6000613dba82612910565b9150613dc583612910565b925082613dd557613dd4613d80565b5b828204905092915050565b6000613deb82612910565b9150613df683612910565b925082613e0657613e05613d80565b5b82820690509291505056fea2646970667358221220f5bd8cf2e3635e1baafa7670c02e57debca747a3aeea8376d9eae3f7557d58e564736f6c634300080b0033",
  "linkReferences": {},
  "deployedLinkReferences": {}
}