{
  "_format": "hh-sol-artifact-1",
  "contractName": "HandlerHelpers",
  "sourceName": "contracts/handlers/HandlerHelpers.sol",
  "abi": [
    {
      "inputs": [
        {
          "internalType": "address",
          "name": "bridgeAddress",
          "type": "address"
        }
      ],
      "stateMutability": "nonpayable",
      "type": "constructor"
    },
    {
      "inputs": [],
      "name": "_bridgeAddress",
      "outputs": [
        {
          "internalType": "address",
          "name": "",
          "type": "address"
        }
      ],
      "stateMutability": "view",
      "type": "function"
    },
    {
      "inputs": [
        {
          "internalType": "address",
          "name": "",
          "type": "address"
        }
      ],
      "name": "_burnList",
      "outputs": [
        {
          "internalType": "bool",
          "name": "",
          "type": "bool"
        }
      ],
      "stateMutability": "view",
      "type": "function"
    },
    {
      "inputs": [
        {
          "internalType": "address",
          "name": "",
          "type": "address"
        }
      ],
      "name": "_contractWhitelist",
      "outputs": [
        {
          "internalType": "bool",
          "name": "",
          "type": "bool"
        }
      ],
      "stateMutability": "view",
      "type": "function"
    },
    {
      "inputs": [
        {
          "internalType": "bytes32",
          "name": "",
          "type": "bytes32"
        }
      ],
      "name": "_resourceIDToTokenContractAddress",
      "outputs": [
        {
          "internalType": "address",
          "name": "",
          "type": "address"
        }
      ],
      "stateMutability": "view",
      "type": "function"
    },
    {
      "inputs": [
        {
          "internalType": "address",
          "name": "",
          "type": "address"
        }
      ],
      "name": "_tokenContractAddressToResourceID",
      "outputs": [
        {
          "internalType": "bytes32",
          "name": "",
          "type": "bytes32"
        }
      ],
      "stateMutability": "view",
      "type": "function"
    },
    {
      "inputs": [
        {
          "internalType": "address",
          "name": "contractAddress",
          "type": "address"
        }
      ],
      "name": "setBurnable",
      "outputs": [],
      "stateMutability": "nonpayable",
      "type": "function"
    },
    {
      "inputs": [
        {
          "internalType": "bytes32",
          "name": "resourceID",
          "type": "bytes32"
        },
        {
          "internalType": "address",
          "name": "contractAddress",
          "type": "address"
        }
      ],
      "name": "setResource",
      "outputs": [],
      "stateMutability": "nonpayable",
      "type": "function"
    },
    {
      "inputs": [
        {
          "internalType": "bytes",
          "name": "data",
          "type": "bytes"
        }
      ],
      "name": "withdraw",
      "outputs": [],
      "stateMutability": "nonpayable",
      "type": "function"
    }
  ],
  "bytecode": "0x60a060405234801561001057600080fd5b50604051610ac1380380610ac1833981810160405281019061003291906100cf565b8073ffffffffffffffffffffffffffffffffffffffff1660808173ffffffffffffffffffffffffffffffffffffffff1681525050506100fc565b600080fd5b600073ffffffffffffffffffffffffffffffffffffffff82169050919050565b600061009c82610071565b9050919050565b6100ac81610091565b81146100b757600080fd5b50565b6000815190506100c9816100a3565b92915050565b6000602082840312156100e5576100e461006c565b5b60006100f3848285016100ba565b91505092915050565b6080516109a361011e6000396000818161020b015261029d01526109a36000f3fe608060405234801561001057600080fd5b50600436106100885760003560e01c80636a70d0811161005b5780636a70d081146101135780637f79bea814610143578063b8fa373614610173578063c8ba6c871461018f57610088565b806307b7ed991461008d5780630968f264146100a95780630a6d55d8146100c5578063318c136e146100f5575b600080fd5b6100a760048036038101906100a29190610575565b6101bf565b005b6100c360048036038101906100be91906106e8565b6101d3565b005b6100df60048036038101906100da9190610767565b6101d6565b6040516100ec91906107a3565b60405180910390f35b6100fd610209565b60405161010a91906107a3565b60405180910390f35b61012d60048036038101906101289190610575565b61022d565b60405161013a91906107d9565b60405180910390f35b61015d60048036038101906101589190610575565b61024d565b60405161016a91906107d9565b60405180910390f35b61018d600480360381019061018891906107f4565b61026d565b005b6101a960048036038101906101a49190610575565b610283565b6040516101b69190610843565b60405180910390f35b6101c761029b565b6101d08161032b565b50565b50565b60006020528060005260406000206000915054906101000a900473ffffffffffffffffffffffffffffffffffffffff1681565b7f000000000000000000000000000000000000000000000000000000000000000081565b60036020528060005260406000206000915054906101000a900460ff1681565b60026020528060005260406000206000915054906101000a900460ff1681565b61027561029b565b61027f8282610412565b5050565b60016020528060005260406000206000915090505481565b7f000000000000000000000000000000000000000000000000000000000000000073ffffffffffffffffffffffffffffffffffffffff163373ffffffffffffffffffffffffffffffffffffffff1614610329576040517f08c379a0000000000000000000000000000000000000000000000000000000008152600401610320906108bb565b60405180910390fd5b565b600260008273ffffffffffffffffffffffffffffffffffffffff1673ffffffffffffffffffffffffffffffffffffffff16815260200190815260200160002060009054906101000a900460ff166103b7576040517f08c379a00000000000000000000000000000000000000000000000000000000081526004016103ae9061094d565b60405180910390fd5b6001600360008373ffffffffffffffffffffffffffffffffffffffff1673ffffffffffffffffffffffffffffffffffffffff16815260200190815260200160002060006101000a81548160ff02191690831515021790555050565b8060008084815260200190815260200160002060006101000a81548173ffffffffffffffffffffffffffffffffffffffff021916908373ffffffffffffffffffffffffffffffffffffffff16021790555081600160008373ffffffffffffffffffffffffffffffffffffffff1673ffffffffffffffffffffffffffffffffffffffff168152602001908152602001600020819055506001600260008373ffffffffffffffffffffffffffffffffffffffff1673ffffffffffffffffffffffffffffffffffffffff16815260200190815260200160002060006101000a81548160ff0219169083151502179055505050565b6000604051905090565b600080fd5b600080fd5b600073ffffffffffffffffffffffffffffffffffffffff82169050919050565b600061054282610517565b9050919050565b61055281610537565b811461055d57600080fd5b50565b60008135905061056f81610549565b92915050565b60006020828403121561058b5761058a61050d565b5b600061059984828501610560565b91505092915050565b600080fd5b600080fd5b6000601f19601f8301169050919050565b7f4e487b7100000000000000000000000000000000000000000000000000000000600052604160045260246000fd5b6105f5826105ac565b810181811067ffffffffffffffff82111715610614576106136105bd565b5b80604052505050565b6000610627610503565b905061063382826105ec565b919050565b600067ffffffffffffffff821115610653576106526105bd565b5b61065c826105ac565b9050602081019050919050565b82818337600083830152505050565b600061068b61068684610638565b61061d565b9050828152602081018484840111156106a7576106a66105a7565b5b6106b2848285610669565b509392505050565b600082601f8301126106cf576106ce6105a2565b5b81356106df848260208601610678565b91505092915050565b6000602082840312156106fe576106fd61050d565b5b600082013567ffffffffffffffff81111561071c5761071b610512565b5b610728848285016106ba565b91505092915050565b6000819050919050565b61074481610731565b811461074f57600080fd5b50565b6000813590506107618161073b565b92915050565b60006020828403121561077d5761077c61050d565b5b600061078b84828501610752565b91505092915050565b61079d81610537565b82525050565b60006020820190506107b86000830184610794565b92915050565b60008115159050919050565b6107d3816107be565b82525050565b60006020820190506107ee60008301846107ca565b92915050565b6000806040838503121561080b5761080a61050d565b5b600061081985828601610752565b925050602061082a85828601610560565b9150509250929050565b61083d81610731565b82525050565b60006020820190506108586000830184610834565b92915050565b600082825260208201905092915050565b7f73656e646572206d7573742062652062726964676520636f6e74726163740000600082015250565b60006108a5601e8361085e565b91506108b08261086f565b602082019050919050565b600060208201905081810360008301526108d481610898565b9050919050565b7f70726f766964656420636f6e7472616374206973206e6f742077686974656c6960008201527f7374656400000000000000000000000000000000000000000000000000000000602082015250565b600061093760248361085e565b9150610942826108db565b604082019050919050565b600060208201905081810360008301526109668161092a565b905091905056fea26469706673582212208664358d85ea692bdfb5b9b7bf70dfdd0747b2ddcc60ea90e93d3323dbedd67e64736f6c634300080b0033",
  "linkReferences": {},
  "deployedLinkReferences": {}
}