{
  "_format": "hh-sol-artifact-1",
  "contractName": "ERC1155Handler",
  "sourceName": "contracts/handlers/ERC1155Handler.sol",
  "abi": [
    {
      "inputs": [
        {
          "internalType": "address",
          "name": "bridgeAddress",
          "type": "address"
        }
      ],
      "stateMutability": "nonpayable",
      "type": "constructor"
    },
    {
      "inputs": [],
      "name": "_bridgeAddress",
      "outputs": [
        {
          "internalType": "address",
          "name": "",
          "type": "address"
        }
      ],
      "stateMutability": "view",
      "type": "function"
    },
    {
      "inputs": [
        {
          "internalType": "address",
          "name": "",
          "type": "address"
        }
      ],
      "name": "_burnList",
      "outputs": [
        {
          "internalType": "bool",
          "name": "",
          "type": "bool"
        }
      ],
      "stateMutability": "view",
      "type": "function"
    },
    {
      "inputs": [
        {
          "internalType": "address",
          "name": "",
          "type": "address"
        }
      ],
      "name": "_contractWhitelist",
      "outputs": [
        {
          "internalType": "bool",
          "name": "",
          "type": "bool"
        }
      ],
      "stateMutability": "view",
      "type": "function"
    },
    {
      "inputs": [
        {
          "internalType": "bytes32",
          "name": "",
          "type": "bytes32"
        }
      ],
      "name": "_resourceIDToTokenContractAddress",
      "outputs": [
        {
          "internalType": "address",
          "name": "",
          "type": "address"
        }
      ],
      "stateMutability": "view",
      "type": "function"
    },
    {
      "inputs": [
        {
          "internalType": "address",
          "name": "",
          "type": "address"
        }
      ],
      "name": "_tokenContractAddressToResourceID",
      "outputs": [
        {
          "internalType": "bytes32",
          "name": "",
          "type": "bytes32"
        }
      ],
      "stateMutability": "view",
      "type": "function"
    },
    {
      "inputs": [
        {
          "internalType": "bytes32",
          "name": "resourceID",
          "type": "bytes32"
        },
        {
          "internalType": "address",
          "name": "depositer",
          "type": "address"
        },
        {
          "internalType": "bytes",
          "name": "data",
          "type": "bytes"
        }
      ],
      "name": "deposit",
      "outputs": [
        {
          "internalType": "bytes",
          "name": "metaData",
          "type": "bytes"
        }
      ],
      "stateMutability": "nonpayable",
      "type": "function"
    },
    {
      "inputs": [
        {
          "internalType": "bytes32",
          "name": "resourceID",
          "type": "bytes32"
        },
        {
          "internalType": "bytes",
          "name": "data",
          "type": "bytes"
        }
      ],
      "name": "executeProposal",
      "outputs": [],
      "stateMutability": "nonpayable",
      "type": "function"
    },
    {
      "inputs": [
        {
          "internalType": "address",
          "name": "",
          "type": "address"
        },
        {
          "internalType": "address",
          "name": "",
          "type": "address"
        },
        {
          "internalType": "uint256[]",
          "name": "",
          "type": "uint256[]"
        },
        {
          "internalType": "uint256[]",
          "name": "",
          "type": "uint256[]"
        },
        {
          "internalType": "bytes",
          "name": "",
          "type": "bytes"
        }
      ],
      "name": "onERC1155BatchReceived",
      "outputs": [
        {
          "internalType": "bytes4",
          "name": "",
          "type": "bytes4"
        }
      ],
      "stateMutability": "nonpayable",
      "type": "function"
    },
    {
      "inputs": [
        {
          "internalType": "address",
          "name": "",
          "type": "address"
        },
        {
          "internalType": "address",
          "name": "",
          "type": "address"
        },
        {
          "internalType": "uint256",
          "name": "",
          "type": "uint256"
        },
        {
          "internalType": "uint256",
          "name": "",
          "type": "uint256"
        },
        {
          "internalType": "bytes",
          "name": "",
          "type": "bytes"
        }
      ],
      "name": "onERC1155Received",
      "outputs": [
        {
          "internalType": "bytes4",
          "name": "",
          "type": "bytes4"
        }
      ],
      "stateMutability": "nonpayable",
      "type": "function"
    },
    {
      "inputs": [
        {
          "internalType": "address",
          "name": "contractAddress",
          "type": "address"
        }
      ],
      "name": "setBurnable",
      "outputs": [],
      "stateMutability": "nonpayable",
      "type": "function"
    },
    {
      "inputs": [
        {
          "internalType": "bytes32",
          "name": "resourceID",
          "type": "bytes32"
        },
        {
          "internalType": "address",
          "name": "contractAddress",
          "type": "address"
        }
      ],
      "name": "setResource",
      "outputs": [],
      "stateMutability": "nonpayable",
      "type": "function"
    },
    {
      "inputs": [
        {
          "internalType": "bytes4",
          "name": "interfaceId",
          "type": "bytes4"
        }
      ],
      "name": "supportsInterface",
      "outputs": [
        {
          "internalType": "bool",
          "name": "",
          "type": "bool"
        }
      ],
      "stateMutability": "view",
      "type": "function"
    },
    {
      "inputs": [
        {
          "internalType": "bytes",
          "name": "data",
          "type": "bytes"
        }
      ],
      "name": "withdraw",
      "outputs": [],
      "stateMutability": "nonpayable",
      "type": "function"
    }
  ],
  "bytecode": "0x60a06040523480156200001157600080fd5b5060405162001d6e38038062001d6e8339818101604052810190620000379190620000de565b808073ffffffffffffffffffffffffffffffffffffffff1660808173ffffffffffffffffffffffffffffffffffffffff1681525050505062000110565b600080fd5b600073ffffffffffffffffffffffffffffffffffffffff82169050919050565b6000620000a68262000079565b9050919050565b620000b88162000099565b8114620000c457600080fd5b50565b600081519050620000d881620000ad565b92915050565b600060208284031215620000f757620000f662000074565b5b60006200010784828501620000c7565b91505092915050565b608051611c3b62000133600039600081816103f301526107ed0152611c3b6000f3fe608060405234801561001057600080fd5b50600436106100cf5760003560e01c80637f79bea81161008c578063bc197c8111610066578063bc197c8114610236578063c8ba6c8714610266578063e248cff214610296578063f23a6e61146102b2576100cf565b80637f79bea8146101ba578063b07e54bb146101ea578063b8fa37361461021a576100cf565b806301ffc9a7146100d457806307b7ed99146101045780630968f264146101205780630a6d55d81461013c578063318c136e1461016c5780636a70d0811461018a575b600080fd5b6100ee60048036038101906100e99190610cba565b6102e2565b6040516100fb9190610d02565b60405180910390f35b61011e60048036038101906101199190610d7b565b61035c565b005b61013a60048036038101906101359190610eee565b610370565b005b61015660048036038101906101519190610f6d565b6103be565b6040516101639190610fa9565b60405180910390f35b6101746103f1565b6040516101819190610fa9565b60405180910390f35b6101a4600480360381019061019f9190610d7b565b610415565b6040516101b19190610d02565b60405180910390f35b6101d460048036038101906101cf9190610d7b565b610435565b6040516101e19190610d02565b60405180910390f35b61020460048036038101906101ff9190611024565b610455565b6040516102119190611120565b60405180910390f35b610234600480360381019061022f9190611142565b6105ac565b005b610250600480360381019061024b919061127b565b6105c2565b60405161025d9190611359565b60405180910390f35b610280600480360381019061027b9190610d7b565b6105d7565b60405161028d9190611383565b60405180910390f35b6102b060048036038101906102ab919061139e565b6105ef565b005b6102cc60048036038101906102c791906113fe565b61076c565b6040516102d99190611359565b60405180910390f35b60007f4e2312e0000000000000000000000000000000000000000000000000000000007bffffffffffffffffffffffffffffffffffffffffffffffffffffffff1916827bffffffffffffffffffffffffffffffffffffffffffffffffffffffff19161480610355575061035482610781565b5b9050919050565b6103646107eb565b61036d8161087b565b50565b6103786107eb565b60008060608060608580602001905181019061039491906115ef565b80955081965082975083985084995050505050506103b6853086868686610962565b505050505050565b60006020528060005260406000206000915054906101000a900473ffffffffffffffffffffffffffffffffffffffff1681565b7f000000000000000000000000000000000000000000000000000000000000000081565b60036020528060005260406000206000915054906101000a900460ff1681565b60026020528060005260406000206000915054906101000a900460ff1681565b606061045f6107eb565b606080848481019061047191906116be565b8092508193505050600080600089815260200190815260200160002060009054906101000a900473ffffffffffffffffffffffffffffffffffffffff169050600073ffffffffffffffffffffffffffffffffffffffff168173ffffffffffffffffffffffffffffffffffffffff161415610520576040517f08c379a0000000000000000000000000000000000000000000000000000000008152600401610517906117b9565b60405180910390fd5b600360008273ffffffffffffffffffffffffffffffffffffffff1673ffffffffffffffffffffffffffffffffffffffff16815260200190815260200160002060009054906101000a900460ff16156105835761057e818885856109e3565b6105a1565b6105a0818830868660405180602001604052806000815250610a5e565b5b505050949350505050565b6105b46107eb565b6105be8282610adf565b5050565b600063bc197c8160e01b905095945050505050565b60016020528060005260406000206000915090505481565b6105f76107eb565b606080606080858581019061060c91906117d9565b8094508195508296508397505050505060006020830151905060008060008a815260200190815260200160002060009054906101000a900473ffffffffffffffffffffffffffffffffffffffff169050600260008273ffffffffffffffffffffffffffffffffffffffff1673ffffffffffffffffffffffffffffffffffffffff16815260200190815260200160002060009054906101000a900460ff166106e8576040517f08c379a00000000000000000000000000000000000000000000000000000000081526004016106df90611922565b60405180910390fd5b600360008273ffffffffffffffffffffffffffffffffffffffff1673ffffffffffffffffffffffffffffffffffffffff16815260200190815260200160002060009054906101000a900460ff161561074f5761074a818360601c888887610bd0565b610761565b61076081308460601c898988610962565b5b505050505050505050565b600063f23a6e6160e01b905095945050505050565b60007f01ffc9a7000000000000000000000000000000000000000000000000000000007bffffffffffffffffffffffffffffffffffffffffffffffffffffffff1916827bffffffffffffffffffffffffffffffffffffffffffffffffffffffff1916149050919050565b7f000000000000000000000000000000000000000000000000000000000000000073ffffffffffffffffffffffffffffffffffffffff163373ffffffffffffffffffffffffffffffffffffffff1614610879576040517f08c379a00000000000000000000000000000000000000000000000000000000081526004016108709061198e565b60405180910390fd5b565b600260008273ffffffffffffffffffffffffffffffffffffffff1673ffffffffffffffffffffffffffffffffffffffff16815260200190815260200160002060009054906101000a900460ff16610907576040517f08c379a00000000000000000000000000000000000000000000000000000000081526004016108fe90611a20565b60405180910390fd5b6001600360008373ffffffffffffffffffffffffffffffffffffffff1673ffffffffffffffffffffffffffffffffffffffff16815260200190815260200160002060006101000a81548160ff02191690831515021790555050565b60008690508073ffffffffffffffffffffffffffffffffffffffff16632eb2c2d687878787876040518663ffffffff1660e01b81526004016109a8959493929190611afe565b600060405180830381600087803b1580156109c257600080fd5b505af11580156109d6573d6000803e3d6000fd5b5050505050505050505050565b60008490508073ffffffffffffffffffffffffffffffffffffffff16636b20c4548585856040518463ffffffff1660e01b8152600401610a2593929190611b66565b600060405180830381600087803b158015610a3f57600080fd5b505af1158015610a53573d6000803e3d6000fd5b505050505050505050565b60008690508073ffffffffffffffffffffffffffffffffffffffff16632eb2c2d687878787876040518663ffffffff1660e01b8152600401610aa4959493929190611afe565b600060405180830381600087803b158015610abe57600080fd5b505af1158015610ad2573d6000803e3d6000fd5b5050505050505050505050565b8060008084815260200190815260200160002060006101000a81548173ffffffffffffffffffffffffffffffffffffffff021916908373ffffffffffffffffffffffffffffffffffffffff16021790555081600160008373ffffffffffffffffffffffffffffffffffffffff1673ffffffffffffffffffffffffffffffffffffffff168152602001908152602001600020819055506001600260008373ffffffffffffffffffffffffffffffffffffffff1673ffffffffffffffffffffffffffffffffffffffff16815260200190815260200160002060006101000a81548160ff0219169083151502179055505050565b60008590508073ffffffffffffffffffffffffffffffffffffffff16631f7fdffa868686866040518563ffffffff1660e01b8152600401610c149493929190611bab565b600060405180830381600087803b158015610c2e57600080fd5b505af1158015610c42573d6000803e3d6000fd5b50505050505050505050565b6000604051905090565b600080fd5b600080fd5b60007fffffffff0000000000000000000000000000000000000000000000000000000082169050919050565b610c9781610c62565b8114610ca257600080fd5b50565b600081359050610cb481610c8e565b92915050565b600060208284031215610cd057610ccf610c58565b5b6000610cde84828501610ca5565b91505092915050565b60008115159050919050565b610cfc81610ce7565b82525050565b6000602082019050610d176000830184610cf3565b92915050565b600073ffffffffffffffffffffffffffffffffffffffff82169050919050565b6000610d4882610d1d565b9050919050565b610d5881610d3d565b8114610d6357600080fd5b50565b600081359050610d7581610d4f565b92915050565b600060208284031215610d9157610d90610c58565b5b6000610d9f84828501610d66565b91505092915050565b600080fd5b600080fd5b6000601f19601f8301169050919050565b7f4e487b7100000000000000000000000000000000000000000000000000000000600052604160045260246000fd5b610dfb82610db2565b810181811067ffffffffffffffff82111715610e1a57610e19610dc3565b5b80604052505050565b6000610e2d610c4e565b9050610e398282610df2565b919050565b600067ffffffffffffffff821115610e5957610e58610dc3565b5b610e6282610db2565b9050602081019050919050565b82818337600083830152505050565b6000610e91610e8c84610e3e565b610e23565b905082815260208101848484011115610ead57610eac610dad565b5b610eb8848285610e6f565b509392505050565b600082601f830112610ed557610ed4610da8565b5b8135610ee5848260208601610e7e565b91505092915050565b600060208284031215610f0457610f03610c58565b5b600082013567ffffffffffffffff811115610f2257610f21610c5d565b5b610f2e84828501610ec0565b91505092915050565b6000819050919050565b610f4a81610f37565b8114610f5557600080fd5b50565b600081359050610f6781610f41565b92915050565b600060208284031215610f8357610f82610c58565b5b6000610f9184828501610f58565b91505092915050565b610fa381610d3d565b82525050565b6000602082019050610fbe6000830184610f9a565b92915050565b600080fd5b600080fd5b60008083601f840112610fe457610fe3610da8565b5b8235905067ffffffffffffffff81111561100157611000610fc4565b5b60208301915083600182028301111561101d5761101c610fc9565b5b9250929050565b6000806000806060858703121561103e5761103d610c58565b5b600061104c87828801610f58565b945050602061105d87828801610d66565b935050604085013567ffffffffffffffff81111561107e5761107d610c5d565b5b61108a87828801610fce565b925092505092959194509250565b600081519050919050565b600082825260208201905092915050565b60005b838110156110d25780820151818401526020810190506110b7565b838111156110e1576000848401525b50505050565b60006110f282611098565b6110fc81856110a3565b935061110c8185602086016110b4565b61111581610db2565b840191505092915050565b6000602082019050818103600083015261113a81846110e7565b905092915050565b6000806040838503121561115957611158610c58565b5b600061116785828601610f58565b925050602061117885828601610d66565b9150509250929050565b600067ffffffffffffffff82111561119d5761119c610dc3565b5b602082029050602081019050919050565b6000819050919050565b6111c1816111ae565b81146111cc57600080fd5b50565b6000813590506111de816111b8565b92915050565b60006111f76111f284611182565b610e23565b9050808382526020820190506020840283018581111561121a57611219610fc9565b5b835b81811015611243578061122f88826111cf565b84526020840193505060208101905061121c565b5050509392505050565b600082601f83011261126257611261610da8565b5b81356112728482602086016111e4565b91505092915050565b600080600080600060a0868803121561129757611296610c58565b5b60006112a588828901610d66565b95505060206112b688828901610d66565b945050604086013567ffffffffffffffff8111156112d7576112d6610c5d565b5b6112e38882890161124d565b935050606086013567ffffffffffffffff81111561130457611303610c5d565b5b6113108882890161124d565b925050608086013567ffffffffffffffff81111561133157611330610c5d565b5b61133d88828901610ec0565b9150509295509295909350565b61135381610c62565b82525050565b600060208201905061136e600083018461134a565b92915050565b61137d81610f37565b82525050565b60006020820190506113986000830184611374565b92915050565b6000806000604084860312156113b7576113b6610c58565b5b60006113c586828701610f58565b935050602084013567ffffffffffffffff8111156113e6576113e5610c5d565b5b6113f286828701610fce565b92509250509250925092565b600080600080600060a0868803121561141a57611419610c58565b5b600061142888828901610d66565b955050602061143988828901610d66565b945050604061144a888289016111cf565b935050606061145b888289016111cf565b925050608086013567ffffffffffffffff81111561147c5761147b610c5d565b5b61148888828901610ec0565b9150509295509295909350565b60006114a082610d1d565b9050919050565b6114b081611495565b81146114bb57600080fd5b50565b6000815190506114cd816114a7565b92915050565b6000815190506114e2816111b8565b92915050565b60006114fb6114f684611182565b610e23565b9050808382526020820190506020840283018581111561151e5761151d610fc9565b5b835b81811015611547578061153388826114d3565b845260208401935050602081019050611520565b5050509392505050565b600082601f83011261156657611565610da8565b5b81516115768482602086016114e8565b91505092915050565b600061159261158d84610e3e565b610e23565b9050828152602081018484840111156115ae576115ad610dad565b5b6115b98482856110b4565b509392505050565b600082601f8301126115d6576115d5610da8565b5b81516115e684826020860161157f565b91505092915050565b600080600080600060a0868803121561160b5761160a610c58565b5b6000611619888289016114be565b955050602061162a888289016114be565b945050604086015167ffffffffffffffff81111561164b5761164a610c5d565b5b61165788828901611551565b935050606086015167ffffffffffffffff81111561167857611677610c5d565b5b61168488828901611551565b925050608086015167ffffffffffffffff8111156116a5576116a4610c5d565b5b6116b1888289016115c1565b9150509295509295909350565b600080604083850312156116d5576116d4610c58565b5b600083013567ffffffffffffffff8111156116f3576116f2610c5d565b5b6116ff8582860161124d565b925050602083013567ffffffffffffffff8111156117205761171f610c5d565b5b61172c8582860161124d565b9150509250929050565b600082825260208201905092915050565b7f70726f7669646564207265736f75726365494420646f6573206e6f742065786960008201527f7374000000000000000000000000000000000000000000000000000000000000602082015250565b60006117a3602283611736565b91506117ae82611747565b604082019050919050565b600060208201905081810360008301526117d281611796565b9050919050565b600080600080608085870312156117f3576117f2610c58565b5b600085013567ffffffffffffffff81111561181157611810610c5d565b5b61181d8782880161124d565b945050602085013567ffffffffffffffff81111561183e5761183d610c5d565b5b61184a8782880161124d565b935050604085013567ffffffffffffffff81111561186b5761186a610c5d565b5b61187787828801610ec0565b925050606085013567ffffffffffffffff81111561189857611897610c5d565b5b6118a487828801610ec0565b91505092959194509250565b7f70726f766964656420746f6b656e41646472657373206973206e6f742077686960008201527f74656c6973746564000000000000000000000000000000000000000000000000602082015250565b600061190c602883611736565b9150611917826118b0565b604082019050919050565b6000602082019050818103600083015261193b816118ff565b9050919050565b7f73656e646572206d7573742062652062726964676520636f6e74726163740000600082015250565b6000611978601e83611736565b915061198382611942565b602082019050919050565b600060208201905081810360008301526119a78161196b565b9050919050565b7f70726f766964656420636f6e7472616374206973206e6f742077686974656c6960008201527f7374656400000000000000000000000000000000000000000000000000000000602082015250565b6000611a0a602483611736565b9150611a15826119ae565b604082019050919050565b60006020820190508181036000830152611a39816119fd565b9050919050565b600081519050919050565b600082825260208201905092915050565b6000819050602082019050919050565b611a75816111ae565b82525050565b6000611a878383611a6c565b60208301905092915050565b6000602082019050919050565b6000611aab82611a40565b611ab58185611a4b565b9350611ac083611a5c565b8060005b83811015611af1578151611ad88882611a7b565b9750611ae383611a93565b925050600181019050611ac4565b5085935050505092915050565b600060a082019050611b136000830188610f9a565b611b206020830187610f9a565b8181036040830152611b328186611aa0565b90508181036060830152611b468185611aa0565b90508181036080830152611b5a81846110e7565b90509695505050505050565b6000606082019050611b7b6000830186610f9a565b8181036020830152611b8d8185611aa0565b90508181036040830152611ba18184611aa0565b9050949350505050565b6000608082019050611bc06000830187610f9a565b8181036020830152611bd28186611aa0565b90508181036040830152611be68185611aa0565b90508181036060830152611bfa81846110e7565b90509594505050505056fea264697066735822122052169431e52691452d0e5fbe9fc86cc3d709475ec7ec4858bb1f100afad8299464736f6c634300080b0033",
  "linkReferences": {},
  "deployedLinkReferences": {}
}